{
	"Deal.sol": {
		"Deal": {
			"abi": [
				{
					"inputs": [
						{
							"internalType": "address",
							"name": "_buyerAddr",
							"type": "address"
						}
					],
					"stateMutability": "payable",
					"type": "constructor"
				},
				{
					"anonymous": false,
					"inputs": [
						{
							"indexed": false,
							"internalType": "uint256",
							"name": "orderno",
							"type": "uint256"
						},
						{
							"indexed": false,
							"internalType": "uint256",
							"name": "time",
							"type": "uint256"
						}
					],
					"name": "CountdownEnded",
					"type": "event"
				},
				{
					"anonymous": false,
					"inputs": [
						{
							"indexed": false,
							"internalType": "uint256",
							"name": "orderno",
							"type": "uint256"
						},
						{
							"indexed": false,
							"internalType": "uint256",
							"name": "start",
							"type": "uint256"
						},
						{
							"indexed": false,
							"internalType": "uint256",
							"name": "end",
							"type": "uint256"
						}
					],
					"name": "CountdownStarted",
					"type": "event"
				},
				{
					"anonymous": false,
					"inputs": [
						{
							"indexed": false,
							"internalType": "address",
							"name": "buyer",
							"type": "address"
						},
						{
							"indexed": false,
							"internalType": "string",
							"name": "game",
							"type": "string"
						},
						{
							"indexed": false,
							"internalType": "uint256",
							"name": "orderno",
							"type": "uint256"
						}
					],
					"name": "OrderSent",
					"type": "event"
				},
				{
					"anonymous": false,
					"inputs": [
						{
							"indexed": false,
							"internalType": "uint256",
							"name": "orderno",
							"type": "uint256"
						},
						{
							"indexed": false,
							"internalType": "uint256",
							"name": "time",
							"type": "uint256"
						}
					],
					"name": "OrderSuccessful",
					"type": "event"
				},
				{
					"anonymous": false,
					"inputs": [
						{
							"indexed": false,
							"internalType": "address",
							"name": "buyer",
							"type": "address"
						},
						{
							"indexed": false,
							"internalType": "uint256",
							"name": "orderno",
							"type": "uint256"
						},
						{
							"indexed": false,
							"internalType": "uint256",
							"name": "price",
							"type": "uint256"
						},
						{
							"indexed": false,
							"internalType": "uint256",
							"name": "time",
							"type": "uint256"
						}
					],
					"name": "PaymentReceived",
					"type": "event"
				},
				{
					"anonymous": false,
					"inputs": [
						{
							"indexed": false,
							"internalType": "uint256",
							"name": "orderno",
							"type": "uint256"
						},
						{
							"indexed": false,
							"internalType": "address",
							"name": "creator",
							"type": "address"
						},
						{
							"indexed": false,
							"internalType": "uint256",
							"name": "amount",
							"type": "uint256"
						},
						{
							"indexed": false,
							"internalType": "uint256",
							"name": "time",
							"type": "uint256"
						}
					],
					"name": "PayoutSuccessful",
					"type": "event"
				},
				{
					"anonymous": false,
					"inputs": [
						{
							"indexed": false,
							"internalType": "uint256",
							"name": "orderno",
							"type": "uint256"
						},
						{
							"indexed": false,
							"internalType": "address",
							"name": "buyer",
							"type": "address"
						},
						{
							"indexed": false,
							"internalType": "uint256",
							"name": "time",
							"type": "uint256"
						}
					],
					"name": "RefundSuccessful",
					"type": "event"
				},
				{
					"inputs": [
						{
							"internalType": "uint256",
							"name": "orderno",
							"type": "uint256"
						}
					],
					"name": "Payout",
					"outputs": [],
					"stateMutability": "payable",
					"type": "function"
				},
				{
					"inputs": [
						{
							"internalType": "uint256",
							"name": "orderno",
							"type": "uint256"
						}
					],
					"name": "ReturnProduct",
					"outputs": [],
					"stateMutability": "payable",
					"type": "function"
				},
				{
					"inputs": [
						{
							"internalType": "uint256",
							"name": "orderno",
							"type": "uint256"
						}
					],
					"name": "SendPayment",
					"outputs": [],
					"stateMutability": "payable",
					"type": "function"
				},
				{
					"inputs": [],
					"name": "buyer",
					"outputs": [
						{
							"internalType": "address",
							"name": "",
							"type": "address"
						}
					],
					"stateMutability": "view",
					"type": "function"
				},
				{
					"inputs": [],
					"name": "creator",
					"outputs": [
						{
							"internalType": "address",
							"name": "",
							"type": "address"
						}
					],
					"stateMutability": "view",
					"type": "function"
				},
				{
					"inputs": [
						{
							"internalType": "string",
							"name": "game",
							"type": "string"
						}
					],
					"name": "sendOrder",
					"outputs": [],
					"stateMutability": "payable",
					"type": "function"
				}
			],
			"devdoc": {
				"kind": "dev",
				"methods": {},
				"version": 1
			},
			"evm": {
				"assembly": "    /* \"Deal.sol\":28:2958  contract Deal {... */\n  mstore(0x40, 0x80)\n    /* \"Deal.sol\":110:112  30 */\n  0x1e\n    /* \"Deal.sol\":97:112  uint timer = 30 */\n  0x02\n  sstore\n    /* \"Deal.sol\":732:883  constructor (address _buyerAddr) payable {... */\n  mload(0x40)\n  sub(codesize, bytecodeSize)\n  dup1\n  bytecodeSize\n  dup4\n  codecopy\n  dup2\n  dup2\n  add\n  0x40\n  mstore\n  dup2\n  add\n  swap1\n  tag_1\n  swap2\n  swap1\n  tag_2\n  jump\t// in\ntag_1:\n    /* \"Deal.sol\":840:850  msg.sender */\n  caller\n    /* \"Deal.sol\":830:837  creator */\n  0x00\n  0x00\n    /* \"Deal.sol\":830:850  creator = msg.sender */\n  0x0100\n  exp\n  dup2\n  sload\n  dup2\n  0xffffffffffffffffffffffffffffffffffffffff\n  mul\n  not\n  and\n  swap1\n  dup4\n  0xffffffffffffffffffffffffffffffffffffffff\n  and\n  mul\n  or\n  swap1\n  sstore\n  pop\n    /* \"Deal.sol\":867:877  _buyerAddr */\n  dup1\n    /* \"Deal.sol\":859:864  buyer */\n  0x01\n  0x00\n    /* \"Deal.sol\":859:877  buyer = _buyerAddr */\n  0x0100\n  exp\n  dup2\n  sload\n  dup2\n  0xffffffffffffffffffffffffffffffffffffffff\n  mul\n  not\n  and\n  swap1\n  dup4\n  0xffffffffffffffffffffffffffffffffffffffff\n  and\n  mul\n  or\n  swap1\n  sstore\n  pop\n    /* \"Deal.sol\":732:883  constructor (address _buyerAddr) payable {... */\n  pop\n    /* \"Deal.sol\":28:2958  contract Deal {... */\n  jump(tag_5)\n    /* \"#utility.yul\":88:205   */\ntag_7:\n    /* \"#utility.yul\":197:198   */\n  0x00\n    /* \"#utility.yul\":194:195   */\n  0x00\n    /* \"#utility.yul\":187:199   */\n  revert\n    /* \"#utility.yul\":334:460   */\ntag_9:\n    /* \"#utility.yul\":371:378   */\n  0x00\n    /* \"#utility.yul\":411:453   */\n  0xffffffffffffffffffffffffffffffffffffffff\n    /* \"#utility.yul\":404:409   */\n  dup3\n    /* \"#utility.yul\":400:454   */\n  and\n    /* \"#utility.yul\":389:454   */\n  swap1\n  pop\n    /* \"#utility.yul\":334:460   */\n  swap2\n  swap1\n  pop\n  jump\t// out\n    /* \"#utility.yul\":466:562   */\ntag_10:\n    /* \"#utility.yul\":503:510   */\n  0x00\n    /* \"#utility.yul\":532:556   */\n  tag_19\n    /* \"#utility.yul\":550:555   */\n  dup3\n    /* \"#utility.yul\":532:556   */\n  tag_9\n  jump\t// in\ntag_19:\n    /* \"#utility.yul\":521:556   */\n  swap1\n  pop\n    /* \"#utility.yul\":466:562   */\n  swap2\n  swap1\n  pop\n  jump\t// out\n    /* \"#utility.yul\":568:690   */\ntag_11:\n    /* \"#utility.yul\":641:665   */\n  tag_21\n    /* \"#utility.yul\":659:664   */\n  dup2\n    /* \"#utility.yul\":641:665   */\n  tag_10\n  jump\t// in\ntag_21:\n    /* \"#utility.yul\":634:639   */\n  dup2\n    /* \"#utility.yul\":631:666   */\n  eq\n    /* \"#utility.yul\":621:684   */\n  tag_22\n  jumpi\n    /* \"#utility.yul\":680:681   */\n  0x00\n    /* \"#utility.yul\":677:678   */\n  0x00\n    /* \"#utility.yul\":670:682   */\n  revert\n    /* \"#utility.yul\":621:684   */\ntag_22:\n    /* \"#utility.yul\":568:690   */\n  pop\n  jump\t// out\n    /* \"#utility.yul\":696:839   */\ntag_12:\n    /* \"#utility.yul\":753:758   */\n  0x00\n    /* \"#utility.yul\":784:790   */\n  dup2\n    /* \"#utility.yul\":778:791   */\n  mload\n    /* \"#utility.yul\":769:791   */\n  swap1\n  pop\n    /* \"#utility.yul\":800:833   */\n  tag_24\n    /* \"#utility.yul\":827:832   */\n  dup2\n    /* \"#utility.yul\":800:833   */\n  tag_11\n  jump\t// in\ntag_24:\n    /* \"#utility.yul\":696:839   */\n  swap3\n  swap2\n  pop\n  pop\n  jump\t// out\n    /* \"#utility.yul\":845:1196   */\ntag_2:\n    /* \"#utility.yul\":915:921   */\n  0x00\n    /* \"#utility.yul\":964:966   */\n  0x20\n    /* \"#utility.yul\":952:961   */\n  dup3\n    /* \"#utility.yul\":943:950   */\n  dup5\n    /* \"#utility.yul\":939:962   */\n  sub\n    /* \"#utility.yul\":935:967   */\n  slt\n    /* \"#utility.yul\":932:1051   */\n  iszero\n  tag_26\n  jumpi\n    /* \"#utility.yul\":970:1049   */\n  tag_27\n  tag_7\n  jump\t// in\ntag_27:\n    /* \"#utility.yul\":932:1051   */\ntag_26:\n    /* \"#utility.yul\":1090:1091   */\n  0x00\n    /* \"#utility.yul\":1115:1179   */\n  tag_28\n    /* \"#utility.yul\":1171:1178   */\n  dup5\n    /* \"#utility.yul\":1162:1168   */\n  dup3\n    /* \"#utility.yul\":1151:1160   */\n  dup6\n    /* \"#utility.yul\":1147:1169   */\n  add\n    /* \"#utility.yul\":1115:1179   */\n  tag_12\n  jump\t// in\ntag_28:\n    /* \"#utility.yul\":1105:1179   */\n  swap2\n  pop\n    /* \"#utility.yul\":1061:1189   */\n  pop\n    /* \"#utility.yul\":845:1196   */\n  swap3\n  swap2\n  pop\n  pop\n  jump\t// out\n    /* \"Deal.sol\":28:2958  contract Deal {... */\ntag_5:\n  dataSize(sub_0)\n  dup1\n  dataOffset(sub_0)\n  0x00\n  codecopy\n  0x00\n  return\nstop\n\nsub_0: assembly {\n        /* \"Deal.sol\":28:2958  contract Deal {... */\n      mstore(0x40, 0x80)\n      jumpi(tag_1, lt(calldatasize, 0x04))\n      shr(0xe0, calldataload(0x00))\n      dup1\n      0x02d05d3f\n      eq\n      tag_2\n      jumpi\n      dup1\n      0x03c17a38\n      eq\n      tag_3\n      jumpi\n      dup1\n      0x22427047\n      eq\n      tag_4\n      jumpi\n      dup1\n      0x25fcba48\n      eq\n      tag_5\n      jumpi\n      dup1\n      0x7150d8ae\n      eq\n      tag_6\n      jumpi\n      dup1\n      0x95787d26\n      eq\n      tag_7\n      jumpi\n    tag_1:\n      revert(0x00, 0x00)\n        /* \"Deal.sol\":47:69  address public creator */\n    tag_2:\n      callvalue\n      dup1\n      iszero\n      tag_8\n      jumpi\n      revert(0x00, 0x00)\n    tag_8:\n      pop\n      tag_9\n      tag_10\n      jump\t// in\n    tag_9:\n      mload(0x40)\n      tag_11\n      swap2\n      swap1\n      tag_12\n      jump\t// in\n    tag_11:\n      mload(0x40)\n      dup1\n      swap2\n      sub\n      swap1\n      return\n        /* \"Deal.sol\":1785:2308  function ReturnProduct(uint orderno) payable public {... */\n    tag_3:\n      tag_13\n      0x04\n      dup1\n      calldatasize\n      sub\n      dup2\n      add\n      swap1\n      tag_14\n      swap2\n      swap1\n      tag_15\n      jump\t// in\n    tag_14:\n      tag_16\n      jump\t// in\n    tag_13:\n      stop\n        /* \"Deal.sol\":2314:2955  function Payout(uint orderno) payable public {... */\n    tag_4:\n      tag_17\n      0x04\n      dup1\n      calldatasize\n      sub\n      dup2\n      add\n      swap1\n      tag_18\n      swap2\n      swap1\n      tag_15\n      jump\t// in\n    tag_18:\n      tag_19\n      jump\t// in\n    tag_17:\n      stop\n        /* \"Deal.sol\":887:1296  function sendOrder(string calldata game) payable external  {... */\n    tag_5:\n      tag_20\n      0x04\n      dup1\n      calldatasize\n      sub\n      dup2\n      add\n      swap1\n      tag_21\n      swap2\n      swap1\n      tag_22\n      jump\t// in\n    tag_21:\n      tag_23\n      jump\t// in\n    tag_20:\n      stop\n        /* \"Deal.sol\":72:92  address public buyer */\n    tag_6:\n      callvalue\n      dup1\n      iszero\n      tag_24\n      jumpi\n      revert(0x00, 0x00)\n    tag_24:\n      pop\n      tag_25\n      tag_26\n      jump\t// in\n    tag_25:\n      mload(0x40)\n      tag_27\n      swap2\n      swap1\n      tag_12\n      jump\t// in\n    tag_27:\n      mload(0x40)\n      dup1\n      swap2\n      sub\n      swap1\n      return\n        /* \"Deal.sol\":1302:1779  function SendPayment(uint orderno) payable public {... */\n    tag_7:\n      tag_28\n      0x04\n      dup1\n      calldatasize\n      sub\n      dup2\n      add\n      swap1\n      tag_29\n      swap2\n      swap1\n      tag_15\n      jump\t// in\n    tag_29:\n      tag_30\n      jump\t// in\n    tag_28:\n      stop\n        /* \"Deal.sol\":47:69  address public creator */\n    tag_10:\n      0x00\n      0x00\n      swap1\n      sload\n      swap1\n      0x0100\n      exp\n      swap1\n      div\n      0xffffffffffffffffffffffffffffffffffffffff\n      and\n      dup2\n      jump\t// out\n        /* \"Deal.sol\":1785:2308  function ReturnProduct(uint orderno) payable public {... */\n    tag_16:\n        /* \"Deal.sol\":1868:1873  buyer */\n      0x01\n      0x00\n      swap1\n      sload\n      swap1\n      0x0100\n      exp\n      swap1\n      div\n      0xffffffffffffffffffffffffffffffffffffffff\n      and\n        /* \"Deal.sol\":1854:1873  msg.sender == buyer */\n      0xffffffffffffffffffffffffffffffffffffffff\n      and\n        /* \"Deal.sol\":1854:1864  msg.sender */\n      caller\n        /* \"Deal.sol\":1854:1873  msg.sender == buyer */\n      0xffffffffffffffffffffffffffffffffffffffff\n      and\n      eq\n        /* \"Deal.sol\":1846:1899  require(msg.sender == buyer, \"Only buyer can refund\") */\n      tag_32\n      jumpi\n      mload(0x40)\n      0x08c379a000000000000000000000000000000000000000000000000000000000\n      dup2\n      mstore\n      0x04\n      add\n      tag_33\n      swap1\n      tag_34\n      jump\t// in\n    tag_33:\n      mload(0x40)\n      dup1\n      swap2\n      sub\n      swap1\n      revert\n    tag_32:\n        /* \"Deal.sol\":1914:1920  orders */\n      0x03\n        /* \"Deal.sol\":1914:1929  orders[orderno] */\n      0x00\n        /* \"Deal.sol\":1921:1928  orderno */\n      dup3\n        /* \"Deal.sol\":1914:1929  orders[orderno] */\n      dup2\n      mstore\n      0x20\n      add\n      swap1\n      dup2\n      mstore\n      0x20\n      add\n      0x00\n      keccak256\n        /* \"Deal.sol\":1914:1934  orders[orderno].paid */\n      0x03\n      add\n      0x00\n      swap1\n      sload\n      swap1\n      0x0100\n      exp\n      swap1\n      div\n      0xff\n      and\n        /* \"Deal.sol\":1906:1953  require(orders[orderno].paid, \"Order not paid\") */\n      tag_35\n      jumpi\n      mload(0x40)\n      0x08c379a000000000000000000000000000000000000000000000000000000000\n      dup2\n      mstore\n      0x04\n      add\n      tag_36\n      swap1\n      tag_37\n      jump\t// in\n    tag_36:\n      mload(0x40)\n      dup1\n      swap2\n      sub\n      swap1\n      revert\n    tag_35:\n        /* \"Deal.sol\":2002:2017  block.timestamp */\n      timestamp\n        /* \"Deal.sol\":1968:1974  orders */\n      0x03\n        /* \"Deal.sol\":1968:1983  orders[orderno] */\n      0x00\n        /* \"Deal.sol\":1975:1982  orderno */\n      dup4\n        /* \"Deal.sol\":1968:1983  orders[orderno] */\n      dup2\n      mstore\n      0x20\n      add\n      swap1\n      dup2\n      mstore\n      0x20\n      add\n      0x00\n      keccak256\n        /* \"Deal.sol\":1968:1998  orders[orderno].refundDeadline */\n      0x04\n      add\n      sload\n        /* \"Deal.sol\":1968:2017  orders[orderno].refundDeadline >= block.timestamp */\n      lt\n      iszero\n        /* \"Deal.sol\":1960:2054  require(orders[orderno].refundDeadline >= block.timestamp, \"Cannot refund after the deadline\") */\n      tag_38\n      jumpi\n      mload(0x40)\n      0x08c379a000000000000000000000000000000000000000000000000000000000\n      dup2\n      mstore\n      0x04\n      add\n      tag_39\n      swap1\n      tag_40\n      jump\t// in\n    tag_39:\n      mload(0x40)\n      dup1\n      swap2\n      sub\n      swap1\n      revert\n    tag_38:\n        /* \"Deal.sol\":2063:2074  uint amount */\n      0x00\n        /* \"Deal.sol\":2077:2083  orders */\n      0x03\n        /* \"Deal.sol\":2077:2092  orders[orderno] */\n      0x00\n        /* \"Deal.sol\":2084:2091  orderno */\n      dup4\n        /* \"Deal.sol\":2077:2092  orders[orderno] */\n      dup2\n      mstore\n      0x20\n      add\n      swap1\n      dup2\n      mstore\n      0x20\n      add\n      0x00\n      keccak256\n        /* \"Deal.sol\":2077:2098  orders[orderno].price */\n      0x01\n      add\n      sload\n        /* \"Deal.sol\":2063:2098  uint amount = orders[orderno].price */\n      swap1\n      pop\n        /* \"Deal.sol\":2128:2133  false */\n      0x00\n        /* \"Deal.sol\":2105:2111  orders */\n      0x03\n        /* \"Deal.sol\":2105:2120  orders[orderno] */\n      0x00\n        /* \"Deal.sol\":2112:2119  orderno */\n      dup5\n        /* \"Deal.sol\":2105:2120  orders[orderno] */\n      dup2\n      mstore\n      0x20\n      add\n      swap1\n      dup2\n      mstore\n      0x20\n      add\n      0x00\n      keccak256\n        /* \"Deal.sol\":2105:2125  orders[orderno].paid */\n      0x03\n      add\n      0x00\n        /* \"Deal.sol\":2105:2133  orders[orderno].paid = false */\n      0x0100\n      exp\n      dup2\n      sload\n      dup2\n      0xff\n      mul\n      not\n      and\n      swap1\n      dup4\n      iszero\n      iszero\n      mul\n      or\n      swap1\n      sstore\n      pop\n        /* \"Deal.sol\":2143:2155  bool success */\n      0x00\n        /* \"Deal.sol\":2169:2174  buyer */\n      0x01\n      0x00\n      swap1\n      sload\n      swap1\n      0x0100\n      exp\n      swap1\n      div\n      0xffffffffffffffffffffffffffffffffffffffff\n      and\n        /* \"Deal.sol\":2161:2180  payable(buyer).call */\n      0xffffffffffffffffffffffffffffffffffffffff\n      and\n        /* \"Deal.sol\":2188:2194  amount */\n      dup3\n        /* \"Deal.sol\":2161:2199  payable(buyer).call{value: amount}(\"\") */\n      mload(0x40)\n      tag_41\n      swap1\n      tag_42\n      jump\t// in\n    tag_41:\n      0x00\n      mload(0x40)\n      dup1\n      dup4\n      sub\n      dup2\n      dup6\n      dup8\n      gas\n      call\n      swap3\n      pop\n      pop\n      pop\n      returndatasize\n      dup1\n      0x00\n      dup2\n      eq\n      tag_45\n      jumpi\n      mload(0x40)\n      swap2\n      pop\n      and(add(returndatasize, 0x3f), not(0x1f))\n      dup3\n      add\n      0x40\n      mstore\n      returndatasize\n      dup3\n      mstore\n      returndatasize\n      0x00\n      0x20\n      dup5\n      add\n      returndatacopy\n      jump(tag_44)\n    tag_45:\n      0x60\n      swap2\n      pop\n    tag_44:\n      pop\n        /* \"Deal.sol\":2142:2199  (bool success, ) = payable(buyer).call{value: amount}(\"\") */\n      pop\n      swap1\n      pop\n        /* \"Deal.sol\":2214:2221  success */\n      dup1\n        /* \"Deal.sol\":2206:2239  require(success, \"Refund failed\") */\n      tag_46\n      jumpi\n      mload(0x40)\n      0x08c379a000000000000000000000000000000000000000000000000000000000\n      dup2\n      mstore\n      0x04\n      add\n      tag_47\n      swap1\n      tag_48\n      jump\t// in\n    tag_47:\n      mload(0x40)\n      dup1\n      swap2\n      sub\n      swap1\n      revert\n    tag_46:\n        /* \"Deal.sol\":2253:2302  RefundSuccessful(orderno, buyer, block.timestamp) */\n      0x41865e4a290e1b5198a92ed40dbe11cfc8e05a0e9816d9358e68792aaa31d0ef\n        /* \"Deal.sol\":2270:2277  orderno */\n      dup4\n        /* \"Deal.sol\":2279:2284  buyer */\n      0x01\n      0x00\n      swap1\n      sload\n      swap1\n      0x0100\n      exp\n      swap1\n      div\n      0xffffffffffffffffffffffffffffffffffffffff\n      and\n        /* \"Deal.sol\":2286:2301  block.timestamp */\n      timestamp\n        /* \"Deal.sol\":2253:2302  RefundSuccessful(orderno, buyer, block.timestamp) */\n      mload(0x40)\n      tag_49\n      swap4\n      swap3\n      swap2\n      swap1\n      tag_50\n      jump\t// in\n    tag_49:\n      mload(0x40)\n      dup1\n      swap2\n      sub\n      swap1\n      log1\n        /* \"Deal.sol\":1837:2308  {... */\n      pop\n      pop\n        /* \"Deal.sol\":1785:2308  function ReturnProduct(uint orderno) payable public {... */\n      pop\n      jump\t// out\n        /* \"Deal.sol\":2314:2955  function Payout(uint orderno) payable public {... */\n    tag_19:\n        /* \"Deal.sol\":2390:2397  creator */\n      0x00\n      0x00\n      swap1\n      sload\n      swap1\n      0x0100\n      exp\n      swap1\n      div\n      0xffffffffffffffffffffffffffffffffffffffff\n      and\n        /* \"Deal.sol\":2376:2397  msg.sender == creator */\n      0xffffffffffffffffffffffffffffffffffffffff\n      and\n        /* \"Deal.sol\":2376:2386  msg.sender */\n      caller\n        /* \"Deal.sol\":2376:2397  msg.sender == creator */\n      0xffffffffffffffffffffffffffffffffffffffff\n      and\n      eq\n        /* \"Deal.sol\":2368:2433  require(msg.sender == creator, \"Only creator can get the payout\") */\n      tag_52\n      jumpi\n      mload(0x40)\n      0x08c379a000000000000000000000000000000000000000000000000000000000\n      dup2\n      mstore\n      0x04\n      add\n      tag_53\n      swap1\n      tag_54\n      jump\t// in\n    tag_53:\n      mload(0x40)\n      dup1\n      swap2\n      sub\n      swap1\n      revert\n    tag_52:\n        /* \"Deal.sol\":2448:2454  orders */\n      0x03\n        /* \"Deal.sol\":2448:2463  orders[orderno] */\n      0x00\n        /* \"Deal.sol\":2455:2462  orderno */\n      dup3\n        /* \"Deal.sol\":2448:2463  orders[orderno] */\n      dup2\n      mstore\n      0x20\n      add\n      swap1\n      dup2\n      mstore\n      0x20\n      add\n      0x00\n      keccak256\n        /* \"Deal.sol\":2448:2468  orders[orderno].paid */\n      0x03\n      add\n      0x00\n      swap1\n      sload\n      swap1\n      0x0100\n      exp\n      swap1\n      div\n      0xff\n      and\n        /* \"Deal.sol\":2440:2522  require(orders[orderno].paid, \"Order must be paid in order to receive the payout\") */\n      tag_55\n      jumpi\n      mload(0x40)\n      0x08c379a000000000000000000000000000000000000000000000000000000000\n      dup2\n      mstore\n      0x04\n      add\n      tag_56\n      swap1\n      tag_57\n      jump\t// in\n    tag_56:\n      mload(0x40)\n      dup1\n      swap2\n      sub\n      swap1\n      revert\n    tag_55:\n        /* \"Deal.sol\":2571:2586  block.timestamp */\n      timestamp\n        /* \"Deal.sol\":2537:2543  orders */\n      0x03\n        /* \"Deal.sol\":2537:2552  orders[orderno] */\n      0x00\n        /* \"Deal.sol\":2544:2551  orderno */\n      dup4\n        /* \"Deal.sol\":2537:2552  orders[orderno] */\n      dup2\n      mstore\n      0x20\n      add\n      swap1\n      dup2\n      mstore\n      0x20\n      add\n      0x00\n      keccak256\n        /* \"Deal.sol\":2537:2567  orders[orderno].refundDeadline */\n      0x04\n      add\n      sload\n        /* \"Deal.sol\":2537:2586  orders[orderno].refundDeadline <= block.timestamp */\n      gt\n      iszero\n        /* \"Deal.sol\":2529:2636  require(orders[orderno].refundDeadline <= block.timestamp, \"Cannot receive the payout before the deadline\") */\n      tag_58\n      jumpi\n      mload(0x40)\n      0x08c379a000000000000000000000000000000000000000000000000000000000\n      dup2\n      mstore\n      0x04\n      add\n      tag_59\n      swap1\n      tag_60\n      jump\t// in\n    tag_59:\n      mload(0x40)\n      dup1\n      swap2\n      sub\n      swap1\n      revert\n    tag_58:\n        /* \"Deal.sol\":2645:2656  uint amount */\n      0x00\n        /* \"Deal.sol\":2659:2665  orders */\n      0x03\n        /* \"Deal.sol\":2659:2674  orders[orderno] */\n      0x00\n        /* \"Deal.sol\":2666:2673  orderno */\n      dup4\n        /* \"Deal.sol\":2659:2674  orders[orderno] */\n      dup2\n      mstore\n      0x20\n      add\n      swap1\n      dup2\n      mstore\n      0x20\n      add\n      0x00\n      keccak256\n        /* \"Deal.sol\":2659:2680  orders[orderno].price */\n      0x01\n      add\n      sload\n        /* \"Deal.sol\":2645:2680  uint amount = orders[orderno].price */\n      swap1\n      pop\n        /* \"Deal.sol\":2710:2715  false */\n      0x00\n        /* \"Deal.sol\":2687:2693  orders */\n      0x03\n        /* \"Deal.sol\":2687:2702  orders[orderno] */\n      0x00\n        /* \"Deal.sol\":2694:2701  orderno */\n      dup5\n        /* \"Deal.sol\":2687:2702  orders[orderno] */\n      dup2\n      mstore\n      0x20\n      add\n      swap1\n      dup2\n      mstore\n      0x20\n      add\n      0x00\n      keccak256\n        /* \"Deal.sol\":2687:2707  orders[orderno].paid */\n      0x03\n      add\n      0x00\n        /* \"Deal.sol\":2687:2715  orders[orderno].paid = false */\n      0x0100\n      exp\n      dup2\n      sload\n      dup2\n      0xff\n      mul\n      not\n      and\n      swap1\n      dup4\n      iszero\n      iszero\n      mul\n      or\n      swap1\n      sstore\n      pop\n        /* \"Deal.sol\":2725:2737  bool success */\n      0x00\n        /* \"Deal.sol\":2751:2758  creator */\n      0x00\n      0x00\n      swap1\n      sload\n      swap1\n      0x0100\n      exp\n      swap1\n      div\n      0xffffffffffffffffffffffffffffffffffffffff\n      and\n        /* \"Deal.sol\":2743:2764  payable(creator).call */\n      0xffffffffffffffffffffffffffffffffffffffff\n      and\n        /* \"Deal.sol\":2772:2778  amount */\n      dup3\n        /* \"Deal.sol\":2743:2783  payable(creator).call{value: amount}(\"\") */\n      mload(0x40)\n      tag_61\n      swap1\n      tag_42\n      jump\t// in\n    tag_61:\n      0x00\n      mload(0x40)\n      dup1\n      dup4\n      sub\n      dup2\n      dup6\n      dup8\n      gas\n      call\n      swap3\n      pop\n      pop\n      pop\n      returndatasize\n      dup1\n      0x00\n      dup2\n      eq\n      tag_64\n      jumpi\n      mload(0x40)\n      swap2\n      pop\n      and(add(returndatasize, 0x3f), not(0x1f))\n      dup3\n      add\n      0x40\n      mstore\n      returndatasize\n      dup3\n      mstore\n      returndatasize\n      0x00\n      0x20\n      dup5\n      add\n      returndatacopy\n      jump(tag_63)\n    tag_64:\n      0x60\n      swap2\n      pop\n    tag_63:\n      pop\n        /* \"Deal.sol\":2724:2783  (bool success, ) = payable(creator).call{value: amount}(\"\") */\n      pop\n      swap1\n      pop\n        /* \"Deal.sol\":2798:2805  success */\n      dup1\n        /* \"Deal.sol\":2790:2823  require(success, \"Payout failed\") */\n      tag_65\n      jumpi\n      mload(0x40)\n      0x08c379a000000000000000000000000000000000000000000000000000000000\n      dup2\n      mstore\n      0x04\n      add\n      tag_66\n      swap1\n      tag_67\n      jump\t// in\n    tag_66:\n      mload(0x40)\n      dup1\n      swap2\n      sub\n      swap1\n      revert\n    tag_65:\n        /* \"Deal.sol\":2837:2896  PayoutSuccessful(orderno, creator, amount, block.timestamp) */\n      0x52d0ae120dc8d9034c7bf60cd9ec0ea66a5c28c16d993d7c1d80411ca949d43b\n        /* \"Deal.sol\":2854:2861  orderno */\n      dup4\n        /* \"Deal.sol\":2863:2870  creator */\n      0x00\n      0x00\n      swap1\n      sload\n      swap1\n      0x0100\n      exp\n      swap1\n      div\n      0xffffffffffffffffffffffffffffffffffffffff\n      and\n        /* \"Deal.sol\":2872:2878  amount */\n      dup5\n        /* \"Deal.sol\":2880:2895  block.timestamp */\n      timestamp\n        /* \"Deal.sol\":2837:2896  PayoutSuccessful(orderno, creator, amount, block.timestamp) */\n      mload(0x40)\n      tag_68\n      swap5\n      swap4\n      swap3\n      swap2\n      swap1\n      tag_69\n      jump\t// in\n    tag_68:\n      mload(0x40)\n      dup1\n      swap2\n      sub\n      swap1\n      log1\n        /* \"Deal.sol\":2908:2949  OrderSuccessful(orderno, block.timestamp) */\n      0xaf7923d787203dddf63f6a25779f92f39cb2860086e34a30a6a1431faab2420b\n        /* \"Deal.sol\":2924:2931  orderno */\n      dup4\n        /* \"Deal.sol\":2933:2948  block.timestamp */\n      timestamp\n        /* \"Deal.sol\":2908:2949  OrderSuccessful(orderno, block.timestamp) */\n      mload(0x40)\n      tag_70\n      swap3\n      swap2\n      swap1\n      tag_71\n      jump\t// in\n    tag_70:\n      mload(0x40)\n      dup1\n      swap2\n      sub\n      swap1\n      log1\n        /* \"Deal.sol\":2359:2955  {... */\n      pop\n      pop\n        /* \"Deal.sol\":2314:2955  function Payout(uint orderno) payable public {... */\n      pop\n      jump\t// out\n        /* \"Deal.sol\":887:1296  function sendOrder(string calldata game) payable external  {... */\n    tag_23:\n        /* \"Deal.sol\":1020:1025  buyer */\n      0x01\n      0x00\n      swap1\n      sload\n      swap1\n      0x0100\n      exp\n      swap1\n      div\n      0xffffffffffffffffffffffffffffffffffffffff\n      and\n        /* \"Deal.sol\":1006:1025  msg.sender == buyer */\n      0xffffffffffffffffffffffffffffffffffffffff\n      and\n        /* \"Deal.sol\":1006:1016  msg.sender */\n      caller\n        /* \"Deal.sol\":1006:1025  msg.sender == buyer */\n      0xffffffffffffffffffffffffffffffffffffffff\n      and\n      eq\n        /* \"Deal.sol\":998:1051  require(msg.sender == buyer, \"Only buyer can refund\") */\n      tag_73\n      jumpi\n      mload(0x40)\n      0x08c379a000000000000000000000000000000000000000000000000000000000\n      dup2\n      mstore\n      0x04\n      add\n      tag_74\n      swap1\n      tag_34\n      jump\t// in\n    tag_74:\n      mload(0x40)\n      dup1\n      swap2\n      sub\n      swap1\n      revert\n    tag_73:\n        /* \"Deal.sol\":1098:1106  orderseq */\n      0x04\n      0x00\n        /* \"Deal.sol\":1098:1108  orderseq++ */\n      dup2\n      sload\n      dup1\n      swap3\n      swap2\n      swap1\n      tag_75\n      swap1\n      tag_76\n      jump\t// in\n    tag_75:\n      swap2\n      swap1\n      pop\n      sstore\n      pop\n        /* \"Deal.sol\":1171:1212  Order(game, 0, block.timestamp, false, 0) */\n      mload(0x40)\n      dup1\n      0xa0\n      add\n      0x40\n      mstore\n      dup1\n        /* \"Deal.sol\":1177:1181  game */\n      dup4\n      dup4\n        /* \"Deal.sol\":1171:1212  Order(game, 0, block.timestamp, false, 0) */\n      dup1\n      dup1\n      0x1f\n      add\n      0x20\n      dup1\n      swap2\n      div\n      mul\n      0x20\n      add\n      mload(0x40)\n      swap1\n      dup2\n      add\n      0x40\n      mstore\n      dup1\n      swap4\n      swap3\n      swap2\n      swap1\n      dup2\n      dup2\n      mstore\n      0x20\n      add\n      dup4\n      dup4\n      dup1\n      dup3\n      dup5\n      calldatacopy\n      0x00\n      dup2\n      dup5\n      add\n      mstore\n      not(0x1f)\n      0x1f\n      dup3\n      add\n      and\n      swap1\n      pop\n      dup1\n      dup4\n      add\n      swap3\n      pop\n      pop\n      pop\n      pop\n      pop\n      pop\n      pop\n      dup2\n      mstore\n      0x20\n      add\n        /* \"Deal.sol\":1183:1184  0 */\n      0x00\n        /* \"Deal.sol\":1171:1212  Order(game, 0, block.timestamp, false, 0) */\n      dup2\n      mstore\n      0x20\n      add\n        /* \"Deal.sol\":1186:1201  block.timestamp */\n      timestamp\n        /* \"Deal.sol\":1171:1212  Order(game, 0, block.timestamp, false, 0) */\n      dup2\n      mstore\n      0x20\n      add\n        /* \"Deal.sol\":1203:1208  false */\n      0x00\n        /* \"Deal.sol\":1171:1212  Order(game, 0, block.timestamp, false, 0) */\n      iszero\n      iszero\n      dup2\n      mstore\n      0x20\n      add\n        /* \"Deal.sol\":1210:1211  0 */\n      0x00\n        /* \"Deal.sol\":1171:1212  Order(game, 0, block.timestamp, false, 0) */\n      dup2\n      mstore\n      pop\n        /* \"Deal.sol\":1152:1158  orders */\n      0x03\n        /* \"Deal.sol\":1152:1168  orders[orderseq] */\n      0x00\n        /* \"Deal.sol\":1159:1167  orderseq */\n      sload(0x04)\n        /* \"Deal.sol\":1152:1168  orders[orderseq] */\n      dup2\n      mstore\n      0x20\n      add\n      swap1\n      dup2\n      mstore\n      0x20\n      add\n      0x00\n      keccak256\n        /* \"Deal.sol\":1152:1212  orders[orderseq] = Order(game, 0, block.timestamp, false, 0) */\n      0x00\n      dup3\n      add\n      mload\n      dup2\n      0x00\n      add\n      swap1\n      dup2\n      tag_77\n      swap2\n      swap1\n      tag_78\n      jump\t// in\n    tag_77:\n      pop\n      0x20\n      dup3\n      add\n      mload\n      dup2\n      0x01\n      add\n      sstore\n      0x40\n      dup3\n      add\n      mload\n      dup2\n      0x02\n      add\n      sstore\n      0x60\n      dup3\n      add\n      mload\n      dup2\n      0x03\n      add\n      exp(0x0100, 0x00)\n      dup2\n      sload\n      dup2\n      0xff\n      mul\n      not\n      and\n      swap1\n      dup4\n      iszero\n      iszero\n      mul\n      or\n      swap1\n      sstore\n      pop\n      0x80\n      dup3\n      add\n      mload\n      dup2\n      0x04\n      add\n      sstore\n      swap1\n      pop\n      pop\n        /* \"Deal.sol\":1253:1290  OrderSent(msg.sender, game, orderseq) */\n      0x5789e1b3d4695fa154712feee81fb999f284d3c57e3d8da4ca5b26f35f28673e\n        /* \"Deal.sol\":1263:1273  msg.sender */\n      caller\n        /* \"Deal.sol\":1275:1279  game */\n      dup4\n      dup4\n        /* \"Deal.sol\":1281:1289  orderseq */\n      sload(0x04)\n        /* \"Deal.sol\":1253:1290  OrderSent(msg.sender, game, orderseq) */\n      mload(0x40)\n      tag_79\n      swap5\n      swap4\n      swap3\n      swap2\n      swap1\n      tag_80\n      jump\t// in\n    tag_79:\n      mload(0x40)\n      dup1\n      swap2\n      sub\n      swap1\n      log1\n        /* \"Deal.sol\":887:1296  function sendOrder(string calldata game) payable external  {... */\n      pop\n      pop\n      jump\t// out\n        /* \"Deal.sol\":72:92  address public buyer */\n    tag_26:\n      0x01\n      0x00\n      swap1\n      sload\n      swap1\n      0x0100\n      exp\n      swap1\n      div\n      0xffffffffffffffffffffffffffffffffffffffff\n      and\n      dup2\n      jump\t// out\n        /* \"Deal.sol\":1302:1779  function SendPayment(uint orderno) payable public {... */\n    tag_30:\n        /* \"Deal.sol\":1419:1429  msg.sender */\n      caller\n        /* \"Deal.sol\":1410:1429  buyer == msg.sender */\n      0xffffffffffffffffffffffffffffffffffffffff\n      and\n        /* \"Deal.sol\":1410:1415  buyer */\n      0x01\n      0x00\n      swap1\n      sload\n      swap1\n      0x0100\n      exp\n      swap1\n      div\n      0xffffffffffffffffffffffffffffffffffffffff\n      and\n        /* \"Deal.sol\":1410:1429  buyer == msg.sender */\n      0xffffffffffffffffffffffffffffffffffffffff\n      and\n      eq\n        /* \"Deal.sol\":1402:1455  require(buyer == msg.sender, \"Only buyer can refund\") */\n      tag_82\n      jumpi\n      mload(0x40)\n      0x08c379a000000000000000000000000000000000000000000000000000000000\n      dup2\n      mstore\n      0x04\n      add\n      tag_83\n      swap1\n      tag_34\n      jump\t// in\n    tag_83:\n      mload(0x40)\n      dup1\n      swap2\n      sub\n      swap1\n      revert\n    tag_82:\n        /* \"Deal.sol\":1497:1506  msg.value */\n      callvalue\n        /* \"Deal.sol\":1472:1478  orders */\n      0x03\n        /* \"Deal.sol\":1472:1487  orders[orderno] */\n      0x00\n        /* \"Deal.sol\":1479:1486  orderno */\n      dup4\n        /* \"Deal.sol\":1472:1487  orders[orderno] */\n      dup2\n      mstore\n      0x20\n      add\n      swap1\n      dup2\n      mstore\n      0x20\n      add\n      0x00\n      keccak256\n        /* \"Deal.sol\":1472:1493  orders[orderno].price */\n      0x01\n      add\n      sload\n        /* \"Deal.sol\":1472:1506  orders[orderno].price == msg.value */\n      eq\n        /* \"Deal.sol\":1464:1531  require(orders[orderno].price == msg.value, \"Send the exact price\") */\n      tag_84\n      jumpi\n      mload(0x40)\n      0x08c379a000000000000000000000000000000000000000000000000000000000\n      dup2\n      mstore\n      0x04\n      add\n      tag_85\n      swap1\n      tag_86\n      jump\t// in\n    tag_85:\n      mload(0x40)\n      dup1\n      swap2\n      sub\n      swap1\n      revert\n    tag_84:\n        /* \"Deal.sol\":1563:1567  true */\n      0x01\n        /* \"Deal.sol\":1540:1546  orders */\n      0x03\n        /* \"Deal.sol\":1540:1555  orders[orderno] */\n      0x00\n        /* \"Deal.sol\":1547:1554  orderno */\n      dup4\n        /* \"Deal.sol\":1540:1555  orders[orderno] */\n      dup2\n      mstore\n      0x20\n      add\n      swap1\n      dup2\n      mstore\n      0x20\n      add\n      0x00\n      keccak256\n        /* \"Deal.sol\":1540:1560  orders[orderno].paid */\n      0x03\n      add\n      0x00\n        /* \"Deal.sol\":1540:1567  orders[orderno].paid = true */\n      0x0100\n      exp\n      dup2\n      sload\n      dup2\n      0xff\n      mul\n      not\n      and\n      swap1\n      dup4\n      iszero\n      iszero\n      mul\n      or\n      swap1\n      sstore\n      pop\n        /* \"Deal.sol\":1581:1645  PaymentReceived(msg.sender, orderno, msg.value, block.timestamp) */\n      0x750e6bbedd4312ada35caa75e07fc0b85f1a6fc9c675e6962aef846918711097\n        /* \"Deal.sol\":1597:1607  msg.sender */\n      caller\n        /* \"Deal.sol\":1609:1616  orderno */\n      dup3\n        /* \"Deal.sol\":1618:1627  msg.value */\n      callvalue\n        /* \"Deal.sol\":1629:1644  block.timestamp */\n      timestamp\n        /* \"Deal.sol\":1581:1645  PaymentReceived(msg.sender, orderno, msg.value, block.timestamp) */\n      mload(0x40)\n      tag_87\n      swap5\n      swap4\n      swap3\n      swap2\n      swap1\n      tag_88\n      jump\t// in\n    tag_87:\n      mload(0x40)\n      dup1\n      swap2\n      sub\n      swap1\n      log1\n        /* \"Deal.sol\":1705:1710  timer */\n      sload(0x02)\n        /* \"Deal.sol\":1687:1702  block.timestamp */\n      timestamp\n        /* \"Deal.sol\":1687:1710  block.timestamp + timer */\n      tag_89\n      swap2\n      swap1\n      tag_90\n      jump\t// in\n    tag_89:\n        /* \"Deal.sol\":1654:1660  orders */\n      0x03\n        /* \"Deal.sol\":1654:1669  orders[orderno] */\n      0x00\n        /* \"Deal.sol\":1661:1668  orderno */\n      dup4\n        /* \"Deal.sol\":1654:1669  orders[orderno] */\n      dup2\n      mstore\n      0x20\n      add\n      swap1\n      dup2\n      mstore\n      0x20\n      add\n      0x00\n      keccak256\n        /* \"Deal.sol\":1654:1684  orders[orderno].refundDeadline */\n      0x04\n      add\n        /* \"Deal.sol\":1654:1710  orders[orderno].refundDeadline = block.timestamp + timer */\n      dup2\n      swap1\n      sstore\n      pop\n        /* \"Deal.sol\":1724:1773  CountdownStarted(orderno, block.timestamp, timer) */\n      0x2c51b956ca3e342f3e03fd4c0d0fbbebbc3c57f0317236c62661f552d3e59468\n        /* \"Deal.sol\":1741:1748  orderno */\n      dup2\n        /* \"Deal.sol\":1750:1765  block.timestamp */\n      timestamp\n        /* \"Deal.sol\":1767:1772  timer */\n      sload(0x02)\n        /* \"Deal.sol\":1724:1773  CountdownStarted(orderno, block.timestamp, timer) */\n      mload(0x40)\n      tag_91\n      swap4\n      swap3\n      swap2\n      swap1\n      tag_92\n      jump\t// in\n    tag_91:\n      mload(0x40)\n      dup1\n      swap2\n      sub\n      swap1\n      log1\n        /* \"Deal.sol\":1302:1779  function SendPayment(uint orderno) payable public {... */\n      pop\n      jump\t// out\n        /* \"#utility.yul\":7:133   */\n    tag_93:\n        /* \"#utility.yul\":44:51   */\n      0x00\n        /* \"#utility.yul\":84:126   */\n      0xffffffffffffffffffffffffffffffffffffffff\n        /* \"#utility.yul\":77:82   */\n      dup3\n        /* \"#utility.yul\":73:127   */\n      and\n        /* \"#utility.yul\":62:127   */\n      swap1\n      pop\n        /* \"#utility.yul\":7:133   */\n      swap2\n      swap1\n      pop\n      jump\t// out\n        /* \"#utility.yul\":139:235   */\n    tag_94:\n        /* \"#utility.yul\":176:183   */\n      0x00\n        /* \"#utility.yul\":205:229   */\n      tag_155\n        /* \"#utility.yul\":223:228   */\n      dup3\n        /* \"#utility.yul\":205:229   */\n      tag_93\n      jump\t// in\n    tag_155:\n        /* \"#utility.yul\":194:229   */\n      swap1\n      pop\n        /* \"#utility.yul\":139:235   */\n      swap2\n      swap1\n      pop\n      jump\t// out\n        /* \"#utility.yul\":241:359   */\n    tag_95:\n        /* \"#utility.yul\":328:352   */\n      tag_157\n        /* \"#utility.yul\":346:351   */\n      dup2\n        /* \"#utility.yul\":328:352   */\n      tag_94\n      jump\t// in\n    tag_157:\n        /* \"#utility.yul\":323:326   */\n      dup3\n        /* \"#utility.yul\":316:353   */\n      mstore\n        /* \"#utility.yul\":241:359   */\n      pop\n      pop\n      jump\t// out\n        /* \"#utility.yul\":365:587   */\n    tag_12:\n        /* \"#utility.yul\":458:462   */\n      0x00\n        /* \"#utility.yul\":496:498   */\n      0x20\n        /* \"#utility.yul\":485:494   */\n      dup3\n        /* \"#utility.yul\":481:499   */\n      add\n        /* \"#utility.yul\":473:499   */\n      swap1\n      pop\n        /* \"#utility.yul\":509:580   */\n      tag_159\n        /* \"#utility.yul\":577:578   */\n      0x00\n        /* \"#utility.yul\":566:575   */\n      dup4\n        /* \"#utility.yul\":562:579   */\n      add\n        /* \"#utility.yul\":553:559   */\n      dup5\n        /* \"#utility.yul\":509:580   */\n      tag_95\n      jump\t// in\n    tag_159:\n        /* \"#utility.yul\":365:587   */\n      swap3\n      swap2\n      pop\n      pop\n      jump\t// out\n        /* \"#utility.yul\":674:791   */\n    tag_97:\n        /* \"#utility.yul\":783:784   */\n      0x00\n        /* \"#utility.yul\":780:781   */\n      0x00\n        /* \"#utility.yul\":773:785   */\n      revert\n        /* \"#utility.yul\":797:914   */\n    tag_98:\n        /* \"#utility.yul\":906:907   */\n      0x00\n        /* \"#utility.yul\":903:904   */\n      0x00\n        /* \"#utility.yul\":896:908   */\n      revert\n        /* \"#utility.yul\":920:997   */\n    tag_99:\n        /* \"#utility.yul\":957:964   */\n      0x00\n        /* \"#utility.yul\":986:991   */\n      dup2\n        /* \"#utility.yul\":975:991   */\n      swap1\n      pop\n        /* \"#utility.yul\":920:997   */\n      swap2\n      swap1\n      pop\n      jump\t// out\n        /* \"#utility.yul\":1003:1125   */\n    tag_100:\n        /* \"#utility.yul\":1076:1100   */\n      tag_165\n        /* \"#utility.yul\":1094:1099   */\n      dup2\n        /* \"#utility.yul\":1076:1100   */\n      tag_99\n      jump\t// in\n    tag_165:\n        /* \"#utility.yul\":1069:1074   */\n      dup2\n        /* \"#utility.yul\":1066:1101   */\n      eq\n        /* \"#utility.yul\":1056:1119   */\n      tag_166\n      jumpi\n        /* \"#utility.yul\":1115:1116   */\n      0x00\n        /* \"#utility.yul\":1112:1113   */\n      0x00\n        /* \"#utility.yul\":1105:1117   */\n      revert\n        /* \"#utility.yul\":1056:1119   */\n    tag_166:\n        /* \"#utility.yul\":1003:1125   */\n      pop\n      jump\t// out\n        /* \"#utility.yul\":1131:1270   */\n    tag_101:\n        /* \"#utility.yul\":1177:1182   */\n      0x00\n        /* \"#utility.yul\":1215:1221   */\n      dup2\n        /* \"#utility.yul\":1202:1222   */\n      calldataload\n        /* \"#utility.yul\":1193:1222   */\n      swap1\n      pop\n        /* \"#utility.yul\":1231:1264   */\n      tag_168\n        /* \"#utility.yul\":1258:1263   */\n      dup2\n        /* \"#utility.yul\":1231:1264   */\n      tag_100\n      jump\t// in\n    tag_168:\n        /* \"#utility.yul\":1131:1270   */\n      swap3\n      swap2\n      pop\n      pop\n      jump\t// out\n        /* \"#utility.yul\":1276:1605   */\n    tag_15:\n        /* \"#utility.yul\":1335:1341   */\n      0x00\n        /* \"#utility.yul\":1384:1386   */\n      0x20\n        /* \"#utility.yul\":1372:1381   */\n      dup3\n        /* \"#utility.yul\":1363:1370   */\n      dup5\n        /* \"#utility.yul\":1359:1382   */\n      sub\n        /* \"#utility.yul\":1355:1387   */\n      slt\n        /* \"#utility.yul\":1352:1471   */\n      iszero\n      tag_170\n      jumpi\n        /* \"#utility.yul\":1390:1469   */\n      tag_171\n      tag_97\n      jump\t// in\n    tag_171:\n        /* \"#utility.yul\":1352:1471   */\n    tag_170:\n        /* \"#utility.yul\":1510:1511   */\n      0x00\n        /* \"#utility.yul\":1535:1588   */\n      tag_172\n        /* \"#utility.yul\":1580:1587   */\n      dup5\n        /* \"#utility.yul\":1571:1577   */\n      dup3\n        /* \"#utility.yul\":1560:1569   */\n      dup6\n        /* \"#utility.yul\":1556:1578   */\n      add\n        /* \"#utility.yul\":1535:1588   */\n      tag_101\n      jump\t// in\n    tag_172:\n        /* \"#utility.yul\":1525:1588   */\n      swap2\n      pop\n        /* \"#utility.yul\":1481:1598   */\n      pop\n        /* \"#utility.yul\":1276:1605   */\n      swap3\n      swap2\n      pop\n      pop\n      jump\t// out\n        /* \"#utility.yul\":1611:1728   */\n    tag_102:\n        /* \"#utility.yul\":1720:1721   */\n      0x00\n        /* \"#utility.yul\":1717:1718   */\n      0x00\n        /* \"#utility.yul\":1710:1722   */\n      revert\n        /* \"#utility.yul\":1734:1851   */\n    tag_103:\n        /* \"#utility.yul\":1843:1844   */\n      0x00\n        /* \"#utility.yul\":1840:1841   */\n      0x00\n        /* \"#utility.yul\":1833:1845   */\n      revert\n        /* \"#utility.yul\":1857:1974   */\n    tag_104:\n        /* \"#utility.yul\":1966:1967   */\n      0x00\n        /* \"#utility.yul\":1963:1964   */\n      0x00\n        /* \"#utility.yul\":1956:1968   */\n      revert\n        /* \"#utility.yul\":1994:2547   */\n    tag_105:\n        /* \"#utility.yul\":2052:2060   */\n      0x00\n        /* \"#utility.yul\":2062:2068   */\n      0x00\n        /* \"#utility.yul\":2112:2115   */\n      dup4\n        /* \"#utility.yul\":2105:2109   */\n      0x1f\n        /* \"#utility.yul\":2097:2103   */\n      dup5\n        /* \"#utility.yul\":2093:2110   */\n      add\n        /* \"#utility.yul\":2089:2116   */\n      slt\n        /* \"#utility.yul\":2079:2201   */\n      tag_177\n      jumpi\n        /* \"#utility.yul\":2120:2199   */\n      tag_178\n      tag_102\n      jump\t// in\n    tag_178:\n        /* \"#utility.yul\":2079:2201   */\n    tag_177:\n        /* \"#utility.yul\":2233:2239   */\n      dup3\n        /* \"#utility.yul\":2220:2240   */\n      calldataload\n        /* \"#utility.yul\":2210:2240   */\n      swap1\n      pop\n        /* \"#utility.yul\":2263:2281   */\n      0xffffffffffffffff\n        /* \"#utility.yul\":2255:2261   */\n      dup2\n        /* \"#utility.yul\":2252:2282   */\n      gt\n        /* \"#utility.yul\":2249:2366   */\n      iszero\n      tag_179\n      jumpi\n        /* \"#utility.yul\":2285:2364   */\n      tag_180\n      tag_103\n      jump\t// in\n    tag_180:\n        /* \"#utility.yul\":2249:2366   */\n    tag_179:\n        /* \"#utility.yul\":2399:2403   */\n      0x20\n        /* \"#utility.yul\":2391:2397   */\n      dup4\n        /* \"#utility.yul\":2387:2404   */\n      add\n        /* \"#utility.yul\":2375:2404   */\n      swap2\n      pop\n        /* \"#utility.yul\":2453:2456   */\n      dup4\n        /* \"#utility.yul\":2445:2449   */\n      0x01\n        /* \"#utility.yul\":2437:2443   */\n      dup3\n        /* \"#utility.yul\":2433:2450   */\n      mul\n        /* \"#utility.yul\":2423:2431   */\n      dup4\n        /* \"#utility.yul\":2419:2451   */\n      add\n        /* \"#utility.yul\":2416:2457   */\n      gt\n        /* \"#utility.yul\":2413:2541   */\n      iszero\n      tag_181\n      jumpi\n        /* \"#utility.yul\":2460:2539   */\n      tag_182\n      tag_104\n      jump\t// in\n    tag_182:\n        /* \"#utility.yul\":2413:2541   */\n    tag_181:\n        /* \"#utility.yul\":1994:2547   */\n      swap3\n      pop\n      swap3\n      swap1\n      pop\n      jump\t// out\n        /* \"#utility.yul\":2553:3082   */\n    tag_22:\n        /* \"#utility.yul\":2624:2630   */\n      0x00\n        /* \"#utility.yul\":2632:2638   */\n      0x00\n        /* \"#utility.yul\":2681:2683   */\n      0x20\n        /* \"#utility.yul\":2669:2678   */\n      dup4\n        /* \"#utility.yul\":2660:2667   */\n      dup6\n        /* \"#utility.yul\":2656:2679   */\n      sub\n        /* \"#utility.yul\":2652:2684   */\n      slt\n        /* \"#utility.yul\":2649:2768   */\n      iszero\n      tag_184\n      jumpi\n        /* \"#utility.yul\":2687:2766   */\n      tag_185\n      tag_97\n      jump\t// in\n    tag_185:\n        /* \"#utility.yul\":2649:2768   */\n    tag_184:\n        /* \"#utility.yul\":2835:2836   */\n      0x00\n        /* \"#utility.yul\":2824:2833   */\n      dup4\n        /* \"#utility.yul\":2820:2837   */\n      add\n        /* \"#utility.yul\":2807:2838   */\n      calldataload\n        /* \"#utility.yul\":2865:2883   */\n      0xffffffffffffffff\n        /* \"#utility.yul\":2857:2863   */\n      dup2\n        /* \"#utility.yul\":2854:2884   */\n      gt\n        /* \"#utility.yul\":2851:2968   */\n      iszero\n      tag_186\n      jumpi\n        /* \"#utility.yul\":2887:2966   */\n      tag_187\n      tag_98\n      jump\t// in\n    tag_187:\n        /* \"#utility.yul\":2851:2968   */\n    tag_186:\n        /* \"#utility.yul\":3000:3065   */\n      tag_188\n        /* \"#utility.yul\":3057:3064   */\n      dup6\n        /* \"#utility.yul\":3048:3054   */\n      dup3\n        /* \"#utility.yul\":3037:3046   */\n      dup7\n        /* \"#utility.yul\":3033:3055   */\n      add\n        /* \"#utility.yul\":3000:3065   */\n      tag_105\n      jump\t// in\n    tag_188:\n        /* \"#utility.yul\":2982:3065   */\n      swap3\n      pop\n      swap3\n      pop\n        /* \"#utility.yul\":2778:3075   */\n      pop\n        /* \"#utility.yul\":2553:3082   */\n      swap3\n      pop\n      swap3\n      swap1\n      pop\n      jump\t// out\n        /* \"#utility.yul\":3088:3257   */\n    tag_106:\n        /* \"#utility.yul\":3172:3183   */\n      0x00\n        /* \"#utility.yul\":3206:3212   */\n      dup3\n        /* \"#utility.yul\":3201:3204   */\n      dup3\n        /* \"#utility.yul\":3194:3213   */\n      mstore\n        /* \"#utility.yul\":3246:3250   */\n      0x20\n        /* \"#utility.yul\":3241:3244   */\n      dup3\n        /* \"#utility.yul\":3237:3251   */\n      add\n        /* \"#utility.yul\":3222:3251   */\n      swap1\n      pop\n        /* \"#utility.yul\":3088:3257   */\n      swap3\n      swap2\n      pop\n      pop\n      jump\t// out\n        /* \"#utility.yul\":3263:3434   */\n    tag_107:\n        /* \"#utility.yul\":3403:3426   */\n      0x4f6e6c792062757965722063616e20726566756e640000000000000000000000\n        /* \"#utility.yul\":3399:3400   */\n      0x00\n        /* \"#utility.yul\":3391:3397   */\n      dup3\n        /* \"#utility.yul\":3387:3401   */\n      add\n        /* \"#utility.yul\":3380:3427   */\n      mstore\n        /* \"#utility.yul\":3263:3434   */\n      pop\n      jump\t// out\n        /* \"#utility.yul\":3440:3806   */\n    tag_108:\n        /* \"#utility.yul\":3582:3585   */\n      0x00\n        /* \"#utility.yul\":3603:3670   */\n      tag_192\n        /* \"#utility.yul\":3667:3669   */\n      0x15\n        /* \"#utility.yul\":3662:3665   */\n      dup4\n        /* \"#utility.yul\":3603:3670   */\n      tag_106\n      jump\t// in\n    tag_192:\n        /* \"#utility.yul\":3596:3670   */\n      swap2\n      pop\n        /* \"#utility.yul\":3679:3772   */\n      tag_193\n        /* \"#utility.yul\":3768:3771   */\n      dup3\n        /* \"#utility.yul\":3679:3772   */\n      tag_107\n      jump\t// in\n    tag_193:\n        /* \"#utility.yul\":3797:3799   */\n      0x20\n        /* \"#utility.yul\":3792:3795   */\n      dup3\n        /* \"#utility.yul\":3788:3800   */\n      add\n        /* \"#utility.yul\":3781:3800   */\n      swap1\n      pop\n        /* \"#utility.yul\":3440:3806   */\n      swap2\n      swap1\n      pop\n      jump\t// out\n        /* \"#utility.yul\":3812:4231   */\n    tag_34:\n        /* \"#utility.yul\":3978:3982   */\n      0x00\n        /* \"#utility.yul\":4016:4018   */\n      0x20\n        /* \"#utility.yul\":4005:4014   */\n      dup3\n        /* \"#utility.yul\":4001:4019   */\n      add\n        /* \"#utility.yul\":3993:4019   */\n      swap1\n      pop\n        /* \"#utility.yul\":4065:4074   */\n      dup2\n        /* \"#utility.yul\":4059:4063   */\n      dup2\n        /* \"#utility.yul\":4055:4075   */\n      sub\n        /* \"#utility.yul\":4051:4052   */\n      0x00\n        /* \"#utility.yul\":4040:4049   */\n      dup4\n        /* \"#utility.yul\":4036:4053   */\n      add\n        /* \"#utility.yul\":4029:4076   */\n      mstore\n        /* \"#utility.yul\":4093:4224   */\n      tag_195\n        /* \"#utility.yul\":4219:4223   */\n      dup2\n        /* \"#utility.yul\":4093:4224   */\n      tag_108\n      jump\t// in\n    tag_195:\n        /* \"#utility.yul\":4085:4224   */\n      swap1\n      pop\n        /* \"#utility.yul\":3812:4231   */\n      swap2\n      swap1\n      pop\n      jump\t// out\n        /* \"#utility.yul\":4237:4401   */\n    tag_109:\n        /* \"#utility.yul\":4377:4393   */\n      0x4f72646572206e6f742070616964000000000000000000000000000000000000\n        /* \"#utility.yul\":4373:4374   */\n      0x00\n        /* \"#utility.yul\":4365:4371   */\n      dup3\n        /* \"#utility.yul\":4361:4375   */\n      add\n        /* \"#utility.yul\":4354:4394   */\n      mstore\n        /* \"#utility.yul\":4237:4401   */\n      pop\n      jump\t// out\n        /* \"#utility.yul\":4407:4773   */\n    tag_110:\n        /* \"#utility.yul\":4549:4552   */\n      0x00\n        /* \"#utility.yul\":4570:4637   */\n      tag_198\n        /* \"#utility.yul\":4634:4636   */\n      0x0e\n        /* \"#utility.yul\":4629:4632   */\n      dup4\n        /* \"#utility.yul\":4570:4637   */\n      tag_106\n      jump\t// in\n    tag_198:\n        /* \"#utility.yul\":4563:4637   */\n      swap2\n      pop\n        /* \"#utility.yul\":4646:4739   */\n      tag_199\n        /* \"#utility.yul\":4735:4738   */\n      dup3\n        /* \"#utility.yul\":4646:4739   */\n      tag_109\n      jump\t// in\n    tag_199:\n        /* \"#utility.yul\":4764:4766   */\n      0x20\n        /* \"#utility.yul\":4759:4762   */\n      dup3\n        /* \"#utility.yul\":4755:4767   */\n      add\n        /* \"#utility.yul\":4748:4767   */\n      swap1\n      pop\n        /* \"#utility.yul\":4407:4773   */\n      swap2\n      swap1\n      pop\n      jump\t// out\n        /* \"#utility.yul\":4779:5198   */\n    tag_37:\n        /* \"#utility.yul\":4945:4949   */\n      0x00\n        /* \"#utility.yul\":4983:4985   */\n      0x20\n        /* \"#utility.yul\":4972:4981   */\n      dup3\n        /* \"#utility.yul\":4968:4986   */\n      add\n        /* \"#utility.yul\":4960:4986   */\n      swap1\n      pop\n        /* \"#utility.yul\":5032:5041   */\n      dup2\n        /* \"#utility.yul\":5026:5030   */\n      dup2\n        /* \"#utility.yul\":5022:5042   */\n      sub\n        /* \"#utility.yul\":5018:5019   */\n      0x00\n        /* \"#utility.yul\":5007:5016   */\n      dup4\n        /* \"#utility.yul\":5003:5020   */\n      add\n        /* \"#utility.yul\":4996:5043   */\n      mstore\n        /* \"#utility.yul\":5060:5191   */\n      tag_201\n        /* \"#utility.yul\":5186:5190   */\n      dup2\n        /* \"#utility.yul\":5060:5191   */\n      tag_110\n      jump\t// in\n    tag_201:\n        /* \"#utility.yul\":5052:5191   */\n      swap1\n      pop\n        /* \"#utility.yul\":4779:5198   */\n      swap2\n      swap1\n      pop\n      jump\t// out\n        /* \"#utility.yul\":5204:5386   */\n    tag_111:\n        /* \"#utility.yul\":5344:5378   */\n      0x43616e6e6f7420726566756e642061667465722074686520646561646c696e65\n        /* \"#utility.yul\":5340:5341   */\n      0x00\n        /* \"#utility.yul\":5332:5338   */\n      dup3\n        /* \"#utility.yul\":5328:5342   */\n      add\n        /* \"#utility.yul\":5321:5379   */\n      mstore\n        /* \"#utility.yul\":5204:5386   */\n      pop\n      jump\t// out\n        /* \"#utility.yul\":5392:5758   */\n    tag_112:\n        /* \"#utility.yul\":5534:5537   */\n      0x00\n        /* \"#utility.yul\":5555:5622   */\n      tag_204\n        /* \"#utility.yul\":5619:5621   */\n      0x20\n        /* \"#utility.yul\":5614:5617   */\n      dup4\n        /* \"#utility.yul\":5555:5622   */\n      tag_106\n      jump\t// in\n    tag_204:\n        /* \"#utility.yul\":5548:5622   */\n      swap2\n      pop\n        /* \"#utility.yul\":5631:5724   */\n      tag_205\n        /* \"#utility.yul\":5720:5723   */\n      dup3\n        /* \"#utility.yul\":5631:5724   */\n      tag_111\n      jump\t// in\n    tag_205:\n        /* \"#utility.yul\":5749:5751   */\n      0x20\n        /* \"#utility.yul\":5744:5747   */\n      dup3\n        /* \"#utility.yul\":5740:5752   */\n      add\n        /* \"#utility.yul\":5733:5752   */\n      swap1\n      pop\n        /* \"#utility.yul\":5392:5758   */\n      swap2\n      swap1\n      pop\n      jump\t// out\n        /* \"#utility.yul\":5764:6183   */\n    tag_40:\n        /* \"#utility.yul\":5930:5934   */\n      0x00\n        /* \"#utility.yul\":5968:5970   */\n      0x20\n        /* \"#utility.yul\":5957:5966   */\n      dup3\n        /* \"#utility.yul\":5953:5971   */\n      add\n        /* \"#utility.yul\":5945:5971   */\n      swap1\n      pop\n        /* \"#utility.yul\":6017:6026   */\n      dup2\n        /* \"#utility.yul\":6011:6015   */\n      dup2\n        /* \"#utility.yul\":6007:6027   */\n      sub\n        /* \"#utility.yul\":6003:6004   */\n      0x00\n        /* \"#utility.yul\":5992:6001   */\n      dup4\n        /* \"#utility.yul\":5988:6005   */\n      add\n        /* \"#utility.yul\":5981:6028   */\n      mstore\n        /* \"#utility.yul\":6045:6176   */\n      tag_207\n        /* \"#utility.yul\":6171:6175   */\n      dup2\n        /* \"#utility.yul\":6045:6176   */\n      tag_112\n      jump\t// in\n    tag_207:\n        /* \"#utility.yul\":6037:6176   */\n      swap1\n      pop\n        /* \"#utility.yul\":5764:6183   */\n      swap2\n      swap1\n      pop\n      jump\t// out\n        /* \"#utility.yul\":6189:6336   */\n    tag_113:\n        /* \"#utility.yul\":6290:6301   */\n      0x00\n        /* \"#utility.yul\":6327:6330   */\n      dup2\n        /* \"#utility.yul\":6312:6330   */\n      swap1\n      pop\n        /* \"#utility.yul\":6189:6336   */\n      swap3\n      swap2\n      pop\n      pop\n      jump\t// out\n        /* \"#utility.yul\":6342:6456   */\n    tag_114:\n      pop\n      jump\t// out\n        /* \"#utility.yul\":6462:6860   */\n    tag_115:\n        /* \"#utility.yul\":6621:6624   */\n      0x00\n        /* \"#utility.yul\":6642:6725   */\n      tag_211\n        /* \"#utility.yul\":6723:6724   */\n      0x00\n        /* \"#utility.yul\":6718:6721   */\n      dup4\n        /* \"#utility.yul\":6642:6725   */\n      tag_113\n      jump\t// in\n    tag_211:\n        /* \"#utility.yul\":6635:6725   */\n      swap2\n      pop\n        /* \"#utility.yul\":6734:6827   */\n      tag_212\n        /* \"#utility.yul\":6823:6826   */\n      dup3\n        /* \"#utility.yul\":6734:6827   */\n      tag_114\n      jump\t// in\n    tag_212:\n        /* \"#utility.yul\":6852:6853   */\n      0x00\n        /* \"#utility.yul\":6847:6850   */\n      dup3\n        /* \"#utility.yul\":6843:6854   */\n      add\n        /* \"#utility.yul\":6836:6854   */\n      swap1\n      pop\n        /* \"#utility.yul\":6462:6860   */\n      swap2\n      swap1\n      pop\n      jump\t// out\n        /* \"#utility.yul\":6866:7245   */\n    tag_42:\n        /* \"#utility.yul\":7050:7053   */\n      0x00\n        /* \"#utility.yul\":7072:7219   */\n      tag_214\n        /* \"#utility.yul\":7215:7218   */\n      dup3\n        /* \"#utility.yul\":7072:7219   */\n      tag_115\n      jump\t// in\n    tag_214:\n        /* \"#utility.yul\":7065:7219   */\n      swap2\n      pop\n        /* \"#utility.yul\":7236:7239   */\n      dup2\n        /* \"#utility.yul\":7229:7239   */\n      swap1\n      pop\n        /* \"#utility.yul\":6866:7245   */\n      swap2\n      swap1\n      pop\n      jump\t// out\n        /* \"#utility.yul\":7251:7414   */\n    tag_116:\n        /* \"#utility.yul\":7391:7406   */\n      0x526566756e64206661696c656400000000000000000000000000000000000000\n        /* \"#utility.yul\":7387:7388   */\n      0x00\n        /* \"#utility.yul\":7379:7385   */\n      dup3\n        /* \"#utility.yul\":7375:7389   */\n      add\n        /* \"#utility.yul\":7368:7407   */\n      mstore\n        /* \"#utility.yul\":7251:7414   */\n      pop\n      jump\t// out\n        /* \"#utility.yul\":7420:7786   */\n    tag_117:\n        /* \"#utility.yul\":7562:7565   */\n      0x00\n        /* \"#utility.yul\":7583:7650   */\n      tag_217\n        /* \"#utility.yul\":7647:7649   */\n      0x0d\n        /* \"#utility.yul\":7642:7645   */\n      dup4\n        /* \"#utility.yul\":7583:7650   */\n      tag_106\n      jump\t// in\n    tag_217:\n        /* \"#utility.yul\":7576:7650   */\n      swap2\n      pop\n        /* \"#utility.yul\":7659:7752   */\n      tag_218\n        /* \"#utility.yul\":7748:7751   */\n      dup3\n        /* \"#utility.yul\":7659:7752   */\n      tag_116\n      jump\t// in\n    tag_218:\n        /* \"#utility.yul\":7777:7779   */\n      0x20\n        /* \"#utility.yul\":7772:7775   */\n      dup3\n        /* \"#utility.yul\":7768:7780   */\n      add\n        /* \"#utility.yul\":7761:7780   */\n      swap1\n      pop\n        /* \"#utility.yul\":7420:7786   */\n      swap2\n      swap1\n      pop\n      jump\t// out\n        /* \"#utility.yul\":7792:8211   */\n    tag_48:\n        /* \"#utility.yul\":7958:7962   */\n      0x00\n        /* \"#utility.yul\":7996:7998   */\n      0x20\n        /* \"#utility.yul\":7985:7994   */\n      dup3\n        /* \"#utility.yul\":7981:7999   */\n      add\n        /* \"#utility.yul\":7973:7999   */\n      swap1\n      pop\n        /* \"#utility.yul\":8045:8054   */\n      dup2\n        /* \"#utility.yul\":8039:8043   */\n      dup2\n        /* \"#utility.yul\":8035:8055   */\n      sub\n        /* \"#utility.yul\":8031:8032   */\n      0x00\n        /* \"#utility.yul\":8020:8029   */\n      dup4\n        /* \"#utility.yul\":8016:8033   */\n      add\n        /* \"#utility.yul\":8009:8056   */\n      mstore\n        /* \"#utility.yul\":8073:8204   */\n      tag_220\n        /* \"#utility.yul\":8199:8203   */\n      dup2\n        /* \"#utility.yul\":8073:8204   */\n      tag_117\n      jump\t// in\n    tag_220:\n        /* \"#utility.yul\":8065:8204   */\n      swap1\n      pop\n        /* \"#utility.yul\":7792:8211   */\n      swap2\n      swap1\n      pop\n      jump\t// out\n        /* \"#utility.yul\":8217:8335   */\n    tag_118:\n        /* \"#utility.yul\":8304:8328   */\n      tag_222\n        /* \"#utility.yul\":8322:8327   */\n      dup2\n        /* \"#utility.yul\":8304:8328   */\n      tag_99\n      jump\t// in\n    tag_222:\n        /* \"#utility.yul\":8299:8302   */\n      dup3\n        /* \"#utility.yul\":8292:8329   */\n      mstore\n        /* \"#utility.yul\":8217:8335   */\n      pop\n      pop\n      jump\t// out\n        /* \"#utility.yul\":8341:8783   */\n    tag_50:\n        /* \"#utility.yul\":8490:8494   */\n      0x00\n        /* \"#utility.yul\":8528:8530   */\n      0x60\n        /* \"#utility.yul\":8517:8526   */\n      dup3\n        /* \"#utility.yul\":8513:8531   */\n      add\n        /* \"#utility.yul\":8505:8531   */\n      swap1\n      pop\n        /* \"#utility.yul\":8541:8612   */\n      tag_224\n        /* \"#utility.yul\":8609:8610   */\n      0x00\n        /* \"#utility.yul\":8598:8607   */\n      dup4\n        /* \"#utility.yul\":8594:8611   */\n      add\n        /* \"#utility.yul\":8585:8591   */\n      dup7\n        /* \"#utility.yul\":8541:8612   */\n      tag_118\n      jump\t// in\n    tag_224:\n        /* \"#utility.yul\":8622:8694   */\n      tag_225\n        /* \"#utility.yul\":8690:8692   */\n      0x20\n        /* \"#utility.yul\":8679:8688   */\n      dup4\n        /* \"#utility.yul\":8675:8693   */\n      add\n        /* \"#utility.yul\":8666:8672   */\n      dup6\n        /* \"#utility.yul\":8622:8694   */\n      tag_95\n      jump\t// in\n    tag_225:\n        /* \"#utility.yul\":8704:8776   */\n      tag_226\n        /* \"#utility.yul\":8772:8774   */\n      0x40\n        /* \"#utility.yul\":8761:8770   */\n      dup4\n        /* \"#utility.yul\":8757:8775   */\n      add\n        /* \"#utility.yul\":8748:8754   */\n      dup5\n        /* \"#utility.yul\":8704:8776   */\n      tag_118\n      jump\t// in\n    tag_226:\n        /* \"#utility.yul\":8341:8783   */\n      swap5\n      swap4\n      pop\n      pop\n      pop\n      pop\n      jump\t// out\n        /* \"#utility.yul\":8789:8970   */\n    tag_119:\n        /* \"#utility.yul\":8929:8962   */\n      0x4f6e6c792063726561746f722063616e2067657420746865207061796f757400\n        /* \"#utility.yul\":8925:8926   */\n      0x00\n        /* \"#utility.yul\":8917:8923   */\n      dup3\n        /* \"#utility.yul\":8913:8927   */\n      add\n        /* \"#utility.yul\":8906:8963   */\n      mstore\n        /* \"#utility.yul\":8789:8970   */\n      pop\n      jump\t// out\n        /* \"#utility.yul\":8976:9342   */\n    tag_120:\n        /* \"#utility.yul\":9118:9121   */\n      0x00\n        /* \"#utility.yul\":9139:9206   */\n      tag_229\n        /* \"#utility.yul\":9203:9205   */\n      0x1f\n        /* \"#utility.yul\":9198:9201   */\n      dup4\n        /* \"#utility.yul\":9139:9206   */\n      tag_106\n      jump\t// in\n    tag_229:\n        /* \"#utility.yul\":9132:9206   */\n      swap2\n      pop\n        /* \"#utility.yul\":9215:9308   */\n      tag_230\n        /* \"#utility.yul\":9304:9307   */\n      dup3\n        /* \"#utility.yul\":9215:9308   */\n      tag_119\n      jump\t// in\n    tag_230:\n        /* \"#utility.yul\":9333:9335   */\n      0x20\n        /* \"#utility.yul\":9328:9331   */\n      dup3\n        /* \"#utility.yul\":9324:9336   */\n      add\n        /* \"#utility.yul\":9317:9336   */\n      swap1\n      pop\n        /* \"#utility.yul\":8976:9342   */\n      swap2\n      swap1\n      pop\n      jump\t// out\n        /* \"#utility.yul\":9348:9767   */\n    tag_54:\n        /* \"#utility.yul\":9514:9518   */\n      0x00\n        /* \"#utility.yul\":9552:9554   */\n      0x20\n        /* \"#utility.yul\":9541:9550   */\n      dup3\n        /* \"#utility.yul\":9537:9555   */\n      add\n        /* \"#utility.yul\":9529:9555   */\n      swap1\n      pop\n        /* \"#utility.yul\":9601:9610   */\n      dup2\n        /* \"#utility.yul\":9595:9599   */\n      dup2\n        /* \"#utility.yul\":9591:9611   */\n      sub\n        /* \"#utility.yul\":9587:9588   */\n      0x00\n        /* \"#utility.yul\":9576:9585   */\n      dup4\n        /* \"#utility.yul\":9572:9589   */\n      add\n        /* \"#utility.yul\":9565:9612   */\n      mstore\n        /* \"#utility.yul\":9629:9760   */\n      tag_232\n        /* \"#utility.yul\":9755:9759   */\n      dup2\n        /* \"#utility.yul\":9629:9760   */\n      tag_120\n      jump\t// in\n    tag_232:\n        /* \"#utility.yul\":9621:9760   */\n      swap1\n      pop\n        /* \"#utility.yul\":9348:9767   */\n      swap2\n      swap1\n      pop\n      jump\t// out\n        /* \"#utility.yul\":9773:10009   */\n    tag_121:\n        /* \"#utility.yul\":9913:9947   */\n      0x4f72646572206d757374206265207061696420696e206f7264657220746f2072\n        /* \"#utility.yul\":9909:9910   */\n      0x00\n        /* \"#utility.yul\":9901:9907   */\n      dup3\n        /* \"#utility.yul\":9897:9911   */\n      add\n        /* \"#utility.yul\":9890:9948   */\n      mstore\n        /* \"#utility.yul\":9982:10001   */\n      0x65636569766520746865207061796f7574000000000000000000000000000000\n        /* \"#utility.yul\":9977:9979   */\n      0x20\n        /* \"#utility.yul\":9969:9975   */\n      dup3\n        /* \"#utility.yul\":9965:9980   */\n      add\n        /* \"#utility.yul\":9958:10002   */\n      mstore\n        /* \"#utility.yul\":9773:10009   */\n      pop\n      jump\t// out\n        /* \"#utility.yul\":10015:10381   */\n    tag_122:\n        /* \"#utility.yul\":10157:10160   */\n      0x00\n        /* \"#utility.yul\":10178:10245   */\n      tag_235\n        /* \"#utility.yul\":10242:10244   */\n      0x31\n        /* \"#utility.yul\":10237:10240   */\n      dup4\n        /* \"#utility.yul\":10178:10245   */\n      tag_106\n      jump\t// in\n    tag_235:\n        /* \"#utility.yul\":10171:10245   */\n      swap2\n      pop\n        /* \"#utility.yul\":10254:10347   */\n      tag_236\n        /* \"#utility.yul\":10343:10346   */\n      dup3\n        /* \"#utility.yul\":10254:10347   */\n      tag_121\n      jump\t// in\n    tag_236:\n        /* \"#utility.yul\":10372:10374   */\n      0x40\n        /* \"#utility.yul\":10367:10370   */\n      dup3\n        /* \"#utility.yul\":10363:10375   */\n      add\n        /* \"#utility.yul\":10356:10375   */\n      swap1\n      pop\n        /* \"#utility.yul\":10015:10381   */\n      swap2\n      swap1\n      pop\n      jump\t// out\n        /* \"#utility.yul\":10387:10806   */\n    tag_57:\n        /* \"#utility.yul\":10553:10557   */\n      0x00\n        /* \"#utility.yul\":10591:10593   */\n      0x20\n        /* \"#utility.yul\":10580:10589   */\n      dup3\n        /* \"#utility.yul\":10576:10594   */\n      add\n        /* \"#utility.yul\":10568:10594   */\n      swap1\n      pop\n        /* \"#utility.yul\":10640:10649   */\n      dup2\n        /* \"#utility.yul\":10634:10638   */\n      dup2\n        /* \"#utility.yul\":10630:10650   */\n      sub\n        /* \"#utility.yul\":10626:10627   */\n      0x00\n        /* \"#utility.yul\":10615:10624   */\n      dup4\n        /* \"#utility.yul\":10611:10628   */\n      add\n        /* \"#utility.yul\":10604:10651   */\n      mstore\n        /* \"#utility.yul\":10668:10799   */\n      tag_238\n        /* \"#utility.yul\":10794:10798   */\n      dup2\n        /* \"#utility.yul\":10668:10799   */\n      tag_122\n      jump\t// in\n    tag_238:\n        /* \"#utility.yul\":10660:10799   */\n      swap1\n      pop\n        /* \"#utility.yul\":10387:10806   */\n      swap2\n      swap1\n      pop\n      jump\t// out\n        /* \"#utility.yul\":10812:11044   */\n    tag_123:\n        /* \"#utility.yul\":10952:10986   */\n      0x43616e6e6f74207265636569766520746865207061796f7574206265666f7265\n        /* \"#utility.yul\":10948:10949   */\n      0x00\n        /* \"#utility.yul\":10940:10946   */\n      dup3\n        /* \"#utility.yul\":10936:10950   */\n      add\n        /* \"#utility.yul\":10929:10987   */\n      mstore\n        /* \"#utility.yul\":11021:11036   */\n      0x2074686520646561646c696e6500000000000000000000000000000000000000\n        /* \"#utility.yul\":11016:11018   */\n      0x20\n        /* \"#utility.yul\":11008:11014   */\n      dup3\n        /* \"#utility.yul\":11004:11019   */\n      add\n        /* \"#utility.yul\":10997:11037   */\n      mstore\n        /* \"#utility.yul\":10812:11044   */\n      pop\n      jump\t// out\n        /* \"#utility.yul\":11050:11416   */\n    tag_124:\n        /* \"#utility.yul\":11192:11195   */\n      0x00\n        /* \"#utility.yul\":11213:11280   */\n      tag_241\n        /* \"#utility.yul\":11277:11279   */\n      0x2d\n        /* \"#utility.yul\":11272:11275   */\n      dup4\n        /* \"#utility.yul\":11213:11280   */\n      tag_106\n      jump\t// in\n    tag_241:\n        /* \"#utility.yul\":11206:11280   */\n      swap2\n      pop\n        /* \"#utility.yul\":11289:11382   */\n      tag_242\n        /* \"#utility.yul\":11378:11381   */\n      dup3\n        /* \"#utility.yul\":11289:11382   */\n      tag_123\n      jump\t// in\n    tag_242:\n        /* \"#utility.yul\":11407:11409   */\n      0x40\n        /* \"#utility.yul\":11402:11405   */\n      dup3\n        /* \"#utility.yul\":11398:11410   */\n      add\n        /* \"#utility.yul\":11391:11410   */\n      swap1\n      pop\n        /* \"#utility.yul\":11050:11416   */\n      swap2\n      swap1\n      pop\n      jump\t// out\n        /* \"#utility.yul\":11422:11841   */\n    tag_60:\n        /* \"#utility.yul\":11588:11592   */\n      0x00\n        /* \"#utility.yul\":11626:11628   */\n      0x20\n        /* \"#utility.yul\":11615:11624   */\n      dup3\n        /* \"#utility.yul\":11611:11629   */\n      add\n        /* \"#utility.yul\":11603:11629   */\n      swap1\n      pop\n        /* \"#utility.yul\":11675:11684   */\n      dup2\n        /* \"#utility.yul\":11669:11673   */\n      dup2\n        /* \"#utility.yul\":11665:11685   */\n      sub\n        /* \"#utility.yul\":11661:11662   */\n      0x00\n        /* \"#utility.yul\":11650:11659   */\n      dup4\n        /* \"#utility.yul\":11646:11663   */\n      add\n        /* \"#utility.yul\":11639:11686   */\n      mstore\n        /* \"#utility.yul\":11703:11834   */\n      tag_244\n        /* \"#utility.yul\":11829:11833   */\n      dup2\n        /* \"#utility.yul\":11703:11834   */\n      tag_124\n      jump\t// in\n    tag_244:\n        /* \"#utility.yul\":11695:11834   */\n      swap1\n      pop\n        /* \"#utility.yul\":11422:11841   */\n      swap2\n      swap1\n      pop\n      jump\t// out\n        /* \"#utility.yul\":11847:12010   */\n    tag_125:\n        /* \"#utility.yul\":11987:12002   */\n      0x5061796f7574206661696c656400000000000000000000000000000000000000\n        /* \"#utility.yul\":11983:11984   */\n      0x00\n        /* \"#utility.yul\":11975:11981   */\n      dup3\n        /* \"#utility.yul\":11971:11985   */\n      add\n        /* \"#utility.yul\":11964:12003   */\n      mstore\n        /* \"#utility.yul\":11847:12010   */\n      pop\n      jump\t// out\n        /* \"#utility.yul\":12016:12382   */\n    tag_126:\n        /* \"#utility.yul\":12158:12161   */\n      0x00\n        /* \"#utility.yul\":12179:12246   */\n      tag_247\n        /* \"#utility.yul\":12243:12245   */\n      0x0d\n        /* \"#utility.yul\":12238:12241   */\n      dup4\n        /* \"#utility.yul\":12179:12246   */\n      tag_106\n      jump\t// in\n    tag_247:\n        /* \"#utility.yul\":12172:12246   */\n      swap2\n      pop\n        /* \"#utility.yul\":12255:12348   */\n      tag_248\n        /* \"#utility.yul\":12344:12347   */\n      dup3\n        /* \"#utility.yul\":12255:12348   */\n      tag_125\n      jump\t// in\n    tag_248:\n        /* \"#utility.yul\":12373:12375   */\n      0x20\n        /* \"#utility.yul\":12368:12371   */\n      dup3\n        /* \"#utility.yul\":12364:12376   */\n      add\n        /* \"#utility.yul\":12357:12376   */\n      swap1\n      pop\n        /* \"#utility.yul\":12016:12382   */\n      swap2\n      swap1\n      pop\n      jump\t// out\n        /* \"#utility.yul\":12388:12807   */\n    tag_67:\n        /* \"#utility.yul\":12554:12558   */\n      0x00\n        /* \"#utility.yul\":12592:12594   */\n      0x20\n        /* \"#utility.yul\":12581:12590   */\n      dup3\n        /* \"#utility.yul\":12577:12595   */\n      add\n        /* \"#utility.yul\":12569:12595   */\n      swap1\n      pop\n        /* \"#utility.yul\":12641:12650   */\n      dup2\n        /* \"#utility.yul\":12635:12639   */\n      dup2\n        /* \"#utility.yul\":12631:12651   */\n      sub\n        /* \"#utility.yul\":12627:12628   */\n      0x00\n        /* \"#utility.yul\":12616:12625   */\n      dup4\n        /* \"#utility.yul\":12612:12629   */\n      add\n        /* \"#utility.yul\":12605:12652   */\n      mstore\n        /* \"#utility.yul\":12669:12800   */\n      tag_250\n        /* \"#utility.yul\":12795:12799   */\n      dup2\n        /* \"#utility.yul\":12669:12800   */\n      tag_126\n      jump\t// in\n    tag_250:\n        /* \"#utility.yul\":12661:12800   */\n      swap1\n      pop\n        /* \"#utility.yul\":12388:12807   */\n      swap2\n      swap1\n      pop\n      jump\t// out\n        /* \"#utility.yul\":12813:13366   */\n    tag_69:\n        /* \"#utility.yul\":12990:12994   */\n      0x00\n        /* \"#utility.yul\":13028:13031   */\n      0x80\n        /* \"#utility.yul\":13017:13026   */\n      dup3\n        /* \"#utility.yul\":13013:13032   */\n      add\n        /* \"#utility.yul\":13005:13032   */\n      swap1\n      pop\n        /* \"#utility.yul\":13042:13113   */\n      tag_252\n        /* \"#utility.yul\":13110:13111   */\n      0x00\n        /* \"#utility.yul\":13099:13108   */\n      dup4\n        /* \"#utility.yul\":13095:13112   */\n      add\n        /* \"#utility.yul\":13086:13092   */\n      dup8\n        /* \"#utility.yul\":13042:13113   */\n      tag_118\n      jump\t// in\n    tag_252:\n        /* \"#utility.yul\":13123:13195   */\n      tag_253\n        /* \"#utility.yul\":13191:13193   */\n      0x20\n        /* \"#utility.yul\":13180:13189   */\n      dup4\n        /* \"#utility.yul\":13176:13194   */\n      add\n        /* \"#utility.yul\":13167:13173   */\n      dup7\n        /* \"#utility.yul\":13123:13195   */\n      tag_95\n      jump\t// in\n    tag_253:\n        /* \"#utility.yul\":13205:13277   */\n      tag_254\n        /* \"#utility.yul\":13273:13275   */\n      0x40\n        /* \"#utility.yul\":13262:13271   */\n      dup4\n        /* \"#utility.yul\":13258:13276   */\n      add\n        /* \"#utility.yul\":13249:13255   */\n      dup6\n        /* \"#utility.yul\":13205:13277   */\n      tag_118\n      jump\t// in\n    tag_254:\n        /* \"#utility.yul\":13287:13359   */\n      tag_255\n        /* \"#utility.yul\":13355:13357   */\n      0x60\n        /* \"#utility.yul\":13344:13353   */\n      dup4\n        /* \"#utility.yul\":13340:13358   */\n      add\n        /* \"#utility.yul\":13331:13337   */\n      dup5\n        /* \"#utility.yul\":13287:13359   */\n      tag_118\n      jump\t// in\n    tag_255:\n        /* \"#utility.yul\":12813:13366   */\n      swap6\n      swap5\n      pop\n      pop\n      pop\n      pop\n      pop\n      jump\t// out\n        /* \"#utility.yul\":13372:13704   */\n    tag_71:\n        /* \"#utility.yul\":13493:13497   */\n      0x00\n        /* \"#utility.yul\":13531:13533   */\n      0x40\n        /* \"#utility.yul\":13520:13529   */\n      dup3\n        /* \"#utility.yul\":13516:13534   */\n      add\n        /* \"#utility.yul\":13508:13534   */\n      swap1\n      pop\n        /* \"#utility.yul\":13544:13615   */\n      tag_257\n        /* \"#utility.yul\":13612:13613   */\n      0x00\n        /* \"#utility.yul\":13601:13610   */\n      dup4\n        /* \"#utility.yul\":13597:13614   */\n      add\n        /* \"#utility.yul\":13588:13594   */\n      dup6\n        /* \"#utility.yul\":13544:13615   */\n      tag_118\n      jump\t// in\n    tag_257:\n        /* \"#utility.yul\":13625:13697   */\n      tag_258\n        /* \"#utility.yul\":13693:13695   */\n      0x20\n        /* \"#utility.yul\":13682:13691   */\n      dup4\n        /* \"#utility.yul\":13678:13696   */\n      add\n        /* \"#utility.yul\":13669:13675   */\n      dup5\n        /* \"#utility.yul\":13625:13697   */\n      tag_118\n      jump\t// in\n    tag_258:\n        /* \"#utility.yul\":13372:13704   */\n      swap4\n      swap3\n      pop\n      pop\n      pop\n      jump\t// out\n        /* \"#utility.yul\":13710:13890   */\n    tag_127:\n        /* \"#utility.yul\":13758:13835   */\n      0x4e487b7100000000000000000000000000000000000000000000000000000000\n        /* \"#utility.yul\":13755:13756   */\n      0x00\n        /* \"#utility.yul\":13748:13836   */\n      mstore\n        /* \"#utility.yul\":13855:13859   */\n      0x11\n        /* \"#utility.yul\":13852:13853   */\n      0x04\n        /* \"#utility.yul\":13845:13860   */\n      mstore\n        /* \"#utility.yul\":13879:13883   */\n      0x24\n        /* \"#utility.yul\":13876:13877   */\n      0x00\n        /* \"#utility.yul\":13869:13884   */\n      revert\n        /* \"#utility.yul\":13896:14129   */\n    tag_76:\n        /* \"#utility.yul\":13935:13938   */\n      0x00\n        /* \"#utility.yul\":13958:13982   */\n      tag_261\n        /* \"#utility.yul\":13976:13981   */\n      dup3\n        /* \"#utility.yul\":13958:13982   */\n      tag_99\n      jump\t// in\n    tag_261:\n        /* \"#utility.yul\":13949:13982   */\n      swap2\n      pop\n        /* \"#utility.yul\":14004:14070   */\n      0xffffffffffffffffffffffffffffffffffffffffffffffffffffffffffffffff\n        /* \"#utility.yul\":13997:14002   */\n      dup3\n        /* \"#utility.yul\":13994:14071   */\n      sub\n        /* \"#utility.yul\":13991:14094   */\n      tag_262\n      jumpi\n        /* \"#utility.yul\":14074:14092   */\n      tag_263\n      tag_127\n      jump\t// in\n    tag_263:\n        /* \"#utility.yul\":13991:14094   */\n    tag_262:\n        /* \"#utility.yul\":14121:14122   */\n      0x01\n        /* \"#utility.yul\":14114:14119   */\n      dup3\n        /* \"#utility.yul\":14110:14123   */\n      add\n        /* \"#utility.yul\":14103:14123   */\n      swap1\n      pop\n        /* \"#utility.yul\":13896:14129   */\n      swap2\n      swap1\n      pop\n      jump\t// out\n        /* \"#utility.yul\":14135:14234   */\n    tag_128:\n        /* \"#utility.yul\":14187:14193   */\n      0x00\n        /* \"#utility.yul\":14221:14226   */\n      dup2\n        /* \"#utility.yul\":14215:14227   */\n      mload\n        /* \"#utility.yul\":14205:14227   */\n      swap1\n      pop\n        /* \"#utility.yul\":14135:14234   */\n      swap2\n      swap1\n      pop\n      jump\t// out\n        /* \"#utility.yul\":14240:14420   */\n    tag_129:\n        /* \"#utility.yul\":14288:14365   */\n      0x4e487b7100000000000000000000000000000000000000000000000000000000\n        /* \"#utility.yul\":14285:14286   */\n      0x00\n        /* \"#utility.yul\":14278:14366   */\n      mstore\n        /* \"#utility.yul\":14385:14389   */\n      0x41\n        /* \"#utility.yul\":14382:14383   */\n      0x04\n        /* \"#utility.yul\":14375:14390   */\n      mstore\n        /* \"#utility.yul\":14409:14413   */\n      0x24\n        /* \"#utility.yul\":14406:14407   */\n      0x00\n        /* \"#utility.yul\":14399:14414   */\n      revert\n        /* \"#utility.yul\":14426:14606   */\n    tag_130:\n        /* \"#utility.yul\":14474:14551   */\n      0x4e487b7100000000000000000000000000000000000000000000000000000000\n        /* \"#utility.yul\":14471:14472   */\n      0x00\n        /* \"#utility.yul\":14464:14552   */\n      mstore\n        /* \"#utility.yul\":14571:14575   */\n      0x22\n        /* \"#utility.yul\":14568:14569   */\n      0x04\n        /* \"#utility.yul\":14561:14576   */\n      mstore\n        /* \"#utility.yul\":14595:14599   */\n      0x24\n        /* \"#utility.yul\":14592:14593   */\n      0x00\n        /* \"#utility.yul\":14585:14600   */\n      revert\n        /* \"#utility.yul\":14612:14932   */\n    tag_131:\n        /* \"#utility.yul\":14656:14662   */\n      0x00\n        /* \"#utility.yul\":14693:14694   */\n      0x02\n        /* \"#utility.yul\":14687:14691   */\n      dup3\n        /* \"#utility.yul\":14683:14695   */\n      div\n        /* \"#utility.yul\":14673:14695   */\n      swap1\n      pop\n        /* \"#utility.yul\":14740:14741   */\n      0x01\n        /* \"#utility.yul\":14734:14738   */\n      dup3\n        /* \"#utility.yul\":14730:14742   */\n      and\n        /* \"#utility.yul\":14761:14779   */\n      dup1\n        /* \"#utility.yul\":14751:14832   */\n      tag_268\n      jumpi\n        /* \"#utility.yul\":14817:14821   */\n      0x7f\n        /* \"#utility.yul\":14809:14815   */\n      dup3\n        /* \"#utility.yul\":14805:14822   */\n      and\n        /* \"#utility.yul\":14795:14822   */\n      swap2\n      pop\n        /* \"#utility.yul\":14751:14832   */\n    tag_268:\n        /* \"#utility.yul\":14879:14881   */\n      0x20\n        /* \"#utility.yul\":14871:14877   */\n      dup3\n        /* \"#utility.yul\":14868:14882   */\n      lt\n        /* \"#utility.yul\":14848:14866   */\n      dup2\n        /* \"#utility.yul\":14845:14883   */\n      sub\n        /* \"#utility.yul\":14842:14926   */\n      tag_269\n      jumpi\n        /* \"#utility.yul\":14898:14916   */\n      tag_270\n      tag_130\n      jump\t// in\n    tag_270:\n        /* \"#utility.yul\":14842:14926   */\n    tag_269:\n        /* \"#utility.yul\":14663:14932   */\n      pop\n        /* \"#utility.yul\":14612:14932   */\n      swap2\n      swap1\n      pop\n      jump\t// out\n        /* \"#utility.yul\":14938:15079   */\n    tag_132:\n        /* \"#utility.yul\":14987:14991   */\n      0x00\n        /* \"#utility.yul\":15010:15013   */\n      dup2\n        /* \"#utility.yul\":15002:15013   */\n      swap1\n      pop\n        /* \"#utility.yul\":15033:15036   */\n      dup2\n        /* \"#utility.yul\":15030:15031   */\n      0x00\n        /* \"#utility.yul\":15023:15037   */\n      mstore\n        /* \"#utility.yul\":15067:15071   */\n      0x20\n        /* \"#utility.yul\":15064:15065   */\n      0x00\n        /* \"#utility.yul\":15054:15072   */\n      keccak256\n        /* \"#utility.yul\":15046:15072   */\n      swap1\n      pop\n        /* \"#utility.yul\":14938:15079   */\n      swap2\n      swap1\n      pop\n      jump\t// out\n        /* \"#utility.yul\":15085:15178   */\n    tag_133:\n        /* \"#utility.yul\":15122:15128   */\n      0x00\n        /* \"#utility.yul\":15169:15171   */\n      0x20\n        /* \"#utility.yul\":15164:15166   */\n      0x1f\n        /* \"#utility.yul\":15157:15162   */\n      dup4\n        /* \"#utility.yul\":15153:15167   */\n      add\n        /* \"#utility.yul\":15149:15172   */\n      div\n        /* \"#utility.yul\":15139:15172   */\n      swap1\n      pop\n        /* \"#utility.yul\":15085:15178   */\n      swap2\n      swap1\n      pop\n      jump\t// out\n        /* \"#utility.yul\":15184:15291   */\n    tag_134:\n        /* \"#utility.yul\":15228:15236   */\n      0x00\n        /* \"#utility.yul\":15278:15283   */\n      dup3\n        /* \"#utility.yul\":15272:15276   */\n      dup3\n        /* \"#utility.yul\":15268:15284   */\n      shl\n        /* \"#utility.yul\":15247:15284   */\n      swap1\n      pop\n        /* \"#utility.yul\":15184:15291   */\n      swap3\n      swap2\n      pop\n      pop\n      jump\t// out\n        /* \"#utility.yul\":15297:15690   */\n    tag_135:\n        /* \"#utility.yul\":15366:15372   */\n      0x00\n        /* \"#utility.yul\":15416:15417   */\n      0x08\n        /* \"#utility.yul\":15404:15414   */\n      dup4\n        /* \"#utility.yul\":15400:15418   */\n      mul\n        /* \"#utility.yul\":15439:15536   */\n      tag_275\n        /* \"#utility.yul\":15469:15535   */\n      0xffffffffffffffffffffffffffffffffffffffffffffffffffffffffffffffff\n        /* \"#utility.yul\":15458:15467   */\n      dup3\n        /* \"#utility.yul\":15439:15536   */\n      tag_134\n      jump\t// in\n    tag_275:\n        /* \"#utility.yul\":15557:15596   */\n      tag_276\n        /* \"#utility.yul\":15587:15595   */\n      dup7\n        /* \"#utility.yul\":15576:15585   */\n      dup4\n        /* \"#utility.yul\":15557:15596   */\n      tag_134\n      jump\t// in\n    tag_276:\n        /* \"#utility.yul\":15545:15596   */\n      swap6\n      pop\n        /* \"#utility.yul\":15629:15633   */\n      dup1\n        /* \"#utility.yul\":15625:15634   */\n      not\n        /* \"#utility.yul\":15618:15623   */\n      dup5\n        /* \"#utility.yul\":15614:15635   */\n      and\n        /* \"#utility.yul\":15605:15635   */\n      swap4\n      pop\n        /* \"#utility.yul\":15678:15682   */\n      dup1\n        /* \"#utility.yul\":15668:15676   */\n      dup7\n        /* \"#utility.yul\":15664:15683   */\n      and\n        /* \"#utility.yul\":15657:15662   */\n      dup5\n        /* \"#utility.yul\":15654:15684   */\n      or\n        /* \"#utility.yul\":15644:15684   */\n      swap3\n      pop\n        /* \"#utility.yul\":15373:15690   */\n      pop\n      pop\n        /* \"#utility.yul\":15297:15690   */\n      swap4\n      swap3\n      pop\n      pop\n      pop\n      jump\t// out\n        /* \"#utility.yul\":15696:15756   */\n    tag_136:\n        /* \"#utility.yul\":15724:15727   */\n      0x00\n        /* \"#utility.yul\":15745:15750   */\n      dup2\n        /* \"#utility.yul\":15738:15750   */\n      swap1\n      pop\n        /* \"#utility.yul\":15696:15756   */\n      swap2\n      swap1\n      pop\n      jump\t// out\n        /* \"#utility.yul\":15762:15904   */\n    tag_137:\n        /* \"#utility.yul\":15812:15821   */\n      0x00\n        /* \"#utility.yul\":15845:15898   */\n      tag_279\n        /* \"#utility.yul\":15863:15897   */\n      tag_280\n        /* \"#utility.yul\":15872:15896   */\n      tag_281\n        /* \"#utility.yul\":15890:15895   */\n      dup5\n        /* \"#utility.yul\":15872:15896   */\n      tag_99\n      jump\t// in\n    tag_281:\n        /* \"#utility.yul\":15863:15897   */\n      tag_136\n      jump\t// in\n    tag_280:\n        /* \"#utility.yul\":15845:15898   */\n      tag_99\n      jump\t// in\n    tag_279:\n        /* \"#utility.yul\":15832:15898   */\n      swap1\n      pop\n        /* \"#utility.yul\":15762:15904   */\n      swap2\n      swap1\n      pop\n      jump\t// out\n        /* \"#utility.yul\":15910:15985   */\n    tag_138:\n        /* \"#utility.yul\":15953:15956   */\n      0x00\n        /* \"#utility.yul\":15974:15979   */\n      dup2\n        /* \"#utility.yul\":15967:15979   */\n      swap1\n      pop\n        /* \"#utility.yul\":15910:15985   */\n      swap2\n      swap1\n      pop\n      jump\t// out\n        /* \"#utility.yul\":15991:16260   */\n    tag_139:\n        /* \"#utility.yul\":16101:16140   */\n      tag_284\n        /* \"#utility.yul\":16132:16139   */\n      dup4\n        /* \"#utility.yul\":16101:16140   */\n      tag_137\n      jump\t// in\n    tag_284:\n        /* \"#utility.yul\":16162:16253   */\n      tag_285\n        /* \"#utility.yul\":16211:16252   */\n      tag_286\n        /* \"#utility.yul\":16235:16251   */\n      dup3\n        /* \"#utility.yul\":16211:16252   */\n      tag_138\n      jump\t// in\n    tag_286:\n        /* \"#utility.yul\":16203:16209   */\n      dup5\n        /* \"#utility.yul\":16196:16200   */\n      dup5\n        /* \"#utility.yul\":16190:16201   */\n      sload\n        /* \"#utility.yul\":16162:16253   */\n      tag_135\n      jump\t// in\n    tag_285:\n        /* \"#utility.yul\":16156:16160   */\n      dup3\n        /* \"#utility.yul\":16149:16254   */\n      sstore\n        /* \"#utility.yul\":16067:16260   */\n      pop\n        /* \"#utility.yul\":15991:16260   */\n      pop\n      pop\n      pop\n      jump\t// out\n        /* \"#utility.yul\":16266:16339   */\n    tag_140:\n        /* \"#utility.yul\":16311:16314   */\n      0x00\n        /* \"#utility.yul\":16332:16333   */\n      0x00\n        /* \"#utility.yul\":16325:16333   */\n      swap1\n      pop\n        /* \"#utility.yul\":16266:16339   */\n      swap1\n      jump\t// out\n        /* \"#utility.yul\":16345:16534   */\n    tag_141:\n        /* \"#utility.yul\":16422:16454   */\n      tag_289\n      tag_140\n      jump\t// in\n    tag_289:\n        /* \"#utility.yul\":16463:16528   */\n      tag_290\n        /* \"#utility.yul\":16521:16527   */\n      dup2\n        /* \"#utility.yul\":16513:16519   */\n      dup5\n        /* \"#utility.yul\":16507:16511   */\n      dup5\n        /* \"#utility.yul\":16463:16528   */\n      tag_139\n      jump\t// in\n    tag_290:\n        /* \"#utility.yul\":16398:16534   */\n      pop\n        /* \"#utility.yul\":16345:16534   */\n      pop\n      pop\n      jump\t// out\n        /* \"#utility.yul\":16540:16726   */\n    tag_142:\n        /* \"#utility.yul\":16600:16720   */\n    tag_292:\n        /* \"#utility.yul\":16617:16620   */\n      dup2\n        /* \"#utility.yul\":16610:16615   */\n      dup2\n        /* \"#utility.yul\":16607:16621   */\n      lt\n        /* \"#utility.yul\":16600:16720   */\n      iszero\n      tag_294\n      jumpi\n        /* \"#utility.yul\":16671:16710   */\n      tag_295\n        /* \"#utility.yul\":16708:16709   */\n      0x00\n        /* \"#utility.yul\":16701:16706   */\n      dup3\n        /* \"#utility.yul\":16671:16710   */\n      tag_141\n      jump\t// in\n    tag_295:\n        /* \"#utility.yul\":16644:16645   */\n      0x01\n        /* \"#utility.yul\":16637:16642   */\n      dup2\n        /* \"#utility.yul\":16633:16646   */\n      add\n        /* \"#utility.yul\":16624:16646   */\n      swap1\n      pop\n        /* \"#utility.yul\":16600:16720   */\n      jump(tag_292)\n    tag_294:\n        /* \"#utility.yul\":16540:16726   */\n      pop\n      pop\n      jump\t// out\n        /* \"#utility.yul\":16732:17275   */\n    tag_143:\n        /* \"#utility.yul\":16833:16835   */\n      0x1f\n        /* \"#utility.yul\":16828:16831   */\n      dup3\n        /* \"#utility.yul\":16825:16836   */\n      gt\n        /* \"#utility.yul\":16822:17268   */\n      iszero\n      tag_297\n      jumpi\n        /* \"#utility.yul\":16867:16905   */\n      tag_298\n        /* \"#utility.yul\":16899:16904   */\n      dup2\n        /* \"#utility.yul\":16867:16905   */\n      tag_132\n      jump\t// in\n    tag_298:\n        /* \"#utility.yul\":16951:16980   */\n      tag_299\n        /* \"#utility.yul\":16969:16979   */\n      dup5\n        /* \"#utility.yul\":16951:16980   */\n      tag_133\n      jump\t// in\n    tag_299:\n        /* \"#utility.yul\":16941:16949   */\n      dup2\n        /* \"#utility.yul\":16937:16981   */\n      add\n        /* \"#utility.yul\":17134:17136   */\n      0x20\n        /* \"#utility.yul\":17122:17132   */\n      dup6\n        /* \"#utility.yul\":17119:17137   */\n      lt\n        /* \"#utility.yul\":17116:17165   */\n      iszero\n      tag_300\n      jumpi\n        /* \"#utility.yul\":17155:17163   */\n      dup2\n        /* \"#utility.yul\":17140:17163   */\n      swap1\n      pop\n        /* \"#utility.yul\":17116:17165   */\n    tag_300:\n        /* \"#utility.yul\":17178:17258   */\n      tag_301\n        /* \"#utility.yul\":17234:17256   */\n      tag_302\n        /* \"#utility.yul\":17252:17255   */\n      dup6\n        /* \"#utility.yul\":17234:17256   */\n      tag_133\n      jump\t// in\n    tag_302:\n        /* \"#utility.yul\":17224:17232   */\n      dup4\n        /* \"#utility.yul\":17220:17257   */\n      add\n        /* \"#utility.yul\":17207:17218   */\n      dup3\n        /* \"#utility.yul\":17178:17258   */\n      tag_142\n      jump\t// in\n    tag_301:\n        /* \"#utility.yul\":16837:17268   */\n      pop\n      pop\n        /* \"#utility.yul\":16822:17268   */\n    tag_297:\n        /* \"#utility.yul\":16732:17275   */\n      pop\n      pop\n      pop\n      jump\t// out\n        /* \"#utility.yul\":17281:17398   */\n    tag_144:\n        /* \"#utility.yul\":17335:17343   */\n      0x00\n        /* \"#utility.yul\":17385:17390   */\n      dup3\n        /* \"#utility.yul\":17379:17383   */\n      dup3\n        /* \"#utility.yul\":17375:17391   */\n      shr\n        /* \"#utility.yul\":17354:17391   */\n      swap1\n      pop\n        /* \"#utility.yul\":17281:17398   */\n      swap3\n      swap2\n      pop\n      pop\n      jump\t// out\n        /* \"#utility.yul\":17404:17573   */\n    tag_145:\n        /* \"#utility.yul\":17448:17454   */\n      0x00\n        /* \"#utility.yul\":17481:17532   */\n      tag_305\n        /* \"#utility.yul\":17529:17530   */\n      0x00\n        /* \"#utility.yul\":17525:17531   */\n      not\n        /* \"#utility.yul\":17517:17522   */\n      dup5\n        /* \"#utility.yul\":17514:17515   */\n      0x08\n        /* \"#utility.yul\":17510:17523   */\n      mul\n        /* \"#utility.yul\":17481:17532   */\n      tag_144\n      jump\t// in\n    tag_305:\n        /* \"#utility.yul\":17477:17533   */\n      not\n        /* \"#utility.yul\":17562:17566   */\n      dup1\n        /* \"#utility.yul\":17556:17560   */\n      dup4\n        /* \"#utility.yul\":17552:17567   */\n      and\n        /* \"#utility.yul\":17542:17567   */\n      swap2\n      pop\n        /* \"#utility.yul\":17455:17573   */\n      pop\n        /* \"#utility.yul\":17404:17573   */\n      swap3\n      swap2\n      pop\n      pop\n      jump\t// out\n        /* \"#utility.yul\":17578:17873   */\n    tag_146:\n        /* \"#utility.yul\":17654:17658   */\n      0x00\n        /* \"#utility.yul\":17800:17829   */\n      tag_307\n        /* \"#utility.yul\":17825:17828   */\n      dup4\n        /* \"#utility.yul\":17819:17823   */\n      dup4\n        /* \"#utility.yul\":17800:17829   */\n      tag_145\n      jump\t// in\n    tag_307:\n        /* \"#utility.yul\":17792:17829   */\n      swap2\n      pop\n        /* \"#utility.yul\":17862:17865   */\n      dup3\n        /* \"#utility.yul\":17859:17860   */\n      0x02\n        /* \"#utility.yul\":17855:17866   */\n      mul\n        /* \"#utility.yul\":17849:17853   */\n      dup3\n        /* \"#utility.yul\":17846:17867   */\n      or\n        /* \"#utility.yul\":17838:17867   */\n      swap1\n      pop\n        /* \"#utility.yul\":17578:17873   */\n      swap3\n      swap2\n      pop\n      pop\n      jump\t// out\n        /* \"#utility.yul\":17878:19273   */\n    tag_78:\n        /* \"#utility.yul\":17995:18032   */\n      tag_309\n        /* \"#utility.yul\":18028:18031   */\n      dup3\n        /* \"#utility.yul\":17995:18032   */\n      tag_128\n      jump\t// in\n    tag_309:\n        /* \"#utility.yul\":18097:18115   */\n      0xffffffffffffffff\n        /* \"#utility.yul\":18089:18095   */\n      dup2\n        /* \"#utility.yul\":18086:18116   */\n      gt\n        /* \"#utility.yul\":18083:18139   */\n      iszero\n      tag_310\n      jumpi\n        /* \"#utility.yul\":18119:18137   */\n      tag_311\n      tag_129\n      jump\t// in\n    tag_311:\n        /* \"#utility.yul\":18083:18139   */\n    tag_310:\n        /* \"#utility.yul\":18163:18201   */\n      tag_312\n        /* \"#utility.yul\":18195:18199   */\n      dup3\n        /* \"#utility.yul\":18189:18200   */\n      sload\n        /* \"#utility.yul\":18163:18201   */\n      tag_131\n      jump\t// in\n    tag_312:\n        /* \"#utility.yul\":18248:18315   */\n      tag_313\n        /* \"#utility.yul\":18308:18314   */\n      dup3\n        /* \"#utility.yul\":18300:18306   */\n      dup3\n        /* \"#utility.yul\":18294:18298   */\n      dup6\n        /* \"#utility.yul\":18248:18315   */\n      tag_143\n      jump\t// in\n    tag_313:\n        /* \"#utility.yul\":18342:18343   */\n      0x00\n        /* \"#utility.yul\":18366:18370   */\n      0x20\n        /* \"#utility.yul\":18353:18370   */\n      swap1\n      pop\n        /* \"#utility.yul\":18398:18400   */\n      0x1f\n        /* \"#utility.yul\":18390:18396   */\n      dup4\n        /* \"#utility.yul\":18387:18401   */\n      gt\n        /* \"#utility.yul\":18415:18416   */\n      0x01\n        /* \"#utility.yul\":18410:19028   */\n      dup2\n      eq\n      tag_315\n      jumpi\n        /* \"#utility.yul\":19072:19073   */\n      0x00\n        /* \"#utility.yul\":19089:19095   */\n      dup5\n        /* \"#utility.yul\":19086:19163   */\n      iszero\n      tag_316\n      jumpi\n        /* \"#utility.yul\":19138:19147   */\n      dup3\n        /* \"#utility.yul\":19133:19136   */\n      dup8\n        /* \"#utility.yul\":19129:19148   */\n      add\n        /* \"#utility.yul\":19123:19149   */\n      mload\n        /* \"#utility.yul\":19114:19149   */\n      swap1\n      pop\n        /* \"#utility.yul\":19086:19163   */\n    tag_316:\n        /* \"#utility.yul\":19189:19256   */\n      tag_317\n        /* \"#utility.yul\":19249:19255   */\n      dup6\n        /* \"#utility.yul\":19242:19247   */\n      dup3\n        /* \"#utility.yul\":19189:19256   */\n      tag_146\n      jump\t// in\n    tag_317:\n        /* \"#utility.yul\":19183:19187   */\n      dup7\n        /* \"#utility.yul\":19176:19257   */\n      sstore\n        /* \"#utility.yul\":19045:19267   */\n      pop\n        /* \"#utility.yul\":18380:19267   */\n      jump(tag_314)\n        /* \"#utility.yul\":18410:19028   */\n    tag_315:\n        /* \"#utility.yul\":18462:18466   */\n      0x1f\n        /* \"#utility.yul\":18458:18467   */\n      not\n        /* \"#utility.yul\":18450:18456   */\n      dup5\n        /* \"#utility.yul\":18446:18468   */\n      and\n        /* \"#utility.yul\":18496:18533   */\n      tag_318\n        /* \"#utility.yul\":18528:18532   */\n      dup7\n        /* \"#utility.yul\":18496:18533   */\n      tag_132\n      jump\t// in\n    tag_318:\n        /* \"#utility.yul\":18555:18556   */\n      0x00\n        /* \"#utility.yul\":18569:18777   */\n    tag_319:\n        /* \"#utility.yul\":18583:18590   */\n      dup3\n        /* \"#utility.yul\":18580:18581   */\n      dup2\n        /* \"#utility.yul\":18577:18591   */\n      lt\n        /* \"#utility.yul\":18569:18777   */\n      iszero\n      tag_321\n      jumpi\n        /* \"#utility.yul\":18662:18671   */\n      dup5\n        /* \"#utility.yul\":18657:18660   */\n      dup10\n        /* \"#utility.yul\":18653:18672   */\n      add\n        /* \"#utility.yul\":18647:18673   */\n      mload\n        /* \"#utility.yul\":18639:18645   */\n      dup3\n        /* \"#utility.yul\":18632:18674   */\n      sstore\n        /* \"#utility.yul\":18713:18714   */\n      0x01\n        /* \"#utility.yul\":18705:18711   */\n      dup3\n        /* \"#utility.yul\":18701:18715   */\n      add\n        /* \"#utility.yul\":18691:18715   */\n      swap2\n      pop\n        /* \"#utility.yul\":18760:18762   */\n      0x20\n        /* \"#utility.yul\":18749:18758   */\n      dup6\n        /* \"#utility.yul\":18745:18763   */\n      add\n        /* \"#utility.yul\":18732:18763   */\n      swap5\n      pop\n        /* \"#utility.yul\":18606:18610   */\n      0x20\n        /* \"#utility.yul\":18603:18604   */\n      dup2\n        /* \"#utility.yul\":18599:18611   */\n      add\n        /* \"#utility.yul\":18594:18611   */\n      swap1\n      pop\n        /* \"#utility.yul\":18569:18777   */\n      jump(tag_319)\n    tag_321:\n        /* \"#utility.yul\":18805:18811   */\n      dup7\n        /* \"#utility.yul\":18796:18803   */\n      dup4\n        /* \"#utility.yul\":18793:18812   */\n      lt\n        /* \"#utility.yul\":18790:18969   */\n      iszero\n      tag_322\n      jumpi\n        /* \"#utility.yul\":18863:18872   */\n      dup5\n        /* \"#utility.yul\":18858:18861   */\n      dup10\n        /* \"#utility.yul\":18854:18873   */\n      add\n        /* \"#utility.yul\":18848:18874   */\n      mload\n        /* \"#utility.yul\":18906:18954   */\n      tag_323\n        /* \"#utility.yul\":18948:18952   */\n      0x1f\n        /* \"#utility.yul\":18940:18946   */\n      dup10\n        /* \"#utility.yul\":18936:18953   */\n      and\n        /* \"#utility.yul\":18925:18934   */\n      dup3\n        /* \"#utility.yul\":18906:18954   */\n      tag_145\n      jump\t// in\n    tag_323:\n        /* \"#utility.yul\":18898:18904   */\n      dup4\n        /* \"#utility.yul\":18891:18955   */\n      sstore\n        /* \"#utility.yul\":18813:18969   */\n      pop\n        /* \"#utility.yul\":18790:18969   */\n    tag_322:\n        /* \"#utility.yul\":19015:19016   */\n      0x01\n        /* \"#utility.yul\":19011:19012   */\n      0x02\n        /* \"#utility.yul\":19003:19009   */\n      dup9\n        /* \"#utility.yul\":18999:19013   */\n      mul\n        /* \"#utility.yul\":18995:19017   */\n      add\n        /* \"#utility.yul\":18989:18993   */\n      dup9\n        /* \"#utility.yul\":18982:19018   */\n      sstore\n        /* \"#utility.yul\":18417:19028   */\n      pop\n      pop\n      pop\n        /* \"#utility.yul\":18380:19267   */\n    tag_314:\n      pop\n        /* \"#utility.yul\":17970:19273   */\n      pop\n      pop\n      pop\n        /* \"#utility.yul\":17878:19273   */\n      pop\n      pop\n      jump\t// out\n        /* \"#utility.yul\":19279:19427   */\n    tag_147:\n        /* \"#utility.yul\":19377:19383   */\n      dup3\n        /* \"#utility.yul\":19372:19375   */\n      dup2\n        /* \"#utility.yul\":19367:19370   */\n      dup4\n        /* \"#utility.yul\":19354:19384   */\n      calldatacopy\n        /* \"#utility.yul\":19418:19419   */\n      0x00\n        /* \"#utility.yul\":19409:19415   */\n      dup4\n        /* \"#utility.yul\":19404:19407   */\n      dup4\n        /* \"#utility.yul\":19400:19416   */\n      add\n        /* \"#utility.yul\":19393:19420   */\n      mstore\n        /* \"#utility.yul\":19279:19427   */\n      pop\n      pop\n      pop\n      jump\t// out\n        /* \"#utility.yul\":19433:19535   */\n    tag_148:\n        /* \"#utility.yul\":19474:19480   */\n      0x00\n        /* \"#utility.yul\":19525:19527   */\n      0x1f\n        /* \"#utility.yul\":19521:19528   */\n      not\n        /* \"#utility.yul\":19516:19518   */\n      0x1f\n        /* \"#utility.yul\":19509:19514   */\n      dup4\n        /* \"#utility.yul\":19505:19519   */\n      add\n        /* \"#utility.yul\":19501:19529   */\n      and\n        /* \"#utility.yul\":19491:19529   */\n      swap1\n      pop\n        /* \"#utility.yul\":19433:19535   */\n      swap2\n      swap1\n      pop\n      jump\t// out\n        /* \"#utility.yul\":19565:19882   */\n    tag_149:\n        /* \"#utility.yul\":19663:19666   */\n      0x00\n        /* \"#utility.yul\":19684:19755   */\n      tag_327\n        /* \"#utility.yul\":19748:19754   */\n      dup4\n        /* \"#utility.yul\":19743:19746   */\n      dup6\n        /* \"#utility.yul\":19684:19755   */\n      tag_106\n      jump\t// in\n    tag_327:\n        /* \"#utility.yul\":19677:19755   */\n      swap4\n      pop\n        /* \"#utility.yul\":19765:19821   */\n      tag_328\n        /* \"#utility.yul\":19814:19820   */\n      dup4\n        /* \"#utility.yul\":19809:19812   */\n      dup6\n        /* \"#utility.yul\":19802:19807   */\n      dup5\n        /* \"#utility.yul\":19765:19821   */\n      tag_147\n      jump\t// in\n    tag_328:\n        /* \"#utility.yul\":19846:19875   */\n      tag_329\n        /* \"#utility.yul\":19868:19874   */\n      dup4\n        /* \"#utility.yul\":19846:19875   */\n      tag_148\n      jump\t// in\n    tag_329:\n        /* \"#utility.yul\":19841:19844   */\n      dup5\n        /* \"#utility.yul\":19837:19876   */\n      add\n        /* \"#utility.yul\":19830:19876   */\n      swap1\n      pop\n        /* \"#utility.yul\":19565:19882   */\n      swap4\n      swap3\n      pop\n      pop\n      pop\n      jump\t// out\n        /* \"#utility.yul\":19888:20441   */\n    tag_80:\n        /* \"#utility.yul\":20067:20071   */\n      0x00\n        /* \"#utility.yul\":20105:20107   */\n      0x60\n        /* \"#utility.yul\":20094:20103   */\n      dup3\n        /* \"#utility.yul\":20090:20108   */\n      add\n        /* \"#utility.yul\":20082:20108   */\n      swap1\n      pop\n        /* \"#utility.yul\":20118:20189   */\n      tag_331\n        /* \"#utility.yul\":20186:20187   */\n      0x00\n        /* \"#utility.yul\":20175:20184   */\n      dup4\n        /* \"#utility.yul\":20171:20188   */\n      add\n        /* \"#utility.yul\":20162:20168   */\n      dup8\n        /* \"#utility.yul\":20118:20189   */\n      tag_95\n      jump\t// in\n    tag_331:\n        /* \"#utility.yul\":20236:20245   */\n      dup2\n        /* \"#utility.yul\":20230:20234   */\n      dup2\n        /* \"#utility.yul\":20226:20246   */\n      sub\n        /* \"#utility.yul\":20221:20223   */\n      0x20\n        /* \"#utility.yul\":20210:20219   */\n      dup4\n        /* \"#utility.yul\":20206:20224   */\n      add\n        /* \"#utility.yul\":20199:20247   */\n      mstore\n        /* \"#utility.yul\":20264:20352   */\n      tag_332\n        /* \"#utility.yul\":20347:20351   */\n      dup2\n        /* \"#utility.yul\":20338:20344   */\n      dup6\n        /* \"#utility.yul\":20330:20336   */\n      dup8\n        /* \"#utility.yul\":20264:20352   */\n      tag_149\n      jump\t// in\n    tag_332:\n        /* \"#utility.yul\":20256:20352   */\n      swap1\n      pop\n        /* \"#utility.yul\":20362:20434   */\n      tag_333\n        /* \"#utility.yul\":20430:20432   */\n      0x40\n        /* \"#utility.yul\":20419:20428   */\n      dup4\n        /* \"#utility.yul\":20415:20433   */\n      add\n        /* \"#utility.yul\":20406:20412   */\n      dup5\n        /* \"#utility.yul\":20362:20434   */\n      tag_118\n      jump\t// in\n    tag_333:\n        /* \"#utility.yul\":19888:20441   */\n      swap6\n      swap5\n      pop\n      pop\n      pop\n      pop\n      pop\n      jump\t// out\n        /* \"#utility.yul\":20447:20617   */\n    tag_150:\n        /* \"#utility.yul\":20587:20609   */\n      0x53656e6420746865206578616374207072696365000000000000000000000000\n        /* \"#utility.yul\":20583:20584   */\n      0x00\n        /* \"#utility.yul\":20575:20581   */\n      dup3\n        /* \"#utility.yul\":20571:20585   */\n      add\n        /* \"#utility.yul\":20564:20610   */\n      mstore\n        /* \"#utility.yul\":20447:20617   */\n      pop\n      jump\t// out\n        /* \"#utility.yul\":20623:20989   */\n    tag_151:\n        /* \"#utility.yul\":20765:20768   */\n      0x00\n        /* \"#utility.yul\":20786:20853   */\n      tag_336\n        /* \"#utility.yul\":20850:20852   */\n      0x14\n        /* \"#utility.yul\":20845:20848   */\n      dup4\n        /* \"#utility.yul\":20786:20853   */\n      tag_106\n      jump\t// in\n    tag_336:\n        /* \"#utility.yul\":20779:20853   */\n      swap2\n      pop\n        /* \"#utility.yul\":20862:20955   */\n      tag_337\n        /* \"#utility.yul\":20951:20954   */\n      dup3\n        /* \"#utility.yul\":20862:20955   */\n      tag_150\n      jump\t// in\n    tag_337:\n        /* \"#utility.yul\":20980:20982   */\n      0x20\n        /* \"#utility.yul\":20975:20978   */\n      dup3\n        /* \"#utility.yul\":20971:20983   */\n      add\n        /* \"#utility.yul\":20964:20983   */\n      swap1\n      pop\n        /* \"#utility.yul\":20623:20989   */\n      swap2\n      swap1\n      pop\n      jump\t// out\n        /* \"#utility.yul\":20995:21414   */\n    tag_86:\n        /* \"#utility.yul\":21161:21165   */\n      0x00\n        /* \"#utility.yul\":21199:21201   */\n      0x20\n        /* \"#utility.yul\":21188:21197   */\n      dup3\n        /* \"#utility.yul\":21184:21202   */\n      add\n        /* \"#utility.yul\":21176:21202   */\n      swap1\n      pop\n        /* \"#utility.yul\":21248:21257   */\n      dup2\n        /* \"#utility.yul\":21242:21246   */\n      dup2\n        /* \"#utility.yul\":21238:21258   */\n      sub\n        /* \"#utility.yul\":21234:21235   */\n      0x00\n        /* \"#utility.yul\":21223:21232   */\n      dup4\n        /* \"#utility.yul\":21219:21236   */\n      add\n        /* \"#utility.yul\":21212:21259   */\n      mstore\n        /* \"#utility.yul\":21276:21407   */\n      tag_339\n        /* \"#utility.yul\":21402:21406   */\n      dup2\n        /* \"#utility.yul\":21276:21407   */\n      tag_151\n      jump\t// in\n    tag_339:\n        /* \"#utility.yul\":21268:21407   */\n      swap1\n      pop\n        /* \"#utility.yul\":20995:21414   */\n      swap2\n      swap1\n      pop\n      jump\t// out\n        /* \"#utility.yul\":21420:21973   */\n    tag_88:\n        /* \"#utility.yul\":21597:21601   */\n      0x00\n        /* \"#utility.yul\":21635:21638   */\n      0x80\n        /* \"#utility.yul\":21624:21633   */\n      dup3\n        /* \"#utility.yul\":21620:21639   */\n      add\n        /* \"#utility.yul\":21612:21639   */\n      swap1\n      pop\n        /* \"#utility.yul\":21649:21720   */\n      tag_341\n        /* \"#utility.yul\":21717:21718   */\n      0x00\n        /* \"#utility.yul\":21706:21715   */\n      dup4\n        /* \"#utility.yul\":21702:21719   */\n      add\n        /* \"#utility.yul\":21693:21699   */\n      dup8\n        /* \"#utility.yul\":21649:21720   */\n      tag_95\n      jump\t// in\n    tag_341:\n        /* \"#utility.yul\":21730:21802   */\n      tag_342\n        /* \"#utility.yul\":21798:21800   */\n      0x20\n        /* \"#utility.yul\":21787:21796   */\n      dup4\n        /* \"#utility.yul\":21783:21801   */\n      add\n        /* \"#utility.yul\":21774:21780   */\n      dup7\n        /* \"#utility.yul\":21730:21802   */\n      tag_118\n      jump\t// in\n    tag_342:\n        /* \"#utility.yul\":21812:21884   */\n      tag_343\n        /* \"#utility.yul\":21880:21882   */\n      0x40\n        /* \"#utility.yul\":21869:21878   */\n      dup4\n        /* \"#utility.yul\":21865:21883   */\n      add\n        /* \"#utility.yul\":21856:21862   */\n      dup6\n        /* \"#utility.yul\":21812:21884   */\n      tag_118\n      jump\t// in\n    tag_343:\n        /* \"#utility.yul\":21894:21966   */\n      tag_344\n        /* \"#utility.yul\":21962:21964   */\n      0x60\n        /* \"#utility.yul\":21951:21960   */\n      dup4\n        /* \"#utility.yul\":21947:21965   */\n      add\n        /* \"#utility.yul\":21938:21944   */\n      dup5\n        /* \"#utility.yul\":21894:21966   */\n      tag_118\n      jump\t// in\n    tag_344:\n        /* \"#utility.yul\":21420:21973   */\n      swap6\n      swap5\n      pop\n      pop\n      pop\n      pop\n      pop\n      jump\t// out\n        /* \"#utility.yul\":21979:22170   */\n    tag_90:\n        /* \"#utility.yul\":22019:22022   */\n      0x00\n        /* \"#utility.yul\":22038:22058   */\n      tag_346\n        /* \"#utility.yul\":22056:22057   */\n      dup3\n        /* \"#utility.yul\":22038:22058   */\n      tag_99\n      jump\t// in\n    tag_346:\n        /* \"#utility.yul\":22033:22058   */\n      swap2\n      pop\n        /* \"#utility.yul\":22072:22092   */\n      tag_347\n        /* \"#utility.yul\":22090:22091   */\n      dup4\n        /* \"#utility.yul\":22072:22092   */\n      tag_99\n      jump\t// in\n    tag_347:\n        /* \"#utility.yul\":22067:22092   */\n      swap3\n      pop\n        /* \"#utility.yul\":22115:22116   */\n      dup3\n        /* \"#utility.yul\":22112:22113   */\n      dup3\n        /* \"#utility.yul\":22108:22117   */\n      add\n        /* \"#utility.yul\":22101:22117   */\n      swap1\n      pop\n        /* \"#utility.yul\":22136:22139   */\n      dup1\n        /* \"#utility.yul\":22133:22134   */\n      dup3\n        /* \"#utility.yul\":22130:22140   */\n      gt\n        /* \"#utility.yul\":22127:22163   */\n      iszero\n      tag_348\n      jumpi\n        /* \"#utility.yul\":22143:22161   */\n      tag_349\n      tag_127\n      jump\t// in\n    tag_349:\n        /* \"#utility.yul\":22127:22163   */\n    tag_348:\n        /* \"#utility.yul\":21979:22170   */\n      swap3\n      swap2\n      pop\n      pop\n      jump\t// out\n        /* \"#utility.yul\":22176:22618   */\n    tag_92:\n        /* \"#utility.yul\":22325:22329   */\n      0x00\n        /* \"#utility.yul\":22363:22365   */\n      0x60\n        /* \"#utility.yul\":22352:22361   */\n      dup3\n        /* \"#utility.yul\":22348:22366   */\n      add\n        /* \"#utility.yul\":22340:22366   */\n      swap1\n      pop\n        /* \"#utility.yul\":22376:22447   */\n      tag_351\n        /* \"#utility.yul\":22444:22445   */\n      0x00\n        /* \"#utility.yul\":22433:22442   */\n      dup4\n        /* \"#utility.yul\":22429:22446   */\n      add\n        /* \"#utility.yul\":22420:22426   */\n      dup7\n        /* \"#utility.yul\":22376:22447   */\n      tag_118\n      jump\t// in\n    tag_351:\n        /* \"#utility.yul\":22457:22529   */\n      tag_352\n        /* \"#utility.yul\":22525:22527   */\n      0x20\n        /* \"#utility.yul\":22514:22523   */\n      dup4\n        /* \"#utility.yul\":22510:22528   */\n      add\n        /* \"#utility.yul\":22501:22507   */\n      dup6\n        /* \"#utility.yul\":22457:22529   */\n      tag_118\n      jump\t// in\n    tag_352:\n        /* \"#utility.yul\":22539:22611   */\n      tag_353\n        /* \"#utility.yul\":22607:22609   */\n      0x40\n        /* \"#utility.yul\":22596:22605   */\n      dup4\n        /* \"#utility.yul\":22592:22610   */\n      add\n        /* \"#utility.yul\":22583:22589   */\n      dup5\n        /* \"#utility.yul\":22539:22611   */\n      tag_118\n      jump\t// in\n    tag_353:\n        /* \"#utility.yul\":22176:22618   */\n      swap5\n      swap4\n      pop\n      pop\n      pop\n      pop\n      jump\t// out\n\n    auxdata: 0xa2646970667358221220421e60fa3392131fb38e3bd147386e6d65504ab654af549f0981f046e88e978464736f6c634300081e0033\n}\n",
				"bytecode": {
					"linkReferences": {},
					"object": "6080604052601e6002556040516116f53803806116f5833981810160405281019061002a919061010d565b335f5f6101000a81548173ffffffffffffffffffffffffffffffffffffffff021916908373ffffffffffffffffffffffffffffffffffffffff1602179055508060015f6101000a81548173ffffffffffffffffffffffffffffffffffffffff021916908373ffffffffffffffffffffffffffffffffffffffff16021790555050610138565b5f5ffd5b5f73ffffffffffffffffffffffffffffffffffffffff82169050919050565b5f6100dc826100b3565b9050919050565b6100ec816100d2565b81146100f6575f5ffd5b50565b5f81519050610107816100e3565b92915050565b5f60208284031215610122576101216100af565b5b5f61012f848285016100f9565b91505092915050565b6115b0806101455f395ff3fe608060405260043610610054575f3560e01c806302d05d3f1461005857806303c17a3814610082578063224270471461009e57806325fcba48146100ba5780637150d8ae146100d657806395787d2614610100575b5f5ffd5b348015610063575f5ffd5b5061006c61011c565b6040516100799190610ab2565b60405180910390f35b61009c60048036038101906100979190610b06565b610140565b005b6100b860048036038101906100b39190610b06565b6103f3565b005b6100d460048036038101906100cf9190610b92565b6106de565b005b3480156100e1575f5ffd5b506100ea61089a565b6040516100f79190610ab2565b60405180910390f35b61011a60048036038101906101159190610b06565b6108bf565b005b5f5f9054906101000a900473ffffffffffffffffffffffffffffffffffffffff1681565b60015f9054906101000a900473ffffffffffffffffffffffffffffffffffffffff1673ffffffffffffffffffffffffffffffffffffffff163373ffffffffffffffffffffffffffffffffffffffff16146101cf576040517f08c379a00000000000000000000000000000000000000000000000000000000081526004016101c690610c37565b60405180910390fd5b60035f8281526020019081526020015f206003015f9054906101000a900460ff1661022f576040517f08c379a000000000000000000000000000000000000000000000000000000000815260040161022690610c9f565b60405180910390fd5b4260035f8381526020019081526020015f20600401541015610286576040517f08c379a000000000000000000000000000000000000000000000000000000000815260040161027d90610d07565b60405180910390fd5b5f60035f8381526020019081526020015f206001015490505f60035f8481526020019081526020015f206003015f6101000a81548160ff0219169083151502179055505f60015f9054906101000a900473ffffffffffffffffffffffffffffffffffffffff1673ffffffffffffffffffffffffffffffffffffffff168260405161030f90610d52565b5f6040518083038185875af1925050503d805f8114610349576040519150601f19603f3d011682016040523d82523d5f602084013e61034e565b606091505b5050905080610392576040517f08c379a000000000000000000000000000000000000000000000000000000000815260040161038990610db0565b60405180910390fd5b7f41865e4a290e1b5198a92ed40dbe11cfc8e05a0e9816d9358e68792aaa31d0ef8360015f9054906101000a900473ffffffffffffffffffffffffffffffffffffffff16426040516103e693929190610ddd565b60405180910390a1505050565b5f5f9054906101000a900473ffffffffffffffffffffffffffffffffffffffff1673ffffffffffffffffffffffffffffffffffffffff163373ffffffffffffffffffffffffffffffffffffffff1614610481576040517f08c379a000000000000000000000000000000000000000000000000000000000815260040161047890610e5c565b60405180910390fd5b60035f8281526020019081526020015f206003015f9054906101000a900460ff166104e1576040517f08c379a00000000000000000000000000000000000000000000000000000000081526004016104d890610eea565b60405180910390fd5b4260035f8381526020019081526020015f20600401541115610538576040517f08c379a000000000000000000000000000000000000000000000000000000000815260040161052f90610f78565b60405180910390fd5b5f60035f8381526020019081526020015f206001015490505f60035f8481526020019081526020015f206003015f6101000a81548160ff0219169083151502179055505f5f5f9054906101000a900473ffffffffffffffffffffffffffffffffffffffff1673ffffffffffffffffffffffffffffffffffffffff16826040516105c090610d52565b5f6040518083038185875af1925050503d805f81146105fa576040519150601f19603f3d011682016040523d82523d5f602084013e6105ff565b606091505b5050905080610643576040517f08c379a000000000000000000000000000000000000000000000000000000000815260040161063a90610fe0565b60405180910390fd5b7f52d0ae120dc8d9034c7bf60cd9ec0ea66a5c28c16d993d7c1d80411ca949d43b835f5f9054906101000a900473ffffffffffffffffffffffffffffffffffffffff1684426040516106989493929190610ffe565b60405180910390a17faf7923d787203dddf63f6a25779f92f39cb2860086e34a30a6a1431faab2420b83426040516106d1929190611041565b60405180910390a1505050565b60015f9054906101000a900473ffffffffffffffffffffffffffffffffffffffff1673ffffffffffffffffffffffffffffffffffffffff163373ffffffffffffffffffffffffffffffffffffffff161461076d576040517f08c379a000000000000000000000000000000000000000000000000000000000815260040161076490610c37565b60405180910390fd5b60045f81548092919061077f90611095565b91905055506040518060a0016040528083838080601f0160208091040260200160405190810160405280939291908181526020018383808284375f81840152601f19601f8201169050808301925050505050505081526020015f81526020014281526020015f151581526020015f81525060035f60045481526020019081526020015f205f820151815f0190816108169190611310565b5060208201518160010155604082015181600201556060820151816003015f6101000a81548160ff021916908315150217905550608082015181600401559050507f5789e1b3d4695fa154712feee81fb999f284d3c57e3d8da4ca5b26f35f28673e33838360045460405161088e9493929190611429565b60405180910390a15050565b60015f9054906101000a900473ffffffffffffffffffffffffffffffffffffffff1681565b3373ffffffffffffffffffffffffffffffffffffffff1660015f9054906101000a900473ffffffffffffffffffffffffffffffffffffffff1673ffffffffffffffffffffffffffffffffffffffff161461094e576040517f08c379a000000000000000000000000000000000000000000000000000000000815260040161094590610c37565b60405180910390fd5b3460035f8381526020019081526020015f2060010154146109a4576040517f08c379a000000000000000000000000000000000000000000000000000000000815260040161099b906114b1565b60405180910390fd5b600160035f8381526020019081526020015f206003015f6101000a81548160ff0219169083151502179055507f750e6bbedd4312ada35caa75e07fc0b85f1a6fc9c675e6962aef84691871109733823442604051610a0594939291906114cf565b60405180910390a160025442610a1b9190611512565b60035f8381526020019081526020015f20600401819055507f2c51b956ca3e342f3e03fd4c0d0fbbebbc3c57f0317236c62661f552d3e594688142600254604051610a6893929190611545565b60405180910390a150565b5f73ffffffffffffffffffffffffffffffffffffffff82169050919050565b5f610a9c82610a73565b9050919050565b610aac81610a92565b82525050565b5f602082019050610ac55f830184610aa3565b92915050565b5f5ffd5b5f5ffd5b5f819050919050565b610ae581610ad3565b8114610aef575f5ffd5b50565b5f81359050610b0081610adc565b92915050565b5f60208284031215610b1b57610b1a610acb565b5b5f610b2884828501610af2565b91505092915050565b5f5ffd5b5f5ffd5b5f5ffd5b5f5f83601f840112610b5257610b51610b31565b5b8235905067ffffffffffffffff811115610b6f57610b6e610b35565b5b602083019150836001820283011115610b8b57610b8a610b39565b5b9250929050565b5f5f60208385031215610ba857610ba7610acb565b5b5f83013567ffffffffffffffff811115610bc557610bc4610acf565b5b610bd185828601610b3d565b92509250509250929050565b5f82825260208201905092915050565b7f4f6e6c792062757965722063616e20726566756e6400000000000000000000005f82015250565b5f610c21601583610bdd565b9150610c2c82610bed565b602082019050919050565b5f6020820190508181035f830152610c4e81610c15565b9050919050565b7f4f72646572206e6f7420706169640000000000000000000000000000000000005f82015250565b5f610c89600e83610bdd565b9150610c9482610c55565b602082019050919050565b5f6020820190508181035f830152610cb681610c7d565b9050919050565b7f43616e6e6f7420726566756e642061667465722074686520646561646c696e655f82015250565b5f610cf1602083610bdd565b9150610cfc82610cbd565b602082019050919050565b5f6020820190508181035f830152610d1e81610ce5565b9050919050565b5f81905092915050565b50565b5f610d3d5f83610d25565b9150610d4882610d2f565b5f82019050919050565b5f610d5c82610d32565b9150819050919050565b7f526566756e64206661696c6564000000000000000000000000000000000000005f82015250565b5f610d9a600d83610bdd565b9150610da582610d66565b602082019050919050565b5f6020820190508181035f830152610dc781610d8e565b9050919050565b610dd781610ad3565b82525050565b5f606082019050610df05f830186610dce565b610dfd6020830185610aa3565b610e0a6040830184610dce565b949350505050565b7f4f6e6c792063726561746f722063616e2067657420746865207061796f7574005f82015250565b5f610e46601f83610bdd565b9150610e5182610e12565b602082019050919050565b5f6020820190508181035f830152610e7381610e3a565b9050919050565b7f4f72646572206d757374206265207061696420696e206f7264657220746f20725f8201527f65636569766520746865207061796f7574000000000000000000000000000000602082015250565b5f610ed4603183610bdd565b9150610edf82610e7a565b604082019050919050565b5f6020820190508181035f830152610f0181610ec8565b9050919050565b7f43616e6e6f74207265636569766520746865207061796f7574206265666f72655f8201527f2074686520646561646c696e6500000000000000000000000000000000000000602082015250565b5f610f62602d83610bdd565b9150610f6d82610f08565b604082019050919050565b5f6020820190508181035f830152610f8f81610f56565b9050919050565b7f5061796f7574206661696c6564000000000000000000000000000000000000005f82015250565b5f610fca600d83610bdd565b9150610fd582610f96565b602082019050919050565b5f6020820190508181035f830152610ff781610fbe565b9050919050565b5f6080820190506110115f830187610dce565b61101e6020830186610aa3565b61102b6040830185610dce565b6110386060830184610dce565b95945050505050565b5f6040820190506110545f830185610dce565b6110616020830184610dce565b9392505050565b7f4e487b71000000000000000000000000000000000000000000000000000000005f52601160045260245ffd5b5f61109f82610ad3565b91507fffffffffffffffffffffffffffffffffffffffffffffffffffffffffffffffff82036110d1576110d0611068565b5b600182019050919050565b5f81519050919050565b7f4e487b71000000000000000000000000000000000000000000000000000000005f52604160045260245ffd5b7f4e487b71000000000000000000000000000000000000000000000000000000005f52602260045260245ffd5b5f600282049050600182168061115757607f821691505b60208210810361116a57611169611113565b5b50919050565b5f819050815f5260205f209050919050565b5f6020601f8301049050919050565b5f82821b905092915050565b5f600883026111cc7fffffffffffffffffffffffffffffffffffffffffffffffffffffffffffffffff82611191565b6111d68683611191565b95508019841693508086168417925050509392505050565b5f819050919050565b5f61121161120c61120784610ad3565b6111ee565b610ad3565b9050919050565b5f819050919050565b61122a836111f7565b61123e61123682611218565b84845461119d565b825550505050565b5f5f905090565b611255611246565b611260818484611221565b505050565b5b81811015611283576112785f8261124d565b600181019050611266565b5050565b601f8211156112c85761129981611170565b6112a284611182565b810160208510156112b1578190505b6112c56112bd85611182565b830182611265565b50505b505050565b5f82821c905092915050565b5f6112e85f19846008026112cd565b1980831691505092915050565b5f61130083836112d9565b9150826002028217905092915050565b611319826110dc565b67ffffffffffffffff811115611332576113316110e6565b5b61133c8254611140565b611347828285611287565b5f60209050601f831160018114611378575f8415611366578287015190505b61137085826112f5565b8655506113d7565b601f19841661138686611170565b5f5b828110156113ad57848901518255600182019150602085019450602081019050611388565b868310156113ca57848901516113c6601f8916826112d9565b8355505b6001600288020188555050505b505050505050565b828183375f83830152505050565b5f601f19601f8301169050919050565b5f6114088385610bdd565b93506114158385846113df565b61141e836113ed565b840190509392505050565b5f60608201905061143c5f830187610aa3565b818103602083015261144f8185876113fd565b905061145e6040830184610dce565b95945050505050565b7f53656e64207468652065786163742070726963650000000000000000000000005f82015250565b5f61149b601483610bdd565b91506114a682611467565b602082019050919050565b5f6020820190508181035f8301526114c88161148f565b9050919050565b5f6080820190506114e25f830187610aa3565b6114ef6020830186610dce565b6114fc6040830185610dce565b6115096060830184610dce565b95945050505050565b5f61151c82610ad3565b915061152783610ad3565b925082820190508082111561153f5761153e611068565b5b92915050565b5f6060820190506115585f830186610dce565b6115656020830185610dce565b6115726040830184610dce565b94935050505056fea2646970667358221220421e60fa3392131fb38e3bd147386e6d65504ab654af549f0981f046e88e978464736f6c634300081e0033",
					"opcodes": "PUSH1 0x80 PUSH1 0x40 MSTORE PUSH1 0x1E PUSH1 0x2 SSTORE PUSH1 0x40 MLOAD PUSH2 0x16F5 CODESIZE SUB DUP1 PUSH2 0x16F5 DUP4 CODECOPY DUP2 DUP2 ADD PUSH1 0x40 MSTORE DUP2 ADD SWAP1 PUSH2 0x2A SWAP2 SWAP1 PUSH2 0x10D JUMP JUMPDEST CALLER PUSH0 PUSH0 PUSH2 0x100 EXP DUP2 SLOAD DUP2 PUSH20 0xFFFFFFFFFFFFFFFFFFFFFFFFFFFFFFFFFFFFFFFF MUL NOT AND SWAP1 DUP4 PUSH20 0xFFFFFFFFFFFFFFFFFFFFFFFFFFFFFFFFFFFFFFFF AND MUL OR SWAP1 SSTORE POP DUP1 PUSH1 0x1 PUSH0 PUSH2 0x100 EXP DUP2 SLOAD DUP2 PUSH20 0xFFFFFFFFFFFFFFFFFFFFFFFFFFFFFFFFFFFFFFFF MUL NOT AND SWAP1 DUP4 PUSH20 0xFFFFFFFFFFFFFFFFFFFFFFFFFFFFFFFFFFFFFFFF AND MUL OR SWAP1 SSTORE POP POP PUSH2 0x138 JUMP JUMPDEST PUSH0 PUSH0 REVERT JUMPDEST PUSH0 PUSH20 0xFFFFFFFFFFFFFFFFFFFFFFFFFFFFFFFFFFFFFFFF DUP3 AND SWAP1 POP SWAP2 SWAP1 POP JUMP JUMPDEST PUSH0 PUSH2 0xDC DUP3 PUSH2 0xB3 JUMP JUMPDEST SWAP1 POP SWAP2 SWAP1 POP JUMP JUMPDEST PUSH2 0xEC DUP2 PUSH2 0xD2 JUMP JUMPDEST DUP2 EQ PUSH2 0xF6 JUMPI PUSH0 PUSH0 REVERT JUMPDEST POP JUMP JUMPDEST PUSH0 DUP2 MLOAD SWAP1 POP PUSH2 0x107 DUP2 PUSH2 0xE3 JUMP JUMPDEST SWAP3 SWAP2 POP POP JUMP JUMPDEST PUSH0 PUSH1 0x20 DUP3 DUP5 SUB SLT ISZERO PUSH2 0x122 JUMPI PUSH2 0x121 PUSH2 0xAF JUMP JUMPDEST JUMPDEST PUSH0 PUSH2 0x12F DUP5 DUP3 DUP6 ADD PUSH2 0xF9 JUMP JUMPDEST SWAP2 POP POP SWAP3 SWAP2 POP POP JUMP JUMPDEST PUSH2 0x15B0 DUP1 PUSH2 0x145 PUSH0 CODECOPY PUSH0 RETURN INVALID PUSH1 0x80 PUSH1 0x40 MSTORE PUSH1 0x4 CALLDATASIZE LT PUSH2 0x54 JUMPI PUSH0 CALLDATALOAD PUSH1 0xE0 SHR DUP1 PUSH4 0x2D05D3F EQ PUSH2 0x58 JUMPI DUP1 PUSH4 0x3C17A38 EQ PUSH2 0x82 JUMPI DUP1 PUSH4 0x22427047 EQ PUSH2 0x9E JUMPI DUP1 PUSH4 0x25FCBA48 EQ PUSH2 0xBA JUMPI DUP1 PUSH4 0x7150D8AE EQ PUSH2 0xD6 JUMPI DUP1 PUSH4 0x95787D26 EQ PUSH2 0x100 JUMPI JUMPDEST PUSH0 PUSH0 REVERT JUMPDEST CALLVALUE DUP1 ISZERO PUSH2 0x63 JUMPI PUSH0 PUSH0 REVERT JUMPDEST POP PUSH2 0x6C PUSH2 0x11C JUMP JUMPDEST PUSH1 0x40 MLOAD PUSH2 0x79 SWAP2 SWAP1 PUSH2 0xAB2 JUMP JUMPDEST PUSH1 0x40 MLOAD DUP1 SWAP2 SUB SWAP1 RETURN JUMPDEST PUSH2 0x9C PUSH1 0x4 DUP1 CALLDATASIZE SUB DUP2 ADD SWAP1 PUSH2 0x97 SWAP2 SWAP1 PUSH2 0xB06 JUMP JUMPDEST PUSH2 0x140 JUMP JUMPDEST STOP JUMPDEST PUSH2 0xB8 PUSH1 0x4 DUP1 CALLDATASIZE SUB DUP2 ADD SWAP1 PUSH2 0xB3 SWAP2 SWAP1 PUSH2 0xB06 JUMP JUMPDEST PUSH2 0x3F3 JUMP JUMPDEST STOP JUMPDEST PUSH2 0xD4 PUSH1 0x4 DUP1 CALLDATASIZE SUB DUP2 ADD SWAP1 PUSH2 0xCF SWAP2 SWAP1 PUSH2 0xB92 JUMP JUMPDEST PUSH2 0x6DE JUMP JUMPDEST STOP JUMPDEST CALLVALUE DUP1 ISZERO PUSH2 0xE1 JUMPI PUSH0 PUSH0 REVERT JUMPDEST POP PUSH2 0xEA PUSH2 0x89A JUMP JUMPDEST PUSH1 0x40 MLOAD PUSH2 0xF7 SWAP2 SWAP1 PUSH2 0xAB2 JUMP JUMPDEST PUSH1 0x40 MLOAD DUP1 SWAP2 SUB SWAP1 RETURN JUMPDEST PUSH2 0x11A PUSH1 0x4 DUP1 CALLDATASIZE SUB DUP2 ADD SWAP1 PUSH2 0x115 SWAP2 SWAP1 PUSH2 0xB06 JUMP JUMPDEST PUSH2 0x8BF JUMP JUMPDEST STOP JUMPDEST PUSH0 PUSH0 SWAP1 SLOAD SWAP1 PUSH2 0x100 EXP SWAP1 DIV PUSH20 0xFFFFFFFFFFFFFFFFFFFFFFFFFFFFFFFFFFFFFFFF AND DUP2 JUMP JUMPDEST PUSH1 0x1 PUSH0 SWAP1 SLOAD SWAP1 PUSH2 0x100 EXP SWAP1 DIV PUSH20 0xFFFFFFFFFFFFFFFFFFFFFFFFFFFFFFFFFFFFFFFF AND PUSH20 0xFFFFFFFFFFFFFFFFFFFFFFFFFFFFFFFFFFFFFFFF AND CALLER PUSH20 0xFFFFFFFFFFFFFFFFFFFFFFFFFFFFFFFFFFFFFFFF AND EQ PUSH2 0x1CF JUMPI PUSH1 0x40 MLOAD PUSH32 0x8C379A000000000000000000000000000000000000000000000000000000000 DUP2 MSTORE PUSH1 0x4 ADD PUSH2 0x1C6 SWAP1 PUSH2 0xC37 JUMP JUMPDEST PUSH1 0x40 MLOAD DUP1 SWAP2 SUB SWAP1 REVERT JUMPDEST PUSH1 0x3 PUSH0 DUP3 DUP2 MSTORE PUSH1 0x20 ADD SWAP1 DUP2 MSTORE PUSH1 0x20 ADD PUSH0 KECCAK256 PUSH1 0x3 ADD PUSH0 SWAP1 SLOAD SWAP1 PUSH2 0x100 EXP SWAP1 DIV PUSH1 0xFF AND PUSH2 0x22F JUMPI PUSH1 0x40 MLOAD PUSH32 0x8C379A000000000000000000000000000000000000000000000000000000000 DUP2 MSTORE PUSH1 0x4 ADD PUSH2 0x226 SWAP1 PUSH2 0xC9F JUMP JUMPDEST PUSH1 0x40 MLOAD DUP1 SWAP2 SUB SWAP1 REVERT JUMPDEST TIMESTAMP PUSH1 0x3 PUSH0 DUP4 DUP2 MSTORE PUSH1 0x20 ADD SWAP1 DUP2 MSTORE PUSH1 0x20 ADD PUSH0 KECCAK256 PUSH1 0x4 ADD SLOAD LT ISZERO PUSH2 0x286 JUMPI PUSH1 0x40 MLOAD PUSH32 0x8C379A000000000000000000000000000000000000000000000000000000000 DUP2 MSTORE PUSH1 0x4 ADD PUSH2 0x27D SWAP1 PUSH2 0xD07 JUMP JUMPDEST PUSH1 0x40 MLOAD DUP1 SWAP2 SUB SWAP1 REVERT JUMPDEST PUSH0 PUSH1 0x3 PUSH0 DUP4 DUP2 MSTORE PUSH1 0x20 ADD SWAP1 DUP2 MSTORE PUSH1 0x20 ADD PUSH0 KECCAK256 PUSH1 0x1 ADD SLOAD SWAP1 POP PUSH0 PUSH1 0x3 PUSH0 DUP5 DUP2 MSTORE PUSH1 0x20 ADD SWAP1 DUP2 MSTORE PUSH1 0x20 ADD PUSH0 KECCAK256 PUSH1 0x3 ADD PUSH0 PUSH2 0x100 EXP DUP2 SLOAD DUP2 PUSH1 0xFF MUL NOT AND SWAP1 DUP4 ISZERO ISZERO MUL OR SWAP1 SSTORE POP PUSH0 PUSH1 0x1 PUSH0 SWAP1 SLOAD SWAP1 PUSH2 0x100 EXP SWAP1 DIV PUSH20 0xFFFFFFFFFFFFFFFFFFFFFFFFFFFFFFFFFFFFFFFF AND PUSH20 0xFFFFFFFFFFFFFFFFFFFFFFFFFFFFFFFFFFFFFFFF AND DUP3 PUSH1 0x40 MLOAD PUSH2 0x30F SWAP1 PUSH2 0xD52 JUMP JUMPDEST PUSH0 PUSH1 0x40 MLOAD DUP1 DUP4 SUB DUP2 DUP6 DUP8 GAS CALL SWAP3 POP POP POP RETURNDATASIZE DUP1 PUSH0 DUP2 EQ PUSH2 0x349 JUMPI PUSH1 0x40 MLOAD SWAP2 POP PUSH1 0x1F NOT PUSH1 0x3F RETURNDATASIZE ADD AND DUP3 ADD PUSH1 0x40 MSTORE RETURNDATASIZE DUP3 MSTORE RETURNDATASIZE PUSH0 PUSH1 0x20 DUP5 ADD RETURNDATACOPY PUSH2 0x34E JUMP JUMPDEST PUSH1 0x60 SWAP2 POP JUMPDEST POP POP SWAP1 POP DUP1 PUSH2 0x392 JUMPI PUSH1 0x40 MLOAD PUSH32 0x8C379A000000000000000000000000000000000000000000000000000000000 DUP2 MSTORE PUSH1 0x4 ADD PUSH2 0x389 SWAP1 PUSH2 0xDB0 JUMP JUMPDEST PUSH1 0x40 MLOAD DUP1 SWAP2 SUB SWAP1 REVERT JUMPDEST PUSH32 0x41865E4A290E1B5198A92ED40DBE11CFC8E05A0E9816D9358E68792AAA31D0EF DUP4 PUSH1 0x1 PUSH0 SWAP1 SLOAD SWAP1 PUSH2 0x100 EXP SWAP1 DIV PUSH20 0xFFFFFFFFFFFFFFFFFFFFFFFFFFFFFFFFFFFFFFFF AND TIMESTAMP PUSH1 0x40 MLOAD PUSH2 0x3E6 SWAP4 SWAP3 SWAP2 SWAP1 PUSH2 0xDDD JUMP JUMPDEST PUSH1 0x40 MLOAD DUP1 SWAP2 SUB SWAP1 LOG1 POP POP POP JUMP JUMPDEST PUSH0 PUSH0 SWAP1 SLOAD SWAP1 PUSH2 0x100 EXP SWAP1 DIV PUSH20 0xFFFFFFFFFFFFFFFFFFFFFFFFFFFFFFFFFFFFFFFF AND PUSH20 0xFFFFFFFFFFFFFFFFFFFFFFFFFFFFFFFFFFFFFFFF AND CALLER PUSH20 0xFFFFFFFFFFFFFFFFFFFFFFFFFFFFFFFFFFFFFFFF AND EQ PUSH2 0x481 JUMPI PUSH1 0x40 MLOAD PUSH32 0x8C379A000000000000000000000000000000000000000000000000000000000 DUP2 MSTORE PUSH1 0x4 ADD PUSH2 0x478 SWAP1 PUSH2 0xE5C JUMP JUMPDEST PUSH1 0x40 MLOAD DUP1 SWAP2 SUB SWAP1 REVERT JUMPDEST PUSH1 0x3 PUSH0 DUP3 DUP2 MSTORE PUSH1 0x20 ADD SWAP1 DUP2 MSTORE PUSH1 0x20 ADD PUSH0 KECCAK256 PUSH1 0x3 ADD PUSH0 SWAP1 SLOAD SWAP1 PUSH2 0x100 EXP SWAP1 DIV PUSH1 0xFF AND PUSH2 0x4E1 JUMPI PUSH1 0x40 MLOAD PUSH32 0x8C379A000000000000000000000000000000000000000000000000000000000 DUP2 MSTORE PUSH1 0x4 ADD PUSH2 0x4D8 SWAP1 PUSH2 0xEEA JUMP JUMPDEST PUSH1 0x40 MLOAD DUP1 SWAP2 SUB SWAP1 REVERT JUMPDEST TIMESTAMP PUSH1 0x3 PUSH0 DUP4 DUP2 MSTORE PUSH1 0x20 ADD SWAP1 DUP2 MSTORE PUSH1 0x20 ADD PUSH0 KECCAK256 PUSH1 0x4 ADD SLOAD GT ISZERO PUSH2 0x538 JUMPI PUSH1 0x40 MLOAD PUSH32 0x8C379A000000000000000000000000000000000000000000000000000000000 DUP2 MSTORE PUSH1 0x4 ADD PUSH2 0x52F SWAP1 PUSH2 0xF78 JUMP JUMPDEST PUSH1 0x40 MLOAD DUP1 SWAP2 SUB SWAP1 REVERT JUMPDEST PUSH0 PUSH1 0x3 PUSH0 DUP4 DUP2 MSTORE PUSH1 0x20 ADD SWAP1 DUP2 MSTORE PUSH1 0x20 ADD PUSH0 KECCAK256 PUSH1 0x1 ADD SLOAD SWAP1 POP PUSH0 PUSH1 0x3 PUSH0 DUP5 DUP2 MSTORE PUSH1 0x20 ADD SWAP1 DUP2 MSTORE PUSH1 0x20 ADD PUSH0 KECCAK256 PUSH1 0x3 ADD PUSH0 PUSH2 0x100 EXP DUP2 SLOAD DUP2 PUSH1 0xFF MUL NOT AND SWAP1 DUP4 ISZERO ISZERO MUL OR SWAP1 SSTORE POP PUSH0 PUSH0 PUSH0 SWAP1 SLOAD SWAP1 PUSH2 0x100 EXP SWAP1 DIV PUSH20 0xFFFFFFFFFFFFFFFFFFFFFFFFFFFFFFFFFFFFFFFF AND PUSH20 0xFFFFFFFFFFFFFFFFFFFFFFFFFFFFFFFFFFFFFFFF AND DUP3 PUSH1 0x40 MLOAD PUSH2 0x5C0 SWAP1 PUSH2 0xD52 JUMP JUMPDEST PUSH0 PUSH1 0x40 MLOAD DUP1 DUP4 SUB DUP2 DUP6 DUP8 GAS CALL SWAP3 POP POP POP RETURNDATASIZE DUP1 PUSH0 DUP2 EQ PUSH2 0x5FA JUMPI PUSH1 0x40 MLOAD SWAP2 POP PUSH1 0x1F NOT PUSH1 0x3F RETURNDATASIZE ADD AND DUP3 ADD PUSH1 0x40 MSTORE RETURNDATASIZE DUP3 MSTORE RETURNDATASIZE PUSH0 PUSH1 0x20 DUP5 ADD RETURNDATACOPY PUSH2 0x5FF JUMP JUMPDEST PUSH1 0x60 SWAP2 POP JUMPDEST POP POP SWAP1 POP DUP1 PUSH2 0x643 JUMPI PUSH1 0x40 MLOAD PUSH32 0x8C379A000000000000000000000000000000000000000000000000000000000 DUP2 MSTORE PUSH1 0x4 ADD PUSH2 0x63A SWAP1 PUSH2 0xFE0 JUMP JUMPDEST PUSH1 0x40 MLOAD DUP1 SWAP2 SUB SWAP1 REVERT JUMPDEST PUSH32 0x52D0AE120DC8D9034C7BF60CD9EC0EA66A5C28C16D993D7C1D80411CA949D43B DUP4 PUSH0 PUSH0 SWAP1 SLOAD SWAP1 PUSH2 0x100 EXP SWAP1 DIV PUSH20 0xFFFFFFFFFFFFFFFFFFFFFFFFFFFFFFFFFFFFFFFF AND DUP5 TIMESTAMP PUSH1 0x40 MLOAD PUSH2 0x698 SWAP5 SWAP4 SWAP3 SWAP2 SWAP1 PUSH2 0xFFE JUMP JUMPDEST PUSH1 0x40 MLOAD DUP1 SWAP2 SUB SWAP1 LOG1 PUSH32 0xAF7923D787203DDDF63F6A25779F92F39CB2860086E34A30A6A1431FAAB2420B DUP4 TIMESTAMP PUSH1 0x40 MLOAD PUSH2 0x6D1 SWAP3 SWAP2 SWAP1 PUSH2 0x1041 JUMP JUMPDEST PUSH1 0x40 MLOAD DUP1 SWAP2 SUB SWAP1 LOG1 POP POP POP JUMP JUMPDEST PUSH1 0x1 PUSH0 SWAP1 SLOAD SWAP1 PUSH2 0x100 EXP SWAP1 DIV PUSH20 0xFFFFFFFFFFFFFFFFFFFFFFFFFFFFFFFFFFFFFFFF AND PUSH20 0xFFFFFFFFFFFFFFFFFFFFFFFFFFFFFFFFFFFFFFFF AND CALLER PUSH20 0xFFFFFFFFFFFFFFFFFFFFFFFFFFFFFFFFFFFFFFFF AND EQ PUSH2 0x76D JUMPI PUSH1 0x40 MLOAD PUSH32 0x8C379A000000000000000000000000000000000000000000000000000000000 DUP2 MSTORE PUSH1 0x4 ADD PUSH2 0x764 SWAP1 PUSH2 0xC37 JUMP JUMPDEST PUSH1 0x40 MLOAD DUP1 SWAP2 SUB SWAP1 REVERT JUMPDEST PUSH1 0x4 PUSH0 DUP2 SLOAD DUP1 SWAP3 SWAP2 SWAP1 PUSH2 0x77F SWAP1 PUSH2 0x1095 JUMP JUMPDEST SWAP2 SWAP1 POP SSTORE POP PUSH1 0x40 MLOAD DUP1 PUSH1 0xA0 ADD PUSH1 0x40 MSTORE DUP1 DUP4 DUP4 DUP1 DUP1 PUSH1 0x1F ADD PUSH1 0x20 DUP1 SWAP2 DIV MUL PUSH1 0x20 ADD PUSH1 0x40 MLOAD SWAP1 DUP2 ADD PUSH1 0x40 MSTORE DUP1 SWAP4 SWAP3 SWAP2 SWAP1 DUP2 DUP2 MSTORE PUSH1 0x20 ADD DUP4 DUP4 DUP1 DUP3 DUP5 CALLDATACOPY PUSH0 DUP2 DUP5 ADD MSTORE PUSH1 0x1F NOT PUSH1 0x1F DUP3 ADD AND SWAP1 POP DUP1 DUP4 ADD SWAP3 POP POP POP POP POP POP POP DUP2 MSTORE PUSH1 0x20 ADD PUSH0 DUP2 MSTORE PUSH1 0x20 ADD TIMESTAMP DUP2 MSTORE PUSH1 0x20 ADD PUSH0 ISZERO ISZERO DUP2 MSTORE PUSH1 0x20 ADD PUSH0 DUP2 MSTORE POP PUSH1 0x3 PUSH0 PUSH1 0x4 SLOAD DUP2 MSTORE PUSH1 0x20 ADD SWAP1 DUP2 MSTORE PUSH1 0x20 ADD PUSH0 KECCAK256 PUSH0 DUP3 ADD MLOAD DUP2 PUSH0 ADD SWAP1 DUP2 PUSH2 0x816 SWAP2 SWAP1 PUSH2 0x1310 JUMP JUMPDEST POP PUSH1 0x20 DUP3 ADD MLOAD DUP2 PUSH1 0x1 ADD SSTORE PUSH1 0x40 DUP3 ADD MLOAD DUP2 PUSH1 0x2 ADD SSTORE PUSH1 0x60 DUP3 ADD MLOAD DUP2 PUSH1 0x3 ADD PUSH0 PUSH2 0x100 EXP DUP2 SLOAD DUP2 PUSH1 0xFF MUL NOT AND SWAP1 DUP4 ISZERO ISZERO MUL OR SWAP1 SSTORE POP PUSH1 0x80 DUP3 ADD MLOAD DUP2 PUSH1 0x4 ADD SSTORE SWAP1 POP POP PUSH32 0x5789E1B3D4695FA154712FEEE81FB999F284D3C57E3D8DA4CA5B26F35F28673E CALLER DUP4 DUP4 PUSH1 0x4 SLOAD PUSH1 0x40 MLOAD PUSH2 0x88E SWAP5 SWAP4 SWAP3 SWAP2 SWAP1 PUSH2 0x1429 JUMP JUMPDEST PUSH1 0x40 MLOAD DUP1 SWAP2 SUB SWAP1 LOG1 POP POP JUMP JUMPDEST PUSH1 0x1 PUSH0 SWAP1 SLOAD SWAP1 PUSH2 0x100 EXP SWAP1 DIV PUSH20 0xFFFFFFFFFFFFFFFFFFFFFFFFFFFFFFFFFFFFFFFF AND DUP2 JUMP JUMPDEST CALLER PUSH20 0xFFFFFFFFFFFFFFFFFFFFFFFFFFFFFFFFFFFFFFFF AND PUSH1 0x1 PUSH0 SWAP1 SLOAD SWAP1 PUSH2 0x100 EXP SWAP1 DIV PUSH20 0xFFFFFFFFFFFFFFFFFFFFFFFFFFFFFFFFFFFFFFFF AND PUSH20 0xFFFFFFFFFFFFFFFFFFFFFFFFFFFFFFFFFFFFFFFF AND EQ PUSH2 0x94E JUMPI PUSH1 0x40 MLOAD PUSH32 0x8C379A000000000000000000000000000000000000000000000000000000000 DUP2 MSTORE PUSH1 0x4 ADD PUSH2 0x945 SWAP1 PUSH2 0xC37 JUMP JUMPDEST PUSH1 0x40 MLOAD DUP1 SWAP2 SUB SWAP1 REVERT JUMPDEST CALLVALUE PUSH1 0x3 PUSH0 DUP4 DUP2 MSTORE PUSH1 0x20 ADD SWAP1 DUP2 MSTORE PUSH1 0x20 ADD PUSH0 KECCAK256 PUSH1 0x1 ADD SLOAD EQ PUSH2 0x9A4 JUMPI PUSH1 0x40 MLOAD PUSH32 0x8C379A000000000000000000000000000000000000000000000000000000000 DUP2 MSTORE PUSH1 0x4 ADD PUSH2 0x99B SWAP1 PUSH2 0x14B1 JUMP JUMPDEST PUSH1 0x40 MLOAD DUP1 SWAP2 SUB SWAP1 REVERT JUMPDEST PUSH1 0x1 PUSH1 0x3 PUSH0 DUP4 DUP2 MSTORE PUSH1 0x20 ADD SWAP1 DUP2 MSTORE PUSH1 0x20 ADD PUSH0 KECCAK256 PUSH1 0x3 ADD PUSH0 PUSH2 0x100 EXP DUP2 SLOAD DUP2 PUSH1 0xFF MUL NOT AND SWAP1 DUP4 ISZERO ISZERO MUL OR SWAP1 SSTORE POP PUSH32 0x750E6BBEDD4312ADA35CAA75E07FC0B85F1A6FC9C675E6962AEF846918711097 CALLER DUP3 CALLVALUE TIMESTAMP PUSH1 0x40 MLOAD PUSH2 0xA05 SWAP5 SWAP4 SWAP3 SWAP2 SWAP1 PUSH2 0x14CF JUMP JUMPDEST PUSH1 0x40 MLOAD DUP1 SWAP2 SUB SWAP1 LOG1 PUSH1 0x2 SLOAD TIMESTAMP PUSH2 0xA1B SWAP2 SWAP1 PUSH2 0x1512 JUMP JUMPDEST PUSH1 0x3 PUSH0 DUP4 DUP2 MSTORE PUSH1 0x20 ADD SWAP1 DUP2 MSTORE PUSH1 0x20 ADD PUSH0 KECCAK256 PUSH1 0x4 ADD DUP2 SWAP1 SSTORE POP PUSH32 0x2C51B956CA3E342F3E03FD4C0D0FBBEBBC3C57F0317236C62661F552D3E59468 DUP2 TIMESTAMP PUSH1 0x2 SLOAD PUSH1 0x40 MLOAD PUSH2 0xA68 SWAP4 SWAP3 SWAP2 SWAP1 PUSH2 0x1545 JUMP JUMPDEST PUSH1 0x40 MLOAD DUP1 SWAP2 SUB SWAP1 LOG1 POP JUMP JUMPDEST PUSH0 PUSH20 0xFFFFFFFFFFFFFFFFFFFFFFFFFFFFFFFFFFFFFFFF DUP3 AND SWAP1 POP SWAP2 SWAP1 POP JUMP JUMPDEST PUSH0 PUSH2 0xA9C DUP3 PUSH2 0xA73 JUMP JUMPDEST SWAP1 POP SWAP2 SWAP1 POP JUMP JUMPDEST PUSH2 0xAAC DUP2 PUSH2 0xA92 JUMP JUMPDEST DUP3 MSTORE POP POP JUMP JUMPDEST PUSH0 PUSH1 0x20 DUP3 ADD SWAP1 POP PUSH2 0xAC5 PUSH0 DUP4 ADD DUP5 PUSH2 0xAA3 JUMP JUMPDEST SWAP3 SWAP2 POP POP JUMP JUMPDEST PUSH0 PUSH0 REVERT JUMPDEST PUSH0 PUSH0 REVERT JUMPDEST PUSH0 DUP2 SWAP1 POP SWAP2 SWAP1 POP JUMP JUMPDEST PUSH2 0xAE5 DUP2 PUSH2 0xAD3 JUMP JUMPDEST DUP2 EQ PUSH2 0xAEF JUMPI PUSH0 PUSH0 REVERT JUMPDEST POP JUMP JUMPDEST PUSH0 DUP2 CALLDATALOAD SWAP1 POP PUSH2 0xB00 DUP2 PUSH2 0xADC JUMP JUMPDEST SWAP3 SWAP2 POP POP JUMP JUMPDEST PUSH0 PUSH1 0x20 DUP3 DUP5 SUB SLT ISZERO PUSH2 0xB1B JUMPI PUSH2 0xB1A PUSH2 0xACB JUMP JUMPDEST JUMPDEST PUSH0 PUSH2 0xB28 DUP5 DUP3 DUP6 ADD PUSH2 0xAF2 JUMP JUMPDEST SWAP2 POP POP SWAP3 SWAP2 POP POP JUMP JUMPDEST PUSH0 PUSH0 REVERT JUMPDEST PUSH0 PUSH0 REVERT JUMPDEST PUSH0 PUSH0 REVERT JUMPDEST PUSH0 PUSH0 DUP4 PUSH1 0x1F DUP5 ADD SLT PUSH2 0xB52 JUMPI PUSH2 0xB51 PUSH2 0xB31 JUMP JUMPDEST JUMPDEST DUP3 CALLDATALOAD SWAP1 POP PUSH8 0xFFFFFFFFFFFFFFFF DUP2 GT ISZERO PUSH2 0xB6F JUMPI PUSH2 0xB6E PUSH2 0xB35 JUMP JUMPDEST JUMPDEST PUSH1 0x20 DUP4 ADD SWAP2 POP DUP4 PUSH1 0x1 DUP3 MUL DUP4 ADD GT ISZERO PUSH2 0xB8B JUMPI PUSH2 0xB8A PUSH2 0xB39 JUMP JUMPDEST JUMPDEST SWAP3 POP SWAP3 SWAP1 POP JUMP JUMPDEST PUSH0 PUSH0 PUSH1 0x20 DUP4 DUP6 SUB SLT ISZERO PUSH2 0xBA8 JUMPI PUSH2 0xBA7 PUSH2 0xACB JUMP JUMPDEST JUMPDEST PUSH0 DUP4 ADD CALLDATALOAD PUSH8 0xFFFFFFFFFFFFFFFF DUP2 GT ISZERO PUSH2 0xBC5 JUMPI PUSH2 0xBC4 PUSH2 0xACF JUMP JUMPDEST JUMPDEST PUSH2 0xBD1 DUP6 DUP3 DUP7 ADD PUSH2 0xB3D JUMP JUMPDEST SWAP3 POP SWAP3 POP POP SWAP3 POP SWAP3 SWAP1 POP JUMP JUMPDEST PUSH0 DUP3 DUP3 MSTORE PUSH1 0x20 DUP3 ADD SWAP1 POP SWAP3 SWAP2 POP POP JUMP JUMPDEST PUSH32 0x4F6E6C792062757965722063616E20726566756E640000000000000000000000 PUSH0 DUP3 ADD MSTORE POP JUMP JUMPDEST PUSH0 PUSH2 0xC21 PUSH1 0x15 DUP4 PUSH2 0xBDD JUMP JUMPDEST SWAP2 POP PUSH2 0xC2C DUP3 PUSH2 0xBED JUMP JUMPDEST PUSH1 0x20 DUP3 ADD SWAP1 POP SWAP2 SWAP1 POP JUMP JUMPDEST PUSH0 PUSH1 0x20 DUP3 ADD SWAP1 POP DUP2 DUP2 SUB PUSH0 DUP4 ADD MSTORE PUSH2 0xC4E DUP2 PUSH2 0xC15 JUMP JUMPDEST SWAP1 POP SWAP2 SWAP1 POP JUMP JUMPDEST PUSH32 0x4F72646572206E6F742070616964000000000000000000000000000000000000 PUSH0 DUP3 ADD MSTORE POP JUMP JUMPDEST PUSH0 PUSH2 0xC89 PUSH1 0xE DUP4 PUSH2 0xBDD JUMP JUMPDEST SWAP2 POP PUSH2 0xC94 DUP3 PUSH2 0xC55 JUMP JUMPDEST PUSH1 0x20 DUP3 ADD SWAP1 POP SWAP2 SWAP1 POP JUMP JUMPDEST PUSH0 PUSH1 0x20 DUP3 ADD SWAP1 POP DUP2 DUP2 SUB PUSH0 DUP4 ADD MSTORE PUSH2 0xCB6 DUP2 PUSH2 0xC7D JUMP JUMPDEST SWAP1 POP SWAP2 SWAP1 POP JUMP JUMPDEST PUSH32 0x43616E6E6F7420726566756E642061667465722074686520646561646C696E65 PUSH0 DUP3 ADD MSTORE POP JUMP JUMPDEST PUSH0 PUSH2 0xCF1 PUSH1 0x20 DUP4 PUSH2 0xBDD JUMP JUMPDEST SWAP2 POP PUSH2 0xCFC DUP3 PUSH2 0xCBD JUMP JUMPDEST PUSH1 0x20 DUP3 ADD SWAP1 POP SWAP2 SWAP1 POP JUMP JUMPDEST PUSH0 PUSH1 0x20 DUP3 ADD SWAP1 POP DUP2 DUP2 SUB PUSH0 DUP4 ADD MSTORE PUSH2 0xD1E DUP2 PUSH2 0xCE5 JUMP JUMPDEST SWAP1 POP SWAP2 SWAP1 POP JUMP JUMPDEST PUSH0 DUP2 SWAP1 POP SWAP3 SWAP2 POP POP JUMP JUMPDEST POP JUMP JUMPDEST PUSH0 PUSH2 0xD3D PUSH0 DUP4 PUSH2 0xD25 JUMP JUMPDEST SWAP2 POP PUSH2 0xD48 DUP3 PUSH2 0xD2F JUMP JUMPDEST PUSH0 DUP3 ADD SWAP1 POP SWAP2 SWAP1 POP JUMP JUMPDEST PUSH0 PUSH2 0xD5C DUP3 PUSH2 0xD32 JUMP JUMPDEST SWAP2 POP DUP2 SWAP1 POP SWAP2 SWAP1 POP JUMP JUMPDEST PUSH32 0x526566756E64206661696C656400000000000000000000000000000000000000 PUSH0 DUP3 ADD MSTORE POP JUMP JUMPDEST PUSH0 PUSH2 0xD9A PUSH1 0xD DUP4 PUSH2 0xBDD JUMP JUMPDEST SWAP2 POP PUSH2 0xDA5 DUP3 PUSH2 0xD66 JUMP JUMPDEST PUSH1 0x20 DUP3 ADD SWAP1 POP SWAP2 SWAP1 POP JUMP JUMPDEST PUSH0 PUSH1 0x20 DUP3 ADD SWAP1 POP DUP2 DUP2 SUB PUSH0 DUP4 ADD MSTORE PUSH2 0xDC7 DUP2 PUSH2 0xD8E JUMP JUMPDEST SWAP1 POP SWAP2 SWAP1 POP JUMP JUMPDEST PUSH2 0xDD7 DUP2 PUSH2 0xAD3 JUMP JUMPDEST DUP3 MSTORE POP POP JUMP JUMPDEST PUSH0 PUSH1 0x60 DUP3 ADD SWAP1 POP PUSH2 0xDF0 PUSH0 DUP4 ADD DUP7 PUSH2 0xDCE JUMP JUMPDEST PUSH2 0xDFD PUSH1 0x20 DUP4 ADD DUP6 PUSH2 0xAA3 JUMP JUMPDEST PUSH2 0xE0A PUSH1 0x40 DUP4 ADD DUP5 PUSH2 0xDCE JUMP JUMPDEST SWAP5 SWAP4 POP POP POP POP JUMP JUMPDEST PUSH32 0x4F6E6C792063726561746F722063616E2067657420746865207061796F757400 PUSH0 DUP3 ADD MSTORE POP JUMP JUMPDEST PUSH0 PUSH2 0xE46 PUSH1 0x1F DUP4 PUSH2 0xBDD JUMP JUMPDEST SWAP2 POP PUSH2 0xE51 DUP3 PUSH2 0xE12 JUMP JUMPDEST PUSH1 0x20 DUP3 ADD SWAP1 POP SWAP2 SWAP1 POP JUMP JUMPDEST PUSH0 PUSH1 0x20 DUP3 ADD SWAP1 POP DUP2 DUP2 SUB PUSH0 DUP4 ADD MSTORE PUSH2 0xE73 DUP2 PUSH2 0xE3A JUMP JUMPDEST SWAP1 POP SWAP2 SWAP1 POP JUMP JUMPDEST PUSH32 0x4F72646572206D757374206265207061696420696E206F7264657220746F2072 PUSH0 DUP3 ADD MSTORE PUSH32 0x65636569766520746865207061796F7574000000000000000000000000000000 PUSH1 0x20 DUP3 ADD MSTORE POP JUMP JUMPDEST PUSH0 PUSH2 0xED4 PUSH1 0x31 DUP4 PUSH2 0xBDD JUMP JUMPDEST SWAP2 POP PUSH2 0xEDF DUP3 PUSH2 0xE7A JUMP JUMPDEST PUSH1 0x40 DUP3 ADD SWAP1 POP SWAP2 SWAP1 POP JUMP JUMPDEST PUSH0 PUSH1 0x20 DUP3 ADD SWAP1 POP DUP2 DUP2 SUB PUSH0 DUP4 ADD MSTORE PUSH2 0xF01 DUP2 PUSH2 0xEC8 JUMP JUMPDEST SWAP1 POP SWAP2 SWAP1 POP JUMP JUMPDEST PUSH32 0x43616E6E6F74207265636569766520746865207061796F7574206265666F7265 PUSH0 DUP3 ADD MSTORE PUSH32 0x2074686520646561646C696E6500000000000000000000000000000000000000 PUSH1 0x20 DUP3 ADD MSTORE POP JUMP JUMPDEST PUSH0 PUSH2 0xF62 PUSH1 0x2D DUP4 PUSH2 0xBDD JUMP JUMPDEST SWAP2 POP PUSH2 0xF6D DUP3 PUSH2 0xF08 JUMP JUMPDEST PUSH1 0x40 DUP3 ADD SWAP1 POP SWAP2 SWAP1 POP JUMP JUMPDEST PUSH0 PUSH1 0x20 DUP3 ADD SWAP1 POP DUP2 DUP2 SUB PUSH0 DUP4 ADD MSTORE PUSH2 0xF8F DUP2 PUSH2 0xF56 JUMP JUMPDEST SWAP1 POP SWAP2 SWAP1 POP JUMP JUMPDEST PUSH32 0x5061796F7574206661696C656400000000000000000000000000000000000000 PUSH0 DUP3 ADD MSTORE POP JUMP JUMPDEST PUSH0 PUSH2 0xFCA PUSH1 0xD DUP4 PUSH2 0xBDD JUMP JUMPDEST SWAP2 POP PUSH2 0xFD5 DUP3 PUSH2 0xF96 JUMP JUMPDEST PUSH1 0x20 DUP3 ADD SWAP1 POP SWAP2 SWAP1 POP JUMP JUMPDEST PUSH0 PUSH1 0x20 DUP3 ADD SWAP1 POP DUP2 DUP2 SUB PUSH0 DUP4 ADD MSTORE PUSH2 0xFF7 DUP2 PUSH2 0xFBE JUMP JUMPDEST SWAP1 POP SWAP2 SWAP1 POP JUMP JUMPDEST PUSH0 PUSH1 0x80 DUP3 ADD SWAP1 POP PUSH2 0x1011 PUSH0 DUP4 ADD DUP8 PUSH2 0xDCE JUMP JUMPDEST PUSH2 0x101E PUSH1 0x20 DUP4 ADD DUP7 PUSH2 0xAA3 JUMP JUMPDEST PUSH2 0x102B PUSH1 0x40 DUP4 ADD DUP6 PUSH2 0xDCE JUMP JUMPDEST PUSH2 0x1038 PUSH1 0x60 DUP4 ADD DUP5 PUSH2 0xDCE JUMP JUMPDEST SWAP6 SWAP5 POP POP POP POP POP JUMP JUMPDEST PUSH0 PUSH1 0x40 DUP3 ADD SWAP1 POP PUSH2 0x1054 PUSH0 DUP4 ADD DUP6 PUSH2 0xDCE JUMP JUMPDEST PUSH2 0x1061 PUSH1 0x20 DUP4 ADD DUP5 PUSH2 0xDCE JUMP JUMPDEST SWAP4 SWAP3 POP POP POP JUMP JUMPDEST PUSH32 0x4E487B7100000000000000000000000000000000000000000000000000000000 PUSH0 MSTORE PUSH1 0x11 PUSH1 0x4 MSTORE PUSH1 0x24 PUSH0 REVERT JUMPDEST PUSH0 PUSH2 0x109F DUP3 PUSH2 0xAD3 JUMP JUMPDEST SWAP2 POP PUSH32 0xFFFFFFFFFFFFFFFFFFFFFFFFFFFFFFFFFFFFFFFFFFFFFFFFFFFFFFFFFFFFFFFF DUP3 SUB PUSH2 0x10D1 JUMPI PUSH2 0x10D0 PUSH2 0x1068 JUMP JUMPDEST JUMPDEST PUSH1 0x1 DUP3 ADD SWAP1 POP SWAP2 SWAP1 POP JUMP JUMPDEST PUSH0 DUP2 MLOAD SWAP1 POP SWAP2 SWAP1 POP JUMP JUMPDEST PUSH32 0x4E487B7100000000000000000000000000000000000000000000000000000000 PUSH0 MSTORE PUSH1 0x41 PUSH1 0x4 MSTORE PUSH1 0x24 PUSH0 REVERT JUMPDEST PUSH32 0x4E487B7100000000000000000000000000000000000000000000000000000000 PUSH0 MSTORE PUSH1 0x22 PUSH1 0x4 MSTORE PUSH1 0x24 PUSH0 REVERT JUMPDEST PUSH0 PUSH1 0x2 DUP3 DIV SWAP1 POP PUSH1 0x1 DUP3 AND DUP1 PUSH2 0x1157 JUMPI PUSH1 0x7F DUP3 AND SWAP2 POP JUMPDEST PUSH1 0x20 DUP3 LT DUP2 SUB PUSH2 0x116A JUMPI PUSH2 0x1169 PUSH2 0x1113 JUMP JUMPDEST JUMPDEST POP SWAP2 SWAP1 POP JUMP JUMPDEST PUSH0 DUP2 SWAP1 POP DUP2 PUSH0 MSTORE PUSH1 0x20 PUSH0 KECCAK256 SWAP1 POP SWAP2 SWAP1 POP JUMP JUMPDEST PUSH0 PUSH1 0x20 PUSH1 0x1F DUP4 ADD DIV SWAP1 POP SWAP2 SWAP1 POP JUMP JUMPDEST PUSH0 DUP3 DUP3 SHL SWAP1 POP SWAP3 SWAP2 POP POP JUMP JUMPDEST PUSH0 PUSH1 0x8 DUP4 MUL PUSH2 0x11CC PUSH32 0xFFFFFFFFFFFFFFFFFFFFFFFFFFFFFFFFFFFFFFFFFFFFFFFFFFFFFFFFFFFFFFFF DUP3 PUSH2 0x1191 JUMP JUMPDEST PUSH2 0x11D6 DUP7 DUP4 PUSH2 0x1191 JUMP JUMPDEST SWAP6 POP DUP1 NOT DUP5 AND SWAP4 POP DUP1 DUP7 AND DUP5 OR SWAP3 POP POP POP SWAP4 SWAP3 POP POP POP JUMP JUMPDEST PUSH0 DUP2 SWAP1 POP SWAP2 SWAP1 POP JUMP JUMPDEST PUSH0 PUSH2 0x1211 PUSH2 0x120C PUSH2 0x1207 DUP5 PUSH2 0xAD3 JUMP JUMPDEST PUSH2 0x11EE JUMP JUMPDEST PUSH2 0xAD3 JUMP JUMPDEST SWAP1 POP SWAP2 SWAP1 POP JUMP JUMPDEST PUSH0 DUP2 SWAP1 POP SWAP2 SWAP1 POP JUMP JUMPDEST PUSH2 0x122A DUP4 PUSH2 0x11F7 JUMP JUMPDEST PUSH2 0x123E PUSH2 0x1236 DUP3 PUSH2 0x1218 JUMP JUMPDEST DUP5 DUP5 SLOAD PUSH2 0x119D JUMP JUMPDEST DUP3 SSTORE POP POP POP POP JUMP JUMPDEST PUSH0 PUSH0 SWAP1 POP SWAP1 JUMP JUMPDEST PUSH2 0x1255 PUSH2 0x1246 JUMP JUMPDEST PUSH2 0x1260 DUP2 DUP5 DUP5 PUSH2 0x1221 JUMP JUMPDEST POP POP POP JUMP JUMPDEST JUMPDEST DUP2 DUP2 LT ISZERO PUSH2 0x1283 JUMPI PUSH2 0x1278 PUSH0 DUP3 PUSH2 0x124D JUMP JUMPDEST PUSH1 0x1 DUP2 ADD SWAP1 POP PUSH2 0x1266 JUMP JUMPDEST POP POP JUMP JUMPDEST PUSH1 0x1F DUP3 GT ISZERO PUSH2 0x12C8 JUMPI PUSH2 0x1299 DUP2 PUSH2 0x1170 JUMP JUMPDEST PUSH2 0x12A2 DUP5 PUSH2 0x1182 JUMP JUMPDEST DUP2 ADD PUSH1 0x20 DUP6 LT ISZERO PUSH2 0x12B1 JUMPI DUP2 SWAP1 POP JUMPDEST PUSH2 0x12C5 PUSH2 0x12BD DUP6 PUSH2 0x1182 JUMP JUMPDEST DUP4 ADD DUP3 PUSH2 0x1265 JUMP JUMPDEST POP POP JUMPDEST POP POP POP JUMP JUMPDEST PUSH0 DUP3 DUP3 SHR SWAP1 POP SWAP3 SWAP2 POP POP JUMP JUMPDEST PUSH0 PUSH2 0x12E8 PUSH0 NOT DUP5 PUSH1 0x8 MUL PUSH2 0x12CD JUMP JUMPDEST NOT DUP1 DUP4 AND SWAP2 POP POP SWAP3 SWAP2 POP POP JUMP JUMPDEST PUSH0 PUSH2 0x1300 DUP4 DUP4 PUSH2 0x12D9 JUMP JUMPDEST SWAP2 POP DUP3 PUSH1 0x2 MUL DUP3 OR SWAP1 POP SWAP3 SWAP2 POP POP JUMP JUMPDEST PUSH2 0x1319 DUP3 PUSH2 0x10DC JUMP JUMPDEST PUSH8 0xFFFFFFFFFFFFFFFF DUP2 GT ISZERO PUSH2 0x1332 JUMPI PUSH2 0x1331 PUSH2 0x10E6 JUMP JUMPDEST JUMPDEST PUSH2 0x133C DUP3 SLOAD PUSH2 0x1140 JUMP JUMPDEST PUSH2 0x1347 DUP3 DUP3 DUP6 PUSH2 0x1287 JUMP JUMPDEST PUSH0 PUSH1 0x20 SWAP1 POP PUSH1 0x1F DUP4 GT PUSH1 0x1 DUP2 EQ PUSH2 0x1378 JUMPI PUSH0 DUP5 ISZERO PUSH2 0x1366 JUMPI DUP3 DUP8 ADD MLOAD SWAP1 POP JUMPDEST PUSH2 0x1370 DUP6 DUP3 PUSH2 0x12F5 JUMP JUMPDEST DUP7 SSTORE POP PUSH2 0x13D7 JUMP JUMPDEST PUSH1 0x1F NOT DUP5 AND PUSH2 0x1386 DUP7 PUSH2 0x1170 JUMP JUMPDEST PUSH0 JUMPDEST DUP3 DUP2 LT ISZERO PUSH2 0x13AD JUMPI DUP5 DUP10 ADD MLOAD DUP3 SSTORE PUSH1 0x1 DUP3 ADD SWAP2 POP PUSH1 0x20 DUP6 ADD SWAP5 POP PUSH1 0x20 DUP2 ADD SWAP1 POP PUSH2 0x1388 JUMP JUMPDEST DUP7 DUP4 LT ISZERO PUSH2 0x13CA JUMPI DUP5 DUP10 ADD MLOAD PUSH2 0x13C6 PUSH1 0x1F DUP10 AND DUP3 PUSH2 0x12D9 JUMP JUMPDEST DUP4 SSTORE POP JUMPDEST PUSH1 0x1 PUSH1 0x2 DUP9 MUL ADD DUP9 SSTORE POP POP POP JUMPDEST POP POP POP POP POP POP JUMP JUMPDEST DUP3 DUP2 DUP4 CALLDATACOPY PUSH0 DUP4 DUP4 ADD MSTORE POP POP POP JUMP JUMPDEST PUSH0 PUSH1 0x1F NOT PUSH1 0x1F DUP4 ADD AND SWAP1 POP SWAP2 SWAP1 POP JUMP JUMPDEST PUSH0 PUSH2 0x1408 DUP4 DUP6 PUSH2 0xBDD JUMP JUMPDEST SWAP4 POP PUSH2 0x1415 DUP4 DUP6 DUP5 PUSH2 0x13DF JUMP JUMPDEST PUSH2 0x141E DUP4 PUSH2 0x13ED JUMP JUMPDEST DUP5 ADD SWAP1 POP SWAP4 SWAP3 POP POP POP JUMP JUMPDEST PUSH0 PUSH1 0x60 DUP3 ADD SWAP1 POP PUSH2 0x143C PUSH0 DUP4 ADD DUP8 PUSH2 0xAA3 JUMP JUMPDEST DUP2 DUP2 SUB PUSH1 0x20 DUP4 ADD MSTORE PUSH2 0x144F DUP2 DUP6 DUP8 PUSH2 0x13FD JUMP JUMPDEST SWAP1 POP PUSH2 0x145E PUSH1 0x40 DUP4 ADD DUP5 PUSH2 0xDCE JUMP JUMPDEST SWAP6 SWAP5 POP POP POP POP POP JUMP JUMPDEST PUSH32 0x53656E6420746865206578616374207072696365000000000000000000000000 PUSH0 DUP3 ADD MSTORE POP JUMP JUMPDEST PUSH0 PUSH2 0x149B PUSH1 0x14 DUP4 PUSH2 0xBDD JUMP JUMPDEST SWAP2 POP PUSH2 0x14A6 DUP3 PUSH2 0x1467 JUMP JUMPDEST PUSH1 0x20 DUP3 ADD SWAP1 POP SWAP2 SWAP1 POP JUMP JUMPDEST PUSH0 PUSH1 0x20 DUP3 ADD SWAP1 POP DUP2 DUP2 SUB PUSH0 DUP4 ADD MSTORE PUSH2 0x14C8 DUP2 PUSH2 0x148F JUMP JUMPDEST SWAP1 POP SWAP2 SWAP1 POP JUMP JUMPDEST PUSH0 PUSH1 0x80 DUP3 ADD SWAP1 POP PUSH2 0x14E2 PUSH0 DUP4 ADD DUP8 PUSH2 0xAA3 JUMP JUMPDEST PUSH2 0x14EF PUSH1 0x20 DUP4 ADD DUP7 PUSH2 0xDCE JUMP JUMPDEST PUSH2 0x14FC PUSH1 0x40 DUP4 ADD DUP6 PUSH2 0xDCE JUMP JUMPDEST PUSH2 0x1509 PUSH1 0x60 DUP4 ADD DUP5 PUSH2 0xDCE JUMP JUMPDEST SWAP6 SWAP5 POP POP POP POP POP JUMP JUMPDEST PUSH0 PUSH2 0x151C DUP3 PUSH2 0xAD3 JUMP JUMPDEST SWAP2 POP PUSH2 0x1527 DUP4 PUSH2 0xAD3 JUMP JUMPDEST SWAP3 POP DUP3 DUP3 ADD SWAP1 POP DUP1 DUP3 GT ISZERO PUSH2 0x153F JUMPI PUSH2 0x153E PUSH2 0x1068 JUMP JUMPDEST JUMPDEST SWAP3 SWAP2 POP POP JUMP JUMPDEST PUSH0 PUSH1 0x60 DUP3 ADD SWAP1 POP PUSH2 0x1558 PUSH0 DUP4 ADD DUP7 PUSH2 0xDCE JUMP JUMPDEST PUSH2 0x1565 PUSH1 0x20 DUP4 ADD DUP6 PUSH2 0xDCE JUMP JUMPDEST PUSH2 0x1572 PUSH1 0x40 DUP4 ADD DUP5 PUSH2 0xDCE JUMP JUMPDEST SWAP5 SWAP4 POP POP POP POP JUMP INVALID LOG2 PUSH5 0x6970667358 0x22 SLT KECCAK256 TIMESTAMP 0x1E PUSH1 0xFA CALLER SWAP3 SGT 0x1F 0xB3 DUP15 EXTCODESIZE DATALOADN 0x4738 PUSH15 0x6D65504AB654AF549F0981F046E88E SWAP8 DUP5 PUSH5 0x736F6C6343 STOP ADDMOD 0x1E STOP CALLER "
				},
				"gasEstimates": {
					"creation": {
						"codeDepositCost": "1110400",
						"executionCost": "infinite",
						"totalCost": "infinite"
					},
					"external": {
						"Payout(uint256)": "infinite",
						"ReturnProduct(uint256)": "infinite",
						"SendPayment(uint256)": "infinite",
						"buyer()": "2574",
						"creator()": "2485",
						"sendOrder(string)": "infinite"
					}
				},
				"methodIdentifiers": {
					"Payout(uint256)": "22427047",
					"ReturnProduct(uint256)": "03c17a38",
					"SendPayment(uint256)": "95787d26",
					"buyer()": "7150d8ae",
					"creator()": "02d05d3f",
					"sendOrder(string)": "25fcba48"
				}
			},
			"storageLayout": {
				"storage": [
					{
						"astId": 3,
						"contract": "Deal.sol:Deal",
						"label": "creator",
						"offset": 0,
						"slot": "0",
						"type": "t_address"
					},
					{
						"astId": 5,
						"contract": "Deal.sol:Deal",
						"label": "buyer",
						"offset": 0,
						"slot": "1",
						"type": "t_address"
					},
					{
						"astId": 8,
						"contract": "Deal.sol:Deal",
						"label": "timer",
						"offset": 0,
						"slot": "2",
						"type": "t_uint256"
					},
					{
						"astId": 24,
						"contract": "Deal.sol:Deal",
						"label": "orders",
						"offset": 0,
						"slot": "3",
						"type": "t_mapping(t_uint256,t_struct(Order)19_storage)"
					},
					{
						"astId": 26,
						"contract": "Deal.sol:Deal",
						"label": "orderseq",
						"offset": 0,
						"slot": "4",
						"type": "t_uint256"
					}
				],
				"types": {
					"t_address": {
						"encoding": "inplace",
						"label": "address",
						"numberOfBytes": "20"
					},
					"t_bool": {
						"encoding": "inplace",
						"label": "bool",
						"numberOfBytes": "1"
					},
					"t_mapping(t_uint256,t_struct(Order)19_storage)": {
						"encoding": "mapping",
						"key": "t_uint256",
						"label": "mapping(uint256 => struct Deal.Order)",
						"numberOfBytes": "32",
						"value": "t_struct(Order)19_storage"
					},
					"t_string_storage": {
						"encoding": "bytes",
						"label": "string",
						"numberOfBytes": "32"
					},
					"t_struct(Order)19_storage": {
						"encoding": "inplace",
						"label": "struct Deal.Order",
						"members": [
							{
								"astId": 10,
								"contract": "Deal.sol:Deal",
								"label": "game",
								"offset": 0,
								"slot": "0",
								"type": "t_string_storage"
							},
							{
								"astId": 12,
								"contract": "Deal.sol:Deal",
								"label": "price",
								"offset": 0,
								"slot": "1",
								"type": "t_uint256"
							},
							{
								"astId": 14,
								"contract": "Deal.sol:Deal",
								"label": "date",
								"offset": 0,
								"slot": "2",
								"type": "t_uint256"
							},
							{
								"astId": 16,
								"contract": "Deal.sol:Deal",
								"label": "paid",
								"offset": 0,
								"slot": "3",
								"type": "t_bool"
							},
							{
								"astId": 18,
								"contract": "Deal.sol:Deal",
								"label": "refundDeadline",
								"offset": 0,
								"slot": "4",
								"type": "t_uint256"
							}
						],
						"numberOfBytes": "160"
					},
					"t_uint256": {
						"encoding": "inplace",
						"label": "uint256",
						"numberOfBytes": "32"
					}
				}
			},
			"userdoc": {
				"kind": "user",
				"methods": {},
				"version": 1
			}
		}
	}
}