{
	"Deal.sol": {
		"Deal": {
			"abi": [
				{
					"constant": true,
					"inputs": [],
					"name": "creator",
					"outputs": [
						{
							"name": "",
							"type": "address"
						}
					],
					"payable": false,
					"stateMutability": "view",
					"type": "function"
				},
				{
					"constant": false,
					"inputs": [
						{
							"name": "orderno",
							"type": "uint256"
						},
						{
							"name": "price",
							"type": "uint256"
						}
					],
					"name": "ConfirmOrder",
					"outputs": [],
					"payable": false,
					"stateMutability": "nonpayable",
					"type": "function"
				},
				{
					"constant": false,
					"inputs": [
						{
							"name": "orderno",
							"type": "uint256"
						}
					],
					"name": "ReturnProduct",
					"outputs": [],
					"payable": false,
					"stateMutability": "nonpayable",
					"type": "function"
				},
				{
					"constant": false,
					"inputs": [
						{
							"name": "orderno",
							"type": "uint256"
						}
					],
					"name": "Payout",
					"outputs": [],
					"payable": false,
					"stateMutability": "nonpayable",
					"type": "function"
				},
				{
					"constant": false,
					"inputs": [
						{
							"name": "game",
							"type": "string"
						}
					],
					"name": "sendOrder",
					"outputs": [],
					"payable": false,
					"stateMutability": "nonpayable",
					"type": "function"
				},
				{
					"constant": true,
					"inputs": [
						{
							"name": "orderno",
							"type": "uint256"
						}
					],
					"name": "getRefundWindow",
					"outputs": [
						{
							"name": "",
							"type": "uint256"
						}
					],
					"payable": false,
					"stateMutability": "view",
					"type": "function"
				},
				{
					"constant": true,
					"inputs": [
						{
							"name": "orderno",
							"type": "uint256"
						}
					],
					"name": "getName",
					"outputs": [
						{
							"name": "",
							"type": "string"
						}
					],
					"payable": false,
					"stateMutability": "view",
					"type": "function"
				},
				{
					"constant": true,
					"inputs": [],
					"name": "buyer",
					"outputs": [
						{
							"name": "",
							"type": "address"
						}
					],
					"payable": false,
					"stateMutability": "view",
					"type": "function"
				},
				{
					"constant": false,
					"inputs": [
						{
							"name": "orderno",
							"type": "uint256"
						}
					],
					"name": "SendPayment",
					"outputs": [],
					"payable": true,
					"stateMutability": "payable",
					"type": "function"
				},
				{
					"constant": true,
					"inputs": [
						{
							"name": "orderno",
							"type": "uint256"
						}
					],
					"name": "getPrice",
					"outputs": [
						{
							"name": "",
							"type": "uint256"
						}
					],
					"payable": false,
					"stateMutability": "view",
					"type": "function"
				},
				{
					"inputs": [
						{
							"name": "buyerAddr",
							"type": "address"
						}
					],
					"payable": false,
					"stateMutability": "nonpayable",
					"type": "constructor"
				},
				{
					"anonymous": false,
					"inputs": [
						{
							"indexed": false,
							"name": "game",
							"type": "string"
						},
						{
							"indexed": false,
							"name": "orderno",
							"type": "uint256"
						},
						{
							"indexed": false,
							"name": "time",
							"type": "uint256"
						}
					],
					"name": "OrderSent",
					"type": "event"
				},
				{
					"anonymous": false,
					"inputs": [
						{
							"indexed": false,
							"name": "game",
							"type": "string"
						},
						{
							"indexed": false,
							"name": "price",
							"type": "uint256"
						},
						{
							"indexed": false,
							"name": "orderno",
							"type": "uint256"
						},
						{
							"indexed": false,
							"name": "time",
							"type": "uint256"
						}
					],
					"name": "OrderConfirmed",
					"type": "event"
				},
				{
					"anonymous": false,
					"inputs": [
						{
							"indexed": false,
							"name": "orderno",
							"type": "uint256"
						},
						{
							"indexed": false,
							"name": "price",
							"type": "uint256"
						},
						{
							"indexed": false,
							"name": "time",
							"type": "uint256"
						}
					],
					"name": "PaymentReceived",
					"type": "event"
				},
				{
					"anonymous": false,
					"inputs": [
						{
							"indexed": false,
							"name": "orderno",
							"type": "uint256"
						},
						{
							"indexed": false,
							"name": "start",
							"type": "uint256"
						},
						{
							"indexed": false,
							"name": "end",
							"type": "uint256"
						}
					],
					"name": "CountdownStarted",
					"type": "event"
				},
				{
					"anonymous": false,
					"inputs": [
						{
							"indexed": false,
							"name": "orderno",
							"type": "uint256"
						},
						{
							"indexed": false,
							"name": "time",
							"type": "uint256"
						}
					],
					"name": "CountdownEnded",
					"type": "event"
				},
				{
					"anonymous": false,
					"inputs": [
						{
							"indexed": false,
							"name": "orderno",
							"type": "uint256"
						},
						{
							"indexed": false,
							"name": "buyer",
							"type": "address"
						},
						{
							"indexed": false,
							"name": "time",
							"type": "uint256"
						}
					],
					"name": "RefundSuccessful",
					"type": "event"
				},
				{
					"anonymous": false,
					"inputs": [
						{
							"indexed": false,
							"name": "orderno",
							"type": "uint256"
						},
						{
							"indexed": false,
							"name": "creator",
							"type": "address"
						},
						{
							"indexed": false,
							"name": "amount",
							"type": "uint256"
						},
						{
							"indexed": false,
							"name": "time",
							"type": "uint256"
						}
					],
					"name": "PayoutSuccessful",
					"type": "event"
				},
				{
					"anonymous": false,
					"inputs": [
						{
							"indexed": false,
							"name": "orderno",
							"type": "uint256"
						},
						{
							"indexed": false,
							"name": "time",
							"type": "uint256"
						}
					],
					"name": "OrderSuccessful",
					"type": "event"
				}
			],
			"devdoc": {
				"methods": {}
			},
			"evm": {
				"assembly": "    /* \"Deal.sol\":28:4016  contract Deal {\r... */\n  mstore(0x40, 0x80)\n    /* \"Deal.sol\":110:112  30 */\n  0x1e\n    /* \"Deal.sol\":97:112  uint timer = 30 */\n  0x2\n  sstore\n    /* \"Deal.sol\":808:958  function Deal (address buyerAddr) public {\r... */\n  callvalue\n    /* \"--CODEGEN--\":8:17   */\n  dup1\n    /* \"--CODEGEN--\":5:7   */\n  iszero\n  tag_1\n  jumpi\n    /* \"--CODEGEN--\":30:31   */\n  0x0\n    /* \"--CODEGEN--\":27:28   */\n  dup1\n    /* \"--CODEGEN--\":20:32   */\n  revert\n    /* \"--CODEGEN--\":5:7   */\ntag_1:\n    /* \"Deal.sol\":808:958  function Deal (address buyerAddr) public {\r... */\n  pop\n  mload(0x40)\n  0x20\n  dup1\n  bytecodeSize\n  dup4\n  codecopy\n  dup2\n  add\n  dup1\n  0x40\n  mstore\n  dup2\n  add\n  swap1\n  dup1\n  dup1\n  mload\n  swap1\n  0x20\n  add\n  swap1\n  swap3\n  swap2\n  swap1\n  pop\n  pop\n  pop\n    /* \"Deal.sol\":916:926  msg.sender */\n  caller\n    /* \"Deal.sol\":906:913  creator */\n  0x0\n  dup1\n    /* \"Deal.sol\":906:926  creator = msg.sender */\n  0x100\n  exp\n  dup2\n  sload\n  dup2\n  0xffffffffffffffffffffffffffffffffffffffff\n  mul\n  not\n  and\n  swap1\n  dup4\n  0xffffffffffffffffffffffffffffffffffffffff\n  and\n  mul\n  or\n  swap1\n  sstore\n  pop\n    /* \"Deal.sol\":943:952  buyerAddr */\n  dup1\n    /* \"Deal.sol\":935:940  buyer */\n  0x1\n  0x0\n    /* \"Deal.sol\":935:952  buyer = buyerAddr */\n  0x100\n  exp\n  dup2\n  sload\n  dup2\n  0xffffffffffffffffffffffffffffffffffffffff\n  mul\n  not\n  and\n  swap1\n  dup4\n  0xffffffffffffffffffffffffffffffffffffffff\n  and\n  mul\n  or\n  swap1\n  sstore\n  pop\n    /* \"Deal.sol\":808:958  function Deal (address buyerAddr) public {\r... */\n  pop\n    /* \"Deal.sol\":28:4016  contract Deal {\r... */\n  dataSize(sub_0)\n  dup1\n  dataOffset(sub_0)\n  0x0\n  codecopy\n  0x0\n  return\nstop\n\nsub_0: assembly {\n        /* \"Deal.sol\":28:4016  contract Deal {\r... */\n      mstore(0x40, 0x80)\n      jumpi(tag_1, lt(calldatasize, 0x4))\n      calldataload(0x0)\n      0x100000000000000000000000000000000000000000000000000000000\n      swap1\n      div\n      0xffffffff\n      and\n      dup1\n      0x2d05d3f\n      eq\n      tag_2\n      jumpi\n      dup1\n      0x34684e6\n      eq\n      tag_3\n      jumpi\n      dup1\n      0x3c17a38\n      eq\n      tag_4\n      jumpi\n      dup1\n      0x22427047\n      eq\n      tag_5\n      jumpi\n      dup1\n      0x25fcba48\n      eq\n      tag_6\n      jumpi\n      dup1\n      0x44cad860\n      eq\n      tag_7\n      jumpi\n      dup1\n      0x6b8ff574\n      eq\n      tag_8\n      jumpi\n      dup1\n      0x7150d8ae\n      eq\n      tag_9\n      jumpi\n      dup1\n      0x95787d26\n      eq\n      tag_10\n      jumpi\n      dup1\n      0xe7572230\n      eq\n      tag_11\n      jumpi\n    tag_1:\n      0x0\n      dup1\n      revert\n        /* \"Deal.sol\":47:69  address public creator */\n    tag_2:\n      callvalue\n        /* \"--CODEGEN--\":8:17   */\n      dup1\n        /* \"--CODEGEN--\":5:7   */\n      iszero\n      tag_12\n      jumpi\n        /* \"--CODEGEN--\":30:31   */\n      0x0\n        /* \"--CODEGEN--\":27:28   */\n      dup1\n        /* \"--CODEGEN--\":20:32   */\n      revert\n        /* \"--CODEGEN--\":5:7   */\n    tag_12:\n        /* \"Deal.sol\":47:69  address public creator */\n      pop\n      tag_13\n      jump(tag_14)\n    tag_13:\n      mload(0x40)\n      dup1\n      dup3\n      0xffffffffffffffffffffffffffffffffffffffff\n      and\n      0xffffffffffffffffffffffffffffffffffffffff\n      and\n      dup2\n      mstore\n      0x20\n      add\n      swap2\n      pop\n      pop\n      mload(0x40)\n      dup1\n      swap2\n      sub\n      swap1\n      return\n        /* \"Deal.sol\":1379:1757  function ConfirmOrder(uint orderno, uint price) public {\r... */\n    tag_3:\n      callvalue\n        /* \"--CODEGEN--\":8:17   */\n      dup1\n        /* \"--CODEGEN--\":5:7   */\n      iszero\n      tag_15\n      jumpi\n        /* \"--CODEGEN--\":30:31   */\n      0x0\n        /* \"--CODEGEN--\":27:28   */\n      dup1\n        /* \"--CODEGEN--\":20:32   */\n      revert\n        /* \"--CODEGEN--\":5:7   */\n    tag_15:\n        /* \"Deal.sol\":1379:1757  function ConfirmOrder(uint orderno, uint price) public {\r... */\n      pop\n      tag_16\n      0x4\n      dup1\n      calldatasize\n      sub\n      dup2\n      add\n      swap1\n      dup1\n      dup1\n      calldataload\n      swap1\n      0x20\n      add\n      swap1\n      swap3\n      swap2\n      swap1\n      dup1\n      calldataload\n      swap1\n      0x20\n      add\n      swap1\n      swap3\n      swap2\n      swap1\n      pop\n      pop\n      pop\n      jump(tag_17)\n    tag_16:\n      stop\n        /* \"Deal.sol\":2450:2892  function ReturnProduct(uint orderno) public {\r... */\n    tag_4:\n      callvalue\n        /* \"--CODEGEN--\":8:17   */\n      dup1\n        /* \"--CODEGEN--\":5:7   */\n      iszero\n      tag_18\n      jumpi\n        /* \"--CODEGEN--\":30:31   */\n      0x0\n        /* \"--CODEGEN--\":27:28   */\n      dup1\n        /* \"--CODEGEN--\":20:32   */\n      revert\n        /* \"--CODEGEN--\":5:7   */\n    tag_18:\n        /* \"Deal.sol\":2450:2892  function ReturnProduct(uint orderno) public {\r... */\n      pop\n      tag_19\n      0x4\n      dup1\n      calldatasize\n      sub\n      dup2\n      add\n      swap1\n      dup1\n      dup1\n      calldataload\n      swap1\n      0x20\n      add\n      swap1\n      swap3\n      swap2\n      swap1\n      pop\n      pop\n      pop\n      jump(tag_20)\n    tag_19:\n      stop\n        /* \"Deal.sol\":2898:3458  function Payout(uint orderno) public {\r... */\n    tag_5:\n      callvalue\n        /* \"--CODEGEN--\":8:17   */\n      dup1\n        /* \"--CODEGEN--\":5:7   */\n      iszero\n      tag_21\n      jumpi\n        /* \"--CODEGEN--\":30:31   */\n      0x0\n        /* \"--CODEGEN--\":27:28   */\n      dup1\n        /* \"--CODEGEN--\":20:32   */\n      revert\n        /* \"--CODEGEN--\":5:7   */\n    tag_21:\n        /* \"Deal.sol\":2898:3458  function Payout(uint orderno) public {\r... */\n      pop\n      tag_22\n      0x4\n      dup1\n      calldatasize\n      sub\n      dup2\n      add\n      swap1\n      dup1\n      dup1\n      calldataload\n      swap1\n      0x20\n      add\n      swap1\n      swap3\n      swap2\n      swap1\n      pop\n      pop\n      pop\n      jump(tag_23)\n    tag_22:\n      stop\n        /* \"Deal.sol\":962:1373  function sendOrder(string game) external  {\r... */\n    tag_6:\n      callvalue\n        /* \"--CODEGEN--\":8:17   */\n      dup1\n        /* \"--CODEGEN--\":5:7   */\n      iszero\n      tag_24\n      jumpi\n        /* \"--CODEGEN--\":30:31   */\n      0x0\n        /* \"--CODEGEN--\":27:28   */\n      dup1\n        /* \"--CODEGEN--\":20:32   */\n      revert\n        /* \"--CODEGEN--\":5:7   */\n    tag_24:\n        /* \"Deal.sol\":962:1373  function sendOrder(string game) external  {\r... */\n      pop\n      tag_25\n      0x4\n      dup1\n      calldatasize\n      sub\n      dup2\n      add\n      swap1\n      dup1\n      dup1\n      calldataload\n      swap1\n      0x20\n      add\n      swap1\n      dup3\n      add\n      dup1\n      calldataload\n      swap1\n      0x20\n      add\n      swap2\n      swap1\n      swap2\n      swap3\n      swap4\n      swap2\n      swap3\n      swap4\n      swap1\n      pop\n      pop\n      pop\n      jump(tag_26)\n    tag_25:\n      stop\n        /* \"Deal.sol\":3670:4011  function getRefundWindow(uint orderno) public view returns (uint) {\r... */\n    tag_7:\n      callvalue\n        /* \"--CODEGEN--\":8:17   */\n      dup1\n        /* \"--CODEGEN--\":5:7   */\n      iszero\n      tag_27\n      jumpi\n        /* \"--CODEGEN--\":30:31   */\n      0x0\n        /* \"--CODEGEN--\":27:28   */\n      dup1\n        /* \"--CODEGEN--\":20:32   */\n      revert\n        /* \"--CODEGEN--\":5:7   */\n    tag_27:\n        /* \"Deal.sol\":3670:4011  function getRefundWindow(uint orderno) public view returns (uint) {\r... */\n      pop\n      tag_28\n      0x4\n      dup1\n      calldatasize\n      sub\n      dup2\n      add\n      swap1\n      dup1\n      dup1\n      calldataload\n      swap1\n      0x20\n      add\n      swap1\n      swap3\n      swap2\n      swap1\n      pop\n      pop\n      pop\n      jump(tag_29)\n    tag_28:\n      mload(0x40)\n      dup1\n      dup3\n      dup2\n      mstore\n      0x20\n      add\n      swap2\n      pop\n      pop\n      mload(0x40)\n      dup1\n      swap2\n      sub\n      swap1\n      return\n        /* \"Deal.sol\":3464:3562  function getName(uint orderno) public view returns (string) {\r... */\n    tag_8:\n      callvalue\n        /* \"--CODEGEN--\":8:17   */\n      dup1\n        /* \"--CODEGEN--\":5:7   */\n      iszero\n      tag_30\n      jumpi\n        /* \"--CODEGEN--\":30:31   */\n      0x0\n        /* \"--CODEGEN--\":27:28   */\n      dup1\n        /* \"--CODEGEN--\":20:32   */\n      revert\n        /* \"--CODEGEN--\":5:7   */\n    tag_30:\n        /* \"Deal.sol\":3464:3562  function getName(uint orderno) public view returns (string) {\r... */\n      pop\n      tag_31\n      0x4\n      dup1\n      calldatasize\n      sub\n      dup2\n      add\n      swap1\n      dup1\n      dup1\n      calldataload\n      swap1\n      0x20\n      add\n      swap1\n      swap3\n      swap2\n      swap1\n      pop\n      pop\n      pop\n      jump(tag_32)\n    tag_31:\n      mload(0x40)\n      dup1\n      dup1\n      0x20\n      add\n      dup3\n      dup2\n      sub\n      dup3\n      mstore\n      dup4\n      dup2\n      dup2\n      mload\n      dup2\n      mstore\n      0x20\n      add\n      swap2\n      pop\n      dup1\n      mload\n      swap1\n      0x20\n      add\n      swap1\n      dup1\n      dup4\n      dup4\n        /* \"--CODEGEN--\":23:24   */\n      0x0\n        /* \"--CODEGEN--\":8:108   */\n    tag_33:\n        /* \"--CODEGEN--\":33:36   */\n      dup4\n        /* \"--CODEGEN--\":30:31   */\n      dup2\n        /* \"--CODEGEN--\":27:37   */\n      lt\n        /* \"--CODEGEN--\":8:108   */\n      iszero\n      tag_34\n      jumpi\n        /* \"--CODEGEN--\":99:100   */\n      dup1\n        /* \"--CODEGEN--\":94:97   */\n      dup3\n        /* \"--CODEGEN--\":90:101   */\n      add\n        /* \"--CODEGEN--\":84:102   */\n      mload\n        /* \"--CODEGEN--\":80:81   */\n      dup2\n        /* \"--CODEGEN--\":75:78   */\n      dup5\n        /* \"--CODEGEN--\":71:82   */\n      add\n        /* \"--CODEGEN--\":64:103   */\n      mstore\n        /* \"--CODEGEN--\":52:54   */\n      0x20\n        /* \"--CODEGEN--\":49:50   */\n      dup2\n        /* \"--CODEGEN--\":45:55   */\n      add\n        /* \"--CODEGEN--\":40:55   */\n      swap1\n      pop\n        /* \"--CODEGEN--\":8:108   */\n      jump(tag_33)\n    tag_34:\n        /* \"--CODEGEN--\":12:26   */\n      pop\n        /* \"Deal.sol\":3464:3562  function getName(uint orderno) public view returns (string) {\r... */\n      pop\n      pop\n      pop\n      swap1\n      pop\n      swap1\n      dup2\n      add\n      swap1\n      0x1f\n      and\n      dup1\n      iszero\n      tag_36\n      jumpi\n      dup1\n      dup3\n      sub\n      dup1\n      mload\n      0x1\n      dup4\n      0x20\n      sub\n      0x100\n      exp\n      sub\n      not\n      and\n      dup2\n      mstore\n      0x20\n      add\n      swap2\n      pop\n    tag_36:\n      pop\n      swap3\n      pop\n      pop\n      pop\n      mload(0x40)\n      dup1\n      swap2\n      sub\n      swap1\n      return\n        /* \"Deal.sol\":72:92  address public buyer */\n    tag_9:\n      callvalue\n        /* \"--CODEGEN--\":8:17   */\n      dup1\n        /* \"--CODEGEN--\":5:7   */\n      iszero\n      tag_37\n      jumpi\n        /* \"--CODEGEN--\":30:31   */\n      0x0\n        /* \"--CODEGEN--\":27:28   */\n      dup1\n        /* \"--CODEGEN--\":20:32   */\n      revert\n        /* \"--CODEGEN--\":5:7   */\n    tag_37:\n        /* \"Deal.sol\":72:92  address public buyer */\n      pop\n      tag_38\n      jump(tag_39)\n    tag_38:\n      mload(0x40)\n      dup1\n      dup3\n      0xffffffffffffffffffffffffffffffffffffffff\n      and\n      0xffffffffffffffffffffffffffffffffffffffff\n      and\n      dup2\n      mstore\n      0x20\n      add\n      swap2\n      pop\n      pop\n      mload(0x40)\n      dup1\n      swap2\n      sub\n      swap1\n      return\n        /* \"Deal.sol\":1763:2444  function SendPayment(uint orderno) payable public {\r... */\n    tag_10:\n      tag_40\n      0x4\n      dup1\n      calldatasize\n      sub\n      dup2\n      add\n      swap1\n      dup1\n      dup1\n      calldataload\n      swap1\n      0x20\n      add\n      swap1\n      swap3\n      swap2\n      swap1\n      pop\n      pop\n      pop\n      jump(tag_41)\n    tag_40:\n      stop\n        /* \"Deal.sol\":3568:3666  function getPrice(uint orderno) public view returns (uint) {\r... */\n    tag_11:\n      callvalue\n        /* \"--CODEGEN--\":8:17   */\n      dup1\n        /* \"--CODEGEN--\":5:7   */\n      iszero\n      tag_42\n      jumpi\n        /* \"--CODEGEN--\":30:31   */\n      0x0\n        /* \"--CODEGEN--\":27:28   */\n      dup1\n        /* \"--CODEGEN--\":20:32   */\n      revert\n        /* \"--CODEGEN--\":5:7   */\n    tag_42:\n        /* \"Deal.sol\":3568:3666  function getPrice(uint orderno) public view returns (uint) {\r... */\n      pop\n      tag_43\n      0x4\n      dup1\n      calldatasize\n      sub\n      dup2\n      add\n      swap1\n      dup1\n      dup1\n      calldataload\n      swap1\n      0x20\n      add\n      swap1\n      swap3\n      swap2\n      swap1\n      pop\n      pop\n      pop\n      jump(tag_44)\n    tag_43:\n      mload(0x40)\n      dup1\n      dup3\n      dup2\n      mstore\n      0x20\n      add\n      swap2\n      pop\n      pop\n      mload(0x40)\n      dup1\n      swap2\n      sub\n      swap1\n      return\n        /* \"Deal.sol\":47:69  address public creator */\n    tag_14:\n      0x0\n      dup1\n      swap1\n      sload\n      swap1\n      0x100\n      exp\n      swap1\n      div\n      0xffffffffffffffffffffffffffffffffffffffff\n      and\n      dup2\n      jump\t// out\n        /* \"Deal.sol\":1379:1757  function ConfirmOrder(uint orderno, uint price) public {\r... */\n    tag_17:\n        /* \"Deal.sol\":1465:1472  creator */\n      0x0\n      dup1\n      swap1\n      sload\n      swap1\n      0x100\n      exp\n      swap1\n      div\n      0xffffffffffffffffffffffffffffffffffffffff\n      and\n        /* \"Deal.sol\":1451:1472  msg.sender == creator */\n      0xffffffffffffffffffffffffffffffffffffffff\n      and\n        /* \"Deal.sol\":1451:1461  msg.sender */\n      caller\n        /* \"Deal.sol\":1451:1472  msg.sender == creator */\n      0xffffffffffffffffffffffffffffffffffffffff\n      and\n      eq\n        /* \"Deal.sol\":1443:1510  require(msg.sender == creator, \"Only creator can confirm an order\") */\n      iszero\n      iszero\n      tag_46\n      jumpi\n      mload(0x40)\n      0x8c379a000000000000000000000000000000000000000000000000000000000\n      dup2\n      mstore\n      0x4\n      add\n      dup1\n      dup1\n      0x20\n      add\n      dup3\n      dup2\n      sub\n      dup3\n      mstore\n      0x21\n      dup2\n      mstore\n      0x20\n      add\n      dup1\n      0x4f6e6c792063726561746f722063616e20636f6e6669726d20616e206f726465\n      dup2\n      mstore\n      0x20\n      add\n      0x7200000000000000000000000000000000000000000000000000000000000000\n      dup2\n      mstore\n      pop\n      0x40\n      add\n      swap2\n      pop\n      pop\n      mload(0x40)\n      dup1\n      swap2\n      sub\n      swap1\n      revert\n    tag_46:\n        /* \"Deal.sol\":1565:1566  0 */\n      0x0\n        /* \"Deal.sol\":1533:1539  orders */\n      0x3\n        /* \"Deal.sol\":1533:1548  orders[orderno] */\n      0x0\n        /* \"Deal.sol\":1540:1547  orderno */\n      dup5\n        /* \"Deal.sol\":1533:1548  orders[orderno] */\n      dup2\n      mstore\n      0x20\n      add\n      swap1\n      dup2\n      mstore\n      0x20\n      add\n      0x0\n      keccak256\n        /* \"Deal.sol\":1533:1553  orders[orderno].game */\n      0x0\n      add\n        /* \"Deal.sol\":1527:1561  bytes(orders[orderno].game).length */\n      dup1\n      sload\n      0x1\n      dup2\n      0x1\n      and\n      iszero\n      0x100\n      mul\n      sub\n      and\n      0x2\n      swap1\n      div\n      swap1\n      pop\n        /* \"Deal.sol\":1527:1566  bytes(orders[orderno].game).length != 0 */\n      eq\n      iszero\n        /* \"Deal.sol\":1519:1591  require(bytes(orders[orderno].game).length != 0, \"Order does not exist\") */\n      iszero\n      iszero\n      tag_47\n      jumpi\n      mload(0x40)\n      0x8c379a000000000000000000000000000000000000000000000000000000000\n      dup2\n      mstore\n      0x4\n      add\n      dup1\n      dup1\n      0x20\n      add\n      dup3\n      dup2\n      sub\n      dup3\n      mstore\n      0x14\n      dup2\n      mstore\n      0x20\n      add\n      dup1\n      0x4f7264657220646f6573206e6f74206578697374000000000000000000000000\n      dup2\n      mstore\n      pop\n      0x20\n      add\n      swap2\n      pop\n      pop\n      mload(0x40)\n      dup1\n      swap2\n      sub\n      swap1\n      revert\n    tag_47:\n        /* \"Deal.sol\":1624:1629  price */\n      dup1\n        /* \"Deal.sol\":1600:1606  orders */\n      0x3\n        /* \"Deal.sol\":1600:1615  orders[orderno] */\n      0x0\n        /* \"Deal.sol\":1607:1614  orderno */\n      dup5\n        /* \"Deal.sol\":1600:1615  orders[orderno] */\n      dup2\n      mstore\n      0x20\n      add\n      swap1\n      dup2\n      mstore\n      0x20\n      add\n      0x0\n      keccak256\n        /* \"Deal.sol\":1600:1621  orders[orderno].price */\n      0x1\n      add\n        /* \"Deal.sol\":1600:1629  orders[orderno].price = price */\n      dup2\n      swap1\n      sstore\n      pop\n        /* \"Deal.sol\":1664:1668  true */\n      0x1\n        /* \"Deal.sol\":1636:1642  orders */\n      0x3\n        /* \"Deal.sol\":1636:1651  orders[orderno] */\n      0x0\n        /* \"Deal.sol\":1643:1650  orderno */\n      dup5\n        /* \"Deal.sol\":1636:1651  orders[orderno] */\n      dup2\n      mstore\n      0x20\n      add\n      swap1\n      dup2\n      mstore\n      0x20\n      add\n      0x0\n      keccak256\n        /* \"Deal.sol\":1636:1661  orders[orderno].confirmed */\n      0x3\n      add\n      0x0\n        /* \"Deal.sol\":1636:1668  orders[orderno].confirmed = true */\n      0x100\n      exp\n      dup2\n      sload\n      dup2\n      0xff\n      mul\n      not\n      and\n      swap1\n      dup4\n      iszero\n      iszero\n      mul\n      or\n      swap1\n      sstore\n      pop\n        /* \"Deal.sol\":1682:1751  OrderConfirmed(orders[orderno].game, price, orderno, block.timestamp) */\n      0xdf480c4d7c3ab48571fe915e4c61a595582f63727e4e99ed686284892ad073e3\n        /* \"Deal.sol\":1697:1703  orders */\n      0x3\n        /* \"Deal.sol\":1697:1712  orders[orderno] */\n      0x0\n        /* \"Deal.sol\":1704:1711  orderno */\n      dup5\n        /* \"Deal.sol\":1697:1712  orders[orderno] */\n      dup2\n      mstore\n      0x20\n      add\n      swap1\n      dup2\n      mstore\n      0x20\n      add\n      0x0\n      keccak256\n        /* \"Deal.sol\":1697:1717  orders[orderno].game */\n      0x0\n      add\n        /* \"Deal.sol\":1719:1724  price */\n      dup3\n        /* \"Deal.sol\":1726:1733  orderno */\n      dup5\n        /* \"Deal.sol\":1735:1750  block.timestamp */\n      timestamp\n        /* \"Deal.sol\":1682:1751  OrderConfirmed(orders[orderno].game, price, orderno, block.timestamp) */\n      mload(0x40)\n      dup1\n      dup1\n      0x20\n      add\n      dup6\n      dup2\n      mstore\n      0x20\n      add\n      dup5\n      dup2\n      mstore\n      0x20\n      add\n      dup4\n      dup2\n      mstore\n      0x20\n      add\n      dup3\n      dup2\n      sub\n      dup3\n      mstore\n      dup7\n      dup2\n      dup2\n      sload\n      0x1\n      dup2\n      0x1\n      and\n      iszero\n      0x100\n      mul\n      sub\n      and\n      0x2\n      swap1\n      div\n      dup2\n      mstore\n      0x20\n      add\n      swap2\n      pop\n      dup1\n      sload\n      0x1\n      dup2\n      0x1\n      and\n      iszero\n      0x100\n      mul\n      sub\n      and\n      0x2\n      swap1\n      div\n      dup1\n      iszero\n      tag_48\n      jumpi\n      dup1\n      0x1f\n      lt\n      tag_49\n      jumpi\n      0x100\n      dup1\n      dup4\n      sload\n      div\n      mul\n      dup4\n      mstore\n      swap2\n      0x20\n      add\n      swap2\n      jump(tag_48)\n    tag_49:\n      dup3\n      add\n      swap2\n      swap1\n      0x0\n      mstore\n      keccak256(0x0, 0x20)\n      swap1\n    tag_50:\n      dup2\n      sload\n      dup2\n      mstore\n      swap1\n      0x1\n      add\n      swap1\n      0x20\n      add\n      dup1\n      dup4\n      gt\n      tag_50\n      jumpi\n      dup3\n      swap1\n      sub\n      0x1f\n      and\n      dup3\n      add\n      swap2\n    tag_48:\n      pop\n      pop\n      swap6\n      pop\n      pop\n      pop\n      pop\n      pop\n      pop\n      mload(0x40)\n      dup1\n      swap2\n      sub\n      swap1\n      log1\n        /* \"Deal.sol\":1379:1757  function ConfirmOrder(uint orderno, uint price) public {\r... */\n      pop\n      pop\n      jump\t// out\n        /* \"Deal.sol\":2450:2892  function ReturnProduct(uint orderno) public {\r... */\n    tag_20:\n        /* \"Deal.sol\":2720:2731  uint amount */\n      0x0\n        /* \"Deal.sol\":2525:2530  buyer */\n      0x1\n      0x0\n      swap1\n      sload\n      swap1\n      0x100\n      exp\n      swap1\n      div\n      0xffffffffffffffffffffffffffffffffffffffff\n      and\n        /* \"Deal.sol\":2511:2530  msg.sender == buyer */\n      0xffffffffffffffffffffffffffffffffffffffff\n      and\n        /* \"Deal.sol\":2511:2521  msg.sender */\n      caller\n        /* \"Deal.sol\":2511:2530  msg.sender == buyer */\n      0xffffffffffffffffffffffffffffffffffffffff\n      and\n      eq\n        /* \"Deal.sol\":2503:2556  require(msg.sender == buyer, \"Only buyer can refund\") */\n      iszero\n      iszero\n      tag_52\n      jumpi\n      mload(0x40)\n      0x8c379a000000000000000000000000000000000000000000000000000000000\n      dup2\n      mstore\n      0x4\n      add\n      dup1\n      dup1\n      0x20\n      add\n      dup3\n      dup2\n      sub\n      dup3\n      mstore\n      0x15\n      dup2\n      mstore\n      0x20\n      add\n      dup1\n      0x4f6e6c792062757965722063616e20726566756e640000000000000000000000\n      dup2\n      mstore\n      pop\n      0x20\n      add\n      swap2\n      pop\n      pop\n      mload(0x40)\n      dup1\n      swap2\n      sub\n      swap1\n      revert\n    tag_52:\n        /* \"Deal.sol\":2571:2577  orders */\n      0x3\n        /* \"Deal.sol\":2571:2586  orders[orderno] */\n      0x0\n        /* \"Deal.sol\":2578:2585  orderno */\n      dup4\n        /* \"Deal.sol\":2571:2586  orders[orderno] */\n      dup2\n      mstore\n      0x20\n      add\n      swap1\n      dup2\n      mstore\n      0x20\n      add\n      0x0\n      keccak256\n        /* \"Deal.sol\":2571:2591  orders[orderno].paid */\n      0x3\n      add\n      0x1\n      swap1\n      sload\n      swap1\n      0x100\n      exp\n      swap1\n      div\n      0xff\n      and\n        /* \"Deal.sol\":2563:2610  require(orders[orderno].paid, \"Order not paid\") */\n      iszero\n      iszero\n      tag_53\n      jumpi\n      mload(0x40)\n      0x8c379a000000000000000000000000000000000000000000000000000000000\n      dup2\n      mstore\n      0x4\n      add\n      dup1\n      dup1\n      0x20\n      add\n      dup3\n      dup2\n      sub\n      dup3\n      mstore\n      0xe\n      dup2\n      mstore\n      0x20\n      add\n      dup1\n      0x4f72646572206e6f742070616964000000000000000000000000000000000000\n      dup2\n      mstore\n      pop\n      0x20\n      add\n      swap2\n      pop\n      pop\n      mload(0x40)\n      dup1\n      swap2\n      sub\n      swap1\n      revert\n    tag_53:\n        /* \"Deal.sol\":2659:2674  block.timestamp */\n      timestamp\n        /* \"Deal.sol\":2625:2631  orders */\n      0x3\n        /* \"Deal.sol\":2625:2640  orders[orderno] */\n      0x0\n        /* \"Deal.sol\":2632:2639  orderno */\n      dup5\n        /* \"Deal.sol\":2625:2640  orders[orderno] */\n      dup2\n      mstore\n      0x20\n      add\n      swap1\n      dup2\n      mstore\n      0x20\n      add\n      0x0\n      keccak256\n        /* \"Deal.sol\":2625:2655  orders[orderno].refundDeadline */\n      0x4\n      add\n      sload\n        /* \"Deal.sol\":2625:2674  orders[orderno].refundDeadline >= block.timestamp */\n      lt\n      iszero\n        /* \"Deal.sol\":2617:2711  require(orders[orderno].refundDeadline >= block.timestamp, \"Cannot refund after the deadline\") */\n      iszero\n      iszero\n      tag_54\n      jumpi\n      mload(0x40)\n      0x8c379a000000000000000000000000000000000000000000000000000000000\n      dup2\n      mstore\n      0x4\n      add\n      dup1\n      dup1\n      0x20\n      add\n      dup3\n      dup2\n      sub\n      dup3\n      mstore\n      0x20\n      dup2\n      mstore\n      0x20\n      add\n      dup1\n      0x43616e6e6f7420726566756e642061667465722074686520646561646c696e65\n      dup2\n      mstore\n      pop\n      0x20\n      add\n      swap2\n      pop\n      pop\n      mload(0x40)\n      dup1\n      swap2\n      sub\n      swap1\n      revert\n    tag_54:\n        /* \"Deal.sol\":2734:2740  orders */\n      0x3\n        /* \"Deal.sol\":2734:2749  orders[orderno] */\n      0x0\n        /* \"Deal.sol\":2741:2748  orderno */\n      dup4\n        /* \"Deal.sol\":2734:2749  orders[orderno] */\n      dup2\n      mstore\n      0x20\n      add\n      swap1\n      dup2\n      mstore\n      0x20\n      add\n      0x0\n      keccak256\n        /* \"Deal.sol\":2734:2755  orders[orderno].price */\n      0x1\n      add\n      sload\n        /* \"Deal.sol\":2720:2755  uint amount = orders[orderno].price */\n      swap1\n      pop\n        /* \"Deal.sol\":2785:2790  false */\n      0x0\n        /* \"Deal.sol\":2762:2768  orders */\n      0x3\n        /* \"Deal.sol\":2762:2777  orders[orderno] */\n      0x0\n        /* \"Deal.sol\":2769:2776  orderno */\n      dup5\n        /* \"Deal.sol\":2762:2777  orders[orderno] */\n      dup2\n      mstore\n      0x20\n      add\n      swap1\n      dup2\n      mstore\n      0x20\n      add\n      0x0\n      keccak256\n        /* \"Deal.sol\":2762:2782  orders[orderno].paid */\n      0x3\n      add\n      0x1\n        /* \"Deal.sol\":2762:2790  orders[orderno].paid = false */\n      0x100\n      exp\n      dup2\n      sload\n      dup2\n      0xff\n      mul\n      not\n      and\n      swap1\n      dup4\n      iszero\n      iszero\n      mul\n      or\n      swap1\n      sstore\n      pop\n        /* \"Deal.sol\":2799:2804  buyer */\n      0x1\n      0x0\n      swap1\n      sload\n      swap1\n      0x100\n      exp\n      swap1\n      div\n      0xffffffffffffffffffffffffffffffffffffffff\n      and\n        /* \"Deal.sol\":2799:2813  buyer.transfer */\n      0xffffffffffffffffffffffffffffffffffffffff\n      and\n        /* \"Deal.sol\":2799:2821  buyer.transfer(amount) */\n      0x8fc\n        /* \"Deal.sol\":2814:2820  amount */\n      dup3\n        /* \"Deal.sol\":2799:2821  buyer.transfer(amount) */\n      swap1\n      dup2\n      iszero\n      mul\n      swap1\n      mload(0x40)\n      0x0\n      mload(0x40)\n      dup1\n      dup4\n      sub\n      dup2\n      dup6\n      dup9\n      dup9\n      call\n      swap4\n      pop\n      pop\n      pop\n      pop\n      iszero\n        /* \"--CODEGEN--\":8:17   */\n      dup1\n        /* \"--CODEGEN--\":5:7   */\n      iszero\n      tag_55\n      jumpi\n        /* \"--CODEGEN--\":45:61   */\n      returndatasize\n        /* \"--CODEGEN--\":42:43   */\n      0x0\n        /* \"--CODEGEN--\":39:40   */\n      dup1\n        /* \"--CODEGEN--\":24:62   */\n      returndatacopy\n        /* \"--CODEGEN--\":77:93   */\n      returndatasize\n        /* \"--CODEGEN--\":74:75   */\n      0x0\n        /* \"--CODEGEN--\":67:94   */\n      revert\n        /* \"--CODEGEN--\":5:7   */\n    tag_55:\n        /* \"Deal.sol\":2799:2821  buyer.transfer(amount) */\n      pop\n        /* \"Deal.sol\":2837:2886  RefundSuccessful(orderno, buyer, block.timestamp) */\n      0x41865e4a290e1b5198a92ed40dbe11cfc8e05a0e9816d9358e68792aaa31d0ef\n        /* \"Deal.sol\":2854:2861  orderno */\n      dup3\n        /* \"Deal.sol\":2863:2868  buyer */\n      0x1\n      0x0\n      swap1\n      sload\n      swap1\n      0x100\n      exp\n      swap1\n      div\n      0xffffffffffffffffffffffffffffffffffffffff\n      and\n        /* \"Deal.sol\":2870:2885  block.timestamp */\n      timestamp\n        /* \"Deal.sol\":2837:2886  RefundSuccessful(orderno, buyer, block.timestamp) */\n      mload(0x40)\n      dup1\n      dup5\n      dup2\n      mstore\n      0x20\n      add\n      dup4\n      0xffffffffffffffffffffffffffffffffffffffff\n      and\n      0xffffffffffffffffffffffffffffffffffffffff\n      and\n      dup2\n      mstore\n      0x20\n      add\n      dup3\n      dup2\n      mstore\n      0x20\n      add\n      swap4\n      pop\n      pop\n      pop\n      pop\n      mload(0x40)\n      dup1\n      swap2\n      sub\n      swap1\n      log1\n        /* \"Deal.sol\":2450:2892  function ReturnProduct(uint orderno) public {\r... */\n      pop\n      pop\n      jump\t// out\n        /* \"Deal.sol\":2898:3458  function Payout(uint orderno) public {\r... */\n    tag_23:\n        /* \"Deal.sol\":3221:3232  uint amount */\n      0x0\n        /* \"Deal.sol\":2966:2973  creator */\n      dup1\n      0x0\n      swap1\n      sload\n      swap1\n      0x100\n      exp\n      swap1\n      div\n      0xffffffffffffffffffffffffffffffffffffffff\n      and\n        /* \"Deal.sol\":2952:2973  msg.sender == creator */\n      0xffffffffffffffffffffffffffffffffffffffff\n      and\n        /* \"Deal.sol\":2952:2962  msg.sender */\n      caller\n        /* \"Deal.sol\":2952:2973  msg.sender == creator */\n      0xffffffffffffffffffffffffffffffffffffffff\n      and\n      eq\n        /* \"Deal.sol\":2944:3009  require(msg.sender == creator, \"Only creator can get the payout\") */\n      iszero\n      iszero\n      tag_57\n      jumpi\n      mload(0x40)\n      0x8c379a000000000000000000000000000000000000000000000000000000000\n      dup2\n      mstore\n      0x4\n      add\n      dup1\n      dup1\n      0x20\n      add\n      dup3\n      dup2\n      sub\n      dup3\n      mstore\n      0x1f\n      dup2\n      mstore\n      0x20\n      add\n      dup1\n      0x4f6e6c792063726561746f722063616e2067657420746865207061796f757400\n      dup2\n      mstore\n      pop\n      0x20\n      add\n      swap2\n      pop\n      pop\n      mload(0x40)\n      dup1\n      swap2\n      sub\n      swap1\n      revert\n    tag_57:\n        /* \"Deal.sol\":3024:3030  orders */\n      0x3\n        /* \"Deal.sol\":3024:3039  orders[orderno] */\n      0x0\n        /* \"Deal.sol\":3031:3038  orderno */\n      dup4\n        /* \"Deal.sol\":3024:3039  orders[orderno] */\n      dup2\n      mstore\n      0x20\n      add\n      swap1\n      dup2\n      mstore\n      0x20\n      add\n      0x0\n      keccak256\n        /* \"Deal.sol\":3024:3044  orders[orderno].paid */\n      0x3\n      add\n      0x1\n      swap1\n      sload\n      swap1\n      0x100\n      exp\n      swap1\n      div\n      0xff\n      and\n        /* \"Deal.sol\":3016:3098  require(orders[orderno].paid, \"Order must be paid in order to receive the payout\") */\n      iszero\n      iszero\n      tag_58\n      jumpi\n      mload(0x40)\n      0x8c379a000000000000000000000000000000000000000000000000000000000\n      dup2\n      mstore\n      0x4\n      add\n      dup1\n      dup1\n      0x20\n      add\n      dup3\n      dup2\n      sub\n      dup3\n      mstore\n      0x31\n      dup2\n      mstore\n      0x20\n      add\n      dup1\n      0x4f72646572206d757374206265207061696420696e206f7264657220746f2072\n      dup2\n      mstore\n      0x20\n      add\n      0x65636569766520746865207061796f7574000000000000000000000000000000\n      dup2\n      mstore\n      pop\n      0x40\n      add\n      swap2\n      pop\n      pop\n      mload(0x40)\n      dup1\n      swap2\n      sub\n      swap1\n      revert\n    tag_58:\n        /* \"Deal.sol\":3147:3162  block.timestamp */\n      timestamp\n        /* \"Deal.sol\":3113:3119  orders */\n      0x3\n        /* \"Deal.sol\":3113:3128  orders[orderno] */\n      0x0\n        /* \"Deal.sol\":3120:3127  orderno */\n      dup5\n        /* \"Deal.sol\":3113:3128  orders[orderno] */\n      dup2\n      mstore\n      0x20\n      add\n      swap1\n      dup2\n      mstore\n      0x20\n      add\n      0x0\n      keccak256\n        /* \"Deal.sol\":3113:3143  orders[orderno].refundDeadline */\n      0x4\n      add\n      sload\n        /* \"Deal.sol\":3113:3162  orders[orderno].refundDeadline <= block.timestamp */\n      gt\n      iszero\n        /* \"Deal.sol\":3105:3212  require(orders[orderno].refundDeadline <= block.timestamp, \"Cannot receive the payout before the deadline\") */\n      iszero\n      iszero\n      tag_59\n      jumpi\n      mload(0x40)\n      0x8c379a000000000000000000000000000000000000000000000000000000000\n      dup2\n      mstore\n      0x4\n      add\n      dup1\n      dup1\n      0x20\n      add\n      dup3\n      dup2\n      sub\n      dup3\n      mstore\n      0x2d\n      dup2\n      mstore\n      0x20\n      add\n      dup1\n      0x43616e6e6f74207265636569766520746865207061796f7574206265666f7265\n      dup2\n      mstore\n      0x20\n      add\n      0x2074686520646561646c696e6500000000000000000000000000000000000000\n      dup2\n      mstore\n      pop\n      0x40\n      add\n      swap2\n      pop\n      pop\n      mload(0x40)\n      dup1\n      swap2\n      sub\n      swap1\n      revert\n    tag_59:\n        /* \"Deal.sol\":3235:3241  orders */\n      0x3\n        /* \"Deal.sol\":3235:3250  orders[orderno] */\n      0x0\n        /* \"Deal.sol\":3242:3249  orderno */\n      dup4\n        /* \"Deal.sol\":3235:3250  orders[orderno] */\n      dup2\n      mstore\n      0x20\n      add\n      swap1\n      dup2\n      mstore\n      0x20\n      add\n      0x0\n      keccak256\n        /* \"Deal.sol\":3235:3256  orders[orderno].price */\n      0x1\n      add\n      sload\n        /* \"Deal.sol\":3221:3256  uint amount = orders[orderno].price */\n      swap1\n      pop\n        /* \"Deal.sol\":3286:3291  false */\n      0x0\n        /* \"Deal.sol\":3263:3269  orders */\n      0x3\n        /* \"Deal.sol\":3263:3278  orders[orderno] */\n      0x0\n        /* \"Deal.sol\":3270:3277  orderno */\n      dup5\n        /* \"Deal.sol\":3263:3278  orders[orderno] */\n      dup2\n      mstore\n      0x20\n      add\n      swap1\n      dup2\n      mstore\n      0x20\n      add\n      0x0\n      keccak256\n        /* \"Deal.sol\":3263:3283  orders[orderno].paid */\n      0x3\n      add\n      0x1\n        /* \"Deal.sol\":3263:3291  orders[orderno].paid = false */\n      0x100\n      exp\n      dup2\n      sload\n      dup2\n      0xff\n      mul\n      not\n      and\n      swap1\n      dup4\n      iszero\n      iszero\n      mul\n      or\n      swap1\n      sstore\n      pop\n        /* \"Deal.sol\":3300:3307  creator */\n      0x0\n      dup1\n      swap1\n      sload\n      swap1\n      0x100\n      exp\n      swap1\n      div\n      0xffffffffffffffffffffffffffffffffffffffff\n      and\n        /* \"Deal.sol\":3300:3316  creator.transfer */\n      0xffffffffffffffffffffffffffffffffffffffff\n      and\n        /* \"Deal.sol\":3300:3324  creator.transfer(amount) */\n      0x8fc\n        /* \"Deal.sol\":3317:3323  amount */\n      dup3\n        /* \"Deal.sol\":3300:3324  creator.transfer(amount) */\n      swap1\n      dup2\n      iszero\n      mul\n      swap1\n      mload(0x40)\n      0x0\n      mload(0x40)\n      dup1\n      dup4\n      sub\n      dup2\n      dup6\n      dup9\n      dup9\n      call\n      swap4\n      pop\n      pop\n      pop\n      pop\n      iszero\n        /* \"--CODEGEN--\":8:17   */\n      dup1\n        /* \"--CODEGEN--\":5:7   */\n      iszero\n      tag_60\n      jumpi\n        /* \"--CODEGEN--\":45:61   */\n      returndatasize\n        /* \"--CODEGEN--\":42:43   */\n      0x0\n        /* \"--CODEGEN--\":39:40   */\n      dup1\n        /* \"--CODEGEN--\":24:62   */\n      returndatacopy\n        /* \"--CODEGEN--\":77:93   */\n      returndatasize\n        /* \"--CODEGEN--\":74:75   */\n      0x0\n        /* \"--CODEGEN--\":67:94   */\n      revert\n        /* \"--CODEGEN--\":5:7   */\n    tag_60:\n        /* \"Deal.sol\":3300:3324  creator.transfer(amount) */\n      pop\n        /* \"Deal.sol\":3340:3399  PayoutSuccessful(orderno, creator, amount, block.timestamp) */\n      0x52d0ae120dc8d9034c7bf60cd9ec0ea66a5c28c16d993d7c1d80411ca949d43b\n        /* \"Deal.sol\":3357:3364  orderno */\n      dup3\n        /* \"Deal.sol\":3366:3373  creator */\n      0x0\n      dup1\n      swap1\n      sload\n      swap1\n      0x100\n      exp\n      swap1\n      div\n      0xffffffffffffffffffffffffffffffffffffffff\n      and\n        /* \"Deal.sol\":3375:3381  amount */\n      dup4\n        /* \"Deal.sol\":3383:3398  block.timestamp */\n      timestamp\n        /* \"Deal.sol\":3340:3399  PayoutSuccessful(orderno, creator, amount, block.timestamp) */\n      mload(0x40)\n      dup1\n      dup6\n      dup2\n      mstore\n      0x20\n      add\n      dup5\n      0xffffffffffffffffffffffffffffffffffffffff\n      and\n      0xffffffffffffffffffffffffffffffffffffffff\n      and\n      dup2\n      mstore\n      0x20\n      add\n      dup4\n      dup2\n      mstore\n      0x20\n      add\n      dup3\n      dup2\n      mstore\n      0x20\n      add\n      swap5\n      pop\n      pop\n      pop\n      pop\n      pop\n      mload(0x40)\n      dup1\n      swap2\n      sub\n      swap1\n      log1\n        /* \"Deal.sol\":3411:3452  OrderSuccessful(orderno, block.timestamp) */\n      0xaf7923d787203dddf63f6a25779f92f39cb2860086e34a30a6a1431faab2420b\n        /* \"Deal.sol\":3427:3434  orderno */\n      dup3\n        /* \"Deal.sol\":3436:3451  block.timestamp */\n      timestamp\n        /* \"Deal.sol\":3411:3452  OrderSuccessful(orderno, block.timestamp) */\n      mload(0x40)\n      dup1\n      dup4\n      dup2\n      mstore\n      0x20\n      add\n      dup3\n      dup2\n      mstore\n      0x20\n      add\n      swap3\n      pop\n      pop\n      pop\n      mload(0x40)\n      dup1\n      swap2\n      sub\n      swap1\n      log1\n        /* \"Deal.sol\":2898:3458  function Payout(uint orderno) public {\r... */\n      pop\n      pop\n      jump\t// out\n        /* \"Deal.sol\":962:1373  function sendOrder(string game) external  {\r... */\n    tag_26:\n        /* \"Deal.sol\":1078:1083  buyer */\n      0x1\n      0x0\n      swap1\n      sload\n      swap1\n      0x100\n      exp\n      swap1\n      div\n      0xffffffffffffffffffffffffffffffffffffffff\n      and\n        /* \"Deal.sol\":1064:1083  msg.sender == buyer */\n      0xffffffffffffffffffffffffffffffffffffffff\n      and\n        /* \"Deal.sol\":1064:1074  msg.sender */\n      caller\n        /* \"Deal.sol\":1064:1083  msg.sender == buyer */\n      0xffffffffffffffffffffffffffffffffffffffff\n      and\n      eq\n        /* \"Deal.sol\":1056:1116  require(msg.sender == buyer, \"Only buyer can send an order\") */\n      iszero\n      iszero\n      tag_62\n      jumpi\n      mload(0x40)\n      0x8c379a000000000000000000000000000000000000000000000000000000000\n      dup2\n      mstore\n      0x4\n      add\n      dup1\n      dup1\n      0x20\n      add\n      dup3\n      dup2\n      sub\n      dup3\n      mstore\n      0x1c\n      dup2\n      mstore\n      0x20\n      add\n      dup1\n      0x4f6e6c792062757965722063616e2073656e6420616e206f7264657200000000\n      dup2\n      mstore\n      pop\n      0x20\n      add\n      swap2\n      pop\n      pop\n      mload(0x40)\n      dup1\n      swap2\n      sub\n      swap1\n      revert\n    tag_62:\n        /* \"Deal.sol\":1163:1171  orderseq */\n      0x4\n      0x0\n        /* \"Deal.sol\":1163:1173  orderseq++ */\n      dup2\n      sload\n      dup1\n      swap3\n      swap2\n      swap1\n      0x1\n      add\n      swap2\n      swap1\n      pop\n      sstore\n      pop\n        /* \"Deal.sol\":1236:1284  Order(game, 0, block.timestamp, false, false, 0) */\n      0xc0\n      mload(0x40)\n      swap1\n      dup2\n      add\n      0x40\n      mstore\n      dup1\n        /* \"Deal.sol\":1242:1246  game */\n      dup4\n      dup4\n        /* \"Deal.sol\":1236:1284  Order(game, 0, block.timestamp, false, false, 0) */\n      dup1\n      dup1\n      0x1f\n      add\n      0x20\n      dup1\n      swap2\n      div\n      mul\n      0x20\n      add\n      mload(0x40)\n      swap1\n      dup2\n      add\n      0x40\n      mstore\n      dup1\n      swap4\n      swap3\n      swap2\n      swap1\n      dup2\n      dup2\n      mstore\n      0x20\n      add\n      dup4\n      dup4\n      dup1\n      dup3\n      dup5\n      calldatacopy\n      dup3\n      add\n      swap2\n      pop\n      pop\n      pop\n      pop\n      pop\n      pop\n      dup2\n      mstore\n      0x20\n      add\n        /* \"Deal.sol\":1248:1249  0 */\n      0x0\n        /* \"Deal.sol\":1236:1284  Order(game, 0, block.timestamp, false, false, 0) */\n      dup2\n      mstore\n      0x20\n      add\n        /* \"Deal.sol\":1251:1266  block.timestamp */\n      timestamp\n        /* \"Deal.sol\":1236:1284  Order(game, 0, block.timestamp, false, false, 0) */\n      dup2\n      mstore\n      0x20\n      add\n        /* \"Deal.sol\":1268:1273  false */\n      0x0\n        /* \"Deal.sol\":1236:1284  Order(game, 0, block.timestamp, false, false, 0) */\n      iszero\n      iszero\n      dup2\n      mstore\n      0x20\n      add\n        /* \"Deal.sol\":1275:1280  false */\n      0x0\n        /* \"Deal.sol\":1236:1284  Order(game, 0, block.timestamp, false, false, 0) */\n      iszero\n      iszero\n      dup2\n      mstore\n      0x20\n      add\n        /* \"Deal.sol\":1282:1283  0 */\n      0x0\n        /* \"Deal.sol\":1236:1284  Order(game, 0, block.timestamp, false, false, 0) */\n      dup2\n      mstore\n      pop\n        /* \"Deal.sol\":1217:1223  orders */\n      0x3\n        /* \"Deal.sol\":1217:1233  orders[orderseq] */\n      0x0\n        /* \"Deal.sol\":1224:1232  orderseq */\n      sload(0x4)\n        /* \"Deal.sol\":1217:1233  orders[orderseq] */\n      dup2\n      mstore\n      0x20\n      add\n      swap1\n      dup2\n      mstore\n      0x20\n      add\n      0x0\n      keccak256\n        /* \"Deal.sol\":1217:1284  orders[orderseq] = Order(game, 0, block.timestamp, false, false, 0) */\n      0x0\n      dup3\n      add\n      mload\n      dup2\n      0x0\n      add\n      swap1\n      dup1\n      mload\n      swap1\n      0x20\n      add\n      swap1\n      tag_63\n      swap3\n      swap2\n      swap1\n      jump\t// in(tag_64)\n    tag_63:\n      pop\n      0x20\n      dup3\n      add\n      mload\n      dup2\n      0x1\n      add\n      sstore\n      0x40\n      dup3\n      add\n      mload\n      dup2\n      0x2\n      add\n      sstore\n      0x60\n      dup3\n      add\n      mload\n      dup2\n      0x3\n      add\n      exp(0x100, 0x0)\n      dup2\n      sload\n      dup2\n      0xff\n      mul\n      not\n      and\n      swap1\n      dup4\n      iszero\n      iszero\n      mul\n      or\n      swap1\n      sstore\n      pop\n      0x80\n      dup3\n      add\n      mload\n      dup2\n      0x3\n      add\n      exp(0x100, 0x1)\n      dup2\n      sload\n      dup2\n      0xff\n      mul\n      not\n      and\n      swap1\n      dup4\n      iszero\n      iszero\n      mul\n      or\n      swap1\n      sstore\n      pop\n      0xa0\n      dup3\n      add\n      mload\n      dup2\n      0x4\n      add\n      sstore\n      swap1\n      pop\n      pop\n        /* \"Deal.sol\":1325:1367  OrderSent(game, orderseq, block.timestamp) */\n      0xf317c62b52e4416c39a04af061a14d6040b18c034b7efc61068d59f7d6a292f7\n        /* \"Deal.sol\":1335:1339  game */\n      dup3\n      dup3\n        /* \"Deal.sol\":1341:1349  orderseq */\n      sload(0x4)\n        /* \"Deal.sol\":1351:1366  block.timestamp */\n      timestamp\n        /* \"Deal.sol\":1325:1367  OrderSent(game, orderseq, block.timestamp) */\n      mload(0x40)\n      dup1\n      dup1\n      0x20\n      add\n      dup5\n      dup2\n      mstore\n      0x20\n      add\n      dup4\n      dup2\n      mstore\n      0x20\n      add\n      dup3\n      dup2\n      sub\n      dup3\n      mstore\n      dup7\n      dup7\n      dup3\n      dup2\n      dup2\n      mstore\n      0x20\n      add\n      swap3\n      pop\n      dup1\n      dup3\n      dup5\n      calldatacopy\n      dup3\n      add\n      swap2\n      pop\n      pop\n      swap6\n      pop\n      pop\n      pop\n      pop\n      pop\n      pop\n      mload(0x40)\n      dup1\n      swap2\n      sub\n      swap1\n      log1\n        /* \"Deal.sol\":962:1373  function sendOrder(string game) external  {\r... */\n      pop\n      pop\n      jump\t// out\n        /* \"Deal.sol\":3670:4011  function getRefundWindow(uint orderno) public view returns (uint) {\r... */\n    tag_29:\n        /* \"Deal.sol\":3730:3734  uint */\n      0x0\n        /* \"Deal.sol\":3743:3758  Order storage o */\n      dup1\n        /* \"Deal.sol\":3761:3767  orders */\n      0x3\n        /* \"Deal.sol\":3761:3776  orders[orderno] */\n      0x0\n        /* \"Deal.sol\":3768:3775  orderno */\n      dup5\n        /* \"Deal.sol\":3761:3776  orders[orderno] */\n      dup2\n      mstore\n      0x20\n      add\n      swap1\n      dup2\n      mstore\n      0x20\n      add\n      0x0\n      keccak256\n        /* \"Deal.sol\":3743:3776  Order storage o = orders[orderno] */\n      swap1\n      pop\n        /* \"Deal.sol\":3790:3791  o */\n      dup1\n        /* \"Deal.sol\":3790:3796  o.paid */\n      0x3\n      add\n      0x1\n      swap1\n      sload\n      swap1\n      0x100\n      exp\n      swap1\n      div\n      0xff\n      and\n        /* \"Deal.sol\":3789:3796  !o.paid */\n      iszero\n        /* \"Deal.sol\":3785:3866  if (!o.paid) {\r... */\n      iszero\n      tag_66\n      jumpi\n        /* \"Deal.sol\":3816:3817  0 */\n      0x0\n        /* \"Deal.sol\":3809:3817  return 0 */\n      swap2\n      pop\n      jump(tag_65)\n        /* \"Deal.sol\":3785:3866  if (!o.paid) {\r... */\n    tag_66:\n        /* \"Deal.sol\":3897:3898  o */\n      dup1\n        /* \"Deal.sol\":3897:3913  o.refundDeadline */\n      0x4\n      add\n      sload\n        /* \"Deal.sol\":3878:3893  block.timestamp */\n      timestamp\n        /* \"Deal.sol\":3878:3913  block.timestamp >= o.refundDeadline */\n      lt\n      iszero\n        /* \"Deal.sol\":3874:3958  if (block.timestamp >= o.refundDeadline) {\r... */\n      iszero\n      tag_67\n      jumpi\n        /* \"Deal.sol\":3933:3934  0 */\n      0x0\n        /* \"Deal.sol\":3926:3934  return 0 */\n      swap2\n      pop\n      jump(tag_65)\n        /* \"Deal.sol\":3874:3958  if (block.timestamp >= o.refundDeadline) {\r... */\n    tag_67:\n        /* \"Deal.sol\":3992:4007  block.timestamp */\n      timestamp\n        /* \"Deal.sol\":3973:3974  o */\n      dup2\n        /* \"Deal.sol\":3973:3989  o.refundDeadline */\n      0x4\n      add\n      sload\n        /* \"Deal.sol\":3973:4007  o.refundDeadline - block.timestamp */\n      sub\n        /* \"Deal.sol\":3966:4007  return o.refundDeadline - block.timestamp */\n      swap2\n      pop\n        /* \"Deal.sol\":3670:4011  function getRefundWindow(uint orderno) public view returns (uint) {\r... */\n    tag_65:\n      pop\n      swap2\n      swap1\n      pop\n      jump\t// out\n        /* \"Deal.sol\":3464:3562  function getName(uint orderno) public view returns (string) {\r... */\n    tag_32:\n        /* \"Deal.sol\":3516:3522  string */\n      0x60\n        /* \"Deal.sol\":3538:3544  orders */\n      0x3\n        /* \"Deal.sol\":3538:3553  orders[orderno] */\n      0x0\n        /* \"Deal.sol\":3545:3552  orderno */\n      dup4\n        /* \"Deal.sol\":3538:3553  orders[orderno] */\n      dup2\n      mstore\n      0x20\n      add\n      swap1\n      dup2\n      mstore\n      0x20\n      add\n      0x0\n      keccak256\n        /* \"Deal.sol\":3538:3558  orders[orderno].game */\n      0x0\n      add\n        /* \"Deal.sol\":3531:3558  return orders[orderno].game */\n      dup1\n      sload\n      0x1\n      dup2\n      0x1\n      and\n      iszero\n      0x100\n      mul\n      sub\n      and\n      0x2\n      swap1\n      div\n      dup1\n      0x1f\n      add\n      0x20\n      dup1\n      swap2\n      div\n      mul\n      0x20\n      add\n      mload(0x40)\n      swap1\n      dup2\n      add\n      0x40\n      mstore\n      dup1\n      swap3\n      swap2\n      swap1\n      dup2\n      dup2\n      mstore\n      0x20\n      add\n      dup3\n      dup1\n      sload\n      0x1\n      dup2\n      0x1\n      and\n      iszero\n      0x100\n      mul\n      sub\n      and\n      0x2\n      swap1\n      div\n      dup1\n      iszero\n      tag_69\n      jumpi\n      dup1\n      0x1f\n      lt\n      tag_70\n      jumpi\n      0x100\n      dup1\n      dup4\n      sload\n      div\n      mul\n      dup4\n      mstore\n      swap2\n      0x20\n      add\n      swap2\n      jump(tag_69)\n    tag_70:\n      dup3\n      add\n      swap2\n      swap1\n      0x0\n      mstore\n      keccak256(0x0, 0x20)\n      swap1\n    tag_71:\n      dup2\n      sload\n      dup2\n      mstore\n      swap1\n      0x1\n      add\n      swap1\n      0x20\n      add\n      dup1\n      dup4\n      gt\n      tag_71\n      jumpi\n      dup3\n      swap1\n      sub\n      0x1f\n      and\n      dup3\n      add\n      swap2\n    tag_69:\n      pop\n      pop\n      pop\n      pop\n      pop\n      swap1\n      pop\n        /* \"Deal.sol\":3464:3562  function getName(uint orderno) public view returns (string) {\r... */\n      swap2\n      swap1\n      pop\n      jump\t// out\n        /* \"Deal.sol\":72:92  address public buyer */\n    tag_39:\n      0x1\n      0x0\n      swap1\n      sload\n      swap1\n      0x100\n      exp\n      swap1\n      div\n      0xffffffffffffffffffffffffffffffffffffffff\n      and\n      dup2\n      jump\t// out\n        /* \"Deal.sol\":1763:2444  function SendPayment(uint orderno) payable public {\r... */\n    tag_41:\n        /* \"Deal.sol\":1880:1890  msg.sender */\n      caller\n        /* \"Deal.sol\":1871:1890  buyer == msg.sender */\n      0xffffffffffffffffffffffffffffffffffffffff\n      and\n        /* \"Deal.sol\":1871:1876  buyer */\n      0x1\n      0x0\n      swap1\n      sload\n      swap1\n      0x100\n      exp\n      swap1\n      div\n      0xffffffffffffffffffffffffffffffffffffffff\n      and\n        /* \"Deal.sol\":1871:1890  buyer == msg.sender */\n      0xffffffffffffffffffffffffffffffffffffffff\n      and\n      eq\n        /* \"Deal.sol\":1863:1924  require(buyer == msg.sender, \"Only buyer can send a payment\") */\n      iszero\n      iszero\n      tag_73\n      jumpi\n      mload(0x40)\n      0x8c379a000000000000000000000000000000000000000000000000000000000\n      dup2\n      mstore\n      0x4\n      add\n      dup1\n      dup1\n      0x20\n      add\n      dup3\n      dup2\n      sub\n      dup3\n      mstore\n      0x1d\n      dup2\n      mstore\n      0x20\n      add\n      dup1\n      0x4f6e6c792062757965722063616e2073656e642061207061796d656e74000000\n      dup2\n      mstore\n      pop\n      0x20\n      add\n      swap2\n      pop\n      pop\n      mload(0x40)\n      dup1\n      swap2\n      sub\n      swap1\n      revert\n    tag_73:\n        /* \"Deal.sol\":1970:1974  true */\n      0x1\n        /* \"Deal.sol\":1941:1974  orders[orderno].confirmed == true */\n      iszero\n      iszero\n        /* \"Deal.sol\":1941:1947  orders */\n      0x3\n        /* \"Deal.sol\":1941:1956  orders[orderno] */\n      0x0\n        /* \"Deal.sol\":1948:1955  orderno */\n      dup4\n        /* \"Deal.sol\":1941:1956  orders[orderno] */\n      dup2\n      mstore\n      0x20\n      add\n      swap1\n      dup2\n      mstore\n      0x20\n      add\n      0x0\n      keccak256\n        /* \"Deal.sol\":1941:1966  orders[orderno].confirmed */\n      0x3\n      add\n      0x0\n      swap1\n      sload\n      swap1\n      0x100\n      exp\n      swap1\n      div\n      0xff\n      and\n        /* \"Deal.sol\":1941:1974  orders[orderno].confirmed == true */\n      iszero\n      iszero\n      eq\n        /* \"Deal.sol\":1933:2037  require(orders[orderno].confirmed == true, \"Order must be confirmed by the creator in order to be paid\") */\n      iszero\n      iszero\n      tag_74\n      jumpi\n      mload(0x40)\n      0x8c379a000000000000000000000000000000000000000000000000000000000\n      dup2\n      mstore\n      0x4\n      add\n      dup1\n      dup1\n      0x20\n      add\n      dup3\n      dup2\n      sub\n      dup3\n      mstore\n      0x3a\n      dup2\n      mstore\n      0x20\n      add\n      dup1\n      0x4f72646572206d75737420626520636f6e6669726d6564206279207468652063\n      dup2\n      mstore\n      0x20\n      add\n      0x726561746f7220696e206f7264657220746f2062652070616964000000000000\n      dup2\n      mstore\n      pop\n      0x40\n      add\n      swap2\n      pop\n      pop\n      mload(0x40)\n      dup1\n      swap2\n      sub\n      swap1\n      revert\n    tag_74:\n        /* \"Deal.sol\":2078:2083  false */\n      0x0\n        /* \"Deal.sol\":2054:2083  orders[orderno].paid == false */\n      iszero\n      iszero\n        /* \"Deal.sol\":2054:2060  orders */\n      0x3\n        /* \"Deal.sol\":2054:2069  orders[orderno] */\n      0x0\n        /* \"Deal.sol\":2061:2068  orderno */\n      dup4\n        /* \"Deal.sol\":2054:2069  orders[orderno] */\n      dup2\n      mstore\n      0x20\n      add\n      swap1\n      dup2\n      mstore\n      0x20\n      add\n      0x0\n      keccak256\n        /* \"Deal.sol\":2054:2074  orders[orderno].paid */\n      0x3\n      add\n      0x1\n      swap1\n      sload\n      swap1\n      0x100\n      exp\n      swap1\n      div\n      0xff\n      and\n        /* \"Deal.sol\":2054:2083  orders[orderno].paid == false */\n      iszero\n      iszero\n      eq\n        /* \"Deal.sol\":2046:2114  require(orders[orderno].paid == false, \"Order was already paid for\") */\n      iszero\n      iszero\n      tag_75\n      jumpi\n      mload(0x40)\n      0x8c379a000000000000000000000000000000000000000000000000000000000\n      dup2\n      mstore\n      0x4\n      add\n      dup1\n      dup1\n      0x20\n      add\n      dup3\n      dup2\n      sub\n      dup3\n      mstore\n      0x1a\n      dup2\n      mstore\n      0x20\n      add\n      dup1\n      0x4f726465722077617320616c7265616479207061696420666f72000000000000\n      dup2\n      mstore\n      pop\n      0x20\n      add\n      swap2\n      pop\n      pop\n      mload(0x40)\n      dup1\n      swap2\n      sub\n      swap1\n      revert\n    tag_75:\n        /* \"Deal.sol\":2156:2165  msg.value */\n      callvalue\n        /* \"Deal.sol\":2131:2137  orders */\n      0x3\n        /* \"Deal.sol\":2131:2146  orders[orderno] */\n      0x0\n        /* \"Deal.sol\":2138:2145  orderno */\n      dup4\n        /* \"Deal.sol\":2131:2146  orders[orderno] */\n      dup2\n      mstore\n      0x20\n      add\n      swap1\n      dup2\n      mstore\n      0x20\n      add\n      0x0\n      keccak256\n        /* \"Deal.sol\":2131:2152  orders[orderno].price */\n      0x1\n      add\n      sload\n        /* \"Deal.sol\":2131:2165  orders[orderno].price == msg.value */\n      eq\n        /* \"Deal.sol\":2123:2190  require(orders[orderno].price == msg.value, \"Send the exact price\") */\n      iszero\n      iszero\n      tag_76\n      jumpi\n      mload(0x40)\n      0x8c379a000000000000000000000000000000000000000000000000000000000\n      dup2\n      mstore\n      0x4\n      add\n      dup1\n      dup1\n      0x20\n      add\n      dup3\n      dup2\n      sub\n      dup3\n      mstore\n      0x14\n      dup2\n      mstore\n      0x20\n      add\n      dup1\n      0x53656e6420746865206578616374207072696365000000000000000000000000\n      dup2\n      mstore\n      pop\n      0x20\n      add\n      swap2\n      pop\n      pop\n      mload(0x40)\n      dup1\n      swap2\n      sub\n      swap1\n      revert\n    tag_76:\n        /* \"Deal.sol\":2222:2226  true */\n      0x1\n        /* \"Deal.sol\":2199:2205  orders */\n      0x3\n        /* \"Deal.sol\":2199:2214  orders[orderno] */\n      0x0\n        /* \"Deal.sol\":2206:2213  orderno */\n      dup4\n        /* \"Deal.sol\":2199:2214  orders[orderno] */\n      dup2\n      mstore\n      0x20\n      add\n      swap1\n      dup2\n      mstore\n      0x20\n      add\n      0x0\n      keccak256\n        /* \"Deal.sol\":2199:2219  orders[orderno].paid */\n      0x3\n      add\n      0x1\n        /* \"Deal.sol\":2199:2226  orders[orderno].paid = true */\n      0x100\n      exp\n      dup2\n      sload\n      dup2\n      0xff\n      mul\n      not\n      and\n      swap1\n      dup4\n      iszero\n      iszero\n      mul\n      or\n      swap1\n      sstore\n      pop\n        /* \"Deal.sol\":2240:2292  PaymentReceived(orderno, msg.value, block.timestamp) */\n      0x243f8b521882d823492f47c974aec93c6b1f81e3f30a1eb6a6d18bd2fecf975b\n        /* \"Deal.sol\":2256:2263  orderno */\n      dup2\n        /* \"Deal.sol\":2265:2274  msg.value */\n      callvalue\n        /* \"Deal.sol\":2276:2291  block.timestamp */\n      timestamp\n        /* \"Deal.sol\":2240:2292  PaymentReceived(orderno, msg.value, block.timestamp) */\n      mload(0x40)\n      dup1\n      dup5\n      dup2\n      mstore\n      0x20\n      add\n      dup4\n      dup2\n      mstore\n      0x20\n      add\n      dup3\n      dup2\n      mstore\n      0x20\n      add\n      swap4\n      pop\n      pop\n      pop\n      pop\n      mload(0x40)\n      dup1\n      swap2\n      sub\n      swap1\n      log1\n        /* \"Deal.sol\":2352:2357  timer */\n      sload(0x2)\n        /* \"Deal.sol\":2334:2349  block.timestamp */\n      timestamp\n        /* \"Deal.sol\":2334:2357  block.timestamp + timer */\n      add\n        /* \"Deal.sol\":2301:2307  orders */\n      0x3\n        /* \"Deal.sol\":2301:2316  orders[orderno] */\n      0x0\n        /* \"Deal.sol\":2308:2315  orderno */\n      dup4\n        /* \"Deal.sol\":2301:2316  orders[orderno] */\n      dup2\n      mstore\n      0x20\n      add\n      swap1\n      dup2\n      mstore\n      0x20\n      add\n      0x0\n      keccak256\n        /* \"Deal.sol\":2301:2331  orders[orderno].refundDeadline */\n      0x4\n      add\n        /* \"Deal.sol\":2301:2357  orders[orderno].refundDeadline = block.timestamp + timer */\n      dup2\n      swap1\n      sstore\n      pop\n        /* \"Deal.sol\":2371:2438  CountdownStarted(orderno, block.timestamp, block.timestamp + timer) */\n      0x2c51b956ca3e342f3e03fd4c0d0fbbebbc3c57f0317236c62661f552d3e59468\n        /* \"Deal.sol\":2388:2395  orderno */\n      dup2\n        /* \"Deal.sol\":2397:2412  block.timestamp */\n      timestamp\n        /* \"Deal.sol\":2432:2437  timer */\n      sload(0x2)\n        /* \"Deal.sol\":2414:2429  block.timestamp */\n      timestamp\n        /* \"Deal.sol\":2414:2437  block.timestamp + timer */\n      add\n        /* \"Deal.sol\":2371:2438  CountdownStarted(orderno, block.timestamp, block.timestamp + timer) */\n      mload(0x40)\n      dup1\n      dup5\n      dup2\n      mstore\n      0x20\n      add\n      dup4\n      dup2\n      mstore\n      0x20\n      add\n      dup3\n      dup2\n      mstore\n      0x20\n      add\n      swap4\n      pop\n      pop\n      pop\n      pop\n      mload(0x40)\n      dup1\n      swap2\n      sub\n      swap1\n      log1\n        /* \"Deal.sol\":1763:2444  function SendPayment(uint orderno) payable public {\r... */\n      pop\n      jump\t// out\n        /* \"Deal.sol\":3568:3666  function getPrice(uint orderno) public view returns (uint) {\r... */\n    tag_44:\n        /* \"Deal.sol\":3621:3625  uint */\n      0x0\n        /* \"Deal.sol\":3641:3647  orders */\n      0x3\n        /* \"Deal.sol\":3641:3656  orders[orderno] */\n      0x0\n        /* \"Deal.sol\":3648:3655  orderno */\n      dup4\n        /* \"Deal.sol\":3641:3656  orders[orderno] */\n      dup2\n      mstore\n      0x20\n      add\n      swap1\n      dup2\n      mstore\n      0x20\n      add\n      0x0\n      keccak256\n        /* \"Deal.sol\":3641:3662  orders[orderno].price */\n      0x1\n      add\n      sload\n        /* \"Deal.sol\":3634:3662  return orders[orderno].price */\n      swap1\n      pop\n        /* \"Deal.sol\":3568:3666  function getPrice(uint orderno) public view returns (uint) {\r... */\n      swap2\n      swap1\n      pop\n      jump\t// out\n        /* \"Deal.sol\":28:4016  contract Deal {\r... */\n    tag_64:\n      dup3\n      dup1\n      sload\n      0x1\n      dup2\n      0x1\n      and\n      iszero\n      0x100\n      mul\n      sub\n      and\n      0x2\n      swap1\n      div\n      swap1\n      0x0\n      mstore\n      keccak256(0x0, 0x20)\n      swap1\n      0x1f\n      add\n      0x20\n      swap1\n      div\n      dup2\n      add\n      swap3\n      dup3\n      0x1f\n      lt\n      tag_79\n      jumpi\n      dup1\n      mload\n      not(0xff)\n      and\n      dup4\n      dup1\n      add\n      or\n      dup6\n      sstore\n      jump(tag_78)\n    tag_79:\n      dup3\n      dup1\n      add\n      0x1\n      add\n      dup6\n      sstore\n      dup3\n      iszero\n      tag_78\n      jumpi\n      swap2\n      dup3\n      add\n    tag_80:\n      dup3\n      dup2\n      gt\n      iszero\n      tag_81\n      jumpi\n      dup3\n      mload\n      dup3\n      sstore\n      swap2\n      0x20\n      add\n      swap2\n      swap1\n      0x1\n      add\n      swap1\n      jump(tag_80)\n    tag_81:\n    tag_78:\n      pop\n      swap1\n      pop\n      tag_82\n      swap2\n      swap1\n      jump\t// in(tag_83)\n    tag_82:\n      pop\n      swap1\n      jump\t// out\n    tag_83:\n      tag_84\n      swap2\n      swap1\n    tag_85:\n      dup1\n      dup3\n      gt\n      iszero\n      tag_86\n      jumpi\n      0x0\n      dup2\n      0x0\n      swap1\n      sstore\n      pop\n      0x1\n      add\n      jump(tag_85)\n    tag_86:\n      pop\n      swap1\n      jump\n    tag_84:\n      swap1\n      jump\t// out\n\n    auxdata: 0xa165627a7a723058201d2faa18f628115ffd8c5a88037a5ff3849ae353ccc714c9890eb6c76f564de90029\n}\n",
				"bytecode": {
					"linkReferences": {},
					"object": "6080604052601e60025534801561001557600080fd5b5060405160208061161883398101806040528101908080519060200190929190505050336000806101000a81548173ffffffffffffffffffffffffffffffffffffffff021916908373ffffffffffffffffffffffffffffffffffffffff16021790555080600160006101000a81548173ffffffffffffffffffffffffffffffffffffffff021916908373ffffffffffffffffffffffffffffffffffffffff1602179055505061154f806100c96000396000f3006080604052600436106100a4576000357c0100000000000000000000000000000000000000000000000000000000900463ffffffff16806302d05d3f146100a9578063034684e61461010057806303c17a3814610137578063224270471461016457806325fcba481461019157806344cad860146101cc5780636b8ff5741461020d5780637150d8ae146102b357806395787d261461030a578063e75722301461032a575b600080fd5b3480156100b557600080fd5b506100be61036b565b604051808273ffffffffffffffffffffffffffffffffffffffff1673ffffffffffffffffffffffffffffffffffffffff16815260200191505060405180910390f35b34801561010c57600080fd5b506101356004803603810190808035906020019092919080359060200190929190505050610390565b005b34801561014357600080fd5b5061016260048036038101908080359060200190929190505050610651565b005b34801561017057600080fd5b5061018f60048036038101908080359060200190929190505050610988565b005b34801561019d57600080fd5b506101ca600480360381019080803590602001908201803590602001919091929391929390505050610d4f565b005b3480156101d857600080fd5b506101f760048036038101908080359060200190929190505050610f88565b6040518082815260200191505060405180910390f35b34801561021957600080fd5b5061023860048036038101908080359060200190929190505050610fe7565b6040518080602001828103825283818151815260200191508051906020019080838360005b8381101561027857808201518184015260208101905061025d565b50505050905090810190601f1680156102a55780820380516001836020036101000a031916815260200191505b509250505060405180910390f35b3480156102bf57600080fd5b506102c861109f565b604051808273ffffffffffffffffffffffffffffffffffffffff1673ffffffffffffffffffffffffffffffffffffffff16815260200191505060405180910390f35b610328600480360381019080803590602001909291905050506110c5565b005b34801561033657600080fd5b506103556004803603810190808035906020019092919050505061145e565b6040518082815260200191505060405180910390f35b6000809054906101000a900473ffffffffffffffffffffffffffffffffffffffff1681565b6000809054906101000a900473ffffffffffffffffffffffffffffffffffffffff1673ffffffffffffffffffffffffffffffffffffffff163373ffffffffffffffffffffffffffffffffffffffff1614151561047a576040517f08c379a00000000000000000000000000000000000000000000000000000000081526004018080602001828103825260218152602001807f4f6e6c792063726561746f722063616e20636f6e6669726d20616e206f72646581526020017f720000000000000000000000000000000000000000000000000000000000000081525060400191505060405180910390fd5b6000600360008481526020019081526020016000206000018054600181600116156101000203166002900490501415151561051d576040517f08c379a00000000000000000000000000000000000000000000000000000000081526004018080602001828103825260148152602001807f4f7264657220646f6573206e6f7420657869737400000000000000000000000081525060200191505060405180910390fd5b80600360008481526020019081526020016000206001018190555060016003600084815260200190815260200160002060030160006101000a81548160ff0219169083151502179055507fdf480c4d7c3ab48571fe915e4c61a595582f63727e4e99ed686284892ad073e360036000848152602001908152602001600020600001828442604051808060200185815260200184815260200183815260200182810382528681815460018160011615610100020316600290048152602001915080546001816001161561010002031660029004801561063c5780601f106106115761010080835404028352916020019161063c565b820191906000526020600020905b81548152906001019060200180831161061f57829003601f168201915b50509550505050505060405180910390a15050565b6000600160009054906101000a900473ffffffffffffffffffffffffffffffffffffffff1673ffffffffffffffffffffffffffffffffffffffff163373ffffffffffffffffffffffffffffffffffffffff16141515610718576040517f08c379a00000000000000000000000000000000000000000000000000000000081526004018080602001828103825260158152602001807f4f6e6c792062757965722063616e20726566756e64000000000000000000000081525060200191505060405180910390fd5b6003600083815260200190815260200160002060030160019054906101000a900460ff1615156107b0576040517f08c379a000000000000000000000000000000000000000000000000000000000815260040180806020018281038252600e8152602001807f4f72646572206e6f74207061696400000000000000000000000000000000000081525060200191505060405180910390fd5b4260036000848152602001908152602001600020600401541015151561083e576040517f08c379a00000000000000000000000000000000000000000000000000000000081526004018080602001828103825260208152602001807f43616e6e6f7420726566756e642061667465722074686520646561646c696e6581525060200191505060405180910390fd5b6003600083815260200190815260200160002060010154905060006003600084815260200190815260200160002060030160016101000a81548160ff021916908315150217905550600160009054906101000a900473ffffffffffffffffffffffffffffffffffffffff1673ffffffffffffffffffffffffffffffffffffffff166108fc829081150290604051600060405180830381858888f193505050501580156108ee573d6000803e3d6000fd5b507f41865e4a290e1b5198a92ed40dbe11cfc8e05a0e9816d9358e68792aaa31d0ef82600160009054906101000a900473ffffffffffffffffffffffffffffffffffffffff1642604051808481526020018373ffffffffffffffffffffffffffffffffffffffff1673ffffffffffffffffffffffffffffffffffffffff168152602001828152602001935050505060405180910390a15050565b60008060009054906101000a900473ffffffffffffffffffffffffffffffffffffffff1673ffffffffffffffffffffffffffffffffffffffff163373ffffffffffffffffffffffffffffffffffffffff16141515610a4e576040517f08c379a000000000000000000000000000000000000000000000000000000000815260040180806020018281038252601f8152602001807f4f6e6c792063726561746f722063616e2067657420746865207061796f75740081525060200191505060405180910390fd5b6003600083815260200190815260200160002060030160019054906101000a900460ff161515610b0c576040517f08c379a00000000000000000000000000000000000000000000000000000000081526004018080602001828103825260318152602001807f4f72646572206d757374206265207061696420696e206f7264657220746f207281526020017f65636569766520746865207061796f757400000000000000000000000000000081525060400191505060405180910390fd5b42600360008481526020019081526020016000206004015411151515610bc0576040517f08c379a000000000000000000000000000000000000000000000000000000000815260040180806020018281038252602d8152602001807f43616e6e6f74207265636569766520746865207061796f7574206265666f726581526020017f2074686520646561646c696e650000000000000000000000000000000000000081525060400191505060405180910390fd5b6003600083815260200190815260200160002060010154905060006003600084815260200190815260200160002060030160016101000a81548160ff0219169083151502179055506000809054906101000a900473ffffffffffffffffffffffffffffffffffffffff1673ffffffffffffffffffffffffffffffffffffffff166108fc829081150290604051600060405180830381858888f19350505050158015610c6f573d6000803e3d6000fd5b507f52d0ae120dc8d9034c7bf60cd9ec0ea66a5c28c16d993d7c1d80411ca949d43b826000809054906101000a900473ffffffffffffffffffffffffffffffffffffffff168342604051808581526020018473ffffffffffffffffffffffffffffffffffffffff1673ffffffffffffffffffffffffffffffffffffffff16815260200183815260200182815260200194505050505060405180910390a17faf7923d787203dddf63f6a25779f92f39cb2860086e34a30a6a1431faab2420b8242604051808381526020018281526020019250505060405180910390a15050565b600160009054906101000a900473ffffffffffffffffffffffffffffffffffffffff1673ffffffffffffffffffffffffffffffffffffffff163373ffffffffffffffffffffffffffffffffffffffff16141515610e14576040517f08c379a000000000000000000000000000000000000000000000000000000000815260040180806020018281038252601c8152602001807f4f6e6c792062757965722063616e2073656e6420616e206f726465720000000081525060200191505060405180910390fd5b60046000815480929190600101919050555060c06040519081016040528083838080601f01602080910402602001604051908101604052809392919081815260200183838082843782019150505050505081526020016000815260200142815260200160001515815260200160001515815260200160008152506003600060045481526020019081526020016000206000820151816000019080519060200190610ebf92919061147e565b50602082015181600101556040820151816002015560608201518160030160006101000a81548160ff02191690831515021790555060808201518160030160016101000a81548160ff02191690831515021790555060a082015181600401559050507ff317c62b52e4416c39a04af061a14d6040b18c034b7efc61068d59f7d6a292f78282600454426040518080602001848152602001838152602001828103825286868281815260200192508082843782019150509550505050505060405180910390a15050565b6000806003600084815260200190815260200160002090508060030160019054906101000a900460ff161515610fc15760009150610fe1565b806004015442101515610fd75760009150610fe1565b4281600401540391505b50919050565b6060600360008381526020019081526020016000206000018054600181600116156101000203166002900480601f0160208091040260200160405190810160405280929190818152602001828054600181600116156101000203166002900480156110935780601f1061106857610100808354040283529160200191611093565b820191906000526020600020905b81548152906001019060200180831161107657829003601f168201915b50505050509050919050565b600160009054906101000a900473ffffffffffffffffffffffffffffffffffffffff1681565b3373ffffffffffffffffffffffffffffffffffffffff16600160009054906101000a900473ffffffffffffffffffffffffffffffffffffffff1673ffffffffffffffffffffffffffffffffffffffff1614151561118a576040517f08c379a000000000000000000000000000000000000000000000000000000000815260040180806020018281038252601d8152602001807f4f6e6c792062757965722063616e2073656e642061207061796d656e7400000081525060200191505060405180910390fd5b600115156003600083815260200190815260200160002060030160009054906101000a900460ff16151514151561124f576040517f08c379a000000000000000000000000000000000000000000000000000000000815260040180806020018281038252603a8152602001807f4f72646572206d75737420626520636f6e6669726d656420627920746865206381526020017f726561746f7220696e206f7264657220746f206265207061696400000000000081525060400191505060405180910390fd5b600015156003600083815260200190815260200160002060030160019054906101000a900460ff1615151415156112ee576040517f08c379a000000000000000000000000000000000000000000000000000000000815260040180806020018281038252601a8152602001807f4f726465722077617320616c7265616479207061696420666f7200000000000081525060200191505060405180910390fd5b34600360008381526020019081526020016000206001015414151561137b576040517f08c379a00000000000000000000000000000000000000000000000000000000081526004018080602001828103825260148152602001807f53656e642074686520657861637420707269636500000000000000000000000081525060200191505060405180910390fd5b60016003600083815260200190815260200160002060030160016101000a81548160ff0219169083151502179055507f243f8b521882d823492f47c974aec93c6b1f81e3f30a1eb6a6d18bd2fecf975b81344260405180848152602001838152602001828152602001935050505060405180910390a1600254420160036000838152602001908152602001600020600401819055507f2c51b956ca3e342f3e03fd4c0d0fbbebbc3c57f0317236c62661f552d3e594688142600254420160405180848152602001838152602001828152602001935050505060405180910390a150565b600060036000838152602001908152602001600020600101549050919050565b828054600181600116156101000203166002900490600052602060002090601f016020900481019282601f106114bf57805160ff19168380011785556114ed565b828001600101855582156114ed579182015b828111156114ec5782518255916020019190600101906114d1565b5b5090506114fa91906114fe565b5090565b61152091905b8082111561151c576000816000905550600101611504565b5090565b905600a165627a7a723058201d2faa18f628115ffd8c5a88037a5ff3849ae353ccc714c9890eb6c76f564de90029",
					"opcodes": "PUSH1 0x80 PUSH1 0x40 MSTORE PUSH1 0x1E PUSH1 0x2 SSTORE CALLVALUE DUP1 ISZERO PUSH2 0x15 JUMPI PUSH1 0x0 DUP1 REVERT JUMPDEST POP PUSH1 0x40 MLOAD PUSH1 0x20 DUP1 PUSH2 0x1618 DUP4 CODECOPY DUP2 ADD DUP1 PUSH1 0x40 MSTORE DUP2 ADD SWAP1 DUP1 DUP1 MLOAD SWAP1 PUSH1 0x20 ADD SWAP1 SWAP3 SWAP2 SWAP1 POP POP POP CALLER PUSH1 0x0 DUP1 PUSH2 0x100 EXP DUP2 SLOAD DUP2 PUSH20 0xFFFFFFFFFFFFFFFFFFFFFFFFFFFFFFFFFFFFFFFF MUL NOT AND SWAP1 DUP4 PUSH20 0xFFFFFFFFFFFFFFFFFFFFFFFFFFFFFFFFFFFFFFFF AND MUL OR SWAP1 SSTORE POP DUP1 PUSH1 0x1 PUSH1 0x0 PUSH2 0x100 EXP DUP2 SLOAD DUP2 PUSH20 0xFFFFFFFFFFFFFFFFFFFFFFFFFFFFFFFFFFFFFFFF MUL NOT AND SWAP1 DUP4 PUSH20 0xFFFFFFFFFFFFFFFFFFFFFFFFFFFFFFFFFFFFFFFF AND MUL OR SWAP1 SSTORE POP POP PUSH2 0x154F DUP1 PUSH2 0xC9 PUSH1 0x0 CODECOPY PUSH1 0x0 RETURN STOP PUSH1 0x80 PUSH1 0x40 MSTORE PUSH1 0x4 CALLDATASIZE LT PUSH2 0xA4 JUMPI PUSH1 0x0 CALLDATALOAD PUSH29 0x100000000000000000000000000000000000000000000000000000000 SWAP1 DIV PUSH4 0xFFFFFFFF AND DUP1 PUSH4 0x2D05D3F EQ PUSH2 0xA9 JUMPI DUP1 PUSH4 0x34684E6 EQ PUSH2 0x100 JUMPI DUP1 PUSH4 0x3C17A38 EQ PUSH2 0x137 JUMPI DUP1 PUSH4 0x22427047 EQ PUSH2 0x164 JUMPI DUP1 PUSH4 0x25FCBA48 EQ PUSH2 0x191 JUMPI DUP1 PUSH4 0x44CAD860 EQ PUSH2 0x1CC JUMPI DUP1 PUSH4 0x6B8FF574 EQ PUSH2 0x20D JUMPI DUP1 PUSH4 0x7150D8AE EQ PUSH2 0x2B3 JUMPI DUP1 PUSH4 0x95787D26 EQ PUSH2 0x30A JUMPI DUP1 PUSH4 0xE7572230 EQ PUSH2 0x32A JUMPI JUMPDEST PUSH1 0x0 DUP1 REVERT JUMPDEST CALLVALUE DUP1 ISZERO PUSH2 0xB5 JUMPI PUSH1 0x0 DUP1 REVERT JUMPDEST POP PUSH2 0xBE PUSH2 0x36B JUMP JUMPDEST PUSH1 0x40 MLOAD DUP1 DUP3 PUSH20 0xFFFFFFFFFFFFFFFFFFFFFFFFFFFFFFFFFFFFFFFF AND PUSH20 0xFFFFFFFFFFFFFFFFFFFFFFFFFFFFFFFFFFFFFFFF AND DUP2 MSTORE PUSH1 0x20 ADD SWAP2 POP POP PUSH1 0x40 MLOAD DUP1 SWAP2 SUB SWAP1 RETURN JUMPDEST CALLVALUE DUP1 ISZERO PUSH2 0x10C JUMPI PUSH1 0x0 DUP1 REVERT JUMPDEST POP PUSH2 0x135 PUSH1 0x4 DUP1 CALLDATASIZE SUB DUP2 ADD SWAP1 DUP1 DUP1 CALLDATALOAD SWAP1 PUSH1 0x20 ADD SWAP1 SWAP3 SWAP2 SWAP1 DUP1 CALLDATALOAD SWAP1 PUSH1 0x20 ADD SWAP1 SWAP3 SWAP2 SWAP1 POP POP POP PUSH2 0x390 JUMP JUMPDEST STOP JUMPDEST CALLVALUE DUP1 ISZERO PUSH2 0x143 JUMPI PUSH1 0x0 DUP1 REVERT JUMPDEST POP PUSH2 0x162 PUSH1 0x4 DUP1 CALLDATASIZE SUB DUP2 ADD SWAP1 DUP1 DUP1 CALLDATALOAD SWAP1 PUSH1 0x20 ADD SWAP1 SWAP3 SWAP2 SWAP1 POP POP POP PUSH2 0x651 JUMP JUMPDEST STOP JUMPDEST CALLVALUE DUP1 ISZERO PUSH2 0x170 JUMPI PUSH1 0x0 DUP1 REVERT JUMPDEST POP PUSH2 0x18F PUSH1 0x4 DUP1 CALLDATASIZE SUB DUP2 ADD SWAP1 DUP1 DUP1 CALLDATALOAD SWAP1 PUSH1 0x20 ADD SWAP1 SWAP3 SWAP2 SWAP1 POP POP POP PUSH2 0x988 JUMP JUMPDEST STOP JUMPDEST CALLVALUE DUP1 ISZERO PUSH2 0x19D JUMPI PUSH1 0x0 DUP1 REVERT JUMPDEST POP PUSH2 0x1CA PUSH1 0x4 DUP1 CALLDATASIZE SUB DUP2 ADD SWAP1 DUP1 DUP1 CALLDATALOAD SWAP1 PUSH1 0x20 ADD SWAP1 DUP3 ADD DUP1 CALLDATALOAD SWAP1 PUSH1 0x20 ADD SWAP2 SWAP1 SWAP2 SWAP3 SWAP4 SWAP2 SWAP3 SWAP4 SWAP1 POP POP POP PUSH2 0xD4F JUMP JUMPDEST STOP JUMPDEST CALLVALUE DUP1 ISZERO PUSH2 0x1D8 JUMPI PUSH1 0x0 DUP1 REVERT JUMPDEST POP PUSH2 0x1F7 PUSH1 0x4 DUP1 CALLDATASIZE SUB DUP2 ADD SWAP1 DUP1 DUP1 CALLDATALOAD SWAP1 PUSH1 0x20 ADD SWAP1 SWAP3 SWAP2 SWAP1 POP POP POP PUSH2 0xF88 JUMP JUMPDEST PUSH1 0x40 MLOAD DUP1 DUP3 DUP2 MSTORE PUSH1 0x20 ADD SWAP2 POP POP PUSH1 0x40 MLOAD DUP1 SWAP2 SUB SWAP1 RETURN JUMPDEST CALLVALUE DUP1 ISZERO PUSH2 0x219 JUMPI PUSH1 0x0 DUP1 REVERT JUMPDEST POP PUSH2 0x238 PUSH1 0x4 DUP1 CALLDATASIZE SUB DUP2 ADD SWAP1 DUP1 DUP1 CALLDATALOAD SWAP1 PUSH1 0x20 ADD SWAP1 SWAP3 SWAP2 SWAP1 POP POP POP PUSH2 0xFE7 JUMP JUMPDEST PUSH1 0x40 MLOAD DUP1 DUP1 PUSH1 0x20 ADD DUP3 DUP2 SUB DUP3 MSTORE DUP4 DUP2 DUP2 MLOAD DUP2 MSTORE PUSH1 0x20 ADD SWAP2 POP DUP1 MLOAD SWAP1 PUSH1 0x20 ADD SWAP1 DUP1 DUP4 DUP4 PUSH1 0x0 JUMPDEST DUP4 DUP2 LT ISZERO PUSH2 0x278 JUMPI DUP1 DUP3 ADD MLOAD DUP2 DUP5 ADD MSTORE PUSH1 0x20 DUP2 ADD SWAP1 POP PUSH2 0x25D JUMP JUMPDEST POP POP POP POP SWAP1 POP SWAP1 DUP2 ADD SWAP1 PUSH1 0x1F AND DUP1 ISZERO PUSH2 0x2A5 JUMPI DUP1 DUP3 SUB DUP1 MLOAD PUSH1 0x1 DUP4 PUSH1 0x20 SUB PUSH2 0x100 EXP SUB NOT AND DUP2 MSTORE PUSH1 0x20 ADD SWAP2 POP JUMPDEST POP SWAP3 POP POP POP PUSH1 0x40 MLOAD DUP1 SWAP2 SUB SWAP1 RETURN JUMPDEST CALLVALUE DUP1 ISZERO PUSH2 0x2BF JUMPI PUSH1 0x0 DUP1 REVERT JUMPDEST POP PUSH2 0x2C8 PUSH2 0x109F JUMP JUMPDEST PUSH1 0x40 MLOAD DUP1 DUP3 PUSH20 0xFFFFFFFFFFFFFFFFFFFFFFFFFFFFFFFFFFFFFFFF AND PUSH20 0xFFFFFFFFFFFFFFFFFFFFFFFFFFFFFFFFFFFFFFFF AND DUP2 MSTORE PUSH1 0x20 ADD SWAP2 POP POP PUSH1 0x40 MLOAD DUP1 SWAP2 SUB SWAP1 RETURN JUMPDEST PUSH2 0x328 PUSH1 0x4 DUP1 CALLDATASIZE SUB DUP2 ADD SWAP1 DUP1 DUP1 CALLDATALOAD SWAP1 PUSH1 0x20 ADD SWAP1 SWAP3 SWAP2 SWAP1 POP POP POP PUSH2 0x10C5 JUMP JUMPDEST STOP JUMPDEST CALLVALUE DUP1 ISZERO PUSH2 0x336 JUMPI PUSH1 0x0 DUP1 REVERT JUMPDEST POP PUSH2 0x355 PUSH1 0x4 DUP1 CALLDATASIZE SUB DUP2 ADD SWAP1 DUP1 DUP1 CALLDATALOAD SWAP1 PUSH1 0x20 ADD SWAP1 SWAP3 SWAP2 SWAP1 POP POP POP PUSH2 0x145E JUMP JUMPDEST PUSH1 0x40 MLOAD DUP1 DUP3 DUP2 MSTORE PUSH1 0x20 ADD SWAP2 POP POP PUSH1 0x40 MLOAD DUP1 SWAP2 SUB SWAP1 RETURN JUMPDEST PUSH1 0x0 DUP1 SWAP1 SLOAD SWAP1 PUSH2 0x100 EXP SWAP1 DIV PUSH20 0xFFFFFFFFFFFFFFFFFFFFFFFFFFFFFFFFFFFFFFFF AND DUP2 JUMP JUMPDEST PUSH1 0x0 DUP1 SWAP1 SLOAD SWAP1 PUSH2 0x100 EXP SWAP1 DIV PUSH20 0xFFFFFFFFFFFFFFFFFFFFFFFFFFFFFFFFFFFFFFFF AND PUSH20 0xFFFFFFFFFFFFFFFFFFFFFFFFFFFFFFFFFFFFFFFF AND CALLER PUSH20 0xFFFFFFFFFFFFFFFFFFFFFFFFFFFFFFFFFFFFFFFF AND EQ ISZERO ISZERO PUSH2 0x47A JUMPI PUSH1 0x40 MLOAD PUSH32 0x8C379A000000000000000000000000000000000000000000000000000000000 DUP2 MSTORE PUSH1 0x4 ADD DUP1 DUP1 PUSH1 0x20 ADD DUP3 DUP2 SUB DUP3 MSTORE PUSH1 0x21 DUP2 MSTORE PUSH1 0x20 ADD DUP1 PUSH32 0x4F6E6C792063726561746F722063616E20636F6E6669726D20616E206F726465 DUP2 MSTORE PUSH1 0x20 ADD PUSH32 0x7200000000000000000000000000000000000000000000000000000000000000 DUP2 MSTORE POP PUSH1 0x40 ADD SWAP2 POP POP PUSH1 0x40 MLOAD DUP1 SWAP2 SUB SWAP1 REVERT JUMPDEST PUSH1 0x0 PUSH1 0x3 PUSH1 0x0 DUP5 DUP2 MSTORE PUSH1 0x20 ADD SWAP1 DUP2 MSTORE PUSH1 0x20 ADD PUSH1 0x0 KECCAK256 PUSH1 0x0 ADD DUP1 SLOAD PUSH1 0x1 DUP2 PUSH1 0x1 AND ISZERO PUSH2 0x100 MUL SUB AND PUSH1 0x2 SWAP1 DIV SWAP1 POP EQ ISZERO ISZERO ISZERO PUSH2 0x51D JUMPI PUSH1 0x40 MLOAD PUSH32 0x8C379A000000000000000000000000000000000000000000000000000000000 DUP2 MSTORE PUSH1 0x4 ADD DUP1 DUP1 PUSH1 0x20 ADD DUP3 DUP2 SUB DUP3 MSTORE PUSH1 0x14 DUP2 MSTORE PUSH1 0x20 ADD DUP1 PUSH32 0x4F7264657220646F6573206E6F74206578697374000000000000000000000000 DUP2 MSTORE POP PUSH1 0x20 ADD SWAP2 POP POP PUSH1 0x40 MLOAD DUP1 SWAP2 SUB SWAP1 REVERT JUMPDEST DUP1 PUSH1 0x3 PUSH1 0x0 DUP5 DUP2 MSTORE PUSH1 0x20 ADD SWAP1 DUP2 MSTORE PUSH1 0x20 ADD PUSH1 0x0 KECCAK256 PUSH1 0x1 ADD DUP2 SWAP1 SSTORE POP PUSH1 0x1 PUSH1 0x3 PUSH1 0x0 DUP5 DUP2 MSTORE PUSH1 0x20 ADD SWAP1 DUP2 MSTORE PUSH1 0x20 ADD PUSH1 0x0 KECCAK256 PUSH1 0x3 ADD PUSH1 0x0 PUSH2 0x100 EXP DUP2 SLOAD DUP2 PUSH1 0xFF MUL NOT AND SWAP1 DUP4 ISZERO ISZERO MUL OR SWAP1 SSTORE POP PUSH32 0xDF480C4D7C3AB48571FE915E4C61A595582F63727E4E99ED686284892AD073E3 PUSH1 0x3 PUSH1 0x0 DUP5 DUP2 MSTORE PUSH1 0x20 ADD SWAP1 DUP2 MSTORE PUSH1 0x20 ADD PUSH1 0x0 KECCAK256 PUSH1 0x0 ADD DUP3 DUP5 TIMESTAMP PUSH1 0x40 MLOAD DUP1 DUP1 PUSH1 0x20 ADD DUP6 DUP2 MSTORE PUSH1 0x20 ADD DUP5 DUP2 MSTORE PUSH1 0x20 ADD DUP4 DUP2 MSTORE PUSH1 0x20 ADD DUP3 DUP2 SUB DUP3 MSTORE DUP7 DUP2 DUP2 SLOAD PUSH1 0x1 DUP2 PUSH1 0x1 AND ISZERO PUSH2 0x100 MUL SUB AND PUSH1 0x2 SWAP1 DIV DUP2 MSTORE PUSH1 0x20 ADD SWAP2 POP DUP1 SLOAD PUSH1 0x1 DUP2 PUSH1 0x1 AND ISZERO PUSH2 0x100 MUL SUB AND PUSH1 0x2 SWAP1 DIV DUP1 ISZERO PUSH2 0x63C JUMPI DUP1 PUSH1 0x1F LT PUSH2 0x611 JUMPI PUSH2 0x100 DUP1 DUP4 SLOAD DIV MUL DUP4 MSTORE SWAP2 PUSH1 0x20 ADD SWAP2 PUSH2 0x63C JUMP JUMPDEST DUP3 ADD SWAP2 SWAP1 PUSH1 0x0 MSTORE PUSH1 0x20 PUSH1 0x0 KECCAK256 SWAP1 JUMPDEST DUP2 SLOAD DUP2 MSTORE SWAP1 PUSH1 0x1 ADD SWAP1 PUSH1 0x20 ADD DUP1 DUP4 GT PUSH2 0x61F JUMPI DUP3 SWAP1 SUB PUSH1 0x1F AND DUP3 ADD SWAP2 JUMPDEST POP POP SWAP6 POP POP POP POP POP POP PUSH1 0x40 MLOAD DUP1 SWAP2 SUB SWAP1 LOG1 POP POP JUMP JUMPDEST PUSH1 0x0 PUSH1 0x1 PUSH1 0x0 SWAP1 SLOAD SWAP1 PUSH2 0x100 EXP SWAP1 DIV PUSH20 0xFFFFFFFFFFFFFFFFFFFFFFFFFFFFFFFFFFFFFFFF AND PUSH20 0xFFFFFFFFFFFFFFFFFFFFFFFFFFFFFFFFFFFFFFFF AND CALLER PUSH20 0xFFFFFFFFFFFFFFFFFFFFFFFFFFFFFFFFFFFFFFFF AND EQ ISZERO ISZERO PUSH2 0x718 JUMPI PUSH1 0x40 MLOAD PUSH32 0x8C379A000000000000000000000000000000000000000000000000000000000 DUP2 MSTORE PUSH1 0x4 ADD DUP1 DUP1 PUSH1 0x20 ADD DUP3 DUP2 SUB DUP3 MSTORE PUSH1 0x15 DUP2 MSTORE PUSH1 0x20 ADD DUP1 PUSH32 0x4F6E6C792062757965722063616E20726566756E640000000000000000000000 DUP2 MSTORE POP PUSH1 0x20 ADD SWAP2 POP POP PUSH1 0x40 MLOAD DUP1 SWAP2 SUB SWAP1 REVERT JUMPDEST PUSH1 0x3 PUSH1 0x0 DUP4 DUP2 MSTORE PUSH1 0x20 ADD SWAP1 DUP2 MSTORE PUSH1 0x20 ADD PUSH1 0x0 KECCAK256 PUSH1 0x3 ADD PUSH1 0x1 SWAP1 SLOAD SWAP1 PUSH2 0x100 EXP SWAP1 DIV PUSH1 0xFF AND ISZERO ISZERO PUSH2 0x7B0 JUMPI PUSH1 0x40 MLOAD PUSH32 0x8C379A000000000000000000000000000000000000000000000000000000000 DUP2 MSTORE PUSH1 0x4 ADD DUP1 DUP1 PUSH1 0x20 ADD DUP3 DUP2 SUB DUP3 MSTORE PUSH1 0xE DUP2 MSTORE PUSH1 0x20 ADD DUP1 PUSH32 0x4F72646572206E6F742070616964000000000000000000000000000000000000 DUP2 MSTORE POP PUSH1 0x20 ADD SWAP2 POP POP PUSH1 0x40 MLOAD DUP1 SWAP2 SUB SWAP1 REVERT JUMPDEST TIMESTAMP PUSH1 0x3 PUSH1 0x0 DUP5 DUP2 MSTORE PUSH1 0x20 ADD SWAP1 DUP2 MSTORE PUSH1 0x20 ADD PUSH1 0x0 KECCAK256 PUSH1 0x4 ADD SLOAD LT ISZERO ISZERO ISZERO PUSH2 0x83E JUMPI PUSH1 0x40 MLOAD PUSH32 0x8C379A000000000000000000000000000000000000000000000000000000000 DUP2 MSTORE PUSH1 0x4 ADD DUP1 DUP1 PUSH1 0x20 ADD DUP3 DUP2 SUB DUP3 MSTORE PUSH1 0x20 DUP2 MSTORE PUSH1 0x20 ADD DUP1 PUSH32 0x43616E6E6F7420726566756E642061667465722074686520646561646C696E65 DUP2 MSTORE POP PUSH1 0x20 ADD SWAP2 POP POP PUSH1 0x40 MLOAD DUP1 SWAP2 SUB SWAP1 REVERT JUMPDEST PUSH1 0x3 PUSH1 0x0 DUP4 DUP2 MSTORE PUSH1 0x20 ADD SWAP1 DUP2 MSTORE PUSH1 0x20 ADD PUSH1 0x0 KECCAK256 PUSH1 0x1 ADD SLOAD SWAP1 POP PUSH1 0x0 PUSH1 0x3 PUSH1 0x0 DUP5 DUP2 MSTORE PUSH1 0x20 ADD SWAP1 DUP2 MSTORE PUSH1 0x20 ADD PUSH1 0x0 KECCAK256 PUSH1 0x3 ADD PUSH1 0x1 PUSH2 0x100 EXP DUP2 SLOAD DUP2 PUSH1 0xFF MUL NOT AND SWAP1 DUP4 ISZERO ISZERO MUL OR SWAP1 SSTORE POP PUSH1 0x1 PUSH1 0x0 SWAP1 SLOAD SWAP1 PUSH2 0x100 EXP SWAP1 DIV PUSH20 0xFFFFFFFFFFFFFFFFFFFFFFFFFFFFFFFFFFFFFFFF AND PUSH20 0xFFFFFFFFFFFFFFFFFFFFFFFFFFFFFFFFFFFFFFFF AND PUSH2 0x8FC DUP3 SWAP1 DUP2 ISZERO MUL SWAP1 PUSH1 0x40 MLOAD PUSH1 0x0 PUSH1 0x40 MLOAD DUP1 DUP4 SUB DUP2 DUP6 DUP9 DUP9 CALL SWAP4 POP POP POP POP ISZERO DUP1 ISZERO PUSH2 0x8EE JUMPI RETURNDATASIZE PUSH1 0x0 DUP1 RETURNDATACOPY RETURNDATASIZE PUSH1 0x0 REVERT JUMPDEST POP PUSH32 0x41865E4A290E1B5198A92ED40DBE11CFC8E05A0E9816D9358E68792AAA31D0EF DUP3 PUSH1 0x1 PUSH1 0x0 SWAP1 SLOAD SWAP1 PUSH2 0x100 EXP SWAP1 DIV PUSH20 0xFFFFFFFFFFFFFFFFFFFFFFFFFFFFFFFFFFFFFFFF AND TIMESTAMP PUSH1 0x40 MLOAD DUP1 DUP5 DUP2 MSTORE PUSH1 0x20 ADD DUP4 PUSH20 0xFFFFFFFFFFFFFFFFFFFFFFFFFFFFFFFFFFFFFFFF AND PUSH20 0xFFFFFFFFFFFFFFFFFFFFFFFFFFFFFFFFFFFFFFFF AND DUP2 MSTORE PUSH1 0x20 ADD DUP3 DUP2 MSTORE PUSH1 0x20 ADD SWAP4 POP POP POP POP PUSH1 0x40 MLOAD DUP1 SWAP2 SUB SWAP1 LOG1 POP POP JUMP JUMPDEST PUSH1 0x0 DUP1 PUSH1 0x0 SWAP1 SLOAD SWAP1 PUSH2 0x100 EXP SWAP1 DIV PUSH20 0xFFFFFFFFFFFFFFFFFFFFFFFFFFFFFFFFFFFFFFFF AND PUSH20 0xFFFFFFFFFFFFFFFFFFFFFFFFFFFFFFFFFFFFFFFF AND CALLER PUSH20 0xFFFFFFFFFFFFFFFFFFFFFFFFFFFFFFFFFFFFFFFF AND EQ ISZERO ISZERO PUSH2 0xA4E JUMPI PUSH1 0x40 MLOAD PUSH32 0x8C379A000000000000000000000000000000000000000000000000000000000 DUP2 MSTORE PUSH1 0x4 ADD DUP1 DUP1 PUSH1 0x20 ADD DUP3 DUP2 SUB DUP3 MSTORE PUSH1 0x1F DUP2 MSTORE PUSH1 0x20 ADD DUP1 PUSH32 0x4F6E6C792063726561746F722063616E2067657420746865207061796F757400 DUP2 MSTORE POP PUSH1 0x20 ADD SWAP2 POP POP PUSH1 0x40 MLOAD DUP1 SWAP2 SUB SWAP1 REVERT JUMPDEST PUSH1 0x3 PUSH1 0x0 DUP4 DUP2 MSTORE PUSH1 0x20 ADD SWAP1 DUP2 MSTORE PUSH1 0x20 ADD PUSH1 0x0 KECCAK256 PUSH1 0x3 ADD PUSH1 0x1 SWAP1 SLOAD SWAP1 PUSH2 0x100 EXP SWAP1 DIV PUSH1 0xFF AND ISZERO ISZERO PUSH2 0xB0C JUMPI PUSH1 0x40 MLOAD PUSH32 0x8C379A000000000000000000000000000000000000000000000000000000000 DUP2 MSTORE PUSH1 0x4 ADD DUP1 DUP1 PUSH1 0x20 ADD DUP3 DUP2 SUB DUP3 MSTORE PUSH1 0x31 DUP2 MSTORE PUSH1 0x20 ADD DUP1 PUSH32 0x4F72646572206D757374206265207061696420696E206F7264657220746F2072 DUP2 MSTORE PUSH1 0x20 ADD PUSH32 0x65636569766520746865207061796F7574000000000000000000000000000000 DUP2 MSTORE POP PUSH1 0x40 ADD SWAP2 POP POP PUSH1 0x40 MLOAD DUP1 SWAP2 SUB SWAP1 REVERT JUMPDEST TIMESTAMP PUSH1 0x3 PUSH1 0x0 DUP5 DUP2 MSTORE PUSH1 0x20 ADD SWAP1 DUP2 MSTORE PUSH1 0x20 ADD PUSH1 0x0 KECCAK256 PUSH1 0x4 ADD SLOAD GT ISZERO ISZERO ISZERO PUSH2 0xBC0 JUMPI PUSH1 0x40 MLOAD PUSH32 0x8C379A000000000000000000000000000000000000000000000000000000000 DUP2 MSTORE PUSH1 0x4 ADD DUP1 DUP1 PUSH1 0x20 ADD DUP3 DUP2 SUB DUP3 MSTORE PUSH1 0x2D DUP2 MSTORE PUSH1 0x20 ADD DUP1 PUSH32 0x43616E6E6F74207265636569766520746865207061796F7574206265666F7265 DUP2 MSTORE PUSH1 0x20 ADD PUSH32 0x2074686520646561646C696E6500000000000000000000000000000000000000 DUP2 MSTORE POP PUSH1 0x40 ADD SWAP2 POP POP PUSH1 0x40 MLOAD DUP1 SWAP2 SUB SWAP1 REVERT JUMPDEST PUSH1 0x3 PUSH1 0x0 DUP4 DUP2 MSTORE PUSH1 0x20 ADD SWAP1 DUP2 MSTORE PUSH1 0x20 ADD PUSH1 0x0 KECCAK256 PUSH1 0x1 ADD SLOAD SWAP1 POP PUSH1 0x0 PUSH1 0x3 PUSH1 0x0 DUP5 DUP2 MSTORE PUSH1 0x20 ADD SWAP1 DUP2 MSTORE PUSH1 0x20 ADD PUSH1 0x0 KECCAK256 PUSH1 0x3 ADD PUSH1 0x1 PUSH2 0x100 EXP DUP2 SLOAD DUP2 PUSH1 0xFF MUL NOT AND SWAP1 DUP4 ISZERO ISZERO MUL OR SWAP1 SSTORE POP PUSH1 0x0 DUP1 SWAP1 SLOAD SWAP1 PUSH2 0x100 EXP SWAP1 DIV PUSH20 0xFFFFFFFFFFFFFFFFFFFFFFFFFFFFFFFFFFFFFFFF AND PUSH20 0xFFFFFFFFFFFFFFFFFFFFFFFFFFFFFFFFFFFFFFFF AND PUSH2 0x8FC DUP3 SWAP1 DUP2 ISZERO MUL SWAP1 PUSH1 0x40 MLOAD PUSH1 0x0 PUSH1 0x40 MLOAD DUP1 DUP4 SUB DUP2 DUP6 DUP9 DUP9 CALL SWAP4 POP POP POP POP ISZERO DUP1 ISZERO PUSH2 0xC6F JUMPI RETURNDATASIZE PUSH1 0x0 DUP1 RETURNDATACOPY RETURNDATASIZE PUSH1 0x0 REVERT JUMPDEST POP PUSH32 0x52D0AE120DC8D9034C7BF60CD9EC0EA66A5C28C16D993D7C1D80411CA949D43B DUP3 PUSH1 0x0 DUP1 SWAP1 SLOAD SWAP1 PUSH2 0x100 EXP SWAP1 DIV PUSH20 0xFFFFFFFFFFFFFFFFFFFFFFFFFFFFFFFFFFFFFFFF AND DUP4 TIMESTAMP PUSH1 0x40 MLOAD DUP1 DUP6 DUP2 MSTORE PUSH1 0x20 ADD DUP5 PUSH20 0xFFFFFFFFFFFFFFFFFFFFFFFFFFFFFFFFFFFFFFFF AND PUSH20 0xFFFFFFFFFFFFFFFFFFFFFFFFFFFFFFFFFFFFFFFF AND DUP2 MSTORE PUSH1 0x20 ADD DUP4 DUP2 MSTORE PUSH1 0x20 ADD DUP3 DUP2 MSTORE PUSH1 0x20 ADD SWAP5 POP POP POP POP POP PUSH1 0x40 MLOAD DUP1 SWAP2 SUB SWAP1 LOG1 PUSH32 0xAF7923D787203DDDF63F6A25779F92F39CB2860086E34A30A6A1431FAAB2420B DUP3 TIMESTAMP PUSH1 0x40 MLOAD DUP1 DUP4 DUP2 MSTORE PUSH1 0x20 ADD DUP3 DUP2 MSTORE PUSH1 0x20 ADD SWAP3 POP POP POP PUSH1 0x40 MLOAD DUP1 SWAP2 SUB SWAP1 LOG1 POP POP JUMP JUMPDEST PUSH1 0x1 PUSH1 0x0 SWAP1 SLOAD SWAP1 PUSH2 0x100 EXP SWAP1 DIV PUSH20 0xFFFFFFFFFFFFFFFFFFFFFFFFFFFFFFFFFFFFFFFF AND PUSH20 0xFFFFFFFFFFFFFFFFFFFFFFFFFFFFFFFFFFFFFFFF AND CALLER PUSH20 0xFFFFFFFFFFFFFFFFFFFFFFFFFFFFFFFFFFFFFFFF AND EQ ISZERO ISZERO PUSH2 0xE14 JUMPI PUSH1 0x40 MLOAD PUSH32 0x8C379A000000000000000000000000000000000000000000000000000000000 DUP2 MSTORE PUSH1 0x4 ADD DUP1 DUP1 PUSH1 0x20 ADD DUP3 DUP2 SUB DUP3 MSTORE PUSH1 0x1C DUP2 MSTORE PUSH1 0x20 ADD DUP1 PUSH32 0x4F6E6C792062757965722063616E2073656E6420616E206F7264657200000000 DUP2 MSTORE POP PUSH1 0x20 ADD SWAP2 POP POP PUSH1 0x40 MLOAD DUP1 SWAP2 SUB SWAP1 REVERT JUMPDEST PUSH1 0x4 PUSH1 0x0 DUP2 SLOAD DUP1 SWAP3 SWAP2 SWAP1 PUSH1 0x1 ADD SWAP2 SWAP1 POP SSTORE POP PUSH1 0xC0 PUSH1 0x40 MLOAD SWAP1 DUP2 ADD PUSH1 0x40 MSTORE DUP1 DUP4 DUP4 DUP1 DUP1 PUSH1 0x1F ADD PUSH1 0x20 DUP1 SWAP2 DIV MUL PUSH1 0x20 ADD PUSH1 0x40 MLOAD SWAP1 DUP2 ADD PUSH1 0x40 MSTORE DUP1 SWAP4 SWAP3 SWAP2 SWAP1 DUP2 DUP2 MSTORE PUSH1 0x20 ADD DUP4 DUP4 DUP1 DUP3 DUP5 CALLDATACOPY DUP3 ADD SWAP2 POP POP POP POP POP POP DUP2 MSTORE PUSH1 0x20 ADD PUSH1 0x0 DUP2 MSTORE PUSH1 0x20 ADD TIMESTAMP DUP2 MSTORE PUSH1 0x20 ADD PUSH1 0x0 ISZERO ISZERO DUP2 MSTORE PUSH1 0x20 ADD PUSH1 0x0 ISZERO ISZERO DUP2 MSTORE PUSH1 0x20 ADD PUSH1 0x0 DUP2 MSTORE POP PUSH1 0x3 PUSH1 0x0 PUSH1 0x4 SLOAD DUP2 MSTORE PUSH1 0x20 ADD SWAP1 DUP2 MSTORE PUSH1 0x20 ADD PUSH1 0x0 KECCAK256 PUSH1 0x0 DUP3 ADD MLOAD DUP2 PUSH1 0x0 ADD SWAP1 DUP1 MLOAD SWAP1 PUSH1 0x20 ADD SWAP1 PUSH2 0xEBF SWAP3 SWAP2 SWAP1 PUSH2 0x147E JUMP JUMPDEST POP PUSH1 0x20 DUP3 ADD MLOAD DUP2 PUSH1 0x1 ADD SSTORE PUSH1 0x40 DUP3 ADD MLOAD DUP2 PUSH1 0x2 ADD SSTORE PUSH1 0x60 DUP3 ADD MLOAD DUP2 PUSH1 0x3 ADD PUSH1 0x0 PUSH2 0x100 EXP DUP2 SLOAD DUP2 PUSH1 0xFF MUL NOT AND SWAP1 DUP4 ISZERO ISZERO MUL OR SWAP1 SSTORE POP PUSH1 0x80 DUP3 ADD MLOAD DUP2 PUSH1 0x3 ADD PUSH1 0x1 PUSH2 0x100 EXP DUP2 SLOAD DUP2 PUSH1 0xFF MUL NOT AND SWAP1 DUP4 ISZERO ISZERO MUL OR SWAP1 SSTORE POP PUSH1 0xA0 DUP3 ADD MLOAD DUP2 PUSH1 0x4 ADD SSTORE SWAP1 POP POP PUSH32 0xF317C62B52E4416C39A04AF061A14D6040B18C034B7EFC61068D59F7D6A292F7 DUP3 DUP3 PUSH1 0x4 SLOAD TIMESTAMP PUSH1 0x40 MLOAD DUP1 DUP1 PUSH1 0x20 ADD DUP5 DUP2 MSTORE PUSH1 0x20 ADD DUP4 DUP2 MSTORE PUSH1 0x20 ADD DUP3 DUP2 SUB DUP3 MSTORE DUP7 DUP7 DUP3 DUP2 DUP2 MSTORE PUSH1 0x20 ADD SWAP3 POP DUP1 DUP3 DUP5 CALLDATACOPY DUP3 ADD SWAP2 POP POP SWAP6 POP POP POP POP POP POP PUSH1 0x40 MLOAD DUP1 SWAP2 SUB SWAP1 LOG1 POP POP JUMP JUMPDEST PUSH1 0x0 DUP1 PUSH1 0x3 PUSH1 0x0 DUP5 DUP2 MSTORE PUSH1 0x20 ADD SWAP1 DUP2 MSTORE PUSH1 0x20 ADD PUSH1 0x0 KECCAK256 SWAP1 POP DUP1 PUSH1 0x3 ADD PUSH1 0x1 SWAP1 SLOAD SWAP1 PUSH2 0x100 EXP SWAP1 DIV PUSH1 0xFF AND ISZERO ISZERO PUSH2 0xFC1 JUMPI PUSH1 0x0 SWAP2 POP PUSH2 0xFE1 JUMP JUMPDEST DUP1 PUSH1 0x4 ADD SLOAD TIMESTAMP LT ISZERO ISZERO PUSH2 0xFD7 JUMPI PUSH1 0x0 SWAP2 POP PUSH2 0xFE1 JUMP JUMPDEST TIMESTAMP DUP2 PUSH1 0x4 ADD SLOAD SUB SWAP2 POP JUMPDEST POP SWAP2 SWAP1 POP JUMP JUMPDEST PUSH1 0x60 PUSH1 0x3 PUSH1 0x0 DUP4 DUP2 MSTORE PUSH1 0x20 ADD SWAP1 DUP2 MSTORE PUSH1 0x20 ADD PUSH1 0x0 KECCAK256 PUSH1 0x0 ADD DUP1 SLOAD PUSH1 0x1 DUP2 PUSH1 0x1 AND ISZERO PUSH2 0x100 MUL SUB AND PUSH1 0x2 SWAP1 DIV DUP1 PUSH1 0x1F ADD PUSH1 0x20 DUP1 SWAP2 DIV MUL PUSH1 0x20 ADD PUSH1 0x40 MLOAD SWAP1 DUP2 ADD PUSH1 0x40 MSTORE DUP1 SWAP3 SWAP2 SWAP1 DUP2 DUP2 MSTORE PUSH1 0x20 ADD DUP3 DUP1 SLOAD PUSH1 0x1 DUP2 PUSH1 0x1 AND ISZERO PUSH2 0x100 MUL SUB AND PUSH1 0x2 SWAP1 DIV DUP1 ISZERO PUSH2 0x1093 JUMPI DUP1 PUSH1 0x1F LT PUSH2 0x1068 JUMPI PUSH2 0x100 DUP1 DUP4 SLOAD DIV MUL DUP4 MSTORE SWAP2 PUSH1 0x20 ADD SWAP2 PUSH2 0x1093 JUMP JUMPDEST DUP3 ADD SWAP2 SWAP1 PUSH1 0x0 MSTORE PUSH1 0x20 PUSH1 0x0 KECCAK256 SWAP1 JUMPDEST DUP2 SLOAD DUP2 MSTORE SWAP1 PUSH1 0x1 ADD SWAP1 PUSH1 0x20 ADD DUP1 DUP4 GT PUSH2 0x1076 JUMPI DUP3 SWAP1 SUB PUSH1 0x1F AND DUP3 ADD SWAP2 JUMPDEST POP POP POP POP POP SWAP1 POP SWAP2 SWAP1 POP JUMP JUMPDEST PUSH1 0x1 PUSH1 0x0 SWAP1 SLOAD SWAP1 PUSH2 0x100 EXP SWAP1 DIV PUSH20 0xFFFFFFFFFFFFFFFFFFFFFFFFFFFFFFFFFFFFFFFF AND DUP2 JUMP JUMPDEST CALLER PUSH20 0xFFFFFFFFFFFFFFFFFFFFFFFFFFFFFFFFFFFFFFFF AND PUSH1 0x1 PUSH1 0x0 SWAP1 SLOAD SWAP1 PUSH2 0x100 EXP SWAP1 DIV PUSH20 0xFFFFFFFFFFFFFFFFFFFFFFFFFFFFFFFFFFFFFFFF AND PUSH20 0xFFFFFFFFFFFFFFFFFFFFFFFFFFFFFFFFFFFFFFFF AND EQ ISZERO ISZERO PUSH2 0x118A JUMPI PUSH1 0x40 MLOAD PUSH32 0x8C379A000000000000000000000000000000000000000000000000000000000 DUP2 MSTORE PUSH1 0x4 ADD DUP1 DUP1 PUSH1 0x20 ADD DUP3 DUP2 SUB DUP3 MSTORE PUSH1 0x1D DUP2 MSTORE PUSH1 0x20 ADD DUP1 PUSH32 0x4F6E6C792062757965722063616E2073656E642061207061796D656E74000000 DUP2 MSTORE POP PUSH1 0x20 ADD SWAP2 POP POP PUSH1 0x40 MLOAD DUP1 SWAP2 SUB SWAP1 REVERT JUMPDEST PUSH1 0x1 ISZERO ISZERO PUSH1 0x3 PUSH1 0x0 DUP4 DUP2 MSTORE PUSH1 0x20 ADD SWAP1 DUP2 MSTORE PUSH1 0x20 ADD PUSH1 0x0 KECCAK256 PUSH1 0x3 ADD PUSH1 0x0 SWAP1 SLOAD SWAP1 PUSH2 0x100 EXP SWAP1 DIV PUSH1 0xFF AND ISZERO ISZERO EQ ISZERO ISZERO PUSH2 0x124F JUMPI PUSH1 0x40 MLOAD PUSH32 0x8C379A000000000000000000000000000000000000000000000000000000000 DUP2 MSTORE PUSH1 0x4 ADD DUP1 DUP1 PUSH1 0x20 ADD DUP3 DUP2 SUB DUP3 MSTORE PUSH1 0x3A DUP2 MSTORE PUSH1 0x20 ADD DUP1 PUSH32 0x4F72646572206D75737420626520636F6E6669726D6564206279207468652063 DUP2 MSTORE PUSH1 0x20 ADD PUSH32 0x726561746F7220696E206F7264657220746F2062652070616964000000000000 DUP2 MSTORE POP PUSH1 0x40 ADD SWAP2 POP POP PUSH1 0x40 MLOAD DUP1 SWAP2 SUB SWAP1 REVERT JUMPDEST PUSH1 0x0 ISZERO ISZERO PUSH1 0x3 PUSH1 0x0 DUP4 DUP2 MSTORE PUSH1 0x20 ADD SWAP1 DUP2 MSTORE PUSH1 0x20 ADD PUSH1 0x0 KECCAK256 PUSH1 0x3 ADD PUSH1 0x1 SWAP1 SLOAD SWAP1 PUSH2 0x100 EXP SWAP1 DIV PUSH1 0xFF AND ISZERO ISZERO EQ ISZERO ISZERO PUSH2 0x12EE JUMPI PUSH1 0x40 MLOAD PUSH32 0x8C379A000000000000000000000000000000000000000000000000000000000 DUP2 MSTORE PUSH1 0x4 ADD DUP1 DUP1 PUSH1 0x20 ADD DUP3 DUP2 SUB DUP3 MSTORE PUSH1 0x1A DUP2 MSTORE PUSH1 0x20 ADD DUP1 PUSH32 0x4F726465722077617320616C7265616479207061696420666F72000000000000 DUP2 MSTORE POP PUSH1 0x20 ADD SWAP2 POP POP PUSH1 0x40 MLOAD DUP1 SWAP2 SUB SWAP1 REVERT JUMPDEST CALLVALUE PUSH1 0x3 PUSH1 0x0 DUP4 DUP2 MSTORE PUSH1 0x20 ADD SWAP1 DUP2 MSTORE PUSH1 0x20 ADD PUSH1 0x0 KECCAK256 PUSH1 0x1 ADD SLOAD EQ ISZERO ISZERO PUSH2 0x137B JUMPI PUSH1 0x40 MLOAD PUSH32 0x8C379A000000000000000000000000000000000000000000000000000000000 DUP2 MSTORE PUSH1 0x4 ADD DUP1 DUP1 PUSH1 0x20 ADD DUP3 DUP2 SUB DUP3 MSTORE PUSH1 0x14 DUP2 MSTORE PUSH1 0x20 ADD DUP1 PUSH32 0x53656E6420746865206578616374207072696365000000000000000000000000 DUP2 MSTORE POP PUSH1 0x20 ADD SWAP2 POP POP PUSH1 0x40 MLOAD DUP1 SWAP2 SUB SWAP1 REVERT JUMPDEST PUSH1 0x1 PUSH1 0x3 PUSH1 0x0 DUP4 DUP2 MSTORE PUSH1 0x20 ADD SWAP1 DUP2 MSTORE PUSH1 0x20 ADD PUSH1 0x0 KECCAK256 PUSH1 0x3 ADD PUSH1 0x1 PUSH2 0x100 EXP DUP2 SLOAD DUP2 PUSH1 0xFF MUL NOT AND SWAP1 DUP4 ISZERO ISZERO MUL OR SWAP1 SSTORE POP PUSH32 0x243F8B521882D823492F47C974AEC93C6B1F81E3F30A1EB6A6D18BD2FECF975B DUP2 CALLVALUE TIMESTAMP PUSH1 0x40 MLOAD DUP1 DUP5 DUP2 MSTORE PUSH1 0x20 ADD DUP4 DUP2 MSTORE PUSH1 0x20 ADD DUP3 DUP2 MSTORE PUSH1 0x20 ADD SWAP4 POP POP POP POP PUSH1 0x40 MLOAD DUP1 SWAP2 SUB SWAP1 LOG1 PUSH1 0x2 SLOAD TIMESTAMP ADD PUSH1 0x3 PUSH1 0x0 DUP4 DUP2 MSTORE PUSH1 0x20 ADD SWAP1 DUP2 MSTORE PUSH1 0x20 ADD PUSH1 0x0 KECCAK256 PUSH1 0x4 ADD DUP2 SWAP1 SSTORE POP PUSH32 0x2C51B956CA3E342F3E03FD4C0D0FBBEBBC3C57F0317236C62661F552D3E59468 DUP2 TIMESTAMP PUSH1 0x2 SLOAD TIMESTAMP ADD PUSH1 0x40 MLOAD DUP1 DUP5 DUP2 MSTORE PUSH1 0x20 ADD DUP4 DUP2 MSTORE PUSH1 0x20 ADD DUP3 DUP2 MSTORE PUSH1 0x20 ADD SWAP4 POP POP POP POP PUSH1 0x40 MLOAD DUP1 SWAP2 SUB SWAP1 LOG1 POP JUMP JUMPDEST PUSH1 0x0 PUSH1 0x3 PUSH1 0x0 DUP4 DUP2 MSTORE PUSH1 0x20 ADD SWAP1 DUP2 MSTORE PUSH1 0x20 ADD PUSH1 0x0 KECCAK256 PUSH1 0x1 ADD SLOAD SWAP1 POP SWAP2 SWAP1 POP JUMP JUMPDEST DUP3 DUP1 SLOAD PUSH1 0x1 DUP2 PUSH1 0x1 AND ISZERO PUSH2 0x100 MUL SUB AND PUSH1 0x2 SWAP1 DIV SWAP1 PUSH1 0x0 MSTORE PUSH1 0x20 PUSH1 0x0 KECCAK256 SWAP1 PUSH1 0x1F ADD PUSH1 0x20 SWAP1 DIV DUP2 ADD SWAP3 DUP3 PUSH1 0x1F LT PUSH2 0x14BF JUMPI DUP1 MLOAD PUSH1 0xFF NOT AND DUP4 DUP1 ADD OR DUP6 SSTORE PUSH2 0x14ED JUMP JUMPDEST DUP3 DUP1 ADD PUSH1 0x1 ADD DUP6 SSTORE DUP3 ISZERO PUSH2 0x14ED JUMPI SWAP2 DUP3 ADD JUMPDEST DUP3 DUP2 GT ISZERO PUSH2 0x14EC JUMPI DUP3 MLOAD DUP3 SSTORE SWAP2 PUSH1 0x20 ADD SWAP2 SWAP1 PUSH1 0x1 ADD SWAP1 PUSH2 0x14D1 JUMP JUMPDEST JUMPDEST POP SWAP1 POP PUSH2 0x14FA SWAP2 SWAP1 PUSH2 0x14FE JUMP JUMPDEST POP SWAP1 JUMP JUMPDEST PUSH2 0x1520 SWAP2 SWAP1 JUMPDEST DUP1 DUP3 GT ISZERO PUSH2 0x151C JUMPI PUSH1 0x0 DUP2 PUSH1 0x0 SWAP1 SSTORE POP PUSH1 0x1 ADD PUSH2 0x1504 JUMP JUMPDEST POP SWAP1 JUMP JUMPDEST SWAP1 JUMP STOP LOG1 PUSH6 0x627A7A723058 KECCAK256 SAR 0x2f 0xaa XOR 0xf6 0x28 GT 0x5f REVERT DUP13 GAS DUP9 SUB PUSH27 0x5FF3849AE353CCC714C9890EB6C76F564DE9002900000000000000 "
				},
				"gasEstimates": {
					"creation": {
						"codeDepositCost": "1091000",
						"executionCost": "61759",
						"totalCost": "1152759"
					},
					"external": {
						"ConfirmOrder(uint256,uint256)": "infinite",
						"Payout(uint256)": "infinite",
						"ReturnProduct(uint256)": "infinite",
						"SendPayment(uint256)": "45847",
						"buyer()": "596",
						"creator()": "442",
						"getName(uint256)": "infinite",
						"getPrice(uint256)": "745",
						"getRefundWindow(uint256)": "1225",
						"sendOrder(string)": "infinite"
					}
				},
				"methodIdentifiers": {
					"ConfirmOrder(uint256,uint256)": "034684e6",
					"Payout(uint256)": "22427047",
					"ReturnProduct(uint256)": "03c17a38",
					"SendPayment(uint256)": "95787d26",
					"buyer()": "7150d8ae",
					"creator()": "02d05d3f",
					"getName(uint256)": "6b8ff574",
					"getPrice(uint256)": "e7572230",
					"getRefundWindow(uint256)": "44cad860",
					"sendOrder(string)": "25fcba48"
				}
			},
			"userdoc": {
				"methods": {}
			}
		}
	}
}