{
	"Deal.sol": {
		"Deal": {
			"abi": [
				{
					"inputs": [
						{
							"internalType": "address",
							"name": "buyerAddr",
							"type": "address"
						}
					],
					"stateMutability": "nonpayable",
					"type": "constructor"
				},
				{
					"anonymous": false,
					"inputs": [
						{
							"indexed": false,
							"internalType": "uint256",
							"name": "orderno",
							"type": "uint256"
						},
						{
							"indexed": false,
							"internalType": "uint256",
							"name": "time",
							"type": "uint256"
						}
					],
					"name": "CountdownEnded",
					"type": "event"
				},
				{
					"anonymous": false,
					"inputs": [
						{
							"indexed": false,
							"internalType": "uint256",
							"name": "orderno",
							"type": "uint256"
						},
						{
							"indexed": false,
							"internalType": "uint256",
							"name": "start",
							"type": "uint256"
						},
						{
							"indexed": false,
							"internalType": "uint256",
							"name": "end",
							"type": "uint256"
						}
					],
					"name": "CountdownStarted",
					"type": "event"
				},
				{
					"anonymous": false,
					"inputs": [
						{
							"indexed": false,
							"internalType": "string",
							"name": "game",
							"type": "string"
						},
						{
							"indexed": false,
							"internalType": "uint256",
							"name": "price",
							"type": "uint256"
						},
						{
							"indexed": false,
							"internalType": "uint256",
							"name": "orderno",
							"type": "uint256"
						},
						{
							"indexed": false,
							"internalType": "uint256",
							"name": "time",
							"type": "uint256"
						}
					],
					"name": "OrderConfirmed",
					"type": "event"
				},
				{
					"anonymous": false,
					"inputs": [
						{
							"indexed": false,
							"internalType": "address",
							"name": "buyer",
							"type": "address"
						},
						{
							"indexed": false,
							"internalType": "string",
							"name": "game",
							"type": "string"
						},
						{
							"indexed": false,
							"internalType": "uint256",
							"name": "orderno",
							"type": "uint256"
						}
					],
					"name": "OrderSent",
					"type": "event"
				},
				{
					"anonymous": false,
					"inputs": [
						{
							"indexed": false,
							"internalType": "uint256",
							"name": "orderno",
							"type": "uint256"
						},
						{
							"indexed": false,
							"internalType": "uint256",
							"name": "time",
							"type": "uint256"
						}
					],
					"name": "OrderSuccessful",
					"type": "event"
				},
				{
					"anonymous": false,
					"inputs": [
						{
							"indexed": false,
							"internalType": "address",
							"name": "buyer",
							"type": "address"
						},
						{
							"indexed": false,
							"internalType": "uint256",
							"name": "orderno",
							"type": "uint256"
						},
						{
							"indexed": false,
							"internalType": "uint256",
							"name": "price",
							"type": "uint256"
						},
						{
							"indexed": false,
							"internalType": "uint256",
							"name": "time",
							"type": "uint256"
						}
					],
					"name": "PaymentReceived",
					"type": "event"
				},
				{
					"anonymous": false,
					"inputs": [
						{
							"indexed": false,
							"internalType": "uint256",
							"name": "orderno",
							"type": "uint256"
						},
						{
							"indexed": false,
							"internalType": "address",
							"name": "creator",
							"type": "address"
						},
						{
							"indexed": false,
							"internalType": "uint256",
							"name": "amount",
							"type": "uint256"
						},
						{
							"indexed": false,
							"internalType": "uint256",
							"name": "time",
							"type": "uint256"
						}
					],
					"name": "PayoutSuccessful",
					"type": "event"
				},
				{
					"anonymous": false,
					"inputs": [
						{
							"indexed": false,
							"internalType": "uint256",
							"name": "orderno",
							"type": "uint256"
						},
						{
							"indexed": false,
							"internalType": "address",
							"name": "buyer",
							"type": "address"
						},
						{
							"indexed": false,
							"internalType": "uint256",
							"name": "time",
							"type": "uint256"
						}
					],
					"name": "RefundSuccessful",
					"type": "event"
				},
				{
					"inputs": [
						{
							"internalType": "uint256",
							"name": "orderno",
							"type": "uint256"
						},
						{
							"internalType": "uint256",
							"name": "price",
							"type": "uint256"
						}
					],
					"name": "ConfirmOrder",
					"outputs": [],
					"stateMutability": "nonpayable",
					"type": "function"
				},
				{
					"inputs": [
						{
							"internalType": "uint256",
							"name": "orderno",
							"type": "uint256"
						}
					],
					"name": "Payout",
					"outputs": [],
					"stateMutability": "nonpayable",
					"type": "function"
				},
				{
					"inputs": [
						{
							"internalType": "uint256",
							"name": "orderno",
							"type": "uint256"
						}
					],
					"name": "ReturnProduct",
					"outputs": [],
					"stateMutability": "nonpayable",
					"type": "function"
				},
				{
					"inputs": [
						{
							"internalType": "uint256",
							"name": "orderno",
							"type": "uint256"
						}
					],
					"name": "SendPayment",
					"outputs": [],
					"stateMutability": "payable",
					"type": "function"
				},
				{
					"inputs": [],
					"name": "buyer",
					"outputs": [
						{
							"internalType": "address",
							"name": "",
							"type": "address"
						}
					],
					"stateMutability": "view",
					"type": "function"
				},
				{
					"inputs": [],
					"name": "creator",
					"outputs": [
						{
							"internalType": "address",
							"name": "",
							"type": "address"
						}
					],
					"stateMutability": "view",
					"type": "function"
				},
				{
					"inputs": [
						{
							"internalType": "string",
							"name": "game",
							"type": "string"
						}
					],
					"name": "sendOrder",
					"outputs": [],
					"stateMutability": "nonpayable",
					"type": "function"
				}
			],
			"devdoc": {
				"kind": "dev",
				"methods": {},
				"version": 1
			},
			"evm": {
				"assembly": "    /* \"Deal.sol\":28:3633  contract Deal {... */\n  mstore(0x40, 0x80)\n    /* \"Deal.sol\":110:112  30 */\n  0x1e\n    /* \"Deal.sol\":97:112  uint timer = 30 */\n  0x02\n  sstore\n    /* \"Deal.sol\":827:968  constructor (address buyerAddr) {... */\n  callvalue\n  dup1\n  iszero\n  tag_1\n  jumpi\n  revert(0x00, 0x00)\ntag_1:\n  pop\n  mload(0x40)\n  sub(codesize, bytecodeSize)\n  dup1\n  bytecodeSize\n  dup4\n  codecopy\n  dup2\n  dup2\n  add\n  0x40\n  mstore\n  dup2\n  add\n  swap1\n  tag_2\n  swap2\n  swap1\n  tag_3\n  jump\t// in\ntag_2:\n    /* \"Deal.sol\":926:936  msg.sender */\n  caller\n    /* \"Deal.sol\":916:923  creator */\n  0x00\n  0x00\n    /* \"Deal.sol\":916:936  creator = msg.sender */\n  0x0100\n  exp\n  dup2\n  sload\n  dup2\n  0xffffffffffffffffffffffffffffffffffffffff\n  mul\n  not\n  and\n  swap1\n  dup4\n  0xffffffffffffffffffffffffffffffffffffffff\n  and\n  mul\n  or\n  swap1\n  sstore\n  pop\n    /* \"Deal.sol\":953:962  buyerAddr */\n  dup1\n    /* \"Deal.sol\":945:950  buyer */\n  0x01\n  0x00\n    /* \"Deal.sol\":945:962  buyer = buyerAddr */\n  0x0100\n  exp\n  dup2\n  sload\n  dup2\n  0xffffffffffffffffffffffffffffffffffffffff\n  mul\n  not\n  and\n  swap1\n  dup4\n  0xffffffffffffffffffffffffffffffffffffffff\n  and\n  mul\n  or\n  swap1\n  sstore\n  pop\n    /* \"Deal.sol\":827:968  constructor (address buyerAddr) {... */\n  pop\n    /* \"Deal.sol\":28:3633  contract Deal {... */\n  jump(tag_6)\n    /* \"#utility.yul\":88:205   */\ntag_8:\n    /* \"#utility.yul\":197:198   */\n  0x00\n    /* \"#utility.yul\":194:195   */\n  0x00\n    /* \"#utility.yul\":187:199   */\n  revert\n    /* \"#utility.yul\":334:460   */\ntag_10:\n    /* \"#utility.yul\":371:378   */\n  0x00\n    /* \"#utility.yul\":411:453   */\n  0xffffffffffffffffffffffffffffffffffffffff\n    /* \"#utility.yul\":404:409   */\n  dup3\n    /* \"#utility.yul\":400:454   */\n  and\n    /* \"#utility.yul\":389:454   */\n  swap1\n  pop\n    /* \"#utility.yul\":334:460   */\n  swap2\n  swap1\n  pop\n  jump\t// out\n    /* \"#utility.yul\":466:562   */\ntag_11:\n    /* \"#utility.yul\":503:510   */\n  0x00\n    /* \"#utility.yul\":532:556   */\n  tag_20\n    /* \"#utility.yul\":550:555   */\n  dup3\n    /* \"#utility.yul\":532:556   */\n  tag_10\n  jump\t// in\ntag_20:\n    /* \"#utility.yul\":521:556   */\n  swap1\n  pop\n    /* \"#utility.yul\":466:562   */\n  swap2\n  swap1\n  pop\n  jump\t// out\n    /* \"#utility.yul\":568:690   */\ntag_12:\n    /* \"#utility.yul\":641:665   */\n  tag_22\n    /* \"#utility.yul\":659:664   */\n  dup2\n    /* \"#utility.yul\":641:665   */\n  tag_11\n  jump\t// in\ntag_22:\n    /* \"#utility.yul\":634:639   */\n  dup2\n    /* \"#utility.yul\":631:666   */\n  eq\n    /* \"#utility.yul\":621:684   */\n  tag_23\n  jumpi\n    /* \"#utility.yul\":680:681   */\n  0x00\n    /* \"#utility.yul\":677:678   */\n  0x00\n    /* \"#utility.yul\":670:682   */\n  revert\n    /* \"#utility.yul\":621:684   */\ntag_23:\n    /* \"#utility.yul\":568:690   */\n  pop\n  jump\t// out\n    /* \"#utility.yul\":696:839   */\ntag_13:\n    /* \"#utility.yul\":753:758   */\n  0x00\n    /* \"#utility.yul\":784:790   */\n  dup2\n    /* \"#utility.yul\":778:791   */\n  mload\n    /* \"#utility.yul\":769:791   */\n  swap1\n  pop\n    /* \"#utility.yul\":800:833   */\n  tag_25\n    /* \"#utility.yul\":827:832   */\n  dup2\n    /* \"#utility.yul\":800:833   */\n  tag_12\n  jump\t// in\ntag_25:\n    /* \"#utility.yul\":696:839   */\n  swap3\n  swap2\n  pop\n  pop\n  jump\t// out\n    /* \"#utility.yul\":845:1196   */\ntag_3:\n    /* \"#utility.yul\":915:921   */\n  0x00\n    /* \"#utility.yul\":964:966   */\n  0x20\n    /* \"#utility.yul\":952:961   */\n  dup3\n    /* \"#utility.yul\":943:950   */\n  dup5\n    /* \"#utility.yul\":939:962   */\n  sub\n    /* \"#utility.yul\":935:967   */\n  slt\n    /* \"#utility.yul\":932:1051   */\n  iszero\n  tag_27\n  jumpi\n    /* \"#utility.yul\":970:1049   */\n  tag_28\n  tag_8\n  jump\t// in\ntag_28:\n    /* \"#utility.yul\":932:1051   */\ntag_27:\n    /* \"#utility.yul\":1090:1091   */\n  0x00\n    /* \"#utility.yul\":1115:1179   */\n  tag_29\n    /* \"#utility.yul\":1171:1178   */\n  dup5\n    /* \"#utility.yul\":1162:1168   */\n  dup3\n    /* \"#utility.yul\":1151:1160   */\n  dup6\n    /* \"#utility.yul\":1147:1169   */\n  add\n    /* \"#utility.yul\":1115:1179   */\n  tag_13\n  jump\t// in\ntag_29:\n    /* \"#utility.yul\":1105:1179   */\n  swap2\n  pop\n    /* \"#utility.yul\":1061:1189   */\n  pop\n    /* \"#utility.yul\":845:1196   */\n  swap3\n  swap2\n  pop\n  pop\n  jump\t// out\n    /* \"Deal.sol\":28:3633  contract Deal {... */\ntag_6:\n  dataSize(sub_0)\n  dup1\n  dataOffset(sub_0)\n  0x00\n  codecopy\n  0x00\n  return\nstop\n\nsub_0: assembly {\n        /* \"Deal.sol\":28:3633  contract Deal {... */\n      mstore(0x40, 0x80)\n      jumpi(tag_1, lt(calldatasize, 0x04))\n      shr(0xe0, calldataload(0x00))\n      dup1\n      0x22427047\n      gt\n      tag_9\n      jumpi\n      dup1\n      0x22427047\n      eq\n      tag_5\n      jumpi\n      dup1\n      0x25fcba48\n      eq\n      tag_6\n      jumpi\n      dup1\n      0x7150d8ae\n      eq\n      tag_7\n      jumpi\n      dup1\n      0x95787d26\n      eq\n      tag_8\n      jumpi\n      jump(tag_1)\n    tag_9:\n      dup1\n      0x02d05d3f\n      eq\n      tag_2\n      jumpi\n      dup1\n      0x034684e6\n      eq\n      tag_3\n      jumpi\n      dup1\n      0x03c17a38\n      eq\n      tag_4\n      jumpi\n    tag_1:\n      revert(0x00, 0x00)\n        /* \"Deal.sol\":47:69  address public creator */\n    tag_2:\n      callvalue\n      dup1\n      iszero\n      tag_10\n      jumpi\n      revert(0x00, 0x00)\n    tag_10:\n      pop\n      tag_11\n      tag_12\n      jump\t// in\n    tag_11:\n      mload(0x40)\n      tag_13\n      swap2\n      swap1\n      tag_14\n      jump\t// in\n    tag_13:\n      mload(0x40)\n      dup1\n      swap2\n      sub\n      swap1\n      return\n        /* \"Deal.sol\":1393:1771  function ConfirmOrder(uint orderno, uint price) public {... */\n    tag_3:\n      callvalue\n      dup1\n      iszero\n      tag_15\n      jumpi\n      revert(0x00, 0x00)\n    tag_15:\n      pop\n      tag_16\n      0x04\n      dup1\n      calldatasize\n      sub\n      dup2\n      add\n      swap1\n      tag_17\n      swap2\n      swap1\n      tag_18\n      jump\t// in\n    tag_17:\n      tag_19\n      jump\t// in\n    tag_16:\n      stop\n        /* \"Deal.sol\":2476:2991  function ReturnProduct(uint orderno) public {... */\n    tag_4:\n      callvalue\n      dup1\n      iszero\n      tag_20\n      jumpi\n      revert(0x00, 0x00)\n    tag_20:\n      pop\n      tag_21\n      0x04\n      dup1\n      calldatasize\n      sub\n      dup2\n      add\n      swap1\n      tag_22\n      swap2\n      swap1\n      tag_23\n      jump\t// in\n    tag_22:\n      tag_24\n      jump\t// in\n    tag_21:\n      stop\n        /* \"Deal.sol\":2997:3630  function Payout(uint orderno) public {... */\n    tag_5:\n      callvalue\n      dup1\n      iszero\n      tag_25\n      jumpi\n      revert(0x00, 0x00)\n    tag_25:\n      pop\n      tag_26\n      0x04\n      dup1\n      calldatasize\n      sub\n      dup2\n      add\n      swap1\n      tag_27\n      swap2\n      swap1\n      tag_23\n      jump\t// in\n    tag_27:\n      tag_28\n      jump\t// in\n    tag_26:\n      stop\n        /* \"Deal.sol\":972:1387  function sendOrder(string calldata game) external  {... */\n    tag_6:\n      callvalue\n      dup1\n      iszero\n      tag_29\n      jumpi\n      revert(0x00, 0x00)\n    tag_29:\n      pop\n      tag_30\n      0x04\n      dup1\n      calldatasize\n      sub\n      dup2\n      add\n      swap1\n      tag_31\n      swap2\n      swap1\n      tag_32\n      jump\t// in\n    tag_31:\n      tag_33\n      jump\t// in\n    tag_30:\n      stop\n        /* \"Deal.sol\":72:92  address public buyer */\n    tag_7:\n      callvalue\n      dup1\n      iszero\n      tag_34\n      jumpi\n      revert(0x00, 0x00)\n    tag_34:\n      pop\n      tag_35\n      tag_36\n      jump\t// in\n    tag_35:\n      mload(0x40)\n      tag_37\n      swap2\n      swap1\n      tag_14\n      jump\t// in\n    tag_37:\n      mload(0x40)\n      dup1\n      swap2\n      sub\n      swap1\n      return\n        /* \"Deal.sol\":1777:2470  function SendPayment(uint orderno) payable public {... */\n    tag_8:\n      tag_38\n      0x04\n      dup1\n      calldatasize\n      sub\n      dup2\n      add\n      swap1\n      tag_39\n      swap2\n      swap1\n      tag_23\n      jump\t// in\n    tag_39:\n      tag_40\n      jump\t// in\n    tag_38:\n      stop\n        /* \"Deal.sol\":47:69  address public creator */\n    tag_12:\n      0x00\n      0x00\n      swap1\n      sload\n      swap1\n      0x0100\n      exp\n      swap1\n      div\n      0xffffffffffffffffffffffffffffffffffffffff\n      and\n      dup2\n      jump\t// out\n        /* \"Deal.sol\":1393:1771  function ConfirmOrder(uint orderno, uint price) public {... */\n    tag_19:\n        /* \"Deal.sol\":1479:1486  creator */\n      0x00\n      0x00\n      swap1\n      sload\n      swap1\n      0x0100\n      exp\n      swap1\n      div\n      0xffffffffffffffffffffffffffffffffffffffff\n      and\n        /* \"Deal.sol\":1465:1486  msg.sender == creator */\n      0xffffffffffffffffffffffffffffffffffffffff\n      and\n        /* \"Deal.sol\":1465:1475  msg.sender */\n      caller\n        /* \"Deal.sol\":1465:1486  msg.sender == creator */\n      0xffffffffffffffffffffffffffffffffffffffff\n      and\n      eq\n        /* \"Deal.sol\":1457:1524  require(msg.sender == creator, \"Only creator can confirm an order\") */\n      tag_42\n      jumpi\n      mload(0x40)\n      0x08c379a000000000000000000000000000000000000000000000000000000000\n      dup2\n      mstore\n      0x04\n      add\n      tag_43\n      swap1\n      tag_44\n      jump\t// in\n    tag_43:\n      mload(0x40)\n      dup1\n      swap2\n      sub\n      swap1\n      revert\n    tag_42:\n        /* \"Deal.sol\":1579:1580  0 */\n      0x00\n        /* \"Deal.sol\":1547:1553  orders */\n      0x03\n        /* \"Deal.sol\":1547:1562  orders[orderno] */\n      0x00\n        /* \"Deal.sol\":1554:1561  orderno */\n      dup5\n        /* \"Deal.sol\":1547:1562  orders[orderno] */\n      dup2\n      mstore\n      0x20\n      add\n      swap1\n      dup2\n      mstore\n      0x20\n      add\n      0x00\n      keccak256\n        /* \"Deal.sol\":1547:1567  orders[orderno].game */\n      0x00\n      add\n        /* \"Deal.sol\":1541:1575  bytes(orders[orderno].game).length */\n      dup1\n      sload\n      tag_45\n      swap1\n      tag_46\n      jump\t// in\n    tag_45:\n      swap1\n      pop\n        /* \"Deal.sol\":1541:1580  bytes(orders[orderno].game).length != 0 */\n      sub\n        /* \"Deal.sol\":1533:1605  require(bytes(orders[orderno].game).length != 0, \"Order does not exist\") */\n      tag_47\n      jumpi\n      mload(0x40)\n      0x08c379a000000000000000000000000000000000000000000000000000000000\n      dup2\n      mstore\n      0x04\n      add\n      tag_48\n      swap1\n      tag_49\n      jump\t// in\n    tag_48:\n      mload(0x40)\n      dup1\n      swap2\n      sub\n      swap1\n      revert\n    tag_47:\n        /* \"Deal.sol\":1638:1643  price */\n      dup1\n        /* \"Deal.sol\":1614:1620  orders */\n      0x03\n        /* \"Deal.sol\":1614:1629  orders[orderno] */\n      0x00\n        /* \"Deal.sol\":1621:1628  orderno */\n      dup5\n        /* \"Deal.sol\":1614:1629  orders[orderno] */\n      dup2\n      mstore\n      0x20\n      add\n      swap1\n      dup2\n      mstore\n      0x20\n      add\n      0x00\n      keccak256\n        /* \"Deal.sol\":1614:1635  orders[orderno].price */\n      0x01\n      add\n        /* \"Deal.sol\":1614:1643  orders[orderno].price = price */\n      dup2\n      swap1\n      sstore\n      pop\n        /* \"Deal.sol\":1678:1682  true */\n      0x01\n        /* \"Deal.sol\":1650:1656  orders */\n      0x03\n        /* \"Deal.sol\":1650:1665  orders[orderno] */\n      0x00\n        /* \"Deal.sol\":1657:1664  orderno */\n      dup5\n        /* \"Deal.sol\":1650:1665  orders[orderno] */\n      dup2\n      mstore\n      0x20\n      add\n      swap1\n      dup2\n      mstore\n      0x20\n      add\n      0x00\n      keccak256\n        /* \"Deal.sol\":1650:1675  orders[orderno].confirmed */\n      0x03\n      add\n      0x00\n        /* \"Deal.sol\":1650:1682  orders[orderno].confirmed = true */\n      0x0100\n      exp\n      dup2\n      sload\n      dup2\n      0xff\n      mul\n      not\n      and\n      swap1\n      dup4\n      iszero\n      iszero\n      mul\n      or\n      swap1\n      sstore\n      pop\n        /* \"Deal.sol\":1696:1765  OrderConfirmed(orders[orderno].game, price, orderno, block.timestamp) */\n      0xdf480c4d7c3ab48571fe915e4c61a595582f63727e4e99ed686284892ad073e3\n        /* \"Deal.sol\":1711:1717  orders */\n      0x03\n        /* \"Deal.sol\":1711:1726  orders[orderno] */\n      0x00\n        /* \"Deal.sol\":1718:1725  orderno */\n      dup5\n        /* \"Deal.sol\":1711:1726  orders[orderno] */\n      dup2\n      mstore\n      0x20\n      add\n      swap1\n      dup2\n      mstore\n      0x20\n      add\n      0x00\n      keccak256\n        /* \"Deal.sol\":1711:1731  orders[orderno].game */\n      0x00\n      add\n        /* \"Deal.sol\":1733:1738  price */\n      dup3\n        /* \"Deal.sol\":1740:1747  orderno */\n      dup5\n        /* \"Deal.sol\":1749:1764  block.timestamp */\n      timestamp\n        /* \"Deal.sol\":1696:1765  OrderConfirmed(orders[orderno].game, price, orderno, block.timestamp) */\n      mload(0x40)\n      tag_50\n      swap5\n      swap4\n      swap3\n      swap2\n      swap1\n      tag_51\n      jump\t// in\n    tag_50:\n      mload(0x40)\n      dup1\n      swap2\n      sub\n      swap1\n      log1\n        /* \"Deal.sol\":1393:1771  function ConfirmOrder(uint orderno, uint price) public {... */\n      pop\n      pop\n      jump\t// out\n        /* \"Deal.sol\":2476:2991  function ReturnProduct(uint orderno) public {... */\n    tag_24:\n        /* \"Deal.sol\":2551:2556  buyer */\n      0x01\n      0x00\n      swap1\n      sload\n      swap1\n      0x0100\n      exp\n      swap1\n      div\n      0xffffffffffffffffffffffffffffffffffffffff\n      and\n        /* \"Deal.sol\":2537:2556  msg.sender == buyer */\n      0xffffffffffffffffffffffffffffffffffffffff\n      and\n        /* \"Deal.sol\":2537:2547  msg.sender */\n      caller\n        /* \"Deal.sol\":2537:2556  msg.sender == buyer */\n      0xffffffffffffffffffffffffffffffffffffffff\n      and\n      eq\n        /* \"Deal.sol\":2529:2582  require(msg.sender == buyer, \"Only buyer can refund\") */\n      tag_53\n      jumpi\n      mload(0x40)\n      0x08c379a000000000000000000000000000000000000000000000000000000000\n      dup2\n      mstore\n      0x04\n      add\n      tag_54\n      swap1\n      tag_55\n      jump\t// in\n    tag_54:\n      mload(0x40)\n      dup1\n      swap2\n      sub\n      swap1\n      revert\n    tag_53:\n        /* \"Deal.sol\":2597:2603  orders */\n      0x03\n        /* \"Deal.sol\":2597:2612  orders[orderno] */\n      0x00\n        /* \"Deal.sol\":2604:2611  orderno */\n      dup3\n        /* \"Deal.sol\":2597:2612  orders[orderno] */\n      dup2\n      mstore\n      0x20\n      add\n      swap1\n      dup2\n      mstore\n      0x20\n      add\n      0x00\n      keccak256\n        /* \"Deal.sol\":2597:2617  orders[orderno].paid */\n      0x03\n      add\n      0x01\n      swap1\n      sload\n      swap1\n      0x0100\n      exp\n      swap1\n      div\n      0xff\n      and\n        /* \"Deal.sol\":2589:2636  require(orders[orderno].paid, \"Order not paid\") */\n      tag_56\n      jumpi\n      mload(0x40)\n      0x08c379a000000000000000000000000000000000000000000000000000000000\n      dup2\n      mstore\n      0x04\n      add\n      tag_57\n      swap1\n      tag_58\n      jump\t// in\n    tag_57:\n      mload(0x40)\n      dup1\n      swap2\n      sub\n      swap1\n      revert\n    tag_56:\n        /* \"Deal.sol\":2685:2700  block.timestamp */\n      timestamp\n        /* \"Deal.sol\":2651:2657  orders */\n      0x03\n        /* \"Deal.sol\":2651:2666  orders[orderno] */\n      0x00\n        /* \"Deal.sol\":2658:2665  orderno */\n      dup4\n        /* \"Deal.sol\":2651:2666  orders[orderno] */\n      dup2\n      mstore\n      0x20\n      add\n      swap1\n      dup2\n      mstore\n      0x20\n      add\n      0x00\n      keccak256\n        /* \"Deal.sol\":2651:2681  orders[orderno].refundDeadline */\n      0x04\n      add\n      sload\n        /* \"Deal.sol\":2651:2700  orders[orderno].refundDeadline >= block.timestamp */\n      lt\n      iszero\n        /* \"Deal.sol\":2643:2737  require(orders[orderno].refundDeadline >= block.timestamp, \"Cannot refund after the deadline\") */\n      tag_59\n      jumpi\n      mload(0x40)\n      0x08c379a000000000000000000000000000000000000000000000000000000000\n      dup2\n      mstore\n      0x04\n      add\n      tag_60\n      swap1\n      tag_61\n      jump\t// in\n    tag_60:\n      mload(0x40)\n      dup1\n      swap2\n      sub\n      swap1\n      revert\n    tag_59:\n        /* \"Deal.sol\":2746:2757  uint amount */\n      0x00\n        /* \"Deal.sol\":2760:2766  orders */\n      0x03\n        /* \"Deal.sol\":2760:2775  orders[orderno] */\n      0x00\n        /* \"Deal.sol\":2767:2774  orderno */\n      dup4\n        /* \"Deal.sol\":2760:2775  orders[orderno] */\n      dup2\n      mstore\n      0x20\n      add\n      swap1\n      dup2\n      mstore\n      0x20\n      add\n      0x00\n      keccak256\n        /* \"Deal.sol\":2760:2781  orders[orderno].price */\n      0x01\n      add\n      sload\n        /* \"Deal.sol\":2746:2781  uint amount = orders[orderno].price */\n      swap1\n      pop\n        /* \"Deal.sol\":2811:2816  false */\n      0x00\n        /* \"Deal.sol\":2788:2794  orders */\n      0x03\n        /* \"Deal.sol\":2788:2803  orders[orderno] */\n      0x00\n        /* \"Deal.sol\":2795:2802  orderno */\n      dup5\n        /* \"Deal.sol\":2788:2803  orders[orderno] */\n      dup2\n      mstore\n      0x20\n      add\n      swap1\n      dup2\n      mstore\n      0x20\n      add\n      0x00\n      keccak256\n        /* \"Deal.sol\":2788:2808  orders[orderno].paid */\n      0x03\n      add\n      0x01\n        /* \"Deal.sol\":2788:2816  orders[orderno].paid = false */\n      0x0100\n      exp\n      dup2\n      sload\n      dup2\n      0xff\n      mul\n      not\n      and\n      swap1\n      dup4\n      iszero\n      iszero\n      mul\n      or\n      swap1\n      sstore\n      pop\n        /* \"Deal.sol\":2826:2838  bool success */\n      0x00\n        /* \"Deal.sol\":2852:2857  buyer */\n      0x01\n      0x00\n      swap1\n      sload\n      swap1\n      0x0100\n      exp\n      swap1\n      div\n      0xffffffffffffffffffffffffffffffffffffffff\n      and\n        /* \"Deal.sol\":2844:2863  payable(buyer).call */\n      0xffffffffffffffffffffffffffffffffffffffff\n      and\n        /* \"Deal.sol\":2871:2877  amount */\n      dup3\n        /* \"Deal.sol\":2844:2882  payable(buyer).call{value: amount}(\"\") */\n      mload(0x40)\n      tag_62\n      swap1\n      tag_63\n      jump\t// in\n    tag_62:\n      0x00\n      mload(0x40)\n      dup1\n      dup4\n      sub\n      dup2\n      dup6\n      dup8\n      gas\n      call\n      swap3\n      pop\n      pop\n      pop\n      returndatasize\n      dup1\n      0x00\n      dup2\n      eq\n      tag_66\n      jumpi\n      mload(0x40)\n      swap2\n      pop\n      and(add(returndatasize, 0x3f), not(0x1f))\n      dup3\n      add\n      0x40\n      mstore\n      returndatasize\n      dup3\n      mstore\n      returndatasize\n      0x00\n      0x20\n      dup5\n      add\n      returndatacopy\n      jump(tag_65)\n    tag_66:\n      0x60\n      swap2\n      pop\n    tag_65:\n      pop\n        /* \"Deal.sol\":2825:2882  (bool success, ) = payable(buyer).call{value: amount}(\"\") */\n      pop\n      swap1\n      pop\n        /* \"Deal.sol\":2897:2904  success */\n      dup1\n        /* \"Deal.sol\":2889:2922  require(success, \"Refund failed\") */\n      tag_67\n      jumpi\n      mload(0x40)\n      0x08c379a000000000000000000000000000000000000000000000000000000000\n      dup2\n      mstore\n      0x04\n      add\n      tag_68\n      swap1\n      tag_69\n      jump\t// in\n    tag_68:\n      mload(0x40)\n      dup1\n      swap2\n      sub\n      swap1\n      revert\n    tag_67:\n        /* \"Deal.sol\":2936:2985  RefundSuccessful(orderno, buyer, block.timestamp) */\n      0x41865e4a290e1b5198a92ed40dbe11cfc8e05a0e9816d9358e68792aaa31d0ef\n        /* \"Deal.sol\":2953:2960  orderno */\n      dup4\n        /* \"Deal.sol\":2962:2967  buyer */\n      0x01\n      0x00\n      swap1\n      sload\n      swap1\n      0x0100\n      exp\n      swap1\n      div\n      0xffffffffffffffffffffffffffffffffffffffff\n      and\n        /* \"Deal.sol\":2969:2984  block.timestamp */\n      timestamp\n        /* \"Deal.sol\":2936:2985  RefundSuccessful(orderno, buyer, block.timestamp) */\n      mload(0x40)\n      tag_70\n      swap4\n      swap3\n      swap2\n      swap1\n      tag_71\n      jump\t// in\n    tag_70:\n      mload(0x40)\n      dup1\n      swap2\n      sub\n      swap1\n      log1\n        /* \"Deal.sol\":2520:2991  {... */\n      pop\n      pop\n        /* \"Deal.sol\":2476:2991  function ReturnProduct(uint orderno) public {... */\n      pop\n      jump\t// out\n        /* \"Deal.sol\":2997:3630  function Payout(uint orderno) public {... */\n    tag_28:\n        /* \"Deal.sol\":3065:3072  creator */\n      0x00\n      0x00\n      swap1\n      sload\n      swap1\n      0x0100\n      exp\n      swap1\n      div\n      0xffffffffffffffffffffffffffffffffffffffff\n      and\n        /* \"Deal.sol\":3051:3072  msg.sender == creator */\n      0xffffffffffffffffffffffffffffffffffffffff\n      and\n        /* \"Deal.sol\":3051:3061  msg.sender */\n      caller\n        /* \"Deal.sol\":3051:3072  msg.sender == creator */\n      0xffffffffffffffffffffffffffffffffffffffff\n      and\n      eq\n        /* \"Deal.sol\":3043:3108  require(msg.sender == creator, \"Only creator can get the payout\") */\n      tag_73\n      jumpi\n      mload(0x40)\n      0x08c379a000000000000000000000000000000000000000000000000000000000\n      dup2\n      mstore\n      0x04\n      add\n      tag_74\n      swap1\n      tag_75\n      jump\t// in\n    tag_74:\n      mload(0x40)\n      dup1\n      swap2\n      sub\n      swap1\n      revert\n    tag_73:\n        /* \"Deal.sol\":3123:3129  orders */\n      0x03\n        /* \"Deal.sol\":3123:3138  orders[orderno] */\n      0x00\n        /* \"Deal.sol\":3130:3137  orderno */\n      dup3\n        /* \"Deal.sol\":3123:3138  orders[orderno] */\n      dup2\n      mstore\n      0x20\n      add\n      swap1\n      dup2\n      mstore\n      0x20\n      add\n      0x00\n      keccak256\n        /* \"Deal.sol\":3123:3143  orders[orderno].paid */\n      0x03\n      add\n      0x01\n      swap1\n      sload\n      swap1\n      0x0100\n      exp\n      swap1\n      div\n      0xff\n      and\n        /* \"Deal.sol\":3115:3197  require(orders[orderno].paid, \"Order must be paid in order to receive the payout\") */\n      tag_76\n      jumpi\n      mload(0x40)\n      0x08c379a000000000000000000000000000000000000000000000000000000000\n      dup2\n      mstore\n      0x04\n      add\n      tag_77\n      swap1\n      tag_78\n      jump\t// in\n    tag_77:\n      mload(0x40)\n      dup1\n      swap2\n      sub\n      swap1\n      revert\n    tag_76:\n        /* \"Deal.sol\":3246:3261  block.timestamp */\n      timestamp\n        /* \"Deal.sol\":3212:3218  orders */\n      0x03\n        /* \"Deal.sol\":3212:3227  orders[orderno] */\n      0x00\n        /* \"Deal.sol\":3219:3226  orderno */\n      dup4\n        /* \"Deal.sol\":3212:3227  orders[orderno] */\n      dup2\n      mstore\n      0x20\n      add\n      swap1\n      dup2\n      mstore\n      0x20\n      add\n      0x00\n      keccak256\n        /* \"Deal.sol\":3212:3242  orders[orderno].refundDeadline */\n      0x04\n      add\n      sload\n        /* \"Deal.sol\":3212:3261  orders[orderno].refundDeadline <= block.timestamp */\n      gt\n      iszero\n        /* \"Deal.sol\":3204:3311  require(orders[orderno].refundDeadline <= block.timestamp, \"Cannot receive the payout before the deadline\") */\n      tag_79\n      jumpi\n      mload(0x40)\n      0x08c379a000000000000000000000000000000000000000000000000000000000\n      dup2\n      mstore\n      0x04\n      add\n      tag_80\n      swap1\n      tag_81\n      jump\t// in\n    tag_80:\n      mload(0x40)\n      dup1\n      swap2\n      sub\n      swap1\n      revert\n    tag_79:\n        /* \"Deal.sol\":3320:3331  uint amount */\n      0x00\n        /* \"Deal.sol\":3334:3340  orders */\n      0x03\n        /* \"Deal.sol\":3334:3349  orders[orderno] */\n      0x00\n        /* \"Deal.sol\":3341:3348  orderno */\n      dup4\n        /* \"Deal.sol\":3334:3349  orders[orderno] */\n      dup2\n      mstore\n      0x20\n      add\n      swap1\n      dup2\n      mstore\n      0x20\n      add\n      0x00\n      keccak256\n        /* \"Deal.sol\":3334:3355  orders[orderno].price */\n      0x01\n      add\n      sload\n        /* \"Deal.sol\":3320:3355  uint amount = orders[orderno].price */\n      swap1\n      pop\n        /* \"Deal.sol\":3385:3390  false */\n      0x00\n        /* \"Deal.sol\":3362:3368  orders */\n      0x03\n        /* \"Deal.sol\":3362:3377  orders[orderno] */\n      0x00\n        /* \"Deal.sol\":3369:3376  orderno */\n      dup5\n        /* \"Deal.sol\":3362:3377  orders[orderno] */\n      dup2\n      mstore\n      0x20\n      add\n      swap1\n      dup2\n      mstore\n      0x20\n      add\n      0x00\n      keccak256\n        /* \"Deal.sol\":3362:3382  orders[orderno].paid */\n      0x03\n      add\n      0x01\n        /* \"Deal.sol\":3362:3390  orders[orderno].paid = false */\n      0x0100\n      exp\n      dup2\n      sload\n      dup2\n      0xff\n      mul\n      not\n      and\n      swap1\n      dup4\n      iszero\n      iszero\n      mul\n      or\n      swap1\n      sstore\n      pop\n        /* \"Deal.sol\":3400:3412  bool success */\n      0x00\n        /* \"Deal.sol\":3426:3433  creator */\n      0x00\n      0x00\n      swap1\n      sload\n      swap1\n      0x0100\n      exp\n      swap1\n      div\n      0xffffffffffffffffffffffffffffffffffffffff\n      and\n        /* \"Deal.sol\":3418:3439  payable(creator).call */\n      0xffffffffffffffffffffffffffffffffffffffff\n      and\n        /* \"Deal.sol\":3447:3453  amount */\n      dup3\n        /* \"Deal.sol\":3418:3458  payable(creator).call{value: amount}(\"\") */\n      mload(0x40)\n      tag_82\n      swap1\n      tag_63\n      jump\t// in\n    tag_82:\n      0x00\n      mload(0x40)\n      dup1\n      dup4\n      sub\n      dup2\n      dup6\n      dup8\n      gas\n      call\n      swap3\n      pop\n      pop\n      pop\n      returndatasize\n      dup1\n      0x00\n      dup2\n      eq\n      tag_85\n      jumpi\n      mload(0x40)\n      swap2\n      pop\n      and(add(returndatasize, 0x3f), not(0x1f))\n      dup3\n      add\n      0x40\n      mstore\n      returndatasize\n      dup3\n      mstore\n      returndatasize\n      0x00\n      0x20\n      dup5\n      add\n      returndatacopy\n      jump(tag_84)\n    tag_85:\n      0x60\n      swap2\n      pop\n    tag_84:\n      pop\n        /* \"Deal.sol\":3399:3458  (bool success, ) = payable(creator).call{value: amount}(\"\") */\n      pop\n      swap1\n      pop\n        /* \"Deal.sol\":3473:3480  success */\n      dup1\n        /* \"Deal.sol\":3465:3498  require(success, \"Payout failed\") */\n      tag_86\n      jumpi\n      mload(0x40)\n      0x08c379a000000000000000000000000000000000000000000000000000000000\n      dup2\n      mstore\n      0x04\n      add\n      tag_87\n      swap1\n      tag_88\n      jump\t// in\n    tag_87:\n      mload(0x40)\n      dup1\n      swap2\n      sub\n      swap1\n      revert\n    tag_86:\n        /* \"Deal.sol\":3512:3571  PayoutSuccessful(orderno, creator, amount, block.timestamp) */\n      0x52d0ae120dc8d9034c7bf60cd9ec0ea66a5c28c16d993d7c1d80411ca949d43b\n        /* \"Deal.sol\":3529:3536  orderno */\n      dup4\n        /* \"Deal.sol\":3538:3545  creator */\n      0x00\n      0x00\n      swap1\n      sload\n      swap1\n      0x0100\n      exp\n      swap1\n      div\n      0xffffffffffffffffffffffffffffffffffffffff\n      and\n        /* \"Deal.sol\":3547:3553  amount */\n      dup5\n        /* \"Deal.sol\":3555:3570  block.timestamp */\n      timestamp\n        /* \"Deal.sol\":3512:3571  PayoutSuccessful(orderno, creator, amount, block.timestamp) */\n      mload(0x40)\n      tag_89\n      swap5\n      swap4\n      swap3\n      swap2\n      swap1\n      tag_90\n      jump\t// in\n    tag_89:\n      mload(0x40)\n      dup1\n      swap2\n      sub\n      swap1\n      log1\n        /* \"Deal.sol\":3583:3624  OrderSuccessful(orderno, block.timestamp) */\n      0xaf7923d787203dddf63f6a25779f92f39cb2860086e34a30a6a1431faab2420b\n        /* \"Deal.sol\":3599:3606  orderno */\n      dup4\n        /* \"Deal.sol\":3608:3623  block.timestamp */\n      timestamp\n        /* \"Deal.sol\":3583:3624  OrderSuccessful(orderno, block.timestamp) */\n      mload(0x40)\n      tag_91\n      swap3\n      swap2\n      swap1\n      tag_92\n      jump\t// in\n    tag_91:\n      mload(0x40)\n      dup1\n      swap2\n      sub\n      swap1\n      log1\n        /* \"Deal.sol\":3034:3630  {... */\n      pop\n      pop\n        /* \"Deal.sol\":2997:3630  function Payout(uint orderno) public {... */\n      pop\n      jump\t// out\n        /* \"Deal.sol\":972:1387  function sendOrder(string calldata game) external  {... */\n    tag_33:\n        /* \"Deal.sol\":1097:1102  buyer */\n      0x01\n      0x00\n      swap1\n      sload\n      swap1\n      0x0100\n      exp\n      swap1\n      div\n      0xffffffffffffffffffffffffffffffffffffffff\n      and\n        /* \"Deal.sol\":1083:1102  msg.sender == buyer */\n      0xffffffffffffffffffffffffffffffffffffffff\n      and\n        /* \"Deal.sol\":1083:1093  msg.sender */\n      caller\n        /* \"Deal.sol\":1083:1102  msg.sender == buyer */\n      0xffffffffffffffffffffffffffffffffffffffff\n      and\n      eq\n        /* \"Deal.sol\":1075:1135  require(msg.sender == buyer, \"Only buyer can send an order\") */\n      tag_94\n      jumpi\n      mload(0x40)\n      0x08c379a000000000000000000000000000000000000000000000000000000000\n      dup2\n      mstore\n      0x04\n      add\n      tag_95\n      swap1\n      tag_96\n      jump\t// in\n    tag_95:\n      mload(0x40)\n      dup1\n      swap2\n      sub\n      swap1\n      revert\n    tag_94:\n        /* \"Deal.sol\":1182:1190  orderseq */\n      0x04\n      0x00\n        /* \"Deal.sol\":1182:1192  orderseq++ */\n      dup2\n      sload\n      dup1\n      swap3\n      swap2\n      swap1\n      tag_97\n      swap1\n      tag_98\n      jump\t// in\n    tag_97:\n      swap2\n      swap1\n      pop\n      sstore\n      pop\n        /* \"Deal.sol\":1255:1303  Order(game, 0, block.timestamp, false, false, 0) */\n      mload(0x40)\n      dup1\n      0xc0\n      add\n      0x40\n      mstore\n      dup1\n        /* \"Deal.sol\":1261:1265  game */\n      dup4\n      dup4\n        /* \"Deal.sol\":1255:1303  Order(game, 0, block.timestamp, false, false, 0) */\n      dup1\n      dup1\n      0x1f\n      add\n      0x20\n      dup1\n      swap2\n      div\n      mul\n      0x20\n      add\n      mload(0x40)\n      swap1\n      dup2\n      add\n      0x40\n      mstore\n      dup1\n      swap4\n      swap3\n      swap2\n      swap1\n      dup2\n      dup2\n      mstore\n      0x20\n      add\n      dup4\n      dup4\n      dup1\n      dup3\n      dup5\n      calldatacopy\n      0x00\n      dup2\n      dup5\n      add\n      mstore\n      not(0x1f)\n      0x1f\n      dup3\n      add\n      and\n      swap1\n      pop\n      dup1\n      dup4\n      add\n      swap3\n      pop\n      pop\n      pop\n      pop\n      pop\n      pop\n      pop\n      dup2\n      mstore\n      0x20\n      add\n        /* \"Deal.sol\":1267:1268  0 */\n      0x00\n        /* \"Deal.sol\":1255:1303  Order(game, 0, block.timestamp, false, false, 0) */\n      dup2\n      mstore\n      0x20\n      add\n        /* \"Deal.sol\":1270:1285  block.timestamp */\n      timestamp\n        /* \"Deal.sol\":1255:1303  Order(game, 0, block.timestamp, false, false, 0) */\n      dup2\n      mstore\n      0x20\n      add\n        /* \"Deal.sol\":1287:1292  false */\n      0x00\n        /* \"Deal.sol\":1255:1303  Order(game, 0, block.timestamp, false, false, 0) */\n      iszero\n      iszero\n      dup2\n      mstore\n      0x20\n      add\n        /* \"Deal.sol\":1294:1299  false */\n      0x00\n        /* \"Deal.sol\":1255:1303  Order(game, 0, block.timestamp, false, false, 0) */\n      iszero\n      iszero\n      dup2\n      mstore\n      0x20\n      add\n        /* \"Deal.sol\":1301:1302  0 */\n      0x00\n        /* \"Deal.sol\":1255:1303  Order(game, 0, block.timestamp, false, false, 0) */\n      dup2\n      mstore\n      pop\n        /* \"Deal.sol\":1236:1242  orders */\n      0x03\n        /* \"Deal.sol\":1236:1252  orders[orderseq] */\n      0x00\n        /* \"Deal.sol\":1243:1251  orderseq */\n      sload(0x04)\n        /* \"Deal.sol\":1236:1252  orders[orderseq] */\n      dup2\n      mstore\n      0x20\n      add\n      swap1\n      dup2\n      mstore\n      0x20\n      add\n      0x00\n      keccak256\n        /* \"Deal.sol\":1236:1303  orders[orderseq] = Order(game, 0, block.timestamp, false, false, 0) */\n      0x00\n      dup3\n      add\n      mload\n      dup2\n      0x00\n      add\n      swap1\n      dup2\n      tag_99\n      swap2\n      swap1\n      tag_100\n      jump\t// in\n    tag_99:\n      pop\n      0x20\n      dup3\n      add\n      mload\n      dup2\n      0x01\n      add\n      sstore\n      0x40\n      dup3\n      add\n      mload\n      dup2\n      0x02\n      add\n      sstore\n      0x60\n      dup3\n      add\n      mload\n      dup2\n      0x03\n      add\n      exp(0x0100, 0x00)\n      dup2\n      sload\n      dup2\n      0xff\n      mul\n      not\n      and\n      swap1\n      dup4\n      iszero\n      iszero\n      mul\n      or\n      swap1\n      sstore\n      pop\n      0x80\n      dup3\n      add\n      mload\n      dup2\n      0x03\n      add\n      exp(0x0100, 0x01)\n      dup2\n      sload\n      dup2\n      0xff\n      mul\n      not\n      and\n      swap1\n      dup4\n      iszero\n      iszero\n      mul\n      or\n      swap1\n      sstore\n      pop\n      0xa0\n      dup3\n      add\n      mload\n      dup2\n      0x04\n      add\n      sstore\n      swap1\n      pop\n      pop\n        /* \"Deal.sol\":1344:1381  OrderSent(msg.sender, game, orderseq) */\n      0x5789e1b3d4695fa154712feee81fb999f284d3c57e3d8da4ca5b26f35f28673e\n        /* \"Deal.sol\":1354:1364  msg.sender */\n      caller\n        /* \"Deal.sol\":1366:1370  game */\n      dup4\n      dup4\n        /* \"Deal.sol\":1372:1380  orderseq */\n      sload(0x04)\n        /* \"Deal.sol\":1344:1381  OrderSent(msg.sender, game, orderseq) */\n      mload(0x40)\n      tag_101\n      swap5\n      swap4\n      swap3\n      swap2\n      swap1\n      tag_102\n      jump\t// in\n    tag_101:\n      mload(0x40)\n      dup1\n      swap2\n      sub\n      swap1\n      log1\n        /* \"Deal.sol\":972:1387  function sendOrder(string calldata game) external  {... */\n      pop\n      pop\n      jump\t// out\n        /* \"Deal.sol\":72:92  address public buyer */\n    tag_36:\n      0x01\n      0x00\n      swap1\n      sload\n      swap1\n      0x0100\n      exp\n      swap1\n      div\n      0xffffffffffffffffffffffffffffffffffffffff\n      and\n      dup2\n      jump\t// out\n        /* \"Deal.sol\":1777:2470  function SendPayment(uint orderno) payable public {... */\n    tag_40:\n        /* \"Deal.sol\":1894:1904  msg.sender */\n      caller\n        /* \"Deal.sol\":1885:1904  buyer == msg.sender */\n      0xffffffffffffffffffffffffffffffffffffffff\n      and\n        /* \"Deal.sol\":1885:1890  buyer */\n      0x01\n      0x00\n      swap1\n      sload\n      swap1\n      0x0100\n      exp\n      swap1\n      div\n      0xffffffffffffffffffffffffffffffffffffffff\n      and\n        /* \"Deal.sol\":1885:1904  buyer == msg.sender */\n      0xffffffffffffffffffffffffffffffffffffffff\n      and\n      eq\n        /* \"Deal.sol\":1877:1938  require(buyer == msg.sender, \"Only buyer can send a payment\") */\n      tag_104\n      jumpi\n      mload(0x40)\n      0x08c379a000000000000000000000000000000000000000000000000000000000\n      dup2\n      mstore\n      0x04\n      add\n      tag_105\n      swap1\n      tag_106\n      jump\t// in\n    tag_105:\n      mload(0x40)\n      dup1\n      swap2\n      sub\n      swap1\n      revert\n    tag_104:\n        /* \"Deal.sol\":1984:1988  true */\n      0x01\n        /* \"Deal.sol\":1955:1988  orders[orderno].confirmed == true */\n      iszero\n      iszero\n        /* \"Deal.sol\":1955:1961  orders */\n      0x03\n        /* \"Deal.sol\":1955:1970  orders[orderno] */\n      0x00\n        /* \"Deal.sol\":1962:1969  orderno */\n      dup4\n        /* \"Deal.sol\":1955:1970  orders[orderno] */\n      dup2\n      mstore\n      0x20\n      add\n      swap1\n      dup2\n      mstore\n      0x20\n      add\n      0x00\n      keccak256\n        /* \"Deal.sol\":1955:1980  orders[orderno].confirmed */\n      0x03\n      add\n      0x00\n      swap1\n      sload\n      swap1\n      0x0100\n      exp\n      swap1\n      div\n      0xff\n      and\n        /* \"Deal.sol\":1955:1988  orders[orderno].confirmed == true */\n      iszero\n      iszero\n      eq\n        /* \"Deal.sol\":1947:2051  require(orders[orderno].confirmed == true, \"Order must be confirmed by the creator in order to be paid\") */\n      tag_107\n      jumpi\n      mload(0x40)\n      0x08c379a000000000000000000000000000000000000000000000000000000000\n      dup2\n      mstore\n      0x04\n      add\n      tag_108\n      swap1\n      tag_109\n      jump\t// in\n    tag_108:\n      mload(0x40)\n      dup1\n      swap2\n      sub\n      swap1\n      revert\n    tag_107:\n        /* \"Deal.sol\":2092:2097  false */\n      0x00\n        /* \"Deal.sol\":2068:2097  orders[orderno].paid == false */\n      iszero\n      iszero\n        /* \"Deal.sol\":2068:2074  orders */\n      0x03\n        /* \"Deal.sol\":2068:2083  orders[orderno] */\n      0x00\n        /* \"Deal.sol\":2075:2082  orderno */\n      dup4\n        /* \"Deal.sol\":2068:2083  orders[orderno] */\n      dup2\n      mstore\n      0x20\n      add\n      swap1\n      dup2\n      mstore\n      0x20\n      add\n      0x00\n      keccak256\n        /* \"Deal.sol\":2068:2088  orders[orderno].paid */\n      0x03\n      add\n      0x01\n      swap1\n      sload\n      swap1\n      0x0100\n      exp\n      swap1\n      div\n      0xff\n      and\n        /* \"Deal.sol\":2068:2097  orders[orderno].paid == false */\n      iszero\n      iszero\n      eq\n        /* \"Deal.sol\":2060:2128  require(orders[orderno].paid == false, \"Order was already paid for\") */\n      tag_110\n      jumpi\n      mload(0x40)\n      0x08c379a000000000000000000000000000000000000000000000000000000000\n      dup2\n      mstore\n      0x04\n      add\n      tag_111\n      swap1\n      tag_112\n      jump\t// in\n    tag_111:\n      mload(0x40)\n      dup1\n      swap2\n      sub\n      swap1\n      revert\n    tag_110:\n        /* \"Deal.sol\":2170:2179  msg.value */\n      callvalue\n        /* \"Deal.sol\":2145:2151  orders */\n      0x03\n        /* \"Deal.sol\":2145:2160  orders[orderno] */\n      0x00\n        /* \"Deal.sol\":2152:2159  orderno */\n      dup4\n        /* \"Deal.sol\":2145:2160  orders[orderno] */\n      dup2\n      mstore\n      0x20\n      add\n      swap1\n      dup2\n      mstore\n      0x20\n      add\n      0x00\n      keccak256\n        /* \"Deal.sol\":2145:2166  orders[orderno].price */\n      0x01\n      add\n      sload\n        /* \"Deal.sol\":2145:2179  orders[orderno].price == msg.value */\n      eq\n        /* \"Deal.sol\":2137:2204  require(orders[orderno].price == msg.value, \"Send the exact price\") */\n      tag_113\n      jumpi\n      mload(0x40)\n      0x08c379a000000000000000000000000000000000000000000000000000000000\n      dup2\n      mstore\n      0x04\n      add\n      tag_114\n      swap1\n      tag_115\n      jump\t// in\n    tag_114:\n      mload(0x40)\n      dup1\n      swap2\n      sub\n      swap1\n      revert\n    tag_113:\n        /* \"Deal.sol\":2236:2240  true */\n      0x01\n        /* \"Deal.sol\":2213:2219  orders */\n      0x03\n        /* \"Deal.sol\":2213:2228  orders[orderno] */\n      0x00\n        /* \"Deal.sol\":2220:2227  orderno */\n      dup4\n        /* \"Deal.sol\":2213:2228  orders[orderno] */\n      dup2\n      mstore\n      0x20\n      add\n      swap1\n      dup2\n      mstore\n      0x20\n      add\n      0x00\n      keccak256\n        /* \"Deal.sol\":2213:2233  orders[orderno].paid */\n      0x03\n      add\n      0x01\n        /* \"Deal.sol\":2213:2240  orders[orderno].paid = true */\n      0x0100\n      exp\n      dup2\n      sload\n      dup2\n      0xff\n      mul\n      not\n      and\n      swap1\n      dup4\n      iszero\n      iszero\n      mul\n      or\n      swap1\n      sstore\n      pop\n        /* \"Deal.sol\":2254:2318  PaymentReceived(msg.sender, orderno, msg.value, block.timestamp) */\n      0x750e6bbedd4312ada35caa75e07fc0b85f1a6fc9c675e6962aef846918711097\n        /* \"Deal.sol\":2270:2280  msg.sender */\n      caller\n        /* \"Deal.sol\":2282:2289  orderno */\n      dup3\n        /* \"Deal.sol\":2291:2300  msg.value */\n      callvalue\n        /* \"Deal.sol\":2302:2317  block.timestamp */\n      timestamp\n        /* \"Deal.sol\":2254:2318  PaymentReceived(msg.sender, orderno, msg.value, block.timestamp) */\n      mload(0x40)\n      tag_116\n      swap5\n      swap4\n      swap3\n      swap2\n      swap1\n      tag_117\n      jump\t// in\n    tag_116:\n      mload(0x40)\n      dup1\n      swap2\n      sub\n      swap1\n      log1\n        /* \"Deal.sol\":2378:2383  timer */\n      sload(0x02)\n        /* \"Deal.sol\":2360:2375  block.timestamp */\n      timestamp\n        /* \"Deal.sol\":2360:2383  block.timestamp + timer */\n      tag_118\n      swap2\n      swap1\n      tag_119\n      jump\t// in\n    tag_118:\n        /* \"Deal.sol\":2327:2333  orders */\n      0x03\n        /* \"Deal.sol\":2327:2342  orders[orderno] */\n      0x00\n        /* \"Deal.sol\":2334:2341  orderno */\n      dup4\n        /* \"Deal.sol\":2327:2342  orders[orderno] */\n      dup2\n      mstore\n      0x20\n      add\n      swap1\n      dup2\n      mstore\n      0x20\n      add\n      0x00\n      keccak256\n        /* \"Deal.sol\":2327:2357  orders[orderno].refundDeadline */\n      0x04\n      add\n        /* \"Deal.sol\":2327:2383  orders[orderno].refundDeadline = block.timestamp + timer */\n      dup2\n      swap1\n      sstore\n      pop\n        /* \"Deal.sol\":2397:2464  CountdownStarted(orderno, block.timestamp, block.timestamp + timer) */\n      0x2c51b956ca3e342f3e03fd4c0d0fbbebbc3c57f0317236c62661f552d3e59468\n        /* \"Deal.sol\":2414:2421  orderno */\n      dup2\n        /* \"Deal.sol\":2423:2438  block.timestamp */\n      timestamp\n        /* \"Deal.sol\":2458:2463  timer */\n      sload(0x02)\n        /* \"Deal.sol\":2440:2455  block.timestamp */\n      timestamp\n        /* \"Deal.sol\":2440:2463  block.timestamp + timer */\n      tag_120\n      swap2\n      swap1\n      tag_119\n      jump\t// in\n    tag_120:\n        /* \"Deal.sol\":2397:2464  CountdownStarted(orderno, block.timestamp, block.timestamp + timer) */\n      mload(0x40)\n      tag_121\n      swap4\n      swap3\n      swap2\n      swap1\n      tag_122\n      jump\t// in\n    tag_121:\n      mload(0x40)\n      dup1\n      swap2\n      sub\n      swap1\n      log1\n        /* \"Deal.sol\":1777:2470  function SendPayment(uint orderno) payable public {... */\n      pop\n      jump\t// out\n        /* \"#utility.yul\":7:133   */\n    tag_123:\n        /* \"#utility.yul\":44:51   */\n      0x00\n        /* \"#utility.yul\":84:126   */\n      0xffffffffffffffffffffffffffffffffffffffff\n        /* \"#utility.yul\":77:82   */\n      dup3\n        /* \"#utility.yul\":73:127   */\n      and\n        /* \"#utility.yul\":62:127   */\n      swap1\n      pop\n        /* \"#utility.yul\":7:133   */\n      swap2\n      swap1\n      pop\n      jump\t// out\n        /* \"#utility.yul\":139:235   */\n    tag_124:\n        /* \"#utility.yul\":176:183   */\n      0x00\n        /* \"#utility.yul\":205:229   */\n      tag_197\n        /* \"#utility.yul\":223:228   */\n      dup3\n        /* \"#utility.yul\":205:229   */\n      tag_123\n      jump\t// in\n    tag_197:\n        /* \"#utility.yul\":194:229   */\n      swap1\n      pop\n        /* \"#utility.yul\":139:235   */\n      swap2\n      swap1\n      pop\n      jump\t// out\n        /* \"#utility.yul\":241:359   */\n    tag_125:\n        /* \"#utility.yul\":328:352   */\n      tag_199\n        /* \"#utility.yul\":346:351   */\n      dup2\n        /* \"#utility.yul\":328:352   */\n      tag_124\n      jump\t// in\n    tag_199:\n        /* \"#utility.yul\":323:326   */\n      dup3\n        /* \"#utility.yul\":316:353   */\n      mstore\n        /* \"#utility.yul\":241:359   */\n      pop\n      pop\n      jump\t// out\n        /* \"#utility.yul\":365:587   */\n    tag_14:\n        /* \"#utility.yul\":458:462   */\n      0x00\n        /* \"#utility.yul\":496:498   */\n      0x20\n        /* \"#utility.yul\":485:494   */\n      dup3\n        /* \"#utility.yul\":481:499   */\n      add\n        /* \"#utility.yul\":473:499   */\n      swap1\n      pop\n        /* \"#utility.yul\":509:580   */\n      tag_201\n        /* \"#utility.yul\":577:578   */\n      0x00\n        /* \"#utility.yul\":566:575   */\n      dup4\n        /* \"#utility.yul\":562:579   */\n      add\n        /* \"#utility.yul\":553:559   */\n      dup5\n        /* \"#utility.yul\":509:580   */\n      tag_125\n      jump\t// in\n    tag_201:\n        /* \"#utility.yul\":365:587   */\n      swap3\n      swap2\n      pop\n      pop\n      jump\t// out\n        /* \"#utility.yul\":674:791   */\n    tag_127:\n        /* \"#utility.yul\":783:784   */\n      0x00\n        /* \"#utility.yul\":780:781   */\n      0x00\n        /* \"#utility.yul\":773:785   */\n      revert\n        /* \"#utility.yul\":797:914   */\n    tag_128:\n        /* \"#utility.yul\":906:907   */\n      0x00\n        /* \"#utility.yul\":903:904   */\n      0x00\n        /* \"#utility.yul\":896:908   */\n      revert\n        /* \"#utility.yul\":920:997   */\n    tag_129:\n        /* \"#utility.yul\":957:964   */\n      0x00\n        /* \"#utility.yul\":986:991   */\n      dup2\n        /* \"#utility.yul\":975:991   */\n      swap1\n      pop\n        /* \"#utility.yul\":920:997   */\n      swap2\n      swap1\n      pop\n      jump\t// out\n        /* \"#utility.yul\":1003:1125   */\n    tag_130:\n        /* \"#utility.yul\":1076:1100   */\n      tag_207\n        /* \"#utility.yul\":1094:1099   */\n      dup2\n        /* \"#utility.yul\":1076:1100   */\n      tag_129\n      jump\t// in\n    tag_207:\n        /* \"#utility.yul\":1069:1074   */\n      dup2\n        /* \"#utility.yul\":1066:1101   */\n      eq\n        /* \"#utility.yul\":1056:1119   */\n      tag_208\n      jumpi\n        /* \"#utility.yul\":1115:1116   */\n      0x00\n        /* \"#utility.yul\":1112:1113   */\n      0x00\n        /* \"#utility.yul\":1105:1117   */\n      revert\n        /* \"#utility.yul\":1056:1119   */\n    tag_208:\n        /* \"#utility.yul\":1003:1125   */\n      pop\n      jump\t// out\n        /* \"#utility.yul\":1131:1270   */\n    tag_131:\n        /* \"#utility.yul\":1177:1182   */\n      0x00\n        /* \"#utility.yul\":1215:1221   */\n      dup2\n        /* \"#utility.yul\":1202:1222   */\n      calldataload\n        /* \"#utility.yul\":1193:1222   */\n      swap1\n      pop\n        /* \"#utility.yul\":1231:1264   */\n      tag_210\n        /* \"#utility.yul\":1258:1263   */\n      dup2\n        /* \"#utility.yul\":1231:1264   */\n      tag_130\n      jump\t// in\n    tag_210:\n        /* \"#utility.yul\":1131:1270   */\n      swap3\n      swap2\n      pop\n      pop\n      jump\t// out\n        /* \"#utility.yul\":1276:1750   */\n    tag_18:\n        /* \"#utility.yul\":1344:1350   */\n      0x00\n        /* \"#utility.yul\":1352:1358   */\n      0x00\n        /* \"#utility.yul\":1401:1403   */\n      0x40\n        /* \"#utility.yul\":1389:1398   */\n      dup4\n        /* \"#utility.yul\":1380:1387   */\n      dup6\n        /* \"#utility.yul\":1376:1399   */\n      sub\n        /* \"#utility.yul\":1372:1404   */\n      slt\n        /* \"#utility.yul\":1369:1488   */\n      iszero\n      tag_212\n      jumpi\n        /* \"#utility.yul\":1407:1486   */\n      tag_213\n      tag_127\n      jump\t// in\n    tag_213:\n        /* \"#utility.yul\":1369:1488   */\n    tag_212:\n        /* \"#utility.yul\":1527:1528   */\n      0x00\n        /* \"#utility.yul\":1552:1605   */\n      tag_214\n        /* \"#utility.yul\":1597:1604   */\n      dup6\n        /* \"#utility.yul\":1588:1594   */\n      dup3\n        /* \"#utility.yul\":1577:1586   */\n      dup7\n        /* \"#utility.yul\":1573:1595   */\n      add\n        /* \"#utility.yul\":1552:1605   */\n      tag_131\n      jump\t// in\n    tag_214:\n        /* \"#utility.yul\":1542:1605   */\n      swap3\n      pop\n        /* \"#utility.yul\":1498:1615   */\n      pop\n        /* \"#utility.yul\":1654:1656   */\n      0x20\n        /* \"#utility.yul\":1680:1733   */\n      tag_215\n        /* \"#utility.yul\":1725:1732   */\n      dup6\n        /* \"#utility.yul\":1716:1722   */\n      dup3\n        /* \"#utility.yul\":1705:1714   */\n      dup7\n        /* \"#utility.yul\":1701:1723   */\n      add\n        /* \"#utility.yul\":1680:1733   */\n      tag_131\n      jump\t// in\n    tag_215:\n        /* \"#utility.yul\":1670:1733   */\n      swap2\n      pop\n        /* \"#utility.yul\":1625:1743   */\n      pop\n        /* \"#utility.yul\":1276:1750   */\n      swap3\n      pop\n      swap3\n      swap1\n      pop\n      jump\t// out\n        /* \"#utility.yul\":1756:2085   */\n    tag_23:\n        /* \"#utility.yul\":1815:1821   */\n      0x00\n        /* \"#utility.yul\":1864:1866   */\n      0x20\n        /* \"#utility.yul\":1852:1861   */\n      dup3\n        /* \"#utility.yul\":1843:1850   */\n      dup5\n        /* \"#utility.yul\":1839:1862   */\n      sub\n        /* \"#utility.yul\":1835:1867   */\n      slt\n        /* \"#utility.yul\":1832:1951   */\n      iszero\n      tag_217\n      jumpi\n        /* \"#utility.yul\":1870:1949   */\n      tag_218\n      tag_127\n      jump\t// in\n    tag_218:\n        /* \"#utility.yul\":1832:1951   */\n    tag_217:\n        /* \"#utility.yul\":1990:1991   */\n      0x00\n        /* \"#utility.yul\":2015:2068   */\n      tag_219\n        /* \"#utility.yul\":2060:2067   */\n      dup5\n        /* \"#utility.yul\":2051:2057   */\n      dup3\n        /* \"#utility.yul\":2040:2049   */\n      dup6\n        /* \"#utility.yul\":2036:2058   */\n      add\n        /* \"#utility.yul\":2015:2068   */\n      tag_131\n      jump\t// in\n    tag_219:\n        /* \"#utility.yul\":2005:2068   */\n      swap2\n      pop\n        /* \"#utility.yul\":1961:2078   */\n      pop\n        /* \"#utility.yul\":1756:2085   */\n      swap3\n      swap2\n      pop\n      pop\n      jump\t// out\n        /* \"#utility.yul\":2091:2208   */\n    tag_132:\n        /* \"#utility.yul\":2200:2201   */\n      0x00\n        /* \"#utility.yul\":2197:2198   */\n      0x00\n        /* \"#utility.yul\":2190:2202   */\n      revert\n        /* \"#utility.yul\":2214:2331   */\n    tag_133:\n        /* \"#utility.yul\":2323:2324   */\n      0x00\n        /* \"#utility.yul\":2320:2321   */\n      0x00\n        /* \"#utility.yul\":2313:2325   */\n      revert\n        /* \"#utility.yul\":2337:2454   */\n    tag_134:\n        /* \"#utility.yul\":2446:2447   */\n      0x00\n        /* \"#utility.yul\":2443:2444   */\n      0x00\n        /* \"#utility.yul\":2436:2448   */\n      revert\n        /* \"#utility.yul\":2474:3027   */\n    tag_135:\n        /* \"#utility.yul\":2532:2540   */\n      0x00\n        /* \"#utility.yul\":2542:2548   */\n      0x00\n        /* \"#utility.yul\":2592:2595   */\n      dup4\n        /* \"#utility.yul\":2585:2589   */\n      0x1f\n        /* \"#utility.yul\":2577:2583   */\n      dup5\n        /* \"#utility.yul\":2573:2590   */\n      add\n        /* \"#utility.yul\":2569:2596   */\n      slt\n        /* \"#utility.yul\":2559:2681   */\n      tag_224\n      jumpi\n        /* \"#utility.yul\":2600:2679   */\n      tag_225\n      tag_132\n      jump\t// in\n    tag_225:\n        /* \"#utility.yul\":2559:2681   */\n    tag_224:\n        /* \"#utility.yul\":2713:2719   */\n      dup3\n        /* \"#utility.yul\":2700:2720   */\n      calldataload\n        /* \"#utility.yul\":2690:2720   */\n      swap1\n      pop\n        /* \"#utility.yul\":2743:2761   */\n      0xffffffffffffffff\n        /* \"#utility.yul\":2735:2741   */\n      dup2\n        /* \"#utility.yul\":2732:2762   */\n      gt\n        /* \"#utility.yul\":2729:2846   */\n      iszero\n      tag_226\n      jumpi\n        /* \"#utility.yul\":2765:2844   */\n      tag_227\n      tag_133\n      jump\t// in\n    tag_227:\n        /* \"#utility.yul\":2729:2846   */\n    tag_226:\n        /* \"#utility.yul\":2879:2883   */\n      0x20\n        /* \"#utility.yul\":2871:2877   */\n      dup4\n        /* \"#utility.yul\":2867:2884   */\n      add\n        /* \"#utility.yul\":2855:2884   */\n      swap2\n      pop\n        /* \"#utility.yul\":2933:2936   */\n      dup4\n        /* \"#utility.yul\":2925:2929   */\n      0x01\n        /* \"#utility.yul\":2917:2923   */\n      dup3\n        /* \"#utility.yul\":2913:2930   */\n      mul\n        /* \"#utility.yul\":2903:2911   */\n      dup4\n        /* \"#utility.yul\":2899:2931   */\n      add\n        /* \"#utility.yul\":2896:2937   */\n      gt\n        /* \"#utility.yul\":2893:3021   */\n      iszero\n      tag_228\n      jumpi\n        /* \"#utility.yul\":2940:3019   */\n      tag_229\n      tag_134\n      jump\t// in\n    tag_229:\n        /* \"#utility.yul\":2893:3021   */\n    tag_228:\n        /* \"#utility.yul\":2474:3027   */\n      swap3\n      pop\n      swap3\n      swap1\n      pop\n      jump\t// out\n        /* \"#utility.yul\":3033:3562   */\n    tag_32:\n        /* \"#utility.yul\":3104:3110   */\n      0x00\n        /* \"#utility.yul\":3112:3118   */\n      0x00\n        /* \"#utility.yul\":3161:3163   */\n      0x20\n        /* \"#utility.yul\":3149:3158   */\n      dup4\n        /* \"#utility.yul\":3140:3147   */\n      dup6\n        /* \"#utility.yul\":3136:3159   */\n      sub\n        /* \"#utility.yul\":3132:3164   */\n      slt\n        /* \"#utility.yul\":3129:3248   */\n      iszero\n      tag_231\n      jumpi\n        /* \"#utility.yul\":3167:3246   */\n      tag_232\n      tag_127\n      jump\t// in\n    tag_232:\n        /* \"#utility.yul\":3129:3248   */\n    tag_231:\n        /* \"#utility.yul\":3315:3316   */\n      0x00\n        /* \"#utility.yul\":3304:3313   */\n      dup4\n        /* \"#utility.yul\":3300:3317   */\n      add\n        /* \"#utility.yul\":3287:3318   */\n      calldataload\n        /* \"#utility.yul\":3345:3363   */\n      0xffffffffffffffff\n        /* \"#utility.yul\":3337:3343   */\n      dup2\n        /* \"#utility.yul\":3334:3364   */\n      gt\n        /* \"#utility.yul\":3331:3448   */\n      iszero\n      tag_233\n      jumpi\n        /* \"#utility.yul\":3367:3446   */\n      tag_234\n      tag_128\n      jump\t// in\n    tag_234:\n        /* \"#utility.yul\":3331:3448   */\n    tag_233:\n        /* \"#utility.yul\":3480:3545   */\n      tag_235\n        /* \"#utility.yul\":3537:3544   */\n      dup6\n        /* \"#utility.yul\":3528:3534   */\n      dup3\n        /* \"#utility.yul\":3517:3526   */\n      dup7\n        /* \"#utility.yul\":3513:3535   */\n      add\n        /* \"#utility.yul\":3480:3545   */\n      tag_135\n      jump\t// in\n    tag_235:\n        /* \"#utility.yul\":3462:3545   */\n      swap3\n      pop\n      swap3\n      pop\n        /* \"#utility.yul\":3258:3555   */\n      pop\n        /* \"#utility.yul\":3033:3562   */\n      swap3\n      pop\n      swap3\n      swap1\n      pop\n      jump\t// out\n        /* \"#utility.yul\":3568:3737   */\n    tag_136:\n        /* \"#utility.yul\":3652:3663   */\n      0x00\n        /* \"#utility.yul\":3686:3692   */\n      dup3\n        /* \"#utility.yul\":3681:3684   */\n      dup3\n        /* \"#utility.yul\":3674:3693   */\n      mstore\n        /* \"#utility.yul\":3726:3730   */\n      0x20\n        /* \"#utility.yul\":3721:3724   */\n      dup3\n        /* \"#utility.yul\":3717:3731   */\n      add\n        /* \"#utility.yul\":3702:3731   */\n      swap1\n      pop\n        /* \"#utility.yul\":3568:3737   */\n      swap3\n      swap2\n      pop\n      pop\n      jump\t// out\n        /* \"#utility.yul\":3743:3963   */\n    tag_137:\n        /* \"#utility.yul\":3883:3917   */\n      0x4f6e6c792063726561746f722063616e20636f6e6669726d20616e206f726465\n        /* \"#utility.yul\":3879:3880   */\n      0x00\n        /* \"#utility.yul\":3871:3877   */\n      dup3\n        /* \"#utility.yul\":3867:3881   */\n      add\n        /* \"#utility.yul\":3860:3918   */\n      mstore\n        /* \"#utility.yul\":3952:3955   */\n      0x7200000000000000000000000000000000000000000000000000000000000000\n        /* \"#utility.yul\":3947:3949   */\n      0x20\n        /* \"#utility.yul\":3939:3945   */\n      dup3\n        /* \"#utility.yul\":3935:3950   */\n      add\n        /* \"#utility.yul\":3928:3956   */\n      mstore\n        /* \"#utility.yul\":3743:3963   */\n      pop\n      jump\t// out\n        /* \"#utility.yul\":3969:4335   */\n    tag_138:\n        /* \"#utility.yul\":4111:4114   */\n      0x00\n        /* \"#utility.yul\":4132:4199   */\n      tag_239\n        /* \"#utility.yul\":4196:4198   */\n      0x21\n        /* \"#utility.yul\":4191:4194   */\n      dup4\n        /* \"#utility.yul\":4132:4199   */\n      tag_136\n      jump\t// in\n    tag_239:\n        /* \"#utility.yul\":4125:4199   */\n      swap2\n      pop\n        /* \"#utility.yul\":4208:4301   */\n      tag_240\n        /* \"#utility.yul\":4297:4300   */\n      dup3\n        /* \"#utility.yul\":4208:4301   */\n      tag_137\n      jump\t// in\n    tag_240:\n        /* \"#utility.yul\":4326:4328   */\n      0x40\n        /* \"#utility.yul\":4321:4324   */\n      dup3\n        /* \"#utility.yul\":4317:4329   */\n      add\n        /* \"#utility.yul\":4310:4329   */\n      swap1\n      pop\n        /* \"#utility.yul\":3969:4335   */\n      swap2\n      swap1\n      pop\n      jump\t// out\n        /* \"#utility.yul\":4341:4760   */\n    tag_44:\n        /* \"#utility.yul\":4507:4511   */\n      0x00\n        /* \"#utility.yul\":4545:4547   */\n      0x20\n        /* \"#utility.yul\":4534:4543   */\n      dup3\n        /* \"#utility.yul\":4530:4548   */\n      add\n        /* \"#utility.yul\":4522:4548   */\n      swap1\n      pop\n        /* \"#utility.yul\":4594:4603   */\n      dup2\n        /* \"#utility.yul\":4588:4592   */\n      dup2\n        /* \"#utility.yul\":4584:4604   */\n      sub\n        /* \"#utility.yul\":4580:4581   */\n      0x00\n        /* \"#utility.yul\":4569:4578   */\n      dup4\n        /* \"#utility.yul\":4565:4582   */\n      add\n        /* \"#utility.yul\":4558:4605   */\n      mstore\n        /* \"#utility.yul\":4622:4753   */\n      tag_242\n        /* \"#utility.yul\":4748:4752   */\n      dup2\n        /* \"#utility.yul\":4622:4753   */\n      tag_138\n      jump\t// in\n    tag_242:\n        /* \"#utility.yul\":4614:4753   */\n      swap1\n      pop\n        /* \"#utility.yul\":4341:4760   */\n      swap2\n      swap1\n      pop\n      jump\t// out\n        /* \"#utility.yul\":4766:4946   */\n    tag_139:\n        /* \"#utility.yul\":4814:4891   */\n      0x4e487b7100000000000000000000000000000000000000000000000000000000\n        /* \"#utility.yul\":4811:4812   */\n      0x00\n        /* \"#utility.yul\":4804:4892   */\n      mstore\n        /* \"#utility.yul\":4911:4915   */\n      0x22\n        /* \"#utility.yul\":4908:4909   */\n      0x04\n        /* \"#utility.yul\":4901:4916   */\n      mstore\n        /* \"#utility.yul\":4935:4939   */\n      0x24\n        /* \"#utility.yul\":4932:4933   */\n      0x00\n        /* \"#utility.yul\":4925:4940   */\n      revert\n        /* \"#utility.yul\":4952:5272   */\n    tag_46:\n        /* \"#utility.yul\":4996:5002   */\n      0x00\n        /* \"#utility.yul\":5033:5034   */\n      0x02\n        /* \"#utility.yul\":5027:5031   */\n      dup3\n        /* \"#utility.yul\":5023:5035   */\n      div\n        /* \"#utility.yul\":5013:5035   */\n      swap1\n      pop\n        /* \"#utility.yul\":5080:5081   */\n      0x01\n        /* \"#utility.yul\":5074:5078   */\n      dup3\n        /* \"#utility.yul\":5070:5082   */\n      and\n        /* \"#utility.yul\":5101:5119   */\n      dup1\n        /* \"#utility.yul\":5091:5172   */\n      tag_245\n      jumpi\n        /* \"#utility.yul\":5157:5161   */\n      0x7f\n        /* \"#utility.yul\":5149:5155   */\n      dup3\n        /* \"#utility.yul\":5145:5162   */\n      and\n        /* \"#utility.yul\":5135:5162   */\n      swap2\n      pop\n        /* \"#utility.yul\":5091:5172   */\n    tag_245:\n        /* \"#utility.yul\":5219:5221   */\n      0x20\n        /* \"#utility.yul\":5211:5217   */\n      dup3\n        /* \"#utility.yul\":5208:5222   */\n      lt\n        /* \"#utility.yul\":5188:5206   */\n      dup2\n        /* \"#utility.yul\":5185:5223   */\n      sub\n        /* \"#utility.yul\":5182:5266   */\n      tag_246\n      jumpi\n        /* \"#utility.yul\":5238:5256   */\n      tag_247\n      tag_139\n      jump\t// in\n    tag_247:\n        /* \"#utility.yul\":5182:5266   */\n    tag_246:\n        /* \"#utility.yul\":5003:5272   */\n      pop\n        /* \"#utility.yul\":4952:5272   */\n      swap2\n      swap1\n      pop\n      jump\t// out\n        /* \"#utility.yul\":5278:5448   */\n    tag_140:\n        /* \"#utility.yul\":5418:5440   */\n      0x4f7264657220646f6573206e6f74206578697374000000000000000000000000\n        /* \"#utility.yul\":5414:5415   */\n      0x00\n        /* \"#utility.yul\":5406:5412   */\n      dup3\n        /* \"#utility.yul\":5402:5416   */\n      add\n        /* \"#utility.yul\":5395:5441   */\n      mstore\n        /* \"#utility.yul\":5278:5448   */\n      pop\n      jump\t// out\n        /* \"#utility.yul\":5454:5820   */\n    tag_141:\n        /* \"#utility.yul\":5596:5599   */\n      0x00\n        /* \"#utility.yul\":5617:5684   */\n      tag_250\n        /* \"#utility.yul\":5681:5683   */\n      0x14\n        /* \"#utility.yul\":5676:5679   */\n      dup4\n        /* \"#utility.yul\":5617:5684   */\n      tag_136\n      jump\t// in\n    tag_250:\n        /* \"#utility.yul\":5610:5684   */\n      swap2\n      pop\n        /* \"#utility.yul\":5693:5786   */\n      tag_251\n        /* \"#utility.yul\":5782:5785   */\n      dup3\n        /* \"#utility.yul\":5693:5786   */\n      tag_140\n      jump\t// in\n    tag_251:\n        /* \"#utility.yul\":5811:5813   */\n      0x20\n        /* \"#utility.yul\":5806:5809   */\n      dup3\n        /* \"#utility.yul\":5802:5814   */\n      add\n        /* \"#utility.yul\":5795:5814   */\n      swap1\n      pop\n        /* \"#utility.yul\":5454:5820   */\n      swap2\n      swap1\n      pop\n      jump\t// out\n        /* \"#utility.yul\":5826:6245   */\n    tag_49:\n        /* \"#utility.yul\":5992:5996   */\n      0x00\n        /* \"#utility.yul\":6030:6032   */\n      0x20\n        /* \"#utility.yul\":6019:6028   */\n      dup3\n        /* \"#utility.yul\":6015:6033   */\n      add\n        /* \"#utility.yul\":6007:6033   */\n      swap1\n      pop\n        /* \"#utility.yul\":6079:6088   */\n      dup2\n        /* \"#utility.yul\":6073:6077   */\n      dup2\n        /* \"#utility.yul\":6069:6089   */\n      sub\n        /* \"#utility.yul\":6065:6066   */\n      0x00\n        /* \"#utility.yul\":6054:6063   */\n      dup4\n        /* \"#utility.yul\":6050:6067   */\n      add\n        /* \"#utility.yul\":6043:6090   */\n      mstore\n        /* \"#utility.yul\":6107:6238   */\n      tag_253\n        /* \"#utility.yul\":6233:6237   */\n      dup2\n        /* \"#utility.yul\":6107:6238   */\n      tag_141\n      jump\t// in\n    tag_253:\n        /* \"#utility.yul\":6099:6238   */\n      swap1\n      pop\n        /* \"#utility.yul\":5826:6245   */\n      swap2\n      swap1\n      pop\n      jump\t// out\n        /* \"#utility.yul\":6251:6392   */\n    tag_142:\n        /* \"#utility.yul\":6300:6304   */\n      0x00\n        /* \"#utility.yul\":6323:6326   */\n      dup2\n        /* \"#utility.yul\":6315:6326   */\n      swap1\n      pop\n        /* \"#utility.yul\":6346:6349   */\n      dup2\n        /* \"#utility.yul\":6343:6344   */\n      0x00\n        /* \"#utility.yul\":6336:6350   */\n      mstore\n        /* \"#utility.yul\":6380:6384   */\n      0x20\n        /* \"#utility.yul\":6377:6378   */\n      0x00\n        /* \"#utility.yul\":6367:6385   */\n      keccak256\n        /* \"#utility.yul\":6359:6385   */\n      swap1\n      pop\n        /* \"#utility.yul\":6251:6392   */\n      swap2\n      swap1\n      pop\n      jump\t// out\n        /* \"#utility.yul\":6422:7253   */\n    tag_143:\n        /* \"#utility.yul\":6507:6510   */\n      0x00\n        /* \"#utility.yul\":6544:6549   */\n      dup2\n        /* \"#utility.yul\":6538:6550   */\n      sload\n        /* \"#utility.yul\":6573:6609   */\n      tag_256\n        /* \"#utility.yul\":6599:6608   */\n      dup2\n        /* \"#utility.yul\":6573:6609   */\n      tag_46\n      jump\t// in\n    tag_256:\n        /* \"#utility.yul\":6625:6696   */\n      tag_257\n        /* \"#utility.yul\":6689:6695   */\n      dup2\n        /* \"#utility.yul\":6684:6687   */\n      dup7\n        /* \"#utility.yul\":6625:6696   */\n      tag_136\n      jump\t// in\n    tag_257:\n        /* \"#utility.yul\":6618:6696   */\n      swap5\n      pop\n        /* \"#utility.yul\":6727:6728   */\n      0x01\n        /* \"#utility.yul\":6716:6725   */\n      dup3\n        /* \"#utility.yul\":6712:6729   */\n      and\n        /* \"#utility.yul\":6743:6744   */\n      0x00\n        /* \"#utility.yul\":6738:6902   */\n      dup2\n      eq\n      tag_259\n      jumpi\n        /* \"#utility.yul\":6916:6917   */\n      0x01\n        /* \"#utility.yul\":6911:7247   */\n      dup2\n      eq\n      tag_260\n      jumpi\n        /* \"#utility.yul\":6705:7247   */\n      jump(tag_258)\n        /* \"#utility.yul\":6738:6902   */\n    tag_259:\n        /* \"#utility.yul\":6822:6826   */\n      0xff\n        /* \"#utility.yul\":6818:6827   */\n      not\n        /* \"#utility.yul\":6807:6816   */\n      dup4\n        /* \"#utility.yul\":6803:6828   */\n      and\n        /* \"#utility.yul\":6798:6801   */\n      dup7\n        /* \"#utility.yul\":6791:6829   */\n      mstore\n        /* \"#utility.yul\":6882:6888   */\n      dup2\n        /* \"#utility.yul\":6875:6889   */\n      iszero\n        /* \"#utility.yul\":6868:6890   */\n      iszero\n        /* \"#utility.yul\":6862:6866   */\n      0x20\n        /* \"#utility.yul\":6858:6891   */\n      mul\n        /* \"#utility.yul\":6853:6856   */\n      dup7\n        /* \"#utility.yul\":6849:6892   */\n      add\n        /* \"#utility.yul\":6842:6892   */\n      swap4\n      pop\n        /* \"#utility.yul\":6738:6902   */\n      jump(tag_258)\n        /* \"#utility.yul\":6911:7247   */\n    tag_260:\n        /* \"#utility.yul\":6978:7016   */\n      tag_261\n        /* \"#utility.yul\":7010:7015   */\n      dup6\n        /* \"#utility.yul\":6978:7016   */\n      tag_142\n      jump\t// in\n    tag_261:\n        /* \"#utility.yul\":7038:7039   */\n      0x00\n        /* \"#utility.yul\":7052:7206   */\n    tag_262:\n        /* \"#utility.yul\":7066:7072   */\n      dup4\n        /* \"#utility.yul\":7063:7064   */\n      dup2\n        /* \"#utility.yul\":7060:7073   */\n      lt\n        /* \"#utility.yul\":7052:7206   */\n      iszero\n      tag_264\n      jumpi\n        /* \"#utility.yul\":7140:7147   */\n      dup2\n        /* \"#utility.yul\":7134:7148   */\n      sload\n        /* \"#utility.yul\":7130:7131   */\n      dup2\n        /* \"#utility.yul\":7125:7128   */\n      dup10\n        /* \"#utility.yul\":7121:7132   */\n      add\n        /* \"#utility.yul\":7114:7149   */\n      mstore\n        /* \"#utility.yul\":7190:7191   */\n      0x01\n        /* \"#utility.yul\":7181:7188   */\n      dup3\n        /* \"#utility.yul\":7177:7192   */\n      add\n        /* \"#utility.yul\":7166:7192   */\n      swap2\n      pop\n        /* \"#utility.yul\":7088:7092   */\n      0x20\n        /* \"#utility.yul\":7085:7086   */\n      dup2\n        /* \"#utility.yul\":7081:7093   */\n      add\n        /* \"#utility.yul\":7076:7093   */\n      swap1\n      pop\n        /* \"#utility.yul\":7052:7206   */\n      jump(tag_262)\n    tag_264:\n        /* \"#utility.yul\":7235:7236   */\n      dup1\n        /* \"#utility.yul\":7230:7233   */\n      dup9\n        /* \"#utility.yul\":7226:7237   */\n      add\n        /* \"#utility.yul\":7219:7237   */\n      swap6\n      pop\n        /* \"#utility.yul\":6918:7247   */\n      pop\n      pop\n        /* \"#utility.yul\":6705:7247   */\n    tag_258:\n      pop\n        /* \"#utility.yul\":6511:7253   */\n      pop\n      pop\n        /* \"#utility.yul\":6422:7253   */\n      swap3\n      swap2\n      pop\n      pop\n      jump\t// out\n        /* \"#utility.yul\":7259:7377   */\n    tag_144:\n        /* \"#utility.yul\":7346:7370   */\n      tag_266\n        /* \"#utility.yul\":7364:7369   */\n      dup2\n        /* \"#utility.yul\":7346:7370   */\n      tag_129\n      jump\t// in\n    tag_266:\n        /* \"#utility.yul\":7341:7344   */\n      dup3\n        /* \"#utility.yul\":7334:7371   */\n      mstore\n        /* \"#utility.yul\":7259:7377   */\n      pop\n      pop\n      jump\t// out\n        /* \"#utility.yul\":7383:8021   */\n    tag_51:\n        /* \"#utility.yul\":7577:7581   */\n      0x00\n        /* \"#utility.yul\":7615:7618   */\n      0x80\n        /* \"#utility.yul\":7604:7613   */\n      dup3\n        /* \"#utility.yul\":7600:7619   */\n      add\n        /* \"#utility.yul\":7592:7619   */\n      swap1\n      pop\n        /* \"#utility.yul\":7665:7674   */\n      dup2\n        /* \"#utility.yul\":7659:7663   */\n      dup2\n        /* \"#utility.yul\":7655:7675   */\n      sub\n        /* \"#utility.yul\":7651:7652   */\n      0x00\n        /* \"#utility.yul\":7640:7649   */\n      dup4\n        /* \"#utility.yul\":7636:7653   */\n      add\n        /* \"#utility.yul\":7629:7676   */\n      mstore\n        /* \"#utility.yul\":7693:7768   */\n      tag_268\n        /* \"#utility.yul\":7763:7767   */\n      dup2\n        /* \"#utility.yul\":7754:7760   */\n      dup8\n        /* \"#utility.yul\":7693:7768   */\n      tag_143\n      jump\t// in\n    tag_268:\n        /* \"#utility.yul\":7685:7768   */\n      swap1\n      pop\n        /* \"#utility.yul\":7778:7850   */\n      tag_269\n        /* \"#utility.yul\":7846:7848   */\n      0x20\n        /* \"#utility.yul\":7835:7844   */\n      dup4\n        /* \"#utility.yul\":7831:7849   */\n      add\n        /* \"#utility.yul\":7822:7828   */\n      dup7\n        /* \"#utility.yul\":7778:7850   */\n      tag_144\n      jump\t// in\n    tag_269:\n        /* \"#utility.yul\":7860:7932   */\n      tag_270\n        /* \"#utility.yul\":7928:7930   */\n      0x40\n        /* \"#utility.yul\":7917:7926   */\n      dup4\n        /* \"#utility.yul\":7913:7931   */\n      add\n        /* \"#utility.yul\":7904:7910   */\n      dup6\n        /* \"#utility.yul\":7860:7932   */\n      tag_144\n      jump\t// in\n    tag_270:\n        /* \"#utility.yul\":7942:8014   */\n      tag_271\n        /* \"#utility.yul\":8010:8012   */\n      0x60\n        /* \"#utility.yul\":7999:8008   */\n      dup4\n        /* \"#utility.yul\":7995:8013   */\n      add\n        /* \"#utility.yul\":7986:7992   */\n      dup5\n        /* \"#utility.yul\":7942:8014   */\n      tag_144\n      jump\t// in\n    tag_271:\n        /* \"#utility.yul\":7383:8021   */\n      swap6\n      swap5\n      pop\n      pop\n      pop\n      pop\n      pop\n      jump\t// out\n        /* \"#utility.yul\":8027:8198   */\n    tag_145:\n        /* \"#utility.yul\":8167:8190   */\n      0x4f6e6c792062757965722063616e20726566756e640000000000000000000000\n        /* \"#utility.yul\":8163:8164   */\n      0x00\n        /* \"#utility.yul\":8155:8161   */\n      dup3\n        /* \"#utility.yul\":8151:8165   */\n      add\n        /* \"#utility.yul\":8144:8191   */\n      mstore\n        /* \"#utility.yul\":8027:8198   */\n      pop\n      jump\t// out\n        /* \"#utility.yul\":8204:8570   */\n    tag_146:\n        /* \"#utility.yul\":8346:8349   */\n      0x00\n        /* \"#utility.yul\":8367:8434   */\n      tag_274\n        /* \"#utility.yul\":8431:8433   */\n      0x15\n        /* \"#utility.yul\":8426:8429   */\n      dup4\n        /* \"#utility.yul\":8367:8434   */\n      tag_136\n      jump\t// in\n    tag_274:\n        /* \"#utility.yul\":8360:8434   */\n      swap2\n      pop\n        /* \"#utility.yul\":8443:8536   */\n      tag_275\n        /* \"#utility.yul\":8532:8535   */\n      dup3\n        /* \"#utility.yul\":8443:8536   */\n      tag_145\n      jump\t// in\n    tag_275:\n        /* \"#utility.yul\":8561:8563   */\n      0x20\n        /* \"#utility.yul\":8556:8559   */\n      dup3\n        /* \"#utility.yul\":8552:8564   */\n      add\n        /* \"#utility.yul\":8545:8564   */\n      swap1\n      pop\n        /* \"#utility.yul\":8204:8570   */\n      swap2\n      swap1\n      pop\n      jump\t// out\n        /* \"#utility.yul\":8576:8995   */\n    tag_55:\n        /* \"#utility.yul\":8742:8746   */\n      0x00\n        /* \"#utility.yul\":8780:8782   */\n      0x20\n        /* \"#utility.yul\":8769:8778   */\n      dup3\n        /* \"#utility.yul\":8765:8783   */\n      add\n        /* \"#utility.yul\":8757:8783   */\n      swap1\n      pop\n        /* \"#utility.yul\":8829:8838   */\n      dup2\n        /* \"#utility.yul\":8823:8827   */\n      dup2\n        /* \"#utility.yul\":8819:8839   */\n      sub\n        /* \"#utility.yul\":8815:8816   */\n      0x00\n        /* \"#utility.yul\":8804:8813   */\n      dup4\n        /* \"#utility.yul\":8800:8817   */\n      add\n        /* \"#utility.yul\":8793:8840   */\n      mstore\n        /* \"#utility.yul\":8857:8988   */\n      tag_277\n        /* \"#utility.yul\":8983:8987   */\n      dup2\n        /* \"#utility.yul\":8857:8988   */\n      tag_146\n      jump\t// in\n    tag_277:\n        /* \"#utility.yul\":8849:8988   */\n      swap1\n      pop\n        /* \"#utility.yul\":8576:8995   */\n      swap2\n      swap1\n      pop\n      jump\t// out\n        /* \"#utility.yul\":9001:9165   */\n    tag_147:\n        /* \"#utility.yul\":9141:9157   */\n      0x4f72646572206e6f742070616964000000000000000000000000000000000000\n        /* \"#utility.yul\":9137:9138   */\n      0x00\n        /* \"#utility.yul\":9129:9135   */\n      dup3\n        /* \"#utility.yul\":9125:9139   */\n      add\n        /* \"#utility.yul\":9118:9158   */\n      mstore\n        /* \"#utility.yul\":9001:9165   */\n      pop\n      jump\t// out\n        /* \"#utility.yul\":9171:9537   */\n    tag_148:\n        /* \"#utility.yul\":9313:9316   */\n      0x00\n        /* \"#utility.yul\":9334:9401   */\n      tag_280\n        /* \"#utility.yul\":9398:9400   */\n      0x0e\n        /* \"#utility.yul\":9393:9396   */\n      dup4\n        /* \"#utility.yul\":9334:9401   */\n      tag_136\n      jump\t// in\n    tag_280:\n        /* \"#utility.yul\":9327:9401   */\n      swap2\n      pop\n        /* \"#utility.yul\":9410:9503   */\n      tag_281\n        /* \"#utility.yul\":9499:9502   */\n      dup3\n        /* \"#utility.yul\":9410:9503   */\n      tag_147\n      jump\t// in\n    tag_281:\n        /* \"#utility.yul\":9528:9530   */\n      0x20\n        /* \"#utility.yul\":9523:9526   */\n      dup3\n        /* \"#utility.yul\":9519:9531   */\n      add\n        /* \"#utility.yul\":9512:9531   */\n      swap1\n      pop\n        /* \"#utility.yul\":9171:9537   */\n      swap2\n      swap1\n      pop\n      jump\t// out\n        /* \"#utility.yul\":9543:9962   */\n    tag_58:\n        /* \"#utility.yul\":9709:9713   */\n      0x00\n        /* \"#utility.yul\":9747:9749   */\n      0x20\n        /* \"#utility.yul\":9736:9745   */\n      dup3\n        /* \"#utility.yul\":9732:9750   */\n      add\n        /* \"#utility.yul\":9724:9750   */\n      swap1\n      pop\n        /* \"#utility.yul\":9796:9805   */\n      dup2\n        /* \"#utility.yul\":9790:9794   */\n      dup2\n        /* \"#utility.yul\":9786:9806   */\n      sub\n        /* \"#utility.yul\":9782:9783   */\n      0x00\n        /* \"#utility.yul\":9771:9780   */\n      dup4\n        /* \"#utility.yul\":9767:9784   */\n      add\n        /* \"#utility.yul\":9760:9807   */\n      mstore\n        /* \"#utility.yul\":9824:9955   */\n      tag_283\n        /* \"#utility.yul\":9950:9954   */\n      dup2\n        /* \"#utility.yul\":9824:9955   */\n      tag_148\n      jump\t// in\n    tag_283:\n        /* \"#utility.yul\":9816:9955   */\n      swap1\n      pop\n        /* \"#utility.yul\":9543:9962   */\n      swap2\n      swap1\n      pop\n      jump\t// out\n        /* \"#utility.yul\":9968:10150   */\n    tag_149:\n        /* \"#utility.yul\":10108:10142   */\n      0x43616e6e6f7420726566756e642061667465722074686520646561646c696e65\n        /* \"#utility.yul\":10104:10105   */\n      0x00\n        /* \"#utility.yul\":10096:10102   */\n      dup3\n        /* \"#utility.yul\":10092:10106   */\n      add\n        /* \"#utility.yul\":10085:10143   */\n      mstore\n        /* \"#utility.yul\":9968:10150   */\n      pop\n      jump\t// out\n        /* \"#utility.yul\":10156:10522   */\n    tag_150:\n        /* \"#utility.yul\":10298:10301   */\n      0x00\n        /* \"#utility.yul\":10319:10386   */\n      tag_286\n        /* \"#utility.yul\":10383:10385   */\n      0x20\n        /* \"#utility.yul\":10378:10381   */\n      dup4\n        /* \"#utility.yul\":10319:10386   */\n      tag_136\n      jump\t// in\n    tag_286:\n        /* \"#utility.yul\":10312:10386   */\n      swap2\n      pop\n        /* \"#utility.yul\":10395:10488   */\n      tag_287\n        /* \"#utility.yul\":10484:10487   */\n      dup3\n        /* \"#utility.yul\":10395:10488   */\n      tag_149\n      jump\t// in\n    tag_287:\n        /* \"#utility.yul\":10513:10515   */\n      0x20\n        /* \"#utility.yul\":10508:10511   */\n      dup3\n        /* \"#utility.yul\":10504:10516   */\n      add\n        /* \"#utility.yul\":10497:10516   */\n      swap1\n      pop\n        /* \"#utility.yul\":10156:10522   */\n      swap2\n      swap1\n      pop\n      jump\t// out\n        /* \"#utility.yul\":10528:10947   */\n    tag_61:\n        /* \"#utility.yul\":10694:10698   */\n      0x00\n        /* \"#utility.yul\":10732:10734   */\n      0x20\n        /* \"#utility.yul\":10721:10730   */\n      dup3\n        /* \"#utility.yul\":10717:10735   */\n      add\n        /* \"#utility.yul\":10709:10735   */\n      swap1\n      pop\n        /* \"#utility.yul\":10781:10790   */\n      dup2\n        /* \"#utility.yul\":10775:10779   */\n      dup2\n        /* \"#utility.yul\":10771:10791   */\n      sub\n        /* \"#utility.yul\":10767:10768   */\n      0x00\n        /* \"#utility.yul\":10756:10765   */\n      dup4\n        /* \"#utility.yul\":10752:10769   */\n      add\n        /* \"#utility.yul\":10745:10792   */\n      mstore\n        /* \"#utility.yul\":10809:10940   */\n      tag_289\n        /* \"#utility.yul\":10935:10939   */\n      dup2\n        /* \"#utility.yul\":10809:10940   */\n      tag_150\n      jump\t// in\n    tag_289:\n        /* \"#utility.yul\":10801:10940   */\n      swap1\n      pop\n        /* \"#utility.yul\":10528:10947   */\n      swap2\n      swap1\n      pop\n      jump\t// out\n        /* \"#utility.yul\":10953:11100   */\n    tag_151:\n        /* \"#utility.yul\":11054:11065   */\n      0x00\n        /* \"#utility.yul\":11091:11094   */\n      dup2\n        /* \"#utility.yul\":11076:11094   */\n      swap1\n      pop\n        /* \"#utility.yul\":10953:11100   */\n      swap3\n      swap2\n      pop\n      pop\n      jump\t// out\n        /* \"#utility.yul\":11106:11220   */\n    tag_152:\n      pop\n      jump\t// out\n        /* \"#utility.yul\":11226:11624   */\n    tag_153:\n        /* \"#utility.yul\":11385:11388   */\n      0x00\n        /* \"#utility.yul\":11406:11489   */\n      tag_293\n        /* \"#utility.yul\":11487:11488   */\n      0x00\n        /* \"#utility.yul\":11482:11485   */\n      dup4\n        /* \"#utility.yul\":11406:11489   */\n      tag_151\n      jump\t// in\n    tag_293:\n        /* \"#utility.yul\":11399:11489   */\n      swap2\n      pop\n        /* \"#utility.yul\":11498:11591   */\n      tag_294\n        /* \"#utility.yul\":11587:11590   */\n      dup3\n        /* \"#utility.yul\":11498:11591   */\n      tag_152\n      jump\t// in\n    tag_294:\n        /* \"#utility.yul\":11616:11617   */\n      0x00\n        /* \"#utility.yul\":11611:11614   */\n      dup3\n        /* \"#utility.yul\":11607:11618   */\n      add\n        /* \"#utility.yul\":11600:11618   */\n      swap1\n      pop\n        /* \"#utility.yul\":11226:11624   */\n      swap2\n      swap1\n      pop\n      jump\t// out\n        /* \"#utility.yul\":11630:12009   */\n    tag_63:\n        /* \"#utility.yul\":11814:11817   */\n      0x00\n        /* \"#utility.yul\":11836:11983   */\n      tag_296\n        /* \"#utility.yul\":11979:11982   */\n      dup3\n        /* \"#utility.yul\":11836:11983   */\n      tag_153\n      jump\t// in\n    tag_296:\n        /* \"#utility.yul\":11829:11983   */\n      swap2\n      pop\n        /* \"#utility.yul\":12000:12003   */\n      dup2\n        /* \"#utility.yul\":11993:12003   */\n      swap1\n      pop\n        /* \"#utility.yul\":11630:12009   */\n      swap2\n      swap1\n      pop\n      jump\t// out\n        /* \"#utility.yul\":12015:12178   */\n    tag_154:\n        /* \"#utility.yul\":12155:12170   */\n      0x526566756e64206661696c656400000000000000000000000000000000000000\n        /* \"#utility.yul\":12151:12152   */\n      0x00\n        /* \"#utility.yul\":12143:12149   */\n      dup3\n        /* \"#utility.yul\":12139:12153   */\n      add\n        /* \"#utility.yul\":12132:12171   */\n      mstore\n        /* \"#utility.yul\":12015:12178   */\n      pop\n      jump\t// out\n        /* \"#utility.yul\":12184:12550   */\n    tag_155:\n        /* \"#utility.yul\":12326:12329   */\n      0x00\n        /* \"#utility.yul\":12347:12414   */\n      tag_299\n        /* \"#utility.yul\":12411:12413   */\n      0x0d\n        /* \"#utility.yul\":12406:12409   */\n      dup4\n        /* \"#utility.yul\":12347:12414   */\n      tag_136\n      jump\t// in\n    tag_299:\n        /* \"#utility.yul\":12340:12414   */\n      swap2\n      pop\n        /* \"#utility.yul\":12423:12516   */\n      tag_300\n        /* \"#utility.yul\":12512:12515   */\n      dup3\n        /* \"#utility.yul\":12423:12516   */\n      tag_154\n      jump\t// in\n    tag_300:\n        /* \"#utility.yul\":12541:12543   */\n      0x20\n        /* \"#utility.yul\":12536:12539   */\n      dup3\n        /* \"#utility.yul\":12532:12544   */\n      add\n        /* \"#utility.yul\":12525:12544   */\n      swap1\n      pop\n        /* \"#utility.yul\":12184:12550   */\n      swap2\n      swap1\n      pop\n      jump\t// out\n        /* \"#utility.yul\":12556:12975   */\n    tag_69:\n        /* \"#utility.yul\":12722:12726   */\n      0x00\n        /* \"#utility.yul\":12760:12762   */\n      0x20\n        /* \"#utility.yul\":12749:12758   */\n      dup3\n        /* \"#utility.yul\":12745:12763   */\n      add\n        /* \"#utility.yul\":12737:12763   */\n      swap1\n      pop\n        /* \"#utility.yul\":12809:12818   */\n      dup2\n        /* \"#utility.yul\":12803:12807   */\n      dup2\n        /* \"#utility.yul\":12799:12819   */\n      sub\n        /* \"#utility.yul\":12795:12796   */\n      0x00\n        /* \"#utility.yul\":12784:12793   */\n      dup4\n        /* \"#utility.yul\":12780:12797   */\n      add\n        /* \"#utility.yul\":12773:12820   */\n      mstore\n        /* \"#utility.yul\":12837:12968   */\n      tag_302\n        /* \"#utility.yul\":12963:12967   */\n      dup2\n        /* \"#utility.yul\":12837:12968   */\n      tag_155\n      jump\t// in\n    tag_302:\n        /* \"#utility.yul\":12829:12968   */\n      swap1\n      pop\n        /* \"#utility.yul\":12556:12975   */\n      swap2\n      swap1\n      pop\n      jump\t// out\n        /* \"#utility.yul\":12981:13423   */\n    tag_71:\n        /* \"#utility.yul\":13130:13134   */\n      0x00\n        /* \"#utility.yul\":13168:13170   */\n      0x60\n        /* \"#utility.yul\":13157:13166   */\n      dup3\n        /* \"#utility.yul\":13153:13171   */\n      add\n        /* \"#utility.yul\":13145:13171   */\n      swap1\n      pop\n        /* \"#utility.yul\":13181:13252   */\n      tag_304\n        /* \"#utility.yul\":13249:13250   */\n      0x00\n        /* \"#utility.yul\":13238:13247   */\n      dup4\n        /* \"#utility.yul\":13234:13251   */\n      add\n        /* \"#utility.yul\":13225:13231   */\n      dup7\n        /* \"#utility.yul\":13181:13252   */\n      tag_144\n      jump\t// in\n    tag_304:\n        /* \"#utility.yul\":13262:13334   */\n      tag_305\n        /* \"#utility.yul\":13330:13332   */\n      0x20\n        /* \"#utility.yul\":13319:13328   */\n      dup4\n        /* \"#utility.yul\":13315:13333   */\n      add\n        /* \"#utility.yul\":13306:13312   */\n      dup6\n        /* \"#utility.yul\":13262:13334   */\n      tag_125\n      jump\t// in\n    tag_305:\n        /* \"#utility.yul\":13344:13416   */\n      tag_306\n        /* \"#utility.yul\":13412:13414   */\n      0x40\n        /* \"#utility.yul\":13401:13410   */\n      dup4\n        /* \"#utility.yul\":13397:13415   */\n      add\n        /* \"#utility.yul\":13388:13394   */\n      dup5\n        /* \"#utility.yul\":13344:13416   */\n      tag_144\n      jump\t// in\n    tag_306:\n        /* \"#utility.yul\":12981:13423   */\n      swap5\n      swap4\n      pop\n      pop\n      pop\n      pop\n      jump\t// out\n        /* \"#utility.yul\":13429:13610   */\n    tag_156:\n        /* \"#utility.yul\":13569:13602   */\n      0x4f6e6c792063726561746f722063616e2067657420746865207061796f757400\n        /* \"#utility.yul\":13565:13566   */\n      0x00\n        /* \"#utility.yul\":13557:13563   */\n      dup3\n        /* \"#utility.yul\":13553:13567   */\n      add\n        /* \"#utility.yul\":13546:13603   */\n      mstore\n        /* \"#utility.yul\":13429:13610   */\n      pop\n      jump\t// out\n        /* \"#utility.yul\":13616:13982   */\n    tag_157:\n        /* \"#utility.yul\":13758:13761   */\n      0x00\n        /* \"#utility.yul\":13779:13846   */\n      tag_309\n        /* \"#utility.yul\":13843:13845   */\n      0x1f\n        /* \"#utility.yul\":13838:13841   */\n      dup4\n        /* \"#utility.yul\":13779:13846   */\n      tag_136\n      jump\t// in\n    tag_309:\n        /* \"#utility.yul\":13772:13846   */\n      swap2\n      pop\n        /* \"#utility.yul\":13855:13948   */\n      tag_310\n        /* \"#utility.yul\":13944:13947   */\n      dup3\n        /* \"#utility.yul\":13855:13948   */\n      tag_156\n      jump\t// in\n    tag_310:\n        /* \"#utility.yul\":13973:13975   */\n      0x20\n        /* \"#utility.yul\":13968:13971   */\n      dup3\n        /* \"#utility.yul\":13964:13976   */\n      add\n        /* \"#utility.yul\":13957:13976   */\n      swap1\n      pop\n        /* \"#utility.yul\":13616:13982   */\n      swap2\n      swap1\n      pop\n      jump\t// out\n        /* \"#utility.yul\":13988:14407   */\n    tag_75:\n        /* \"#utility.yul\":14154:14158   */\n      0x00\n        /* \"#utility.yul\":14192:14194   */\n      0x20\n        /* \"#utility.yul\":14181:14190   */\n      dup3\n        /* \"#utility.yul\":14177:14195   */\n      add\n        /* \"#utility.yul\":14169:14195   */\n      swap1\n      pop\n        /* \"#utility.yul\":14241:14250   */\n      dup2\n        /* \"#utility.yul\":14235:14239   */\n      dup2\n        /* \"#utility.yul\":14231:14251   */\n      sub\n        /* \"#utility.yul\":14227:14228   */\n      0x00\n        /* \"#utility.yul\":14216:14225   */\n      dup4\n        /* \"#utility.yul\":14212:14229   */\n      add\n        /* \"#utility.yul\":14205:14252   */\n      mstore\n        /* \"#utility.yul\":14269:14400   */\n      tag_312\n        /* \"#utility.yul\":14395:14399   */\n      dup2\n        /* \"#utility.yul\":14269:14400   */\n      tag_157\n      jump\t// in\n    tag_312:\n        /* \"#utility.yul\":14261:14400   */\n      swap1\n      pop\n        /* \"#utility.yul\":13988:14407   */\n      swap2\n      swap1\n      pop\n      jump\t// out\n        /* \"#utility.yul\":14413:14649   */\n    tag_158:\n        /* \"#utility.yul\":14553:14587   */\n      0x4f72646572206d757374206265207061696420696e206f7264657220746f2072\n        /* \"#utility.yul\":14549:14550   */\n      0x00\n        /* \"#utility.yul\":14541:14547   */\n      dup3\n        /* \"#utility.yul\":14537:14551   */\n      add\n        /* \"#utility.yul\":14530:14588   */\n      mstore\n        /* \"#utility.yul\":14622:14641   */\n      0x65636569766520746865207061796f7574000000000000000000000000000000\n        /* \"#utility.yul\":14617:14619   */\n      0x20\n        /* \"#utility.yul\":14609:14615   */\n      dup3\n        /* \"#utility.yul\":14605:14620   */\n      add\n        /* \"#utility.yul\":14598:14642   */\n      mstore\n        /* \"#utility.yul\":14413:14649   */\n      pop\n      jump\t// out\n        /* \"#utility.yul\":14655:15021   */\n    tag_159:\n        /* \"#utility.yul\":14797:14800   */\n      0x00\n        /* \"#utility.yul\":14818:14885   */\n      tag_315\n        /* \"#utility.yul\":14882:14884   */\n      0x31\n        /* \"#utility.yul\":14877:14880   */\n      dup4\n        /* \"#utility.yul\":14818:14885   */\n      tag_136\n      jump\t// in\n    tag_315:\n        /* \"#utility.yul\":14811:14885   */\n      swap2\n      pop\n        /* \"#utility.yul\":14894:14987   */\n      tag_316\n        /* \"#utility.yul\":14983:14986   */\n      dup3\n        /* \"#utility.yul\":14894:14987   */\n      tag_158\n      jump\t// in\n    tag_316:\n        /* \"#utility.yul\":15012:15014   */\n      0x40\n        /* \"#utility.yul\":15007:15010   */\n      dup3\n        /* \"#utility.yul\":15003:15015   */\n      add\n        /* \"#utility.yul\":14996:15015   */\n      swap1\n      pop\n        /* \"#utility.yul\":14655:15021   */\n      swap2\n      swap1\n      pop\n      jump\t// out\n        /* \"#utility.yul\":15027:15446   */\n    tag_78:\n        /* \"#utility.yul\":15193:15197   */\n      0x00\n        /* \"#utility.yul\":15231:15233   */\n      0x20\n        /* \"#utility.yul\":15220:15229   */\n      dup3\n        /* \"#utility.yul\":15216:15234   */\n      add\n        /* \"#utility.yul\":15208:15234   */\n      swap1\n      pop\n        /* \"#utility.yul\":15280:15289   */\n      dup2\n        /* \"#utility.yul\":15274:15278   */\n      dup2\n        /* \"#utility.yul\":15270:15290   */\n      sub\n        /* \"#utility.yul\":15266:15267   */\n      0x00\n        /* \"#utility.yul\":15255:15264   */\n      dup4\n        /* \"#utility.yul\":15251:15268   */\n      add\n        /* \"#utility.yul\":15244:15291   */\n      mstore\n        /* \"#utility.yul\":15308:15439   */\n      tag_318\n        /* \"#utility.yul\":15434:15438   */\n      dup2\n        /* \"#utility.yul\":15308:15439   */\n      tag_159\n      jump\t// in\n    tag_318:\n        /* \"#utility.yul\":15300:15439   */\n      swap1\n      pop\n        /* \"#utility.yul\":15027:15446   */\n      swap2\n      swap1\n      pop\n      jump\t// out\n        /* \"#utility.yul\":15452:15684   */\n    tag_160:\n        /* \"#utility.yul\":15592:15626   */\n      0x43616e6e6f74207265636569766520746865207061796f7574206265666f7265\n        /* \"#utility.yul\":15588:15589   */\n      0x00\n        /* \"#utility.yul\":15580:15586   */\n      dup3\n        /* \"#utility.yul\":15576:15590   */\n      add\n        /* \"#utility.yul\":15569:15627   */\n      mstore\n        /* \"#utility.yul\":15661:15676   */\n      0x2074686520646561646c696e6500000000000000000000000000000000000000\n        /* \"#utility.yul\":15656:15658   */\n      0x20\n        /* \"#utility.yul\":15648:15654   */\n      dup3\n        /* \"#utility.yul\":15644:15659   */\n      add\n        /* \"#utility.yul\":15637:15677   */\n      mstore\n        /* \"#utility.yul\":15452:15684   */\n      pop\n      jump\t// out\n        /* \"#utility.yul\":15690:16056   */\n    tag_161:\n        /* \"#utility.yul\":15832:15835   */\n      0x00\n        /* \"#utility.yul\":15853:15920   */\n      tag_321\n        /* \"#utility.yul\":15917:15919   */\n      0x2d\n        /* \"#utility.yul\":15912:15915   */\n      dup4\n        /* \"#utility.yul\":15853:15920   */\n      tag_136\n      jump\t// in\n    tag_321:\n        /* \"#utility.yul\":15846:15920   */\n      swap2\n      pop\n        /* \"#utility.yul\":15929:16022   */\n      tag_322\n        /* \"#utility.yul\":16018:16021   */\n      dup3\n        /* \"#utility.yul\":15929:16022   */\n      tag_160\n      jump\t// in\n    tag_322:\n        /* \"#utility.yul\":16047:16049   */\n      0x40\n        /* \"#utility.yul\":16042:16045   */\n      dup3\n        /* \"#utility.yul\":16038:16050   */\n      add\n        /* \"#utility.yul\":16031:16050   */\n      swap1\n      pop\n        /* \"#utility.yul\":15690:16056   */\n      swap2\n      swap1\n      pop\n      jump\t// out\n        /* \"#utility.yul\":16062:16481   */\n    tag_81:\n        /* \"#utility.yul\":16228:16232   */\n      0x00\n        /* \"#utility.yul\":16266:16268   */\n      0x20\n        /* \"#utility.yul\":16255:16264   */\n      dup3\n        /* \"#utility.yul\":16251:16269   */\n      add\n        /* \"#utility.yul\":16243:16269   */\n      swap1\n      pop\n        /* \"#utility.yul\":16315:16324   */\n      dup2\n        /* \"#utility.yul\":16309:16313   */\n      dup2\n        /* \"#utility.yul\":16305:16325   */\n      sub\n        /* \"#utility.yul\":16301:16302   */\n      0x00\n        /* \"#utility.yul\":16290:16299   */\n      dup4\n        /* \"#utility.yul\":16286:16303   */\n      add\n        /* \"#utility.yul\":16279:16326   */\n      mstore\n        /* \"#utility.yul\":16343:16474   */\n      tag_324\n        /* \"#utility.yul\":16469:16473   */\n      dup2\n        /* \"#utility.yul\":16343:16474   */\n      tag_161\n      jump\t// in\n    tag_324:\n        /* \"#utility.yul\":16335:16474   */\n      swap1\n      pop\n        /* \"#utility.yul\":16062:16481   */\n      swap2\n      swap1\n      pop\n      jump\t// out\n        /* \"#utility.yul\":16487:16650   */\n    tag_162:\n        /* \"#utility.yul\":16627:16642   */\n      0x5061796f7574206661696c656400000000000000000000000000000000000000\n        /* \"#utility.yul\":16623:16624   */\n      0x00\n        /* \"#utility.yul\":16615:16621   */\n      dup3\n        /* \"#utility.yul\":16611:16625   */\n      add\n        /* \"#utility.yul\":16604:16643   */\n      mstore\n        /* \"#utility.yul\":16487:16650   */\n      pop\n      jump\t// out\n        /* \"#utility.yul\":16656:17022   */\n    tag_163:\n        /* \"#utility.yul\":16798:16801   */\n      0x00\n        /* \"#utility.yul\":16819:16886   */\n      tag_327\n        /* \"#utility.yul\":16883:16885   */\n      0x0d\n        /* \"#utility.yul\":16878:16881   */\n      dup4\n        /* \"#utility.yul\":16819:16886   */\n      tag_136\n      jump\t// in\n    tag_327:\n        /* \"#utility.yul\":16812:16886   */\n      swap2\n      pop\n        /* \"#utility.yul\":16895:16988   */\n      tag_328\n        /* \"#utility.yul\":16984:16987   */\n      dup3\n        /* \"#utility.yul\":16895:16988   */\n      tag_162\n      jump\t// in\n    tag_328:\n        /* \"#utility.yul\":17013:17015   */\n      0x20\n        /* \"#utility.yul\":17008:17011   */\n      dup3\n        /* \"#utility.yul\":17004:17016   */\n      add\n        /* \"#utility.yul\":16997:17016   */\n      swap1\n      pop\n        /* \"#utility.yul\":16656:17022   */\n      swap2\n      swap1\n      pop\n      jump\t// out\n        /* \"#utility.yul\":17028:17447   */\n    tag_88:\n        /* \"#utility.yul\":17194:17198   */\n      0x00\n        /* \"#utility.yul\":17232:17234   */\n      0x20\n        /* \"#utility.yul\":17221:17230   */\n      dup3\n        /* \"#utility.yul\":17217:17235   */\n      add\n        /* \"#utility.yul\":17209:17235   */\n      swap1\n      pop\n        /* \"#utility.yul\":17281:17290   */\n      dup2\n        /* \"#utility.yul\":17275:17279   */\n      dup2\n        /* \"#utility.yul\":17271:17291   */\n      sub\n        /* \"#utility.yul\":17267:17268   */\n      0x00\n        /* \"#utility.yul\":17256:17265   */\n      dup4\n        /* \"#utility.yul\":17252:17269   */\n      add\n        /* \"#utility.yul\":17245:17292   */\n      mstore\n        /* \"#utility.yul\":17309:17440   */\n      tag_330\n        /* \"#utility.yul\":17435:17439   */\n      dup2\n        /* \"#utility.yul\":17309:17440   */\n      tag_163\n      jump\t// in\n    tag_330:\n        /* \"#utility.yul\":17301:17440   */\n      swap1\n      pop\n        /* \"#utility.yul\":17028:17447   */\n      swap2\n      swap1\n      pop\n      jump\t// out\n        /* \"#utility.yul\":17453:18006   */\n    tag_90:\n        /* \"#utility.yul\":17630:17634   */\n      0x00\n        /* \"#utility.yul\":17668:17671   */\n      0x80\n        /* \"#utility.yul\":17657:17666   */\n      dup3\n        /* \"#utility.yul\":17653:17672   */\n      add\n        /* \"#utility.yul\":17645:17672   */\n      swap1\n      pop\n        /* \"#utility.yul\":17682:17753   */\n      tag_332\n        /* \"#utility.yul\":17750:17751   */\n      0x00\n        /* \"#utility.yul\":17739:17748   */\n      dup4\n        /* \"#utility.yul\":17735:17752   */\n      add\n        /* \"#utility.yul\":17726:17732   */\n      dup8\n        /* \"#utility.yul\":17682:17753   */\n      tag_144\n      jump\t// in\n    tag_332:\n        /* \"#utility.yul\":17763:17835   */\n      tag_333\n        /* \"#utility.yul\":17831:17833   */\n      0x20\n        /* \"#utility.yul\":17820:17829   */\n      dup4\n        /* \"#utility.yul\":17816:17834   */\n      add\n        /* \"#utility.yul\":17807:17813   */\n      dup7\n        /* \"#utility.yul\":17763:17835   */\n      tag_125\n      jump\t// in\n    tag_333:\n        /* \"#utility.yul\":17845:17917   */\n      tag_334\n        /* \"#utility.yul\":17913:17915   */\n      0x40\n        /* \"#utility.yul\":17902:17911   */\n      dup4\n        /* \"#utility.yul\":17898:17916   */\n      add\n        /* \"#utility.yul\":17889:17895   */\n      dup6\n        /* \"#utility.yul\":17845:17917   */\n      tag_144\n      jump\t// in\n    tag_334:\n        /* \"#utility.yul\":17927:17999   */\n      tag_335\n        /* \"#utility.yul\":17995:17997   */\n      0x60\n        /* \"#utility.yul\":17984:17993   */\n      dup4\n        /* \"#utility.yul\":17980:17998   */\n      add\n        /* \"#utility.yul\":17971:17977   */\n      dup5\n        /* \"#utility.yul\":17927:17999   */\n      tag_144\n      jump\t// in\n    tag_335:\n        /* \"#utility.yul\":17453:18006   */\n      swap6\n      swap5\n      pop\n      pop\n      pop\n      pop\n      pop\n      jump\t// out\n        /* \"#utility.yul\":18012:18344   */\n    tag_92:\n        /* \"#utility.yul\":18133:18137   */\n      0x00\n        /* \"#utility.yul\":18171:18173   */\n      0x40\n        /* \"#utility.yul\":18160:18169   */\n      dup3\n        /* \"#utility.yul\":18156:18174   */\n      add\n        /* \"#utility.yul\":18148:18174   */\n      swap1\n      pop\n        /* \"#utility.yul\":18184:18255   */\n      tag_337\n        /* \"#utility.yul\":18252:18253   */\n      0x00\n        /* \"#utility.yul\":18241:18250   */\n      dup4\n        /* \"#utility.yul\":18237:18254   */\n      add\n        /* \"#utility.yul\":18228:18234   */\n      dup6\n        /* \"#utility.yul\":18184:18255   */\n      tag_144\n      jump\t// in\n    tag_337:\n        /* \"#utility.yul\":18265:18337   */\n      tag_338\n        /* \"#utility.yul\":18333:18335   */\n      0x20\n        /* \"#utility.yul\":18322:18331   */\n      dup4\n        /* \"#utility.yul\":18318:18336   */\n      add\n        /* \"#utility.yul\":18309:18315   */\n      dup5\n        /* \"#utility.yul\":18265:18337   */\n      tag_144\n      jump\t// in\n    tag_338:\n        /* \"#utility.yul\":18012:18344   */\n      swap4\n      swap3\n      pop\n      pop\n      pop\n      jump\t// out\n        /* \"#utility.yul\":18350:18528   */\n    tag_164:\n        /* \"#utility.yul\":18490:18520   */\n      0x4f6e6c792062757965722063616e2073656e6420616e206f7264657200000000\n        /* \"#utility.yul\":18486:18487   */\n      0x00\n        /* \"#utility.yul\":18478:18484   */\n      dup3\n        /* \"#utility.yul\":18474:18488   */\n      add\n        /* \"#utility.yul\":18467:18521   */\n      mstore\n        /* \"#utility.yul\":18350:18528   */\n      pop\n      jump\t// out\n        /* \"#utility.yul\":18534:18900   */\n    tag_165:\n        /* \"#utility.yul\":18676:18679   */\n      0x00\n        /* \"#utility.yul\":18697:18764   */\n      tag_341\n        /* \"#utility.yul\":18761:18763   */\n      0x1c\n        /* \"#utility.yul\":18756:18759   */\n      dup4\n        /* \"#utility.yul\":18697:18764   */\n      tag_136\n      jump\t// in\n    tag_341:\n        /* \"#utility.yul\":18690:18764   */\n      swap2\n      pop\n        /* \"#utility.yul\":18773:18866   */\n      tag_342\n        /* \"#utility.yul\":18862:18865   */\n      dup3\n        /* \"#utility.yul\":18773:18866   */\n      tag_164\n      jump\t// in\n    tag_342:\n        /* \"#utility.yul\":18891:18893   */\n      0x20\n        /* \"#utility.yul\":18886:18889   */\n      dup3\n        /* \"#utility.yul\":18882:18894   */\n      add\n        /* \"#utility.yul\":18875:18894   */\n      swap1\n      pop\n        /* \"#utility.yul\":18534:18900   */\n      swap2\n      swap1\n      pop\n      jump\t// out\n        /* \"#utility.yul\":18906:19325   */\n    tag_96:\n        /* \"#utility.yul\":19072:19076   */\n      0x00\n        /* \"#utility.yul\":19110:19112   */\n      0x20\n        /* \"#utility.yul\":19099:19108   */\n      dup3\n        /* \"#utility.yul\":19095:19113   */\n      add\n        /* \"#utility.yul\":19087:19113   */\n      swap1\n      pop\n        /* \"#utility.yul\":19159:19168   */\n      dup2\n        /* \"#utility.yul\":19153:19157   */\n      dup2\n        /* \"#utility.yul\":19149:19169   */\n      sub\n        /* \"#utility.yul\":19145:19146   */\n      0x00\n        /* \"#utility.yul\":19134:19143   */\n      dup4\n        /* \"#utility.yul\":19130:19147   */\n      add\n        /* \"#utility.yul\":19123:19170   */\n      mstore\n        /* \"#utility.yul\":19187:19318   */\n      tag_344\n        /* \"#utility.yul\":19313:19317   */\n      dup2\n        /* \"#utility.yul\":19187:19318   */\n      tag_165\n      jump\t// in\n    tag_344:\n        /* \"#utility.yul\":19179:19318   */\n      swap1\n      pop\n        /* \"#utility.yul\":18906:19325   */\n      swap2\n      swap1\n      pop\n      jump\t// out\n        /* \"#utility.yul\":19331:19511   */\n    tag_166:\n        /* \"#utility.yul\":19379:19456   */\n      0x4e487b7100000000000000000000000000000000000000000000000000000000\n        /* \"#utility.yul\":19376:19377   */\n      0x00\n        /* \"#utility.yul\":19369:19457   */\n      mstore\n        /* \"#utility.yul\":19476:19480   */\n      0x11\n        /* \"#utility.yul\":19473:19474   */\n      0x04\n        /* \"#utility.yul\":19466:19481   */\n      mstore\n        /* \"#utility.yul\":19500:19504   */\n      0x24\n        /* \"#utility.yul\":19497:19498   */\n      0x00\n        /* \"#utility.yul\":19490:19505   */\n      revert\n        /* \"#utility.yul\":19517:19750   */\n    tag_98:\n        /* \"#utility.yul\":19556:19559   */\n      0x00\n        /* \"#utility.yul\":19579:19603   */\n      tag_347\n        /* \"#utility.yul\":19597:19602   */\n      dup3\n        /* \"#utility.yul\":19579:19603   */\n      tag_129\n      jump\t// in\n    tag_347:\n        /* \"#utility.yul\":19570:19603   */\n      swap2\n      pop\n        /* \"#utility.yul\":19625:19691   */\n      0xffffffffffffffffffffffffffffffffffffffffffffffffffffffffffffffff\n        /* \"#utility.yul\":19618:19623   */\n      dup3\n        /* \"#utility.yul\":19615:19692   */\n      sub\n        /* \"#utility.yul\":19612:19715   */\n      tag_348\n      jumpi\n        /* \"#utility.yul\":19695:19713   */\n      tag_349\n      tag_166\n      jump\t// in\n    tag_349:\n        /* \"#utility.yul\":19612:19715   */\n    tag_348:\n        /* \"#utility.yul\":19742:19743   */\n      0x01\n        /* \"#utility.yul\":19735:19740   */\n      dup3\n        /* \"#utility.yul\":19731:19744   */\n      add\n        /* \"#utility.yul\":19724:19744   */\n      swap1\n      pop\n        /* \"#utility.yul\":19517:19750   */\n      swap2\n      swap1\n      pop\n      jump\t// out\n        /* \"#utility.yul\":19756:19855   */\n    tag_167:\n        /* \"#utility.yul\":19808:19814   */\n      0x00\n        /* \"#utility.yul\":19842:19847   */\n      dup2\n        /* \"#utility.yul\":19836:19848   */\n      mload\n        /* \"#utility.yul\":19826:19848   */\n      swap1\n      pop\n        /* \"#utility.yul\":19756:19855   */\n      swap2\n      swap1\n      pop\n      jump\t// out\n        /* \"#utility.yul\":19861:20041   */\n    tag_168:\n        /* \"#utility.yul\":19909:19986   */\n      0x4e487b7100000000000000000000000000000000000000000000000000000000\n        /* \"#utility.yul\":19906:19907   */\n      0x00\n        /* \"#utility.yul\":19899:19987   */\n      mstore\n        /* \"#utility.yul\":20006:20010   */\n      0x41\n        /* \"#utility.yul\":20003:20004   */\n      0x04\n        /* \"#utility.yul\":19996:20011   */\n      mstore\n        /* \"#utility.yul\":20030:20034   */\n      0x24\n        /* \"#utility.yul\":20027:20028   */\n      0x00\n        /* \"#utility.yul\":20020:20035   */\n      revert\n        /* \"#utility.yul\":20047:20140   */\n    tag_169:\n        /* \"#utility.yul\":20084:20090   */\n      0x00\n        /* \"#utility.yul\":20131:20133   */\n      0x20\n        /* \"#utility.yul\":20126:20128   */\n      0x1f\n        /* \"#utility.yul\":20119:20124   */\n      dup4\n        /* \"#utility.yul\":20115:20129   */\n      add\n        /* \"#utility.yul\":20111:20134   */\n      div\n        /* \"#utility.yul\":20101:20134   */\n      swap1\n      pop\n        /* \"#utility.yul\":20047:20140   */\n      swap2\n      swap1\n      pop\n      jump\t// out\n        /* \"#utility.yul\":20146:20253   */\n    tag_170:\n        /* \"#utility.yul\":20190:20198   */\n      0x00\n        /* \"#utility.yul\":20240:20245   */\n      dup3\n        /* \"#utility.yul\":20234:20238   */\n      dup3\n        /* \"#utility.yul\":20230:20246   */\n      shl\n        /* \"#utility.yul\":20209:20246   */\n      swap1\n      pop\n        /* \"#utility.yul\":20146:20253   */\n      swap3\n      swap2\n      pop\n      pop\n      jump\t// out\n        /* \"#utility.yul\":20259:20652   */\n    tag_171:\n        /* \"#utility.yul\":20328:20334   */\n      0x00\n        /* \"#utility.yul\":20378:20379   */\n      0x08\n        /* \"#utility.yul\":20366:20376   */\n      dup4\n        /* \"#utility.yul\":20362:20380   */\n      mul\n        /* \"#utility.yul\":20401:20498   */\n      tag_355\n        /* \"#utility.yul\":20431:20497   */\n      0xffffffffffffffffffffffffffffffffffffffffffffffffffffffffffffffff\n        /* \"#utility.yul\":20420:20429   */\n      dup3\n        /* \"#utility.yul\":20401:20498   */\n      tag_170\n      jump\t// in\n    tag_355:\n        /* \"#utility.yul\":20519:20558   */\n      tag_356\n        /* \"#utility.yul\":20549:20557   */\n      dup7\n        /* \"#utility.yul\":20538:20547   */\n      dup4\n        /* \"#utility.yul\":20519:20558   */\n      tag_170\n      jump\t// in\n    tag_356:\n        /* \"#utility.yul\":20507:20558   */\n      swap6\n      pop\n        /* \"#utility.yul\":20591:20595   */\n      dup1\n        /* \"#utility.yul\":20587:20596   */\n      not\n        /* \"#utility.yul\":20580:20585   */\n      dup5\n        /* \"#utility.yul\":20576:20597   */\n      and\n        /* \"#utility.yul\":20567:20597   */\n      swap4\n      pop\n        /* \"#utility.yul\":20640:20644   */\n      dup1\n        /* \"#utility.yul\":20630:20638   */\n      dup7\n        /* \"#utility.yul\":20626:20645   */\n      and\n        /* \"#utility.yul\":20619:20624   */\n      dup5\n        /* \"#utility.yul\":20616:20646   */\n      or\n        /* \"#utility.yul\":20606:20646   */\n      swap3\n      pop\n        /* \"#utility.yul\":20335:20652   */\n      pop\n      pop\n        /* \"#utility.yul\":20259:20652   */\n      swap4\n      swap3\n      pop\n      pop\n      pop\n      jump\t// out\n        /* \"#utility.yul\":20658:20718   */\n    tag_172:\n        /* \"#utility.yul\":20686:20689   */\n      0x00\n        /* \"#utility.yul\":20707:20712   */\n      dup2\n        /* \"#utility.yul\":20700:20712   */\n      swap1\n      pop\n        /* \"#utility.yul\":20658:20718   */\n      swap2\n      swap1\n      pop\n      jump\t// out\n        /* \"#utility.yul\":20724:20866   */\n    tag_173:\n        /* \"#utility.yul\":20774:20783   */\n      0x00\n        /* \"#utility.yul\":20807:20860   */\n      tag_359\n        /* \"#utility.yul\":20825:20859   */\n      tag_360\n        /* \"#utility.yul\":20834:20858   */\n      tag_361\n        /* \"#utility.yul\":20852:20857   */\n      dup5\n        /* \"#utility.yul\":20834:20858   */\n      tag_129\n      jump\t// in\n    tag_361:\n        /* \"#utility.yul\":20825:20859   */\n      tag_172\n      jump\t// in\n    tag_360:\n        /* \"#utility.yul\":20807:20860   */\n      tag_129\n      jump\t// in\n    tag_359:\n        /* \"#utility.yul\":20794:20860   */\n      swap1\n      pop\n        /* \"#utility.yul\":20724:20866   */\n      swap2\n      swap1\n      pop\n      jump\t// out\n        /* \"#utility.yul\":20872:20947   */\n    tag_174:\n        /* \"#utility.yul\":20915:20918   */\n      0x00\n        /* \"#utility.yul\":20936:20941   */\n      dup2\n        /* \"#utility.yul\":20929:20941   */\n      swap1\n      pop\n        /* \"#utility.yul\":20872:20947   */\n      swap2\n      swap1\n      pop\n      jump\t// out\n        /* \"#utility.yul\":20953:21222   */\n    tag_175:\n        /* \"#utility.yul\":21063:21102   */\n      tag_364\n        /* \"#utility.yul\":21094:21101   */\n      dup4\n        /* \"#utility.yul\":21063:21102   */\n      tag_173\n      jump\t// in\n    tag_364:\n        /* \"#utility.yul\":21124:21215   */\n      tag_365\n        /* \"#utility.yul\":21173:21214   */\n      tag_366\n        /* \"#utility.yul\":21197:21213   */\n      dup3\n        /* \"#utility.yul\":21173:21214   */\n      tag_174\n      jump\t// in\n    tag_366:\n        /* \"#utility.yul\":21165:21171   */\n      dup5\n        /* \"#utility.yul\":21158:21162   */\n      dup5\n        /* \"#utility.yul\":21152:21163   */\n      sload\n        /* \"#utility.yul\":21124:21215   */\n      tag_171\n      jump\t// in\n    tag_365:\n        /* \"#utility.yul\":21118:21122   */\n      dup3\n        /* \"#utility.yul\":21111:21216   */\n      sstore\n        /* \"#utility.yul\":21029:21222   */\n      pop\n        /* \"#utility.yul\":20953:21222   */\n      pop\n      pop\n      pop\n      jump\t// out\n        /* \"#utility.yul\":21228:21301   */\n    tag_176:\n        /* \"#utility.yul\":21273:21276   */\n      0x00\n        /* \"#utility.yul\":21294:21295   */\n      0x00\n        /* \"#utility.yul\":21287:21295   */\n      swap1\n      pop\n        /* \"#utility.yul\":21228:21301   */\n      swap1\n      jump\t// out\n        /* \"#utility.yul\":21307:21496   */\n    tag_177:\n        /* \"#utility.yul\":21384:21416   */\n      tag_369\n      tag_176\n      jump\t// in\n    tag_369:\n        /* \"#utility.yul\":21425:21490   */\n      tag_370\n        /* \"#utility.yul\":21483:21489   */\n      dup2\n        /* \"#utility.yul\":21475:21481   */\n      dup5\n        /* \"#utility.yul\":21469:21473   */\n      dup5\n        /* \"#utility.yul\":21425:21490   */\n      tag_175\n      jump\t// in\n    tag_370:\n        /* \"#utility.yul\":21360:21496   */\n      pop\n        /* \"#utility.yul\":21307:21496   */\n      pop\n      pop\n      jump\t// out\n        /* \"#utility.yul\":21502:21688   */\n    tag_178:\n        /* \"#utility.yul\":21562:21682   */\n    tag_372:\n        /* \"#utility.yul\":21579:21582   */\n      dup2\n        /* \"#utility.yul\":21572:21577   */\n      dup2\n        /* \"#utility.yul\":21569:21583   */\n      lt\n        /* \"#utility.yul\":21562:21682   */\n      iszero\n      tag_374\n      jumpi\n        /* \"#utility.yul\":21633:21672   */\n      tag_375\n        /* \"#utility.yul\":21670:21671   */\n      0x00\n        /* \"#utility.yul\":21663:21668   */\n      dup3\n        /* \"#utility.yul\":21633:21672   */\n      tag_177\n      jump\t// in\n    tag_375:\n        /* \"#utility.yul\":21606:21607   */\n      0x01\n        /* \"#utility.yul\":21599:21604   */\n      dup2\n        /* \"#utility.yul\":21595:21608   */\n      add\n        /* \"#utility.yul\":21586:21608   */\n      swap1\n      pop\n        /* \"#utility.yul\":21562:21682   */\n      jump(tag_372)\n    tag_374:\n        /* \"#utility.yul\":21502:21688   */\n      pop\n      pop\n      jump\t// out\n        /* \"#utility.yul\":21694:22237   */\n    tag_179:\n        /* \"#utility.yul\":21795:21797   */\n      0x1f\n        /* \"#utility.yul\":21790:21793   */\n      dup3\n        /* \"#utility.yul\":21787:21798   */\n      gt\n        /* \"#utility.yul\":21784:22230   */\n      iszero\n      tag_377\n      jumpi\n        /* \"#utility.yul\":21829:21867   */\n      tag_378\n        /* \"#utility.yul\":21861:21866   */\n      dup2\n        /* \"#utility.yul\":21829:21867   */\n      tag_142\n      jump\t// in\n    tag_378:\n        /* \"#utility.yul\":21913:21942   */\n      tag_379\n        /* \"#utility.yul\":21931:21941   */\n      dup5\n        /* \"#utility.yul\":21913:21942   */\n      tag_169\n      jump\t// in\n    tag_379:\n        /* \"#utility.yul\":21903:21911   */\n      dup2\n        /* \"#utility.yul\":21899:21943   */\n      add\n        /* \"#utility.yul\":22096:22098   */\n      0x20\n        /* \"#utility.yul\":22084:22094   */\n      dup6\n        /* \"#utility.yul\":22081:22099   */\n      lt\n        /* \"#utility.yul\":22078:22127   */\n      iszero\n      tag_380\n      jumpi\n        /* \"#utility.yul\":22117:22125   */\n      dup2\n        /* \"#utility.yul\":22102:22125   */\n      swap1\n      pop\n        /* \"#utility.yul\":22078:22127   */\n    tag_380:\n        /* \"#utility.yul\":22140:22220   */\n      tag_381\n        /* \"#utility.yul\":22196:22218   */\n      tag_382\n        /* \"#utility.yul\":22214:22217   */\n      dup6\n        /* \"#utility.yul\":22196:22218   */\n      tag_169\n      jump\t// in\n    tag_382:\n        /* \"#utility.yul\":22186:22194   */\n      dup4\n        /* \"#utility.yul\":22182:22219   */\n      add\n        /* \"#utility.yul\":22169:22180   */\n      dup3\n        /* \"#utility.yul\":22140:22220   */\n      tag_178\n      jump\t// in\n    tag_381:\n        /* \"#utility.yul\":21799:22230   */\n      pop\n      pop\n        /* \"#utility.yul\":21784:22230   */\n    tag_377:\n        /* \"#utility.yul\":21694:22237   */\n      pop\n      pop\n      pop\n      jump\t// out\n        /* \"#utility.yul\":22243:22360   */\n    tag_180:\n        /* \"#utility.yul\":22297:22305   */\n      0x00\n        /* \"#utility.yul\":22347:22352   */\n      dup3\n        /* \"#utility.yul\":22341:22345   */\n      dup3\n        /* \"#utility.yul\":22337:22353   */\n      shr\n        /* \"#utility.yul\":22316:22353   */\n      swap1\n      pop\n        /* \"#utility.yul\":22243:22360   */\n      swap3\n      swap2\n      pop\n      pop\n      jump\t// out\n        /* \"#utility.yul\":22366:22535   */\n    tag_181:\n        /* \"#utility.yul\":22410:22416   */\n      0x00\n        /* \"#utility.yul\":22443:22494   */\n      tag_385\n        /* \"#utility.yul\":22491:22492   */\n      0x00\n        /* \"#utility.yul\":22487:22493   */\n      not\n        /* \"#utility.yul\":22479:22484   */\n      dup5\n        /* \"#utility.yul\":22476:22477   */\n      0x08\n        /* \"#utility.yul\":22472:22485   */\n      mul\n        /* \"#utility.yul\":22443:22494   */\n      tag_180\n      jump\t// in\n    tag_385:\n        /* \"#utility.yul\":22439:22495   */\n      not\n        /* \"#utility.yul\":22524:22528   */\n      dup1\n        /* \"#utility.yul\":22518:22522   */\n      dup4\n        /* \"#utility.yul\":22514:22529   */\n      and\n        /* \"#utility.yul\":22504:22529   */\n      swap2\n      pop\n        /* \"#utility.yul\":22417:22535   */\n      pop\n        /* \"#utility.yul\":22366:22535   */\n      swap3\n      swap2\n      pop\n      pop\n      jump\t// out\n        /* \"#utility.yul\":22540:22835   */\n    tag_182:\n        /* \"#utility.yul\":22616:22620   */\n      0x00\n        /* \"#utility.yul\":22762:22791   */\n      tag_387\n        /* \"#utility.yul\":22787:22790   */\n      dup4\n        /* \"#utility.yul\":22781:22785   */\n      dup4\n        /* \"#utility.yul\":22762:22791   */\n      tag_181\n      jump\t// in\n    tag_387:\n        /* \"#utility.yul\":22754:22791   */\n      swap2\n      pop\n        /* \"#utility.yul\":22824:22827   */\n      dup3\n        /* \"#utility.yul\":22821:22822   */\n      0x02\n        /* \"#utility.yul\":22817:22828   */\n      mul\n        /* \"#utility.yul\":22811:22815   */\n      dup3\n        /* \"#utility.yul\":22808:22829   */\n      or\n        /* \"#utility.yul\":22800:22829   */\n      swap1\n      pop\n        /* \"#utility.yul\":22540:22835   */\n      swap3\n      swap2\n      pop\n      pop\n      jump\t// out\n        /* \"#utility.yul\":22840:24235   */\n    tag_100:\n        /* \"#utility.yul\":22957:22994   */\n      tag_389\n        /* \"#utility.yul\":22990:22993   */\n      dup3\n        /* \"#utility.yul\":22957:22994   */\n      tag_167\n      jump\t// in\n    tag_389:\n        /* \"#utility.yul\":23059:23077   */\n      0xffffffffffffffff\n        /* \"#utility.yul\":23051:23057   */\n      dup2\n        /* \"#utility.yul\":23048:23078   */\n      gt\n        /* \"#utility.yul\":23045:23101   */\n      iszero\n      tag_390\n      jumpi\n        /* \"#utility.yul\":23081:23099   */\n      tag_391\n      tag_168\n      jump\t// in\n    tag_391:\n        /* \"#utility.yul\":23045:23101   */\n    tag_390:\n        /* \"#utility.yul\":23125:23163   */\n      tag_392\n        /* \"#utility.yul\":23157:23161   */\n      dup3\n        /* \"#utility.yul\":23151:23162   */\n      sload\n        /* \"#utility.yul\":23125:23163   */\n      tag_46\n      jump\t// in\n    tag_392:\n        /* \"#utility.yul\":23210:23277   */\n      tag_393\n        /* \"#utility.yul\":23270:23276   */\n      dup3\n        /* \"#utility.yul\":23262:23268   */\n      dup3\n        /* \"#utility.yul\":23256:23260   */\n      dup6\n        /* \"#utility.yul\":23210:23277   */\n      tag_179\n      jump\t// in\n    tag_393:\n        /* \"#utility.yul\":23304:23305   */\n      0x00\n        /* \"#utility.yul\":23328:23332   */\n      0x20\n        /* \"#utility.yul\":23315:23332   */\n      swap1\n      pop\n        /* \"#utility.yul\":23360:23362   */\n      0x1f\n        /* \"#utility.yul\":23352:23358   */\n      dup4\n        /* \"#utility.yul\":23349:23363   */\n      gt\n        /* \"#utility.yul\":23377:23378   */\n      0x01\n        /* \"#utility.yul\":23372:23990   */\n      dup2\n      eq\n      tag_395\n      jumpi\n        /* \"#utility.yul\":24034:24035   */\n      0x00\n        /* \"#utility.yul\":24051:24057   */\n      dup5\n        /* \"#utility.yul\":24048:24125   */\n      iszero\n      tag_396\n      jumpi\n        /* \"#utility.yul\":24100:24109   */\n      dup3\n        /* \"#utility.yul\":24095:24098   */\n      dup8\n        /* \"#utility.yul\":24091:24110   */\n      add\n        /* \"#utility.yul\":24085:24111   */\n      mload\n        /* \"#utility.yul\":24076:24111   */\n      swap1\n      pop\n        /* \"#utility.yul\":24048:24125   */\n    tag_396:\n        /* \"#utility.yul\":24151:24218   */\n      tag_397\n        /* \"#utility.yul\":24211:24217   */\n      dup6\n        /* \"#utility.yul\":24204:24209   */\n      dup3\n        /* \"#utility.yul\":24151:24218   */\n      tag_182\n      jump\t// in\n    tag_397:\n        /* \"#utility.yul\":24145:24149   */\n      dup7\n        /* \"#utility.yul\":24138:24219   */\n      sstore\n        /* \"#utility.yul\":24007:24229   */\n      pop\n        /* \"#utility.yul\":23342:24229   */\n      jump(tag_394)\n        /* \"#utility.yul\":23372:23990   */\n    tag_395:\n        /* \"#utility.yul\":23424:23428   */\n      0x1f\n        /* \"#utility.yul\":23420:23429   */\n      not\n        /* \"#utility.yul\":23412:23418   */\n      dup5\n        /* \"#utility.yul\":23408:23430   */\n      and\n        /* \"#utility.yul\":23458:23495   */\n      tag_398\n        /* \"#utility.yul\":23490:23494   */\n      dup7\n        /* \"#utility.yul\":23458:23495   */\n      tag_142\n      jump\t// in\n    tag_398:\n        /* \"#utility.yul\":23517:23518   */\n      0x00\n        /* \"#utility.yul\":23531:23739   */\n    tag_399:\n        /* \"#utility.yul\":23545:23552   */\n      dup3\n        /* \"#utility.yul\":23542:23543   */\n      dup2\n        /* \"#utility.yul\":23539:23553   */\n      lt\n        /* \"#utility.yul\":23531:23739   */\n      iszero\n      tag_401\n      jumpi\n        /* \"#utility.yul\":23624:23633   */\n      dup5\n        /* \"#utility.yul\":23619:23622   */\n      dup10\n        /* \"#utility.yul\":23615:23634   */\n      add\n        /* \"#utility.yul\":23609:23635   */\n      mload\n        /* \"#utility.yul\":23601:23607   */\n      dup3\n        /* \"#utility.yul\":23594:23636   */\n      sstore\n        /* \"#utility.yul\":23675:23676   */\n      0x01\n        /* \"#utility.yul\":23667:23673   */\n      dup3\n        /* \"#utility.yul\":23663:23677   */\n      add\n        /* \"#utility.yul\":23653:23677   */\n      swap2\n      pop\n        /* \"#utility.yul\":23722:23724   */\n      0x20\n        /* \"#utility.yul\":23711:23720   */\n      dup6\n        /* \"#utility.yul\":23707:23725   */\n      add\n        /* \"#utility.yul\":23694:23725   */\n      swap5\n      pop\n        /* \"#utility.yul\":23568:23572   */\n      0x20\n        /* \"#utility.yul\":23565:23566   */\n      dup2\n        /* \"#utility.yul\":23561:23573   */\n      add\n        /* \"#utility.yul\":23556:23573   */\n      swap1\n      pop\n        /* \"#utility.yul\":23531:23739   */\n      jump(tag_399)\n    tag_401:\n        /* \"#utility.yul\":23767:23773   */\n      dup7\n        /* \"#utility.yul\":23758:23765   */\n      dup4\n        /* \"#utility.yul\":23755:23774   */\n      lt\n        /* \"#utility.yul\":23752:23931   */\n      iszero\n      tag_402\n      jumpi\n        /* \"#utility.yul\":23825:23834   */\n      dup5\n        /* \"#utility.yul\":23820:23823   */\n      dup10\n        /* \"#utility.yul\":23816:23835   */\n      add\n        /* \"#utility.yul\":23810:23836   */\n      mload\n        /* \"#utility.yul\":23868:23916   */\n      tag_403\n        /* \"#utility.yul\":23910:23914   */\n      0x1f\n        /* \"#utility.yul\":23902:23908   */\n      dup10\n        /* \"#utility.yul\":23898:23915   */\n      and\n        /* \"#utility.yul\":23887:23896   */\n      dup3\n        /* \"#utility.yul\":23868:23916   */\n      tag_181\n      jump\t// in\n    tag_403:\n        /* \"#utility.yul\":23860:23866   */\n      dup4\n        /* \"#utility.yul\":23853:23917   */\n      sstore\n        /* \"#utility.yul\":23775:23931   */\n      pop\n        /* \"#utility.yul\":23752:23931   */\n    tag_402:\n        /* \"#utility.yul\":23977:23978   */\n      0x01\n        /* \"#utility.yul\":23973:23974   */\n      0x02\n        /* \"#utility.yul\":23965:23971   */\n      dup9\n        /* \"#utility.yul\":23961:23975   */\n      mul\n        /* \"#utility.yul\":23957:23979   */\n      add\n        /* \"#utility.yul\":23951:23955   */\n      dup9\n        /* \"#utility.yul\":23944:23980   */\n      sstore\n        /* \"#utility.yul\":23379:23990   */\n      pop\n      pop\n      pop\n        /* \"#utility.yul\":23342:24229   */\n    tag_394:\n      pop\n        /* \"#utility.yul\":22932:24235   */\n      pop\n      pop\n      pop\n        /* \"#utility.yul\":22840:24235   */\n      pop\n      pop\n      jump\t// out\n        /* \"#utility.yul\":24241:24389   */\n    tag_183:\n        /* \"#utility.yul\":24339:24345   */\n      dup3\n        /* \"#utility.yul\":24334:24337   */\n      dup2\n        /* \"#utility.yul\":24329:24332   */\n      dup4\n        /* \"#utility.yul\":24316:24346   */\n      calldatacopy\n        /* \"#utility.yul\":24380:24381   */\n      0x00\n        /* \"#utility.yul\":24371:24377   */\n      dup4\n        /* \"#utility.yul\":24366:24369   */\n      dup4\n        /* \"#utility.yul\":24362:24378   */\n      add\n        /* \"#utility.yul\":24355:24382   */\n      mstore\n        /* \"#utility.yul\":24241:24389   */\n      pop\n      pop\n      pop\n      jump\t// out\n        /* \"#utility.yul\":24395:24497   */\n    tag_184:\n        /* \"#utility.yul\":24436:24442   */\n      0x00\n        /* \"#utility.yul\":24487:24489   */\n      0x1f\n        /* \"#utility.yul\":24483:24490   */\n      not\n        /* \"#utility.yul\":24478:24480   */\n      0x1f\n        /* \"#utility.yul\":24471:24476   */\n      dup4\n        /* \"#utility.yul\":24467:24481   */\n      add\n        /* \"#utility.yul\":24463:24491   */\n      and\n        /* \"#utility.yul\":24453:24491   */\n      swap1\n      pop\n        /* \"#utility.yul\":24395:24497   */\n      swap2\n      swap1\n      pop\n      jump\t// out\n        /* \"#utility.yul\":24527:24844   */\n    tag_185:\n        /* \"#utility.yul\":24625:24628   */\n      0x00\n        /* \"#utility.yul\":24646:24717   */\n      tag_407\n        /* \"#utility.yul\":24710:24716   */\n      dup4\n        /* \"#utility.yul\":24705:24708   */\n      dup6\n        /* \"#utility.yul\":24646:24717   */\n      tag_136\n      jump\t// in\n    tag_407:\n        /* \"#utility.yul\":24639:24717   */\n      swap4\n      pop\n        /* \"#utility.yul\":24727:24783   */\n      tag_408\n        /* \"#utility.yul\":24776:24782   */\n      dup4\n        /* \"#utility.yul\":24771:24774   */\n      dup6\n        /* \"#utility.yul\":24764:24769   */\n      dup5\n        /* \"#utility.yul\":24727:24783   */\n      tag_183\n      jump\t// in\n    tag_408:\n        /* \"#utility.yul\":24808:24837   */\n      tag_409\n        /* \"#utility.yul\":24830:24836   */\n      dup4\n        /* \"#utility.yul\":24808:24837   */\n      tag_184\n      jump\t// in\n    tag_409:\n        /* \"#utility.yul\":24803:24806   */\n      dup5\n        /* \"#utility.yul\":24799:24838   */\n      add\n        /* \"#utility.yul\":24792:24838   */\n      swap1\n      pop\n        /* \"#utility.yul\":24527:24844   */\n      swap4\n      swap3\n      pop\n      pop\n      pop\n      jump\t// out\n        /* \"#utility.yul\":24850:25403   */\n    tag_102:\n        /* \"#utility.yul\":25029:25033   */\n      0x00\n        /* \"#utility.yul\":25067:25069   */\n      0x60\n        /* \"#utility.yul\":25056:25065   */\n      dup3\n        /* \"#utility.yul\":25052:25070   */\n      add\n        /* \"#utility.yul\":25044:25070   */\n      swap1\n      pop\n        /* \"#utility.yul\":25080:25151   */\n      tag_411\n        /* \"#utility.yul\":25148:25149   */\n      0x00\n        /* \"#utility.yul\":25137:25146   */\n      dup4\n        /* \"#utility.yul\":25133:25150   */\n      add\n        /* \"#utility.yul\":25124:25130   */\n      dup8\n        /* \"#utility.yul\":25080:25151   */\n      tag_125\n      jump\t// in\n    tag_411:\n        /* \"#utility.yul\":25198:25207   */\n      dup2\n        /* \"#utility.yul\":25192:25196   */\n      dup2\n        /* \"#utility.yul\":25188:25208   */\n      sub\n        /* \"#utility.yul\":25183:25185   */\n      0x20\n        /* \"#utility.yul\":25172:25181   */\n      dup4\n        /* \"#utility.yul\":25168:25186   */\n      add\n        /* \"#utility.yul\":25161:25209   */\n      mstore\n        /* \"#utility.yul\":25226:25314   */\n      tag_412\n        /* \"#utility.yul\":25309:25313   */\n      dup2\n        /* \"#utility.yul\":25300:25306   */\n      dup6\n        /* \"#utility.yul\":25292:25298   */\n      dup8\n        /* \"#utility.yul\":25226:25314   */\n      tag_185\n      jump\t// in\n    tag_412:\n        /* \"#utility.yul\":25218:25314   */\n      swap1\n      pop\n        /* \"#utility.yul\":25324:25396   */\n      tag_413\n        /* \"#utility.yul\":25392:25394   */\n      0x40\n        /* \"#utility.yul\":25381:25390   */\n      dup4\n        /* \"#utility.yul\":25377:25395   */\n      add\n        /* \"#utility.yul\":25368:25374   */\n      dup5\n        /* \"#utility.yul\":25324:25396   */\n      tag_144\n      jump\t// in\n    tag_413:\n        /* \"#utility.yul\":24850:25403   */\n      swap6\n      swap5\n      pop\n      pop\n      pop\n      pop\n      pop\n      jump\t// out\n        /* \"#utility.yul\":25409:25588   */\n    tag_186:\n        /* \"#utility.yul\":25549:25580   */\n      0x4f6e6c792062757965722063616e2073656e642061207061796d656e74000000\n        /* \"#utility.yul\":25545:25546   */\n      0x00\n        /* \"#utility.yul\":25537:25543   */\n      dup3\n        /* \"#utility.yul\":25533:25547   */\n      add\n        /* \"#utility.yul\":25526:25581   */\n      mstore\n        /* \"#utility.yul\":25409:25588   */\n      pop\n      jump\t// out\n        /* \"#utility.yul\":25594:25960   */\n    tag_187:\n        /* \"#utility.yul\":25736:25739   */\n      0x00\n        /* \"#utility.yul\":25757:25824   */\n      tag_416\n        /* \"#utility.yul\":25821:25823   */\n      0x1d\n        /* \"#utility.yul\":25816:25819   */\n      dup4\n        /* \"#utility.yul\":25757:25824   */\n      tag_136\n      jump\t// in\n    tag_416:\n        /* \"#utility.yul\":25750:25824   */\n      swap2\n      pop\n        /* \"#utility.yul\":25833:25926   */\n      tag_417\n        /* \"#utility.yul\":25922:25925   */\n      dup3\n        /* \"#utility.yul\":25833:25926   */\n      tag_186\n      jump\t// in\n    tag_417:\n        /* \"#utility.yul\":25951:25953   */\n      0x20\n        /* \"#utility.yul\":25946:25949   */\n      dup3\n        /* \"#utility.yul\":25942:25954   */\n      add\n        /* \"#utility.yul\":25935:25954   */\n      swap1\n      pop\n        /* \"#utility.yul\":25594:25960   */\n      swap2\n      swap1\n      pop\n      jump\t// out\n        /* \"#utility.yul\":25966:26385   */\n    tag_106:\n        /* \"#utility.yul\":26132:26136   */\n      0x00\n        /* \"#utility.yul\":26170:26172   */\n      0x20\n        /* \"#utility.yul\":26159:26168   */\n      dup3\n        /* \"#utility.yul\":26155:26173   */\n      add\n        /* \"#utility.yul\":26147:26173   */\n      swap1\n      pop\n        /* \"#utility.yul\":26219:26228   */\n      dup2\n        /* \"#utility.yul\":26213:26217   */\n      dup2\n        /* \"#utility.yul\":26209:26229   */\n      sub\n        /* \"#utility.yul\":26205:26206   */\n      0x00\n        /* \"#utility.yul\":26194:26203   */\n      dup4\n        /* \"#utility.yul\":26190:26207   */\n      add\n        /* \"#utility.yul\":26183:26230   */\n      mstore\n        /* \"#utility.yul\":26247:26378   */\n      tag_419\n        /* \"#utility.yul\":26373:26377   */\n      dup2\n        /* \"#utility.yul\":26247:26378   */\n      tag_187\n      jump\t// in\n    tag_419:\n        /* \"#utility.yul\":26239:26378   */\n      swap1\n      pop\n        /* \"#utility.yul\":25966:26385   */\n      swap2\n      swap1\n      pop\n      jump\t// out\n        /* \"#utility.yul\":26391:26636   */\n    tag_188:\n        /* \"#utility.yul\":26531:26565   */\n      0x4f72646572206d75737420626520636f6e6669726d6564206279207468652063\n        /* \"#utility.yul\":26527:26528   */\n      0x00\n        /* \"#utility.yul\":26519:26525   */\n      dup3\n        /* \"#utility.yul\":26515:26529   */\n      add\n        /* \"#utility.yul\":26508:26566   */\n      mstore\n        /* \"#utility.yul\":26600:26628   */\n      0x726561746f7220696e206f7264657220746f2062652070616964000000000000\n        /* \"#utility.yul\":26595:26597   */\n      0x20\n        /* \"#utility.yul\":26587:26593   */\n      dup3\n        /* \"#utility.yul\":26583:26598   */\n      add\n        /* \"#utility.yul\":26576:26629   */\n      mstore\n        /* \"#utility.yul\":26391:26636   */\n      pop\n      jump\t// out\n        /* \"#utility.yul\":26642:27008   */\n    tag_189:\n        /* \"#utility.yul\":26784:26787   */\n      0x00\n        /* \"#utility.yul\":26805:26872   */\n      tag_422\n        /* \"#utility.yul\":26869:26871   */\n      0x3a\n        /* \"#utility.yul\":26864:26867   */\n      dup4\n        /* \"#utility.yul\":26805:26872   */\n      tag_136\n      jump\t// in\n    tag_422:\n        /* \"#utility.yul\":26798:26872   */\n      swap2\n      pop\n        /* \"#utility.yul\":26881:26974   */\n      tag_423\n        /* \"#utility.yul\":26970:26973   */\n      dup3\n        /* \"#utility.yul\":26881:26974   */\n      tag_188\n      jump\t// in\n    tag_423:\n        /* \"#utility.yul\":26999:27001   */\n      0x40\n        /* \"#utility.yul\":26994:26997   */\n      dup3\n        /* \"#utility.yul\":26990:27002   */\n      add\n        /* \"#utility.yul\":26983:27002   */\n      swap1\n      pop\n        /* \"#utility.yul\":26642:27008   */\n      swap2\n      swap1\n      pop\n      jump\t// out\n        /* \"#utility.yul\":27014:27433   */\n    tag_109:\n        /* \"#utility.yul\":27180:27184   */\n      0x00\n        /* \"#utility.yul\":27218:27220   */\n      0x20\n        /* \"#utility.yul\":27207:27216   */\n      dup3\n        /* \"#utility.yul\":27203:27221   */\n      add\n        /* \"#utility.yul\":27195:27221   */\n      swap1\n      pop\n        /* \"#utility.yul\":27267:27276   */\n      dup2\n        /* \"#utility.yul\":27261:27265   */\n      dup2\n        /* \"#utility.yul\":27257:27277   */\n      sub\n        /* \"#utility.yul\":27253:27254   */\n      0x00\n        /* \"#utility.yul\":27242:27251   */\n      dup4\n        /* \"#utility.yul\":27238:27255   */\n      add\n        /* \"#utility.yul\":27231:27278   */\n      mstore\n        /* \"#utility.yul\":27295:27426   */\n      tag_425\n        /* \"#utility.yul\":27421:27425   */\n      dup2\n        /* \"#utility.yul\":27295:27426   */\n      tag_189\n      jump\t// in\n    tag_425:\n        /* \"#utility.yul\":27287:27426   */\n      swap1\n      pop\n        /* \"#utility.yul\":27014:27433   */\n      swap2\n      swap1\n      pop\n      jump\t// out\n        /* \"#utility.yul\":27439:27615   */\n    tag_190:\n        /* \"#utility.yul\":27579:27607   */\n      0x4f726465722077617320616c7265616479207061696420666f72000000000000\n        /* \"#utility.yul\":27575:27576   */\n      0x00\n        /* \"#utility.yul\":27567:27573   */\n      dup3\n        /* \"#utility.yul\":27563:27577   */\n      add\n        /* \"#utility.yul\":27556:27608   */\n      mstore\n        /* \"#utility.yul\":27439:27615   */\n      pop\n      jump\t// out\n        /* \"#utility.yul\":27621:27987   */\n    tag_191:\n        /* \"#utility.yul\":27763:27766   */\n      0x00\n        /* \"#utility.yul\":27784:27851   */\n      tag_428\n        /* \"#utility.yul\":27848:27850   */\n      0x1a\n        /* \"#utility.yul\":27843:27846   */\n      dup4\n        /* \"#utility.yul\":27784:27851   */\n      tag_136\n      jump\t// in\n    tag_428:\n        /* \"#utility.yul\":27777:27851   */\n      swap2\n      pop\n        /* \"#utility.yul\":27860:27953   */\n      tag_429\n        /* \"#utility.yul\":27949:27952   */\n      dup3\n        /* \"#utility.yul\":27860:27953   */\n      tag_190\n      jump\t// in\n    tag_429:\n        /* \"#utility.yul\":27978:27980   */\n      0x20\n        /* \"#utility.yul\":27973:27976   */\n      dup3\n        /* \"#utility.yul\":27969:27981   */\n      add\n        /* \"#utility.yul\":27962:27981   */\n      swap1\n      pop\n        /* \"#utility.yul\":27621:27987   */\n      swap2\n      swap1\n      pop\n      jump\t// out\n        /* \"#utility.yul\":27993:28412   */\n    tag_112:\n        /* \"#utility.yul\":28159:28163   */\n      0x00\n        /* \"#utility.yul\":28197:28199   */\n      0x20\n        /* \"#utility.yul\":28186:28195   */\n      dup3\n        /* \"#utility.yul\":28182:28200   */\n      add\n        /* \"#utility.yul\":28174:28200   */\n      swap1\n      pop\n        /* \"#utility.yul\":28246:28255   */\n      dup2\n        /* \"#utility.yul\":28240:28244   */\n      dup2\n        /* \"#utility.yul\":28236:28256   */\n      sub\n        /* \"#utility.yul\":28232:28233   */\n      0x00\n        /* \"#utility.yul\":28221:28230   */\n      dup4\n        /* \"#utility.yul\":28217:28234   */\n      add\n        /* \"#utility.yul\":28210:28257   */\n      mstore\n        /* \"#utility.yul\":28274:28405   */\n      tag_431\n        /* \"#utility.yul\":28400:28404   */\n      dup2\n        /* \"#utility.yul\":28274:28405   */\n      tag_191\n      jump\t// in\n    tag_431:\n        /* \"#utility.yul\":28266:28405   */\n      swap1\n      pop\n        /* \"#utility.yul\":27993:28412   */\n      swap2\n      swap1\n      pop\n      jump\t// out\n        /* \"#utility.yul\":28418:28588   */\n    tag_192:\n        /* \"#utility.yul\":28558:28580   */\n      0x53656e6420746865206578616374207072696365000000000000000000000000\n        /* \"#utility.yul\":28554:28555   */\n      0x00\n        /* \"#utility.yul\":28546:28552   */\n      dup3\n        /* \"#utility.yul\":28542:28556   */\n      add\n        /* \"#utility.yul\":28535:28581   */\n      mstore\n        /* \"#utility.yul\":28418:28588   */\n      pop\n      jump\t// out\n        /* \"#utility.yul\":28594:28960   */\n    tag_193:\n        /* \"#utility.yul\":28736:28739   */\n      0x00\n        /* \"#utility.yul\":28757:28824   */\n      tag_434\n        /* \"#utility.yul\":28821:28823   */\n      0x14\n        /* \"#utility.yul\":28816:28819   */\n      dup4\n        /* \"#utility.yul\":28757:28824   */\n      tag_136\n      jump\t// in\n    tag_434:\n        /* \"#utility.yul\":28750:28824   */\n      swap2\n      pop\n        /* \"#utility.yul\":28833:28926   */\n      tag_435\n        /* \"#utility.yul\":28922:28925   */\n      dup3\n        /* \"#utility.yul\":28833:28926   */\n      tag_192\n      jump\t// in\n    tag_435:\n        /* \"#utility.yul\":28951:28953   */\n      0x20\n        /* \"#utility.yul\":28946:28949   */\n      dup3\n        /* \"#utility.yul\":28942:28954   */\n      add\n        /* \"#utility.yul\":28935:28954   */\n      swap1\n      pop\n        /* \"#utility.yul\":28594:28960   */\n      swap2\n      swap1\n      pop\n      jump\t// out\n        /* \"#utility.yul\":28966:29385   */\n    tag_115:\n        /* \"#utility.yul\":29132:29136   */\n      0x00\n        /* \"#utility.yul\":29170:29172   */\n      0x20\n        /* \"#utility.yul\":29159:29168   */\n      dup3\n        /* \"#utility.yul\":29155:29173   */\n      add\n        /* \"#utility.yul\":29147:29173   */\n      swap1\n      pop\n        /* \"#utility.yul\":29219:29228   */\n      dup2\n        /* \"#utility.yul\":29213:29217   */\n      dup2\n        /* \"#utility.yul\":29209:29229   */\n      sub\n        /* \"#utility.yul\":29205:29206   */\n      0x00\n        /* \"#utility.yul\":29194:29203   */\n      dup4\n        /* \"#utility.yul\":29190:29207   */\n      add\n        /* \"#utility.yul\":29183:29230   */\n      mstore\n        /* \"#utility.yul\":29247:29378   */\n      tag_437\n        /* \"#utility.yul\":29373:29377   */\n      dup2\n        /* \"#utility.yul\":29247:29378   */\n      tag_193\n      jump\t// in\n    tag_437:\n        /* \"#utility.yul\":29239:29378   */\n      swap1\n      pop\n        /* \"#utility.yul\":28966:29385   */\n      swap2\n      swap1\n      pop\n      jump\t// out\n        /* \"#utility.yul\":29391:29944   */\n    tag_117:\n        /* \"#utility.yul\":29568:29572   */\n      0x00\n        /* \"#utility.yul\":29606:29609   */\n      0x80\n        /* \"#utility.yul\":29595:29604   */\n      dup3\n        /* \"#utility.yul\":29591:29610   */\n      add\n        /* \"#utility.yul\":29583:29610   */\n      swap1\n      pop\n        /* \"#utility.yul\":29620:29691   */\n      tag_439\n        /* \"#utility.yul\":29688:29689   */\n      0x00\n        /* \"#utility.yul\":29677:29686   */\n      dup4\n        /* \"#utility.yul\":29673:29690   */\n      add\n        /* \"#utility.yul\":29664:29670   */\n      dup8\n        /* \"#utility.yul\":29620:29691   */\n      tag_125\n      jump\t// in\n    tag_439:\n        /* \"#utility.yul\":29701:29773   */\n      tag_440\n        /* \"#utility.yul\":29769:29771   */\n      0x20\n        /* \"#utility.yul\":29758:29767   */\n      dup4\n        /* \"#utility.yul\":29754:29772   */\n      add\n        /* \"#utility.yul\":29745:29751   */\n      dup7\n        /* \"#utility.yul\":29701:29773   */\n      tag_144\n      jump\t// in\n    tag_440:\n        /* \"#utility.yul\":29783:29855   */\n      tag_441\n        /* \"#utility.yul\":29851:29853   */\n      0x40\n        /* \"#utility.yul\":29840:29849   */\n      dup4\n        /* \"#utility.yul\":29836:29854   */\n      add\n        /* \"#utility.yul\":29827:29833   */\n      dup6\n        /* \"#utility.yul\":29783:29855   */\n      tag_144\n      jump\t// in\n    tag_441:\n        /* \"#utility.yul\":29865:29937   */\n      tag_442\n        /* \"#utility.yul\":29933:29935   */\n      0x60\n        /* \"#utility.yul\":29922:29931   */\n      dup4\n        /* \"#utility.yul\":29918:29936   */\n      add\n        /* \"#utility.yul\":29909:29915   */\n      dup5\n        /* \"#utility.yul\":29865:29937   */\n      tag_144\n      jump\t// in\n    tag_442:\n        /* \"#utility.yul\":29391:29944   */\n      swap6\n      swap5\n      pop\n      pop\n      pop\n      pop\n      pop\n      jump\t// out\n        /* \"#utility.yul\":29950:30141   */\n    tag_119:\n        /* \"#utility.yul\":29990:29993   */\n      0x00\n        /* \"#utility.yul\":30009:30029   */\n      tag_444\n        /* \"#utility.yul\":30027:30028   */\n      dup3\n        /* \"#utility.yul\":30009:30029   */\n      tag_129\n      jump\t// in\n    tag_444:\n        /* \"#utility.yul\":30004:30029   */\n      swap2\n      pop\n        /* \"#utility.yul\":30043:30063   */\n      tag_445\n        /* \"#utility.yul\":30061:30062   */\n      dup4\n        /* \"#utility.yul\":30043:30063   */\n      tag_129\n      jump\t// in\n    tag_445:\n        /* \"#utility.yul\":30038:30063   */\n      swap3\n      pop\n        /* \"#utility.yul\":30086:30087   */\n      dup3\n        /* \"#utility.yul\":30083:30084   */\n      dup3\n        /* \"#utility.yul\":30079:30088   */\n      add\n        /* \"#utility.yul\":30072:30088   */\n      swap1\n      pop\n        /* \"#utility.yul\":30107:30110   */\n      dup1\n        /* \"#utility.yul\":30104:30105   */\n      dup3\n        /* \"#utility.yul\":30101:30111   */\n      gt\n        /* \"#utility.yul\":30098:30134   */\n      iszero\n      tag_446\n      jumpi\n        /* \"#utility.yul\":30114:30132   */\n      tag_447\n      tag_166\n      jump\t// in\n    tag_447:\n        /* \"#utility.yul\":30098:30134   */\n    tag_446:\n        /* \"#utility.yul\":29950:30141   */\n      swap3\n      swap2\n      pop\n      pop\n      jump\t// out\n        /* \"#utility.yul\":30147:30589   */\n    tag_122:\n        /* \"#utility.yul\":30296:30300   */\n      0x00\n        /* \"#utility.yul\":30334:30336   */\n      0x60\n        /* \"#utility.yul\":30323:30332   */\n      dup3\n        /* \"#utility.yul\":30319:30337   */\n      add\n        /* \"#utility.yul\":30311:30337   */\n      swap1\n      pop\n        /* \"#utility.yul\":30347:30418   */\n      tag_449\n        /* \"#utility.yul\":30415:30416   */\n      0x00\n        /* \"#utility.yul\":30404:30413   */\n      dup4\n        /* \"#utility.yul\":30400:30417   */\n      add\n        /* \"#utility.yul\":30391:30397   */\n      dup7\n        /* \"#utility.yul\":30347:30418   */\n      tag_144\n      jump\t// in\n    tag_449:\n        /* \"#utility.yul\":30428:30500   */\n      tag_450\n        /* \"#utility.yul\":30496:30498   */\n      0x20\n        /* \"#utility.yul\":30485:30494   */\n      dup4\n        /* \"#utility.yul\":30481:30499   */\n      add\n        /* \"#utility.yul\":30472:30478   */\n      dup6\n        /* \"#utility.yul\":30428:30500   */\n      tag_144\n      jump\t// in\n    tag_450:\n        /* \"#utility.yul\":30510:30582   */\n      tag_451\n        /* \"#utility.yul\":30578:30580   */\n      0x40\n        /* \"#utility.yul\":30567:30576   */\n      dup4\n        /* \"#utility.yul\":30563:30581   */\n      add\n        /* \"#utility.yul\":30554:30560   */\n      dup5\n        /* \"#utility.yul\":30510:30582   */\n      tag_144\n      jump\t// in\n    tag_451:\n        /* \"#utility.yul\":30147:30589   */\n      swap5\n      swap4\n      pop\n      pop\n      pop\n      pop\n      jump\t// out\n\n    auxdata: 0xa26469706673582212205f89f333c97d0b98cbc22a50c91927050fa92559727e78926ae622aff04ad25a64736f6c634300081f0033\n}\n",
				"bytecode": {
					"linkReferences": {},
					"object": "6080604052601e600255348015610014575f5ffd5b50604051611dba380380611dba83398181016040528101906100369190610119565b335f5f6101000a81548173ffffffffffffffffffffffffffffffffffffffff021916908373ffffffffffffffffffffffffffffffffffffffff1602179055508060015f6101000a81548173ffffffffffffffffffffffffffffffffffffffff021916908373ffffffffffffffffffffffffffffffffffffffff16021790555050610144565b5f5ffd5b5f73ffffffffffffffffffffffffffffffffffffffff82169050919050565b5f6100e8826100bf565b9050919050565b6100f8816100de565b8114610102575f5ffd5b50565b5f81519050610113816100ef565b92915050565b5f6020828403121561012e5761012d6100bb565b5b5f61013b84828501610105565b91505092915050565b611c69806101515f395ff3fe60806040526004361061006f575f3560e01c8063224270471161004d57806322427047146100ed57806325fcba48146101155780637150d8ae1461013d57806395787d26146101675761006f565b806302d05d3f14610073578063034684e61461009d57806303c17a38146100c5575b5f5ffd5b34801561007e575f5ffd5b50610087610183565b6040516100949190610da6565b60405180910390f35b3480156100a8575f5ffd5b506100c360048036038101906100be9190610dfa565b6101a7565b005b3480156100d0575f5ffd5b506100eb60048036038101906100e69190610e38565b61032e565b005b3480156100f8575f5ffd5b50610113600480360381019061010e9190610e38565b6105e3565b005b348015610120575f5ffd5b5061013b60048036038101906101369190610ec4565b6108d0565b005b348015610148575f5ffd5b50610151610ab4565b60405161015e9190610da6565b60405180910390f35b610181600480360381019061017c9190610e38565b610ad9565b005b5f5f9054906101000a900473ffffffffffffffffffffffffffffffffffffffff1681565b5f5f9054906101000a900473ffffffffffffffffffffffffffffffffffffffff1673ffffffffffffffffffffffffffffffffffffffff163373ffffffffffffffffffffffffffffffffffffffff1614610235576040517f08c379a000000000000000000000000000000000000000000000000000000000815260040161022c90610f8f565b60405180910390fd5b5f60035f8481526020019081526020015f205f01805461025490610fda565b905003610296576040517f08c379a000000000000000000000000000000000000000000000000000000000815260040161028d90611054565b60405180910390fd5b8060035f8481526020019081526020015f2060010181905550600160035f8481526020019081526020015f206003015f6101000a81548160ff0219169083151502179055507fdf480c4d7c3ab48571fe915e4c61a595582f63727e4e99ed686284892ad073e360035f8481526020019081526020015f205f018284426040516103229493929190611114565b60405180910390a15050565b60015f9054906101000a900473ffffffffffffffffffffffffffffffffffffffff1673ffffffffffffffffffffffffffffffffffffffff163373ffffffffffffffffffffffffffffffffffffffff16146103bd576040517f08c379a00000000000000000000000000000000000000000000000000000000081526004016103b4906111a8565b60405180910390fd5b60035f8281526020019081526020015f2060030160019054906101000a900460ff1661041e576040517f08c379a000000000000000000000000000000000000000000000000000000000815260040161041590611210565b60405180910390fd5b4260035f8381526020019081526020015f20600401541015610475576040517f08c379a000000000000000000000000000000000000000000000000000000000815260040161046c90611278565b60405180910390fd5b5f60035f8381526020019081526020015f206001015490505f60035f8481526020019081526020015f2060030160016101000a81548160ff0219169083151502179055505f60015f9054906101000a900473ffffffffffffffffffffffffffffffffffffffff1673ffffffffffffffffffffffffffffffffffffffff16826040516104ff906112c3565b5f6040518083038185875af1925050503d805f8114610539576040519150601f19603f3d011682016040523d82523d5f602084013e61053e565b606091505b5050905080610582576040517f08c379a000000000000000000000000000000000000000000000000000000000815260040161057990611321565b60405180910390fd5b7f41865e4a290e1b5198a92ed40dbe11cfc8e05a0e9816d9358e68792aaa31d0ef8360015f9054906101000a900473ffffffffffffffffffffffffffffffffffffffff16426040516105d69392919061133f565b60405180910390a1505050565b5f5f9054906101000a900473ffffffffffffffffffffffffffffffffffffffff1673ffffffffffffffffffffffffffffffffffffffff163373ffffffffffffffffffffffffffffffffffffffff1614610671576040517f08c379a0000000000000000000000000000000000000000000000000000000008152600401610668906113be565b60405180910390fd5b60035f8281526020019081526020015f2060030160019054906101000a900460ff166106d2576040517f08c379a00000000000000000000000000000000000000000000000000000000081526004016106c99061144c565b60405180910390fd5b4260035f8381526020019081526020015f20600401541115610729576040517f08c379a0000000000000000000000000000000000000000000000000000000008152600401610720906114da565b60405180910390fd5b5f60035f8381526020019081526020015f206001015490505f60035f8481526020019081526020015f2060030160016101000a81548160ff0219169083151502179055505f5f5f9054906101000a900473ffffffffffffffffffffffffffffffffffffffff1673ffffffffffffffffffffffffffffffffffffffff16826040516107b2906112c3565b5f6040518083038185875af1925050503d805f81146107ec576040519150601f19603f3d011682016040523d82523d5f602084013e6107f1565b606091505b5050905080610835576040517f08c379a000000000000000000000000000000000000000000000000000000000815260040161082c90611542565b60405180910390fd5b7f52d0ae120dc8d9034c7bf60cd9ec0ea66a5c28c16d993d7c1d80411ca949d43b835f5f9054906101000a900473ffffffffffffffffffffffffffffffffffffffff16844260405161088a9493929190611560565b60405180910390a17faf7923d787203dddf63f6a25779f92f39cb2860086e34a30a6a1431faab2420b83426040516108c39291906115a3565b60405180910390a1505050565b60015f9054906101000a900473ffffffffffffffffffffffffffffffffffffffff1673ffffffffffffffffffffffffffffffffffffffff163373ffffffffffffffffffffffffffffffffffffffff161461095f576040517f08c379a000000000000000000000000000000000000000000000000000000000815260040161095690611614565b60405180910390fd5b60045f8154809291906109719061165f565b91905055506040518060c0016040528083838080601f0160208091040260200160405190810160405280939291908181526020018383808284375f81840152601f19601f8201169050808301925050505050505081526020015f81526020014281526020015f151581526020015f151581526020015f81525060035f60045481526020019081526020015f205f820151815f019081610a10919061186b565b5060208201518160010155604082015181600201556060820151816003015f6101000a81548160ff02191690831515021790555060808201518160030160016101000a81548160ff02191690831515021790555060a082015181600401559050507f5789e1b3d4695fa154712feee81fb999f284d3c57e3d8da4ca5b26f35f28673e338383600454604051610aa89493929190611984565b60405180910390a15050565b60015f9054906101000a900473ffffffffffffffffffffffffffffffffffffffff1681565b3373ffffffffffffffffffffffffffffffffffffffff1660015f9054906101000a900473ffffffffffffffffffffffffffffffffffffffff1673ffffffffffffffffffffffffffffffffffffffff1614610b68576040517f08c379a0000000000000000000000000000000000000000000000000000000008152600401610b5f90611a0c565b60405180910390fd5b6001151560035f8381526020019081526020015f206003015f9054906101000a900460ff16151514610bcf576040517f08c379a0000000000000000000000000000000000000000000000000000000008152600401610bc690611a9a565b60405180910390fd5b5f151560035f8381526020019081526020015f2060030160019054906101000a900460ff16151514610c36576040517f08c379a0000000000000000000000000000000000000000000000000000000008152600401610c2d90611b02565b60405180910390fd5b3460035f8381526020019081526020015f206001015414610c8c576040517f08c379a0000000000000000000000000000000000000000000000000000000008152600401610c8390611b6a565b60405180910390fd5b600160035f8381526020019081526020015f2060030160016101000a81548160ff0219169083151502179055507f750e6bbedd4312ada35caa75e07fc0b85f1a6fc9c675e6962aef84691871109733823442604051610cee9493929190611b88565b60405180910390a160025442610d049190611bcb565b60035f8381526020019081526020015f20600401819055507f2c51b956ca3e342f3e03fd4c0d0fbbebbc3c57f0317236c62661f552d3e59468814260025442610d4d9190611bcb565b604051610d5c93929190611bfe565b60405180910390a150565b5f73ffffffffffffffffffffffffffffffffffffffff82169050919050565b5f610d9082610d67565b9050919050565b610da081610d86565b82525050565b5f602082019050610db95f830184610d97565b92915050565b5f5ffd5b5f5ffd5b5f819050919050565b610dd981610dc7565b8114610de3575f5ffd5b50565b5f81359050610df481610dd0565b92915050565b5f5f60408385031215610e1057610e0f610dbf565b5b5f610e1d85828601610de6565b9250506020610e2e85828601610de6565b9150509250929050565b5f60208284031215610e4d57610e4c610dbf565b5b5f610e5a84828501610de6565b91505092915050565b5f5ffd5b5f5ffd5b5f5ffd5b5f5f83601f840112610e8457610e83610e63565b5b8235905067ffffffffffffffff811115610ea157610ea0610e67565b5b602083019150836001820283011115610ebd57610ebc610e6b565b5b9250929050565b5f5f60208385031215610eda57610ed9610dbf565b5b5f83013567ffffffffffffffff811115610ef757610ef6610dc3565b5b610f0385828601610e6f565b92509250509250929050565b5f82825260208201905092915050565b7f4f6e6c792063726561746f722063616e20636f6e6669726d20616e206f7264655f8201527f7200000000000000000000000000000000000000000000000000000000000000602082015250565b5f610f79602183610f0f565b9150610f8482610f1f565b604082019050919050565b5f6020820190508181035f830152610fa681610f6d565b9050919050565b7f4e487b71000000000000000000000000000000000000000000000000000000005f52602260045260245ffd5b5f6002820490506001821680610ff157607f821691505b60208210810361100457611003610fad565b5b50919050565b7f4f7264657220646f6573206e6f742065786973740000000000000000000000005f82015250565b5f61103e601483610f0f565b91506110498261100a565b602082019050919050565b5f6020820190508181035f83015261106b81611032565b9050919050565b5f819050815f5260205f209050919050565b5f815461109081610fda565b61109a8186610f0f565b9450600182165f81146110b457600181146110ca576110fc565b60ff1983168652811515602002860193506110fc565b6110d385611072565b5f5b838110156110f4578154818901526001820191506020810190506110d5565b808801955050505b50505092915050565b61110e81610dc7565b82525050565b5f6080820190508181035f83015261112c8187611084565b905061113b6020830186611105565b6111486040830185611105565b6111556060830184611105565b95945050505050565b7f4f6e6c792062757965722063616e20726566756e6400000000000000000000005f82015250565b5f611192601583610f0f565b915061119d8261115e565b602082019050919050565b5f6020820190508181035f8301526111bf81611186565b9050919050565b7f4f72646572206e6f7420706169640000000000000000000000000000000000005f82015250565b5f6111fa600e83610f0f565b9150611205826111c6565b602082019050919050565b5f6020820190508181035f830152611227816111ee565b9050919050565b7f43616e6e6f7420726566756e642061667465722074686520646561646c696e655f82015250565b5f611262602083610f0f565b915061126d8261122e565b602082019050919050565b5f6020820190508181035f83015261128f81611256565b9050919050565b5f81905092915050565b50565b5f6112ae5f83611296565b91506112b9826112a0565b5f82019050919050565b5f6112cd826112a3565b9150819050919050565b7f526566756e64206661696c6564000000000000000000000000000000000000005f82015250565b5f61130b600d83610f0f565b9150611316826112d7565b602082019050919050565b5f6020820190508181035f830152611338816112ff565b9050919050565b5f6060820190506113525f830186611105565b61135f6020830185610d97565b61136c6040830184611105565b949350505050565b7f4f6e6c792063726561746f722063616e2067657420746865207061796f7574005f82015250565b5f6113a8601f83610f0f565b91506113b382611374565b602082019050919050565b5f6020820190508181035f8301526113d58161139c565b9050919050565b7f4f72646572206d757374206265207061696420696e206f7264657220746f20725f8201527f65636569766520746865207061796f7574000000000000000000000000000000602082015250565b5f611436603183610f0f565b9150611441826113dc565b604082019050919050565b5f6020820190508181035f8301526114638161142a565b9050919050565b7f43616e6e6f74207265636569766520746865207061796f7574206265666f72655f8201527f2074686520646561646c696e6500000000000000000000000000000000000000602082015250565b5f6114c4602d83610f0f565b91506114cf8261146a565b604082019050919050565b5f6020820190508181035f8301526114f1816114b8565b9050919050565b7f5061796f7574206661696c6564000000000000000000000000000000000000005f82015250565b5f61152c600d83610f0f565b9150611537826114f8565b602082019050919050565b5f6020820190508181035f83015261155981611520565b9050919050565b5f6080820190506115735f830187611105565b6115806020830186610d97565b61158d6040830185611105565b61159a6060830184611105565b95945050505050565b5f6040820190506115b65f830185611105565b6115c36020830184611105565b9392505050565b7f4f6e6c792062757965722063616e2073656e6420616e206f72646572000000005f82015250565b5f6115fe601c83610f0f565b9150611609826115ca565b602082019050919050565b5f6020820190508181035f83015261162b816115f2565b9050919050565b7f4e487b71000000000000000000000000000000000000000000000000000000005f52601160045260245ffd5b5f61166982610dc7565b91507fffffffffffffffffffffffffffffffffffffffffffffffffffffffffffffffff820361169b5761169a611632565b5b600182019050919050565b5f81519050919050565b7f4e487b71000000000000000000000000000000000000000000000000000000005f52604160045260245ffd5b5f6020601f8301049050919050565b5f82821b905092915050565b5f600883026117277fffffffffffffffffffffffffffffffffffffffffffffffffffffffffffffffff826116ec565b61173186836116ec565b95508019841693508086168417925050509392505050565b5f819050919050565b5f61176c61176761176284610dc7565b611749565b610dc7565b9050919050565b5f819050919050565b61178583611752565b61179961179182611773565b8484546116f8565b825550505050565b5f5f905090565b6117b06117a1565b6117bb81848461177c565b505050565b5b818110156117de576117d35f826117a8565b6001810190506117c1565b5050565b601f821115611823576117f481611072565b6117fd846116dd565b8101602085101561180c578190505b611820611818856116dd565b8301826117c0565b50505b505050565b5f82821c905092915050565b5f6118435f1984600802611828565b1980831691505092915050565b5f61185b8383611834565b9150826002028217905092915050565b611874826116a6565b67ffffffffffffffff81111561188d5761188c6116b0565b5b6118978254610fda565b6118a28282856117e2565b5f60209050601f8311600181146118d3575f84156118c1578287015190505b6118cb8582611850565b865550611932565b601f1984166118e186611072565b5f5b82811015611908578489015182556001820191506020850194506020810190506118e3565b868310156119255784890151611921601f891682611834565b8355505b6001600288020188555050505b505050505050565b828183375f83830152505050565b5f601f19601f8301169050919050565b5f6119638385610f0f565b935061197083858461193a565b61197983611948565b840190509392505050565b5f6060820190506119975f830187610d97565b81810360208301526119aa818587611958565b90506119b96040830184611105565b95945050505050565b7f4f6e6c792062757965722063616e2073656e642061207061796d656e740000005f82015250565b5f6119f6601d83610f0f565b9150611a01826119c2565b602082019050919050565b5f6020820190508181035f830152611a23816119ea565b9050919050565b7f4f72646572206d75737420626520636f6e6669726d65642062792074686520635f8201527f726561746f7220696e206f7264657220746f2062652070616964000000000000602082015250565b5f611a84603a83610f0f565b9150611a8f82611a2a565b604082019050919050565b5f6020820190508181035f830152611ab181611a78565b9050919050565b7f4f726465722077617320616c7265616479207061696420666f720000000000005f82015250565b5f611aec601a83610f0f565b9150611af782611ab8565b602082019050919050565b5f6020820190508181035f830152611b1981611ae0565b9050919050565b7f53656e64207468652065786163742070726963650000000000000000000000005f82015250565b5f611b54601483610f0f565b9150611b5f82611b20565b602082019050919050565b5f6020820190508181035f830152611b8181611b48565b9050919050565b5f608082019050611b9b5f830187610d97565b611ba86020830186611105565b611bb56040830185611105565b611bc26060830184611105565b95945050505050565b5f611bd582610dc7565b9150611be083610dc7565b9250828201905080821115611bf857611bf7611632565b5b92915050565b5f606082019050611c115f830186611105565b611c1e6020830185611105565b611c2b6040830184611105565b94935050505056fea26469706673582212205f89f333c97d0b98cbc22a50c91927050fa92559727e78926ae622aff04ad25a64736f6c634300081f0033",
					"opcodes": "PUSH1 0x80 PUSH1 0x40 MSTORE PUSH1 0x1E PUSH1 0x2 SSTORE CALLVALUE DUP1 ISZERO PUSH2 0x14 JUMPI PUSH0 PUSH0 REVERT JUMPDEST POP PUSH1 0x40 MLOAD PUSH2 0x1DBA CODESIZE SUB DUP1 PUSH2 0x1DBA DUP4 CODECOPY DUP2 DUP2 ADD PUSH1 0x40 MSTORE DUP2 ADD SWAP1 PUSH2 0x36 SWAP2 SWAP1 PUSH2 0x119 JUMP JUMPDEST CALLER PUSH0 PUSH0 PUSH2 0x100 EXP DUP2 SLOAD DUP2 PUSH20 0xFFFFFFFFFFFFFFFFFFFFFFFFFFFFFFFFFFFFFFFF MUL NOT AND SWAP1 DUP4 PUSH20 0xFFFFFFFFFFFFFFFFFFFFFFFFFFFFFFFFFFFFFFFF AND MUL OR SWAP1 SSTORE POP DUP1 PUSH1 0x1 PUSH0 PUSH2 0x100 EXP DUP2 SLOAD DUP2 PUSH20 0xFFFFFFFFFFFFFFFFFFFFFFFFFFFFFFFFFFFFFFFF MUL NOT AND SWAP1 DUP4 PUSH20 0xFFFFFFFFFFFFFFFFFFFFFFFFFFFFFFFFFFFFFFFF AND MUL OR SWAP1 SSTORE POP POP PUSH2 0x144 JUMP JUMPDEST PUSH0 PUSH0 REVERT JUMPDEST PUSH0 PUSH20 0xFFFFFFFFFFFFFFFFFFFFFFFFFFFFFFFFFFFFFFFF DUP3 AND SWAP1 POP SWAP2 SWAP1 POP JUMP JUMPDEST PUSH0 PUSH2 0xE8 DUP3 PUSH2 0xBF JUMP JUMPDEST SWAP1 POP SWAP2 SWAP1 POP JUMP JUMPDEST PUSH2 0xF8 DUP2 PUSH2 0xDE JUMP JUMPDEST DUP2 EQ PUSH2 0x102 JUMPI PUSH0 PUSH0 REVERT JUMPDEST POP JUMP JUMPDEST PUSH0 DUP2 MLOAD SWAP1 POP PUSH2 0x113 DUP2 PUSH2 0xEF JUMP JUMPDEST SWAP3 SWAP2 POP POP JUMP JUMPDEST PUSH0 PUSH1 0x20 DUP3 DUP5 SUB SLT ISZERO PUSH2 0x12E JUMPI PUSH2 0x12D PUSH2 0xBB JUMP JUMPDEST JUMPDEST PUSH0 PUSH2 0x13B DUP5 DUP3 DUP6 ADD PUSH2 0x105 JUMP JUMPDEST SWAP2 POP POP SWAP3 SWAP2 POP POP JUMP JUMPDEST PUSH2 0x1C69 DUP1 PUSH2 0x151 PUSH0 CODECOPY PUSH0 RETURN INVALID PUSH1 0x80 PUSH1 0x40 MSTORE PUSH1 0x4 CALLDATASIZE LT PUSH2 0x6F JUMPI PUSH0 CALLDATALOAD PUSH1 0xE0 SHR DUP1 PUSH4 0x22427047 GT PUSH2 0x4D JUMPI DUP1 PUSH4 0x22427047 EQ PUSH2 0xED JUMPI DUP1 PUSH4 0x25FCBA48 EQ PUSH2 0x115 JUMPI DUP1 PUSH4 0x7150D8AE EQ PUSH2 0x13D JUMPI DUP1 PUSH4 0x95787D26 EQ PUSH2 0x167 JUMPI PUSH2 0x6F JUMP JUMPDEST DUP1 PUSH4 0x2D05D3F EQ PUSH2 0x73 JUMPI DUP1 PUSH4 0x34684E6 EQ PUSH2 0x9D JUMPI DUP1 PUSH4 0x3C17A38 EQ PUSH2 0xC5 JUMPI JUMPDEST PUSH0 PUSH0 REVERT JUMPDEST CALLVALUE DUP1 ISZERO PUSH2 0x7E JUMPI PUSH0 PUSH0 REVERT JUMPDEST POP PUSH2 0x87 PUSH2 0x183 JUMP JUMPDEST PUSH1 0x40 MLOAD PUSH2 0x94 SWAP2 SWAP1 PUSH2 0xDA6 JUMP JUMPDEST PUSH1 0x40 MLOAD DUP1 SWAP2 SUB SWAP1 RETURN JUMPDEST CALLVALUE DUP1 ISZERO PUSH2 0xA8 JUMPI PUSH0 PUSH0 REVERT JUMPDEST POP PUSH2 0xC3 PUSH1 0x4 DUP1 CALLDATASIZE SUB DUP2 ADD SWAP1 PUSH2 0xBE SWAP2 SWAP1 PUSH2 0xDFA JUMP JUMPDEST PUSH2 0x1A7 JUMP JUMPDEST STOP JUMPDEST CALLVALUE DUP1 ISZERO PUSH2 0xD0 JUMPI PUSH0 PUSH0 REVERT JUMPDEST POP PUSH2 0xEB PUSH1 0x4 DUP1 CALLDATASIZE SUB DUP2 ADD SWAP1 PUSH2 0xE6 SWAP2 SWAP1 PUSH2 0xE38 JUMP JUMPDEST PUSH2 0x32E JUMP JUMPDEST STOP JUMPDEST CALLVALUE DUP1 ISZERO PUSH2 0xF8 JUMPI PUSH0 PUSH0 REVERT JUMPDEST POP PUSH2 0x113 PUSH1 0x4 DUP1 CALLDATASIZE SUB DUP2 ADD SWAP1 PUSH2 0x10E SWAP2 SWAP1 PUSH2 0xE38 JUMP JUMPDEST PUSH2 0x5E3 JUMP JUMPDEST STOP JUMPDEST CALLVALUE DUP1 ISZERO PUSH2 0x120 JUMPI PUSH0 PUSH0 REVERT JUMPDEST POP PUSH2 0x13B PUSH1 0x4 DUP1 CALLDATASIZE SUB DUP2 ADD SWAP1 PUSH2 0x136 SWAP2 SWAP1 PUSH2 0xEC4 JUMP JUMPDEST PUSH2 0x8D0 JUMP JUMPDEST STOP JUMPDEST CALLVALUE DUP1 ISZERO PUSH2 0x148 JUMPI PUSH0 PUSH0 REVERT JUMPDEST POP PUSH2 0x151 PUSH2 0xAB4 JUMP JUMPDEST PUSH1 0x40 MLOAD PUSH2 0x15E SWAP2 SWAP1 PUSH2 0xDA6 JUMP JUMPDEST PUSH1 0x40 MLOAD DUP1 SWAP2 SUB SWAP1 RETURN JUMPDEST PUSH2 0x181 PUSH1 0x4 DUP1 CALLDATASIZE SUB DUP2 ADD SWAP1 PUSH2 0x17C SWAP2 SWAP1 PUSH2 0xE38 JUMP JUMPDEST PUSH2 0xAD9 JUMP JUMPDEST STOP JUMPDEST PUSH0 PUSH0 SWAP1 SLOAD SWAP1 PUSH2 0x100 EXP SWAP1 DIV PUSH20 0xFFFFFFFFFFFFFFFFFFFFFFFFFFFFFFFFFFFFFFFF AND DUP2 JUMP JUMPDEST PUSH0 PUSH0 SWAP1 SLOAD SWAP1 PUSH2 0x100 EXP SWAP1 DIV PUSH20 0xFFFFFFFFFFFFFFFFFFFFFFFFFFFFFFFFFFFFFFFF AND PUSH20 0xFFFFFFFFFFFFFFFFFFFFFFFFFFFFFFFFFFFFFFFF AND CALLER PUSH20 0xFFFFFFFFFFFFFFFFFFFFFFFFFFFFFFFFFFFFFFFF AND EQ PUSH2 0x235 JUMPI PUSH1 0x40 MLOAD PUSH32 0x8C379A000000000000000000000000000000000000000000000000000000000 DUP2 MSTORE PUSH1 0x4 ADD PUSH2 0x22C SWAP1 PUSH2 0xF8F JUMP JUMPDEST PUSH1 0x40 MLOAD DUP1 SWAP2 SUB SWAP1 REVERT JUMPDEST PUSH0 PUSH1 0x3 PUSH0 DUP5 DUP2 MSTORE PUSH1 0x20 ADD SWAP1 DUP2 MSTORE PUSH1 0x20 ADD PUSH0 KECCAK256 PUSH0 ADD DUP1 SLOAD PUSH2 0x254 SWAP1 PUSH2 0xFDA JUMP JUMPDEST SWAP1 POP SUB PUSH2 0x296 JUMPI PUSH1 0x40 MLOAD PUSH32 0x8C379A000000000000000000000000000000000000000000000000000000000 DUP2 MSTORE PUSH1 0x4 ADD PUSH2 0x28D SWAP1 PUSH2 0x1054 JUMP JUMPDEST PUSH1 0x40 MLOAD DUP1 SWAP2 SUB SWAP1 REVERT JUMPDEST DUP1 PUSH1 0x3 PUSH0 DUP5 DUP2 MSTORE PUSH1 0x20 ADD SWAP1 DUP2 MSTORE PUSH1 0x20 ADD PUSH0 KECCAK256 PUSH1 0x1 ADD DUP2 SWAP1 SSTORE POP PUSH1 0x1 PUSH1 0x3 PUSH0 DUP5 DUP2 MSTORE PUSH1 0x20 ADD SWAP1 DUP2 MSTORE PUSH1 0x20 ADD PUSH0 KECCAK256 PUSH1 0x3 ADD PUSH0 PUSH2 0x100 EXP DUP2 SLOAD DUP2 PUSH1 0xFF MUL NOT AND SWAP1 DUP4 ISZERO ISZERO MUL OR SWAP1 SSTORE POP PUSH32 0xDF480C4D7C3AB48571FE915E4C61A595582F63727E4E99ED686284892AD073E3 PUSH1 0x3 PUSH0 DUP5 DUP2 MSTORE PUSH1 0x20 ADD SWAP1 DUP2 MSTORE PUSH1 0x20 ADD PUSH0 KECCAK256 PUSH0 ADD DUP3 DUP5 TIMESTAMP PUSH1 0x40 MLOAD PUSH2 0x322 SWAP5 SWAP4 SWAP3 SWAP2 SWAP1 PUSH2 0x1114 JUMP JUMPDEST PUSH1 0x40 MLOAD DUP1 SWAP2 SUB SWAP1 LOG1 POP POP JUMP JUMPDEST PUSH1 0x1 PUSH0 SWAP1 SLOAD SWAP1 PUSH2 0x100 EXP SWAP1 DIV PUSH20 0xFFFFFFFFFFFFFFFFFFFFFFFFFFFFFFFFFFFFFFFF AND PUSH20 0xFFFFFFFFFFFFFFFFFFFFFFFFFFFFFFFFFFFFFFFF AND CALLER PUSH20 0xFFFFFFFFFFFFFFFFFFFFFFFFFFFFFFFFFFFFFFFF AND EQ PUSH2 0x3BD JUMPI PUSH1 0x40 MLOAD PUSH32 0x8C379A000000000000000000000000000000000000000000000000000000000 DUP2 MSTORE PUSH1 0x4 ADD PUSH2 0x3B4 SWAP1 PUSH2 0x11A8 JUMP JUMPDEST PUSH1 0x40 MLOAD DUP1 SWAP2 SUB SWAP1 REVERT JUMPDEST PUSH1 0x3 PUSH0 DUP3 DUP2 MSTORE PUSH1 0x20 ADD SWAP1 DUP2 MSTORE PUSH1 0x20 ADD PUSH0 KECCAK256 PUSH1 0x3 ADD PUSH1 0x1 SWAP1 SLOAD SWAP1 PUSH2 0x100 EXP SWAP1 DIV PUSH1 0xFF AND PUSH2 0x41E JUMPI PUSH1 0x40 MLOAD PUSH32 0x8C379A000000000000000000000000000000000000000000000000000000000 DUP2 MSTORE PUSH1 0x4 ADD PUSH2 0x415 SWAP1 PUSH2 0x1210 JUMP JUMPDEST PUSH1 0x40 MLOAD DUP1 SWAP2 SUB SWAP1 REVERT JUMPDEST TIMESTAMP PUSH1 0x3 PUSH0 DUP4 DUP2 MSTORE PUSH1 0x20 ADD SWAP1 DUP2 MSTORE PUSH1 0x20 ADD PUSH0 KECCAK256 PUSH1 0x4 ADD SLOAD LT ISZERO PUSH2 0x475 JUMPI PUSH1 0x40 MLOAD PUSH32 0x8C379A000000000000000000000000000000000000000000000000000000000 DUP2 MSTORE PUSH1 0x4 ADD PUSH2 0x46C SWAP1 PUSH2 0x1278 JUMP JUMPDEST PUSH1 0x40 MLOAD DUP1 SWAP2 SUB SWAP1 REVERT JUMPDEST PUSH0 PUSH1 0x3 PUSH0 DUP4 DUP2 MSTORE PUSH1 0x20 ADD SWAP1 DUP2 MSTORE PUSH1 0x20 ADD PUSH0 KECCAK256 PUSH1 0x1 ADD SLOAD SWAP1 POP PUSH0 PUSH1 0x3 PUSH0 DUP5 DUP2 MSTORE PUSH1 0x20 ADD SWAP1 DUP2 MSTORE PUSH1 0x20 ADD PUSH0 KECCAK256 PUSH1 0x3 ADD PUSH1 0x1 PUSH2 0x100 EXP DUP2 SLOAD DUP2 PUSH1 0xFF MUL NOT AND SWAP1 DUP4 ISZERO ISZERO MUL OR SWAP1 SSTORE POP PUSH0 PUSH1 0x1 PUSH0 SWAP1 SLOAD SWAP1 PUSH2 0x100 EXP SWAP1 DIV PUSH20 0xFFFFFFFFFFFFFFFFFFFFFFFFFFFFFFFFFFFFFFFF AND PUSH20 0xFFFFFFFFFFFFFFFFFFFFFFFFFFFFFFFFFFFFFFFF AND DUP3 PUSH1 0x40 MLOAD PUSH2 0x4FF SWAP1 PUSH2 0x12C3 JUMP JUMPDEST PUSH0 PUSH1 0x40 MLOAD DUP1 DUP4 SUB DUP2 DUP6 DUP8 GAS CALL SWAP3 POP POP POP RETURNDATASIZE DUP1 PUSH0 DUP2 EQ PUSH2 0x539 JUMPI PUSH1 0x40 MLOAD SWAP2 POP PUSH1 0x1F NOT PUSH1 0x3F RETURNDATASIZE ADD AND DUP3 ADD PUSH1 0x40 MSTORE RETURNDATASIZE DUP3 MSTORE RETURNDATASIZE PUSH0 PUSH1 0x20 DUP5 ADD RETURNDATACOPY PUSH2 0x53E JUMP JUMPDEST PUSH1 0x60 SWAP2 POP JUMPDEST POP POP SWAP1 POP DUP1 PUSH2 0x582 JUMPI PUSH1 0x40 MLOAD PUSH32 0x8C379A000000000000000000000000000000000000000000000000000000000 DUP2 MSTORE PUSH1 0x4 ADD PUSH2 0x579 SWAP1 PUSH2 0x1321 JUMP JUMPDEST PUSH1 0x40 MLOAD DUP1 SWAP2 SUB SWAP1 REVERT JUMPDEST PUSH32 0x41865E4A290E1B5198A92ED40DBE11CFC8E05A0E9816D9358E68792AAA31D0EF DUP4 PUSH1 0x1 PUSH0 SWAP1 SLOAD SWAP1 PUSH2 0x100 EXP SWAP1 DIV PUSH20 0xFFFFFFFFFFFFFFFFFFFFFFFFFFFFFFFFFFFFFFFF AND TIMESTAMP PUSH1 0x40 MLOAD PUSH2 0x5D6 SWAP4 SWAP3 SWAP2 SWAP1 PUSH2 0x133F JUMP JUMPDEST PUSH1 0x40 MLOAD DUP1 SWAP2 SUB SWAP1 LOG1 POP POP POP JUMP JUMPDEST PUSH0 PUSH0 SWAP1 SLOAD SWAP1 PUSH2 0x100 EXP SWAP1 DIV PUSH20 0xFFFFFFFFFFFFFFFFFFFFFFFFFFFFFFFFFFFFFFFF AND PUSH20 0xFFFFFFFFFFFFFFFFFFFFFFFFFFFFFFFFFFFFFFFF AND CALLER PUSH20 0xFFFFFFFFFFFFFFFFFFFFFFFFFFFFFFFFFFFFFFFF AND EQ PUSH2 0x671 JUMPI PUSH1 0x40 MLOAD PUSH32 0x8C379A000000000000000000000000000000000000000000000000000000000 DUP2 MSTORE PUSH1 0x4 ADD PUSH2 0x668 SWAP1 PUSH2 0x13BE JUMP JUMPDEST PUSH1 0x40 MLOAD DUP1 SWAP2 SUB SWAP1 REVERT JUMPDEST PUSH1 0x3 PUSH0 DUP3 DUP2 MSTORE PUSH1 0x20 ADD SWAP1 DUP2 MSTORE PUSH1 0x20 ADD PUSH0 KECCAK256 PUSH1 0x3 ADD PUSH1 0x1 SWAP1 SLOAD SWAP1 PUSH2 0x100 EXP SWAP1 DIV PUSH1 0xFF AND PUSH2 0x6D2 JUMPI PUSH1 0x40 MLOAD PUSH32 0x8C379A000000000000000000000000000000000000000000000000000000000 DUP2 MSTORE PUSH1 0x4 ADD PUSH2 0x6C9 SWAP1 PUSH2 0x144C JUMP JUMPDEST PUSH1 0x40 MLOAD DUP1 SWAP2 SUB SWAP1 REVERT JUMPDEST TIMESTAMP PUSH1 0x3 PUSH0 DUP4 DUP2 MSTORE PUSH1 0x20 ADD SWAP1 DUP2 MSTORE PUSH1 0x20 ADD PUSH0 KECCAK256 PUSH1 0x4 ADD SLOAD GT ISZERO PUSH2 0x729 JUMPI PUSH1 0x40 MLOAD PUSH32 0x8C379A000000000000000000000000000000000000000000000000000000000 DUP2 MSTORE PUSH1 0x4 ADD PUSH2 0x720 SWAP1 PUSH2 0x14DA JUMP JUMPDEST PUSH1 0x40 MLOAD DUP1 SWAP2 SUB SWAP1 REVERT JUMPDEST PUSH0 PUSH1 0x3 PUSH0 DUP4 DUP2 MSTORE PUSH1 0x20 ADD SWAP1 DUP2 MSTORE PUSH1 0x20 ADD PUSH0 KECCAK256 PUSH1 0x1 ADD SLOAD SWAP1 POP PUSH0 PUSH1 0x3 PUSH0 DUP5 DUP2 MSTORE PUSH1 0x20 ADD SWAP1 DUP2 MSTORE PUSH1 0x20 ADD PUSH0 KECCAK256 PUSH1 0x3 ADD PUSH1 0x1 PUSH2 0x100 EXP DUP2 SLOAD DUP2 PUSH1 0xFF MUL NOT AND SWAP1 DUP4 ISZERO ISZERO MUL OR SWAP1 SSTORE POP PUSH0 PUSH0 PUSH0 SWAP1 SLOAD SWAP1 PUSH2 0x100 EXP SWAP1 DIV PUSH20 0xFFFFFFFFFFFFFFFFFFFFFFFFFFFFFFFFFFFFFFFF AND PUSH20 0xFFFFFFFFFFFFFFFFFFFFFFFFFFFFFFFFFFFFFFFF AND DUP3 PUSH1 0x40 MLOAD PUSH2 0x7B2 SWAP1 PUSH2 0x12C3 JUMP JUMPDEST PUSH0 PUSH1 0x40 MLOAD DUP1 DUP4 SUB DUP2 DUP6 DUP8 GAS CALL SWAP3 POP POP POP RETURNDATASIZE DUP1 PUSH0 DUP2 EQ PUSH2 0x7EC JUMPI PUSH1 0x40 MLOAD SWAP2 POP PUSH1 0x1F NOT PUSH1 0x3F RETURNDATASIZE ADD AND DUP3 ADD PUSH1 0x40 MSTORE RETURNDATASIZE DUP3 MSTORE RETURNDATASIZE PUSH0 PUSH1 0x20 DUP5 ADD RETURNDATACOPY PUSH2 0x7F1 JUMP JUMPDEST PUSH1 0x60 SWAP2 POP JUMPDEST POP POP SWAP1 POP DUP1 PUSH2 0x835 JUMPI PUSH1 0x40 MLOAD PUSH32 0x8C379A000000000000000000000000000000000000000000000000000000000 DUP2 MSTORE PUSH1 0x4 ADD PUSH2 0x82C SWAP1 PUSH2 0x1542 JUMP JUMPDEST PUSH1 0x40 MLOAD DUP1 SWAP2 SUB SWAP1 REVERT JUMPDEST PUSH32 0x52D0AE120DC8D9034C7BF60CD9EC0EA66A5C28C16D993D7C1D80411CA949D43B DUP4 PUSH0 PUSH0 SWAP1 SLOAD SWAP1 PUSH2 0x100 EXP SWAP1 DIV PUSH20 0xFFFFFFFFFFFFFFFFFFFFFFFFFFFFFFFFFFFFFFFF AND DUP5 TIMESTAMP PUSH1 0x40 MLOAD PUSH2 0x88A SWAP5 SWAP4 SWAP3 SWAP2 SWAP1 PUSH2 0x1560 JUMP JUMPDEST PUSH1 0x40 MLOAD DUP1 SWAP2 SUB SWAP1 LOG1 PUSH32 0xAF7923D787203DDDF63F6A25779F92F39CB2860086E34A30A6A1431FAAB2420B DUP4 TIMESTAMP PUSH1 0x40 MLOAD PUSH2 0x8C3 SWAP3 SWAP2 SWAP1 PUSH2 0x15A3 JUMP JUMPDEST PUSH1 0x40 MLOAD DUP1 SWAP2 SUB SWAP1 LOG1 POP POP POP JUMP JUMPDEST PUSH1 0x1 PUSH0 SWAP1 SLOAD SWAP1 PUSH2 0x100 EXP SWAP1 DIV PUSH20 0xFFFFFFFFFFFFFFFFFFFFFFFFFFFFFFFFFFFFFFFF AND PUSH20 0xFFFFFFFFFFFFFFFFFFFFFFFFFFFFFFFFFFFFFFFF AND CALLER PUSH20 0xFFFFFFFFFFFFFFFFFFFFFFFFFFFFFFFFFFFFFFFF AND EQ PUSH2 0x95F JUMPI PUSH1 0x40 MLOAD PUSH32 0x8C379A000000000000000000000000000000000000000000000000000000000 DUP2 MSTORE PUSH1 0x4 ADD PUSH2 0x956 SWAP1 PUSH2 0x1614 JUMP JUMPDEST PUSH1 0x40 MLOAD DUP1 SWAP2 SUB SWAP1 REVERT JUMPDEST PUSH1 0x4 PUSH0 DUP2 SLOAD DUP1 SWAP3 SWAP2 SWAP1 PUSH2 0x971 SWAP1 PUSH2 0x165F JUMP JUMPDEST SWAP2 SWAP1 POP SSTORE POP PUSH1 0x40 MLOAD DUP1 PUSH1 0xC0 ADD PUSH1 0x40 MSTORE DUP1 DUP4 DUP4 DUP1 DUP1 PUSH1 0x1F ADD PUSH1 0x20 DUP1 SWAP2 DIV MUL PUSH1 0x20 ADD PUSH1 0x40 MLOAD SWAP1 DUP2 ADD PUSH1 0x40 MSTORE DUP1 SWAP4 SWAP3 SWAP2 SWAP1 DUP2 DUP2 MSTORE PUSH1 0x20 ADD DUP4 DUP4 DUP1 DUP3 DUP5 CALLDATACOPY PUSH0 DUP2 DUP5 ADD MSTORE PUSH1 0x1F NOT PUSH1 0x1F DUP3 ADD AND SWAP1 POP DUP1 DUP4 ADD SWAP3 POP POP POP POP POP POP POP DUP2 MSTORE PUSH1 0x20 ADD PUSH0 DUP2 MSTORE PUSH1 0x20 ADD TIMESTAMP DUP2 MSTORE PUSH1 0x20 ADD PUSH0 ISZERO ISZERO DUP2 MSTORE PUSH1 0x20 ADD PUSH0 ISZERO ISZERO DUP2 MSTORE PUSH1 0x20 ADD PUSH0 DUP2 MSTORE POP PUSH1 0x3 PUSH0 PUSH1 0x4 SLOAD DUP2 MSTORE PUSH1 0x20 ADD SWAP1 DUP2 MSTORE PUSH1 0x20 ADD PUSH0 KECCAK256 PUSH0 DUP3 ADD MLOAD DUP2 PUSH0 ADD SWAP1 DUP2 PUSH2 0xA10 SWAP2 SWAP1 PUSH2 0x186B JUMP JUMPDEST POP PUSH1 0x20 DUP3 ADD MLOAD DUP2 PUSH1 0x1 ADD SSTORE PUSH1 0x40 DUP3 ADD MLOAD DUP2 PUSH1 0x2 ADD SSTORE PUSH1 0x60 DUP3 ADD MLOAD DUP2 PUSH1 0x3 ADD PUSH0 PUSH2 0x100 EXP DUP2 SLOAD DUP2 PUSH1 0xFF MUL NOT AND SWAP1 DUP4 ISZERO ISZERO MUL OR SWAP1 SSTORE POP PUSH1 0x80 DUP3 ADD MLOAD DUP2 PUSH1 0x3 ADD PUSH1 0x1 PUSH2 0x100 EXP DUP2 SLOAD DUP2 PUSH1 0xFF MUL NOT AND SWAP1 DUP4 ISZERO ISZERO MUL OR SWAP1 SSTORE POP PUSH1 0xA0 DUP3 ADD MLOAD DUP2 PUSH1 0x4 ADD SSTORE SWAP1 POP POP PUSH32 0x5789E1B3D4695FA154712FEEE81FB999F284D3C57E3D8DA4CA5B26F35F28673E CALLER DUP4 DUP4 PUSH1 0x4 SLOAD PUSH1 0x40 MLOAD PUSH2 0xAA8 SWAP5 SWAP4 SWAP3 SWAP2 SWAP1 PUSH2 0x1984 JUMP JUMPDEST PUSH1 0x40 MLOAD DUP1 SWAP2 SUB SWAP1 LOG1 POP POP JUMP JUMPDEST PUSH1 0x1 PUSH0 SWAP1 SLOAD SWAP1 PUSH2 0x100 EXP SWAP1 DIV PUSH20 0xFFFFFFFFFFFFFFFFFFFFFFFFFFFFFFFFFFFFFFFF AND DUP2 JUMP JUMPDEST CALLER PUSH20 0xFFFFFFFFFFFFFFFFFFFFFFFFFFFFFFFFFFFFFFFF AND PUSH1 0x1 PUSH0 SWAP1 SLOAD SWAP1 PUSH2 0x100 EXP SWAP1 DIV PUSH20 0xFFFFFFFFFFFFFFFFFFFFFFFFFFFFFFFFFFFFFFFF AND PUSH20 0xFFFFFFFFFFFFFFFFFFFFFFFFFFFFFFFFFFFFFFFF AND EQ PUSH2 0xB68 JUMPI PUSH1 0x40 MLOAD PUSH32 0x8C379A000000000000000000000000000000000000000000000000000000000 DUP2 MSTORE PUSH1 0x4 ADD PUSH2 0xB5F SWAP1 PUSH2 0x1A0C JUMP JUMPDEST PUSH1 0x40 MLOAD DUP1 SWAP2 SUB SWAP1 REVERT JUMPDEST PUSH1 0x1 ISZERO ISZERO PUSH1 0x3 PUSH0 DUP4 DUP2 MSTORE PUSH1 0x20 ADD SWAP1 DUP2 MSTORE PUSH1 0x20 ADD PUSH0 KECCAK256 PUSH1 0x3 ADD PUSH0 SWAP1 SLOAD SWAP1 PUSH2 0x100 EXP SWAP1 DIV PUSH1 0xFF AND ISZERO ISZERO EQ PUSH2 0xBCF JUMPI PUSH1 0x40 MLOAD PUSH32 0x8C379A000000000000000000000000000000000000000000000000000000000 DUP2 MSTORE PUSH1 0x4 ADD PUSH2 0xBC6 SWAP1 PUSH2 0x1A9A JUMP JUMPDEST PUSH1 0x40 MLOAD DUP1 SWAP2 SUB SWAP1 REVERT JUMPDEST PUSH0 ISZERO ISZERO PUSH1 0x3 PUSH0 DUP4 DUP2 MSTORE PUSH1 0x20 ADD SWAP1 DUP2 MSTORE PUSH1 0x20 ADD PUSH0 KECCAK256 PUSH1 0x3 ADD PUSH1 0x1 SWAP1 SLOAD SWAP1 PUSH2 0x100 EXP SWAP1 DIV PUSH1 0xFF AND ISZERO ISZERO EQ PUSH2 0xC36 JUMPI PUSH1 0x40 MLOAD PUSH32 0x8C379A000000000000000000000000000000000000000000000000000000000 DUP2 MSTORE PUSH1 0x4 ADD PUSH2 0xC2D SWAP1 PUSH2 0x1B02 JUMP JUMPDEST PUSH1 0x40 MLOAD DUP1 SWAP2 SUB SWAP1 REVERT JUMPDEST CALLVALUE PUSH1 0x3 PUSH0 DUP4 DUP2 MSTORE PUSH1 0x20 ADD SWAP1 DUP2 MSTORE PUSH1 0x20 ADD PUSH0 KECCAK256 PUSH1 0x1 ADD SLOAD EQ PUSH2 0xC8C JUMPI PUSH1 0x40 MLOAD PUSH32 0x8C379A000000000000000000000000000000000000000000000000000000000 DUP2 MSTORE PUSH1 0x4 ADD PUSH2 0xC83 SWAP1 PUSH2 0x1B6A JUMP JUMPDEST PUSH1 0x40 MLOAD DUP1 SWAP2 SUB SWAP1 REVERT JUMPDEST PUSH1 0x1 PUSH1 0x3 PUSH0 DUP4 DUP2 MSTORE PUSH1 0x20 ADD SWAP1 DUP2 MSTORE PUSH1 0x20 ADD PUSH0 KECCAK256 PUSH1 0x3 ADD PUSH1 0x1 PUSH2 0x100 EXP DUP2 SLOAD DUP2 PUSH1 0xFF MUL NOT AND SWAP1 DUP4 ISZERO ISZERO MUL OR SWAP1 SSTORE POP PUSH32 0x750E6BBEDD4312ADA35CAA75E07FC0B85F1A6FC9C675E6962AEF846918711097 CALLER DUP3 CALLVALUE TIMESTAMP PUSH1 0x40 MLOAD PUSH2 0xCEE SWAP5 SWAP4 SWAP3 SWAP2 SWAP1 PUSH2 0x1B88 JUMP JUMPDEST PUSH1 0x40 MLOAD DUP1 SWAP2 SUB SWAP1 LOG1 PUSH1 0x2 SLOAD TIMESTAMP PUSH2 0xD04 SWAP2 SWAP1 PUSH2 0x1BCB JUMP JUMPDEST PUSH1 0x3 PUSH0 DUP4 DUP2 MSTORE PUSH1 0x20 ADD SWAP1 DUP2 MSTORE PUSH1 0x20 ADD PUSH0 KECCAK256 PUSH1 0x4 ADD DUP2 SWAP1 SSTORE POP PUSH32 0x2C51B956CA3E342F3E03FD4C0D0FBBEBBC3C57F0317236C62661F552D3E59468 DUP2 TIMESTAMP PUSH1 0x2 SLOAD TIMESTAMP PUSH2 0xD4D SWAP2 SWAP1 PUSH2 0x1BCB JUMP JUMPDEST PUSH1 0x40 MLOAD PUSH2 0xD5C SWAP4 SWAP3 SWAP2 SWAP1 PUSH2 0x1BFE JUMP JUMPDEST PUSH1 0x40 MLOAD DUP1 SWAP2 SUB SWAP1 LOG1 POP JUMP JUMPDEST PUSH0 PUSH20 0xFFFFFFFFFFFFFFFFFFFFFFFFFFFFFFFFFFFFFFFF DUP3 AND SWAP1 POP SWAP2 SWAP1 POP JUMP JUMPDEST PUSH0 PUSH2 0xD90 DUP3 PUSH2 0xD67 JUMP JUMPDEST SWAP1 POP SWAP2 SWAP1 POP JUMP JUMPDEST PUSH2 0xDA0 DUP2 PUSH2 0xD86 JUMP JUMPDEST DUP3 MSTORE POP POP JUMP JUMPDEST PUSH0 PUSH1 0x20 DUP3 ADD SWAP1 POP PUSH2 0xDB9 PUSH0 DUP4 ADD DUP5 PUSH2 0xD97 JUMP JUMPDEST SWAP3 SWAP2 POP POP JUMP JUMPDEST PUSH0 PUSH0 REVERT JUMPDEST PUSH0 PUSH0 REVERT JUMPDEST PUSH0 DUP2 SWAP1 POP SWAP2 SWAP1 POP JUMP JUMPDEST PUSH2 0xDD9 DUP2 PUSH2 0xDC7 JUMP JUMPDEST DUP2 EQ PUSH2 0xDE3 JUMPI PUSH0 PUSH0 REVERT JUMPDEST POP JUMP JUMPDEST PUSH0 DUP2 CALLDATALOAD SWAP1 POP PUSH2 0xDF4 DUP2 PUSH2 0xDD0 JUMP JUMPDEST SWAP3 SWAP2 POP POP JUMP JUMPDEST PUSH0 PUSH0 PUSH1 0x40 DUP4 DUP6 SUB SLT ISZERO PUSH2 0xE10 JUMPI PUSH2 0xE0F PUSH2 0xDBF JUMP JUMPDEST JUMPDEST PUSH0 PUSH2 0xE1D DUP6 DUP3 DUP7 ADD PUSH2 0xDE6 JUMP JUMPDEST SWAP3 POP POP PUSH1 0x20 PUSH2 0xE2E DUP6 DUP3 DUP7 ADD PUSH2 0xDE6 JUMP JUMPDEST SWAP2 POP POP SWAP3 POP SWAP3 SWAP1 POP JUMP JUMPDEST PUSH0 PUSH1 0x20 DUP3 DUP5 SUB SLT ISZERO PUSH2 0xE4D JUMPI PUSH2 0xE4C PUSH2 0xDBF JUMP JUMPDEST JUMPDEST PUSH0 PUSH2 0xE5A DUP5 DUP3 DUP6 ADD PUSH2 0xDE6 JUMP JUMPDEST SWAP2 POP POP SWAP3 SWAP2 POP POP JUMP JUMPDEST PUSH0 PUSH0 REVERT JUMPDEST PUSH0 PUSH0 REVERT JUMPDEST PUSH0 PUSH0 REVERT JUMPDEST PUSH0 PUSH0 DUP4 PUSH1 0x1F DUP5 ADD SLT PUSH2 0xE84 JUMPI PUSH2 0xE83 PUSH2 0xE63 JUMP JUMPDEST JUMPDEST DUP3 CALLDATALOAD SWAP1 POP PUSH8 0xFFFFFFFFFFFFFFFF DUP2 GT ISZERO PUSH2 0xEA1 JUMPI PUSH2 0xEA0 PUSH2 0xE67 JUMP JUMPDEST JUMPDEST PUSH1 0x20 DUP4 ADD SWAP2 POP DUP4 PUSH1 0x1 DUP3 MUL DUP4 ADD GT ISZERO PUSH2 0xEBD JUMPI PUSH2 0xEBC PUSH2 0xE6B JUMP JUMPDEST JUMPDEST SWAP3 POP SWAP3 SWAP1 POP JUMP JUMPDEST PUSH0 PUSH0 PUSH1 0x20 DUP4 DUP6 SUB SLT ISZERO PUSH2 0xEDA JUMPI PUSH2 0xED9 PUSH2 0xDBF JUMP JUMPDEST JUMPDEST PUSH0 DUP4 ADD CALLDATALOAD PUSH8 0xFFFFFFFFFFFFFFFF DUP2 GT ISZERO PUSH2 0xEF7 JUMPI PUSH2 0xEF6 PUSH2 0xDC3 JUMP JUMPDEST JUMPDEST PUSH2 0xF03 DUP6 DUP3 DUP7 ADD PUSH2 0xE6F JUMP JUMPDEST SWAP3 POP SWAP3 POP POP SWAP3 POP SWAP3 SWAP1 POP JUMP JUMPDEST PUSH0 DUP3 DUP3 MSTORE PUSH1 0x20 DUP3 ADD SWAP1 POP SWAP3 SWAP2 POP POP JUMP JUMPDEST PUSH32 0x4F6E6C792063726561746F722063616E20636F6E6669726D20616E206F726465 PUSH0 DUP3 ADD MSTORE PUSH32 0x7200000000000000000000000000000000000000000000000000000000000000 PUSH1 0x20 DUP3 ADD MSTORE POP JUMP JUMPDEST PUSH0 PUSH2 0xF79 PUSH1 0x21 DUP4 PUSH2 0xF0F JUMP JUMPDEST SWAP2 POP PUSH2 0xF84 DUP3 PUSH2 0xF1F JUMP JUMPDEST PUSH1 0x40 DUP3 ADD SWAP1 POP SWAP2 SWAP1 POP JUMP JUMPDEST PUSH0 PUSH1 0x20 DUP3 ADD SWAP1 POP DUP2 DUP2 SUB PUSH0 DUP4 ADD MSTORE PUSH2 0xFA6 DUP2 PUSH2 0xF6D JUMP JUMPDEST SWAP1 POP SWAP2 SWAP1 POP JUMP JUMPDEST PUSH32 0x4E487B7100000000000000000000000000000000000000000000000000000000 PUSH0 MSTORE PUSH1 0x22 PUSH1 0x4 MSTORE PUSH1 0x24 PUSH0 REVERT JUMPDEST PUSH0 PUSH1 0x2 DUP3 DIV SWAP1 POP PUSH1 0x1 DUP3 AND DUP1 PUSH2 0xFF1 JUMPI PUSH1 0x7F DUP3 AND SWAP2 POP JUMPDEST PUSH1 0x20 DUP3 LT DUP2 SUB PUSH2 0x1004 JUMPI PUSH2 0x1003 PUSH2 0xFAD JUMP JUMPDEST JUMPDEST POP SWAP2 SWAP1 POP JUMP JUMPDEST PUSH32 0x4F7264657220646F6573206E6F74206578697374000000000000000000000000 PUSH0 DUP3 ADD MSTORE POP JUMP JUMPDEST PUSH0 PUSH2 0x103E PUSH1 0x14 DUP4 PUSH2 0xF0F JUMP JUMPDEST SWAP2 POP PUSH2 0x1049 DUP3 PUSH2 0x100A JUMP JUMPDEST PUSH1 0x20 DUP3 ADD SWAP1 POP SWAP2 SWAP1 POP JUMP JUMPDEST PUSH0 PUSH1 0x20 DUP3 ADD SWAP1 POP DUP2 DUP2 SUB PUSH0 DUP4 ADD MSTORE PUSH2 0x106B DUP2 PUSH2 0x1032 JUMP JUMPDEST SWAP1 POP SWAP2 SWAP1 POP JUMP JUMPDEST PUSH0 DUP2 SWAP1 POP DUP2 PUSH0 MSTORE PUSH1 0x20 PUSH0 KECCAK256 SWAP1 POP SWAP2 SWAP1 POP JUMP JUMPDEST PUSH0 DUP2 SLOAD PUSH2 0x1090 DUP2 PUSH2 0xFDA JUMP JUMPDEST PUSH2 0x109A DUP2 DUP7 PUSH2 0xF0F JUMP JUMPDEST SWAP5 POP PUSH1 0x1 DUP3 AND PUSH0 DUP2 EQ PUSH2 0x10B4 JUMPI PUSH1 0x1 DUP2 EQ PUSH2 0x10CA JUMPI PUSH2 0x10FC JUMP JUMPDEST PUSH1 0xFF NOT DUP4 AND DUP7 MSTORE DUP2 ISZERO ISZERO PUSH1 0x20 MUL DUP7 ADD SWAP4 POP PUSH2 0x10FC JUMP JUMPDEST PUSH2 0x10D3 DUP6 PUSH2 0x1072 JUMP JUMPDEST PUSH0 JUMPDEST DUP4 DUP2 LT ISZERO PUSH2 0x10F4 JUMPI DUP2 SLOAD DUP2 DUP10 ADD MSTORE PUSH1 0x1 DUP3 ADD SWAP2 POP PUSH1 0x20 DUP2 ADD SWAP1 POP PUSH2 0x10D5 JUMP JUMPDEST DUP1 DUP9 ADD SWAP6 POP POP POP JUMPDEST POP POP POP SWAP3 SWAP2 POP POP JUMP JUMPDEST PUSH2 0x110E DUP2 PUSH2 0xDC7 JUMP JUMPDEST DUP3 MSTORE POP POP JUMP JUMPDEST PUSH0 PUSH1 0x80 DUP3 ADD SWAP1 POP DUP2 DUP2 SUB PUSH0 DUP4 ADD MSTORE PUSH2 0x112C DUP2 DUP8 PUSH2 0x1084 JUMP JUMPDEST SWAP1 POP PUSH2 0x113B PUSH1 0x20 DUP4 ADD DUP7 PUSH2 0x1105 JUMP JUMPDEST PUSH2 0x1148 PUSH1 0x40 DUP4 ADD DUP6 PUSH2 0x1105 JUMP JUMPDEST PUSH2 0x1155 PUSH1 0x60 DUP4 ADD DUP5 PUSH2 0x1105 JUMP JUMPDEST SWAP6 SWAP5 POP POP POP POP POP JUMP JUMPDEST PUSH32 0x4F6E6C792062757965722063616E20726566756E640000000000000000000000 PUSH0 DUP3 ADD MSTORE POP JUMP JUMPDEST PUSH0 PUSH2 0x1192 PUSH1 0x15 DUP4 PUSH2 0xF0F JUMP JUMPDEST SWAP2 POP PUSH2 0x119D DUP3 PUSH2 0x115E JUMP JUMPDEST PUSH1 0x20 DUP3 ADD SWAP1 POP SWAP2 SWAP1 POP JUMP JUMPDEST PUSH0 PUSH1 0x20 DUP3 ADD SWAP1 POP DUP2 DUP2 SUB PUSH0 DUP4 ADD MSTORE PUSH2 0x11BF DUP2 PUSH2 0x1186 JUMP JUMPDEST SWAP1 POP SWAP2 SWAP1 POP JUMP JUMPDEST PUSH32 0x4F72646572206E6F742070616964000000000000000000000000000000000000 PUSH0 DUP3 ADD MSTORE POP JUMP JUMPDEST PUSH0 PUSH2 0x11FA PUSH1 0xE DUP4 PUSH2 0xF0F JUMP JUMPDEST SWAP2 POP PUSH2 0x1205 DUP3 PUSH2 0x11C6 JUMP JUMPDEST PUSH1 0x20 DUP3 ADD SWAP1 POP SWAP2 SWAP1 POP JUMP JUMPDEST PUSH0 PUSH1 0x20 DUP3 ADD SWAP1 POP DUP2 DUP2 SUB PUSH0 DUP4 ADD MSTORE PUSH2 0x1227 DUP2 PUSH2 0x11EE JUMP JUMPDEST SWAP1 POP SWAP2 SWAP1 POP JUMP JUMPDEST PUSH32 0x43616E6E6F7420726566756E642061667465722074686520646561646C696E65 PUSH0 DUP3 ADD MSTORE POP JUMP JUMPDEST PUSH0 PUSH2 0x1262 PUSH1 0x20 DUP4 PUSH2 0xF0F JUMP JUMPDEST SWAP2 POP PUSH2 0x126D DUP3 PUSH2 0x122E JUMP JUMPDEST PUSH1 0x20 DUP3 ADD SWAP1 POP SWAP2 SWAP1 POP JUMP JUMPDEST PUSH0 PUSH1 0x20 DUP3 ADD SWAP1 POP DUP2 DUP2 SUB PUSH0 DUP4 ADD MSTORE PUSH2 0x128F DUP2 PUSH2 0x1256 JUMP JUMPDEST SWAP1 POP SWAP2 SWAP1 POP JUMP JUMPDEST PUSH0 DUP2 SWAP1 POP SWAP3 SWAP2 POP POP JUMP JUMPDEST POP JUMP JUMPDEST PUSH0 PUSH2 0x12AE PUSH0 DUP4 PUSH2 0x1296 JUMP JUMPDEST SWAP2 POP PUSH2 0x12B9 DUP3 PUSH2 0x12A0 JUMP JUMPDEST PUSH0 DUP3 ADD SWAP1 POP SWAP2 SWAP1 POP JUMP JUMPDEST PUSH0 PUSH2 0x12CD DUP3 PUSH2 0x12A3 JUMP JUMPDEST SWAP2 POP DUP2 SWAP1 POP SWAP2 SWAP1 POP JUMP JUMPDEST PUSH32 0x526566756E64206661696C656400000000000000000000000000000000000000 PUSH0 DUP3 ADD MSTORE POP JUMP JUMPDEST PUSH0 PUSH2 0x130B PUSH1 0xD DUP4 PUSH2 0xF0F JUMP JUMPDEST SWAP2 POP PUSH2 0x1316 DUP3 PUSH2 0x12D7 JUMP JUMPDEST PUSH1 0x20 DUP3 ADD SWAP1 POP SWAP2 SWAP1 POP JUMP JUMPDEST PUSH0 PUSH1 0x20 DUP3 ADD SWAP1 POP DUP2 DUP2 SUB PUSH0 DUP4 ADD MSTORE PUSH2 0x1338 DUP2 PUSH2 0x12FF JUMP JUMPDEST SWAP1 POP SWAP2 SWAP1 POP JUMP JUMPDEST PUSH0 PUSH1 0x60 DUP3 ADD SWAP1 POP PUSH2 0x1352 PUSH0 DUP4 ADD DUP7 PUSH2 0x1105 JUMP JUMPDEST PUSH2 0x135F PUSH1 0x20 DUP4 ADD DUP6 PUSH2 0xD97 JUMP JUMPDEST PUSH2 0x136C PUSH1 0x40 DUP4 ADD DUP5 PUSH2 0x1105 JUMP JUMPDEST SWAP5 SWAP4 POP POP POP POP JUMP JUMPDEST PUSH32 0x4F6E6C792063726561746F722063616E2067657420746865207061796F757400 PUSH0 DUP3 ADD MSTORE POP JUMP JUMPDEST PUSH0 PUSH2 0x13A8 PUSH1 0x1F DUP4 PUSH2 0xF0F JUMP JUMPDEST SWAP2 POP PUSH2 0x13B3 DUP3 PUSH2 0x1374 JUMP JUMPDEST PUSH1 0x20 DUP3 ADD SWAP1 POP SWAP2 SWAP1 POP JUMP JUMPDEST PUSH0 PUSH1 0x20 DUP3 ADD SWAP1 POP DUP2 DUP2 SUB PUSH0 DUP4 ADD MSTORE PUSH2 0x13D5 DUP2 PUSH2 0x139C JUMP JUMPDEST SWAP1 POP SWAP2 SWAP1 POP JUMP JUMPDEST PUSH32 0x4F72646572206D757374206265207061696420696E206F7264657220746F2072 PUSH0 DUP3 ADD MSTORE PUSH32 0x65636569766520746865207061796F7574000000000000000000000000000000 PUSH1 0x20 DUP3 ADD MSTORE POP JUMP JUMPDEST PUSH0 PUSH2 0x1436 PUSH1 0x31 DUP4 PUSH2 0xF0F JUMP JUMPDEST SWAP2 POP PUSH2 0x1441 DUP3 PUSH2 0x13DC JUMP JUMPDEST PUSH1 0x40 DUP3 ADD SWAP1 POP SWAP2 SWAP1 POP JUMP JUMPDEST PUSH0 PUSH1 0x20 DUP3 ADD SWAP1 POP DUP2 DUP2 SUB PUSH0 DUP4 ADD MSTORE PUSH2 0x1463 DUP2 PUSH2 0x142A JUMP JUMPDEST SWAP1 POP SWAP2 SWAP1 POP JUMP JUMPDEST PUSH32 0x43616E6E6F74207265636569766520746865207061796F7574206265666F7265 PUSH0 DUP3 ADD MSTORE PUSH32 0x2074686520646561646C696E6500000000000000000000000000000000000000 PUSH1 0x20 DUP3 ADD MSTORE POP JUMP JUMPDEST PUSH0 PUSH2 0x14C4 PUSH1 0x2D DUP4 PUSH2 0xF0F JUMP JUMPDEST SWAP2 POP PUSH2 0x14CF DUP3 PUSH2 0x146A JUMP JUMPDEST PUSH1 0x40 DUP3 ADD SWAP1 POP SWAP2 SWAP1 POP JUMP JUMPDEST PUSH0 PUSH1 0x20 DUP3 ADD SWAP1 POP DUP2 DUP2 SUB PUSH0 DUP4 ADD MSTORE PUSH2 0x14F1 DUP2 PUSH2 0x14B8 JUMP JUMPDEST SWAP1 POP SWAP2 SWAP1 POP JUMP JUMPDEST PUSH32 0x5061796F7574206661696C656400000000000000000000000000000000000000 PUSH0 DUP3 ADD MSTORE POP JUMP JUMPDEST PUSH0 PUSH2 0x152C PUSH1 0xD DUP4 PUSH2 0xF0F JUMP JUMPDEST SWAP2 POP PUSH2 0x1537 DUP3 PUSH2 0x14F8 JUMP JUMPDEST PUSH1 0x20 DUP3 ADD SWAP1 POP SWAP2 SWAP1 POP JUMP JUMPDEST PUSH0 PUSH1 0x20 DUP3 ADD SWAP1 POP DUP2 DUP2 SUB PUSH0 DUP4 ADD MSTORE PUSH2 0x1559 DUP2 PUSH2 0x1520 JUMP JUMPDEST SWAP1 POP SWAP2 SWAP1 POP JUMP JUMPDEST PUSH0 PUSH1 0x80 DUP3 ADD SWAP1 POP PUSH2 0x1573 PUSH0 DUP4 ADD DUP8 PUSH2 0x1105 JUMP JUMPDEST PUSH2 0x1580 PUSH1 0x20 DUP4 ADD DUP7 PUSH2 0xD97 JUMP JUMPDEST PUSH2 0x158D PUSH1 0x40 DUP4 ADD DUP6 PUSH2 0x1105 JUMP JUMPDEST PUSH2 0x159A PUSH1 0x60 DUP4 ADD DUP5 PUSH2 0x1105 JUMP JUMPDEST SWAP6 SWAP5 POP POP POP POP POP JUMP JUMPDEST PUSH0 PUSH1 0x40 DUP3 ADD SWAP1 POP PUSH2 0x15B6 PUSH0 DUP4 ADD DUP6 PUSH2 0x1105 JUMP JUMPDEST PUSH2 0x15C3 PUSH1 0x20 DUP4 ADD DUP5 PUSH2 0x1105 JUMP JUMPDEST SWAP4 SWAP3 POP POP POP JUMP JUMPDEST PUSH32 0x4F6E6C792062757965722063616E2073656E6420616E206F7264657200000000 PUSH0 DUP3 ADD MSTORE POP JUMP JUMPDEST PUSH0 PUSH2 0x15FE PUSH1 0x1C DUP4 PUSH2 0xF0F JUMP JUMPDEST SWAP2 POP PUSH2 0x1609 DUP3 PUSH2 0x15CA JUMP JUMPDEST PUSH1 0x20 DUP3 ADD SWAP1 POP SWAP2 SWAP1 POP JUMP JUMPDEST PUSH0 PUSH1 0x20 DUP3 ADD SWAP1 POP DUP2 DUP2 SUB PUSH0 DUP4 ADD MSTORE PUSH2 0x162B DUP2 PUSH2 0x15F2 JUMP JUMPDEST SWAP1 POP SWAP2 SWAP1 POP JUMP JUMPDEST PUSH32 0x4E487B7100000000000000000000000000000000000000000000000000000000 PUSH0 MSTORE PUSH1 0x11 PUSH1 0x4 MSTORE PUSH1 0x24 PUSH0 REVERT JUMPDEST PUSH0 PUSH2 0x1669 DUP3 PUSH2 0xDC7 JUMP JUMPDEST SWAP2 POP PUSH32 0xFFFFFFFFFFFFFFFFFFFFFFFFFFFFFFFFFFFFFFFFFFFFFFFFFFFFFFFFFFFFFFFF DUP3 SUB PUSH2 0x169B JUMPI PUSH2 0x169A PUSH2 0x1632 JUMP JUMPDEST JUMPDEST PUSH1 0x1 DUP3 ADD SWAP1 POP SWAP2 SWAP1 POP JUMP JUMPDEST PUSH0 DUP2 MLOAD SWAP1 POP SWAP2 SWAP1 POP JUMP JUMPDEST PUSH32 0x4E487B7100000000000000000000000000000000000000000000000000000000 PUSH0 MSTORE PUSH1 0x41 PUSH1 0x4 MSTORE PUSH1 0x24 PUSH0 REVERT JUMPDEST PUSH0 PUSH1 0x20 PUSH1 0x1F DUP4 ADD DIV SWAP1 POP SWAP2 SWAP1 POP JUMP JUMPDEST PUSH0 DUP3 DUP3 SHL SWAP1 POP SWAP3 SWAP2 POP POP JUMP JUMPDEST PUSH0 PUSH1 0x8 DUP4 MUL PUSH2 0x1727 PUSH32 0xFFFFFFFFFFFFFFFFFFFFFFFFFFFFFFFFFFFFFFFFFFFFFFFFFFFFFFFFFFFFFFFF DUP3 PUSH2 0x16EC JUMP JUMPDEST PUSH2 0x1731 DUP7 DUP4 PUSH2 0x16EC JUMP JUMPDEST SWAP6 POP DUP1 NOT DUP5 AND SWAP4 POP DUP1 DUP7 AND DUP5 OR SWAP3 POP POP POP SWAP4 SWAP3 POP POP POP JUMP JUMPDEST PUSH0 DUP2 SWAP1 POP SWAP2 SWAP1 POP JUMP JUMPDEST PUSH0 PUSH2 0x176C PUSH2 0x1767 PUSH2 0x1762 DUP5 PUSH2 0xDC7 JUMP JUMPDEST PUSH2 0x1749 JUMP JUMPDEST PUSH2 0xDC7 JUMP JUMPDEST SWAP1 POP SWAP2 SWAP1 POP JUMP JUMPDEST PUSH0 DUP2 SWAP1 POP SWAP2 SWAP1 POP JUMP JUMPDEST PUSH2 0x1785 DUP4 PUSH2 0x1752 JUMP JUMPDEST PUSH2 0x1799 PUSH2 0x1791 DUP3 PUSH2 0x1773 JUMP JUMPDEST DUP5 DUP5 SLOAD PUSH2 0x16F8 JUMP JUMPDEST DUP3 SSTORE POP POP POP POP JUMP JUMPDEST PUSH0 PUSH0 SWAP1 POP SWAP1 JUMP JUMPDEST PUSH2 0x17B0 PUSH2 0x17A1 JUMP JUMPDEST PUSH2 0x17BB DUP2 DUP5 DUP5 PUSH2 0x177C JUMP JUMPDEST POP POP POP JUMP JUMPDEST JUMPDEST DUP2 DUP2 LT ISZERO PUSH2 0x17DE JUMPI PUSH2 0x17D3 PUSH0 DUP3 PUSH2 0x17A8 JUMP JUMPDEST PUSH1 0x1 DUP2 ADD SWAP1 POP PUSH2 0x17C1 JUMP JUMPDEST POP POP JUMP JUMPDEST PUSH1 0x1F DUP3 GT ISZERO PUSH2 0x1823 JUMPI PUSH2 0x17F4 DUP2 PUSH2 0x1072 JUMP JUMPDEST PUSH2 0x17FD DUP5 PUSH2 0x16DD JUMP JUMPDEST DUP2 ADD PUSH1 0x20 DUP6 LT ISZERO PUSH2 0x180C JUMPI DUP2 SWAP1 POP JUMPDEST PUSH2 0x1820 PUSH2 0x1818 DUP6 PUSH2 0x16DD JUMP JUMPDEST DUP4 ADD DUP3 PUSH2 0x17C0 JUMP JUMPDEST POP POP JUMPDEST POP POP POP JUMP JUMPDEST PUSH0 DUP3 DUP3 SHR SWAP1 POP SWAP3 SWAP2 POP POP JUMP JUMPDEST PUSH0 PUSH2 0x1843 PUSH0 NOT DUP5 PUSH1 0x8 MUL PUSH2 0x1828 JUMP JUMPDEST NOT DUP1 DUP4 AND SWAP2 POP POP SWAP3 SWAP2 POP POP JUMP JUMPDEST PUSH0 PUSH2 0x185B DUP4 DUP4 PUSH2 0x1834 JUMP JUMPDEST SWAP2 POP DUP3 PUSH1 0x2 MUL DUP3 OR SWAP1 POP SWAP3 SWAP2 POP POP JUMP JUMPDEST PUSH2 0x1874 DUP3 PUSH2 0x16A6 JUMP JUMPDEST PUSH8 0xFFFFFFFFFFFFFFFF DUP2 GT ISZERO PUSH2 0x188D JUMPI PUSH2 0x188C PUSH2 0x16B0 JUMP JUMPDEST JUMPDEST PUSH2 0x1897 DUP3 SLOAD PUSH2 0xFDA JUMP JUMPDEST PUSH2 0x18A2 DUP3 DUP3 DUP6 PUSH2 0x17E2 JUMP JUMPDEST PUSH0 PUSH1 0x20 SWAP1 POP PUSH1 0x1F DUP4 GT PUSH1 0x1 DUP2 EQ PUSH2 0x18D3 JUMPI PUSH0 DUP5 ISZERO PUSH2 0x18C1 JUMPI DUP3 DUP8 ADD MLOAD SWAP1 POP JUMPDEST PUSH2 0x18CB DUP6 DUP3 PUSH2 0x1850 JUMP JUMPDEST DUP7 SSTORE POP PUSH2 0x1932 JUMP JUMPDEST PUSH1 0x1F NOT DUP5 AND PUSH2 0x18E1 DUP7 PUSH2 0x1072 JUMP JUMPDEST PUSH0 JUMPDEST DUP3 DUP2 LT ISZERO PUSH2 0x1908 JUMPI DUP5 DUP10 ADD MLOAD DUP3 SSTORE PUSH1 0x1 DUP3 ADD SWAP2 POP PUSH1 0x20 DUP6 ADD SWAP5 POP PUSH1 0x20 DUP2 ADD SWAP1 POP PUSH2 0x18E3 JUMP JUMPDEST DUP7 DUP4 LT ISZERO PUSH2 0x1925 JUMPI DUP5 DUP10 ADD MLOAD PUSH2 0x1921 PUSH1 0x1F DUP10 AND DUP3 PUSH2 0x1834 JUMP JUMPDEST DUP4 SSTORE POP JUMPDEST PUSH1 0x1 PUSH1 0x2 DUP9 MUL ADD DUP9 SSTORE POP POP POP JUMPDEST POP POP POP POP POP POP JUMP JUMPDEST DUP3 DUP2 DUP4 CALLDATACOPY PUSH0 DUP4 DUP4 ADD MSTORE POP POP POP JUMP JUMPDEST PUSH0 PUSH1 0x1F NOT PUSH1 0x1F DUP4 ADD AND SWAP1 POP SWAP2 SWAP1 POP JUMP JUMPDEST PUSH0 PUSH2 0x1963 DUP4 DUP6 PUSH2 0xF0F JUMP JUMPDEST SWAP4 POP PUSH2 0x1970 DUP4 DUP6 DUP5 PUSH2 0x193A JUMP JUMPDEST PUSH2 0x1979 DUP4 PUSH2 0x1948 JUMP JUMPDEST DUP5 ADD SWAP1 POP SWAP4 SWAP3 POP POP POP JUMP JUMPDEST PUSH0 PUSH1 0x60 DUP3 ADD SWAP1 POP PUSH2 0x1997 PUSH0 DUP4 ADD DUP8 PUSH2 0xD97 JUMP JUMPDEST DUP2 DUP2 SUB PUSH1 0x20 DUP4 ADD MSTORE PUSH2 0x19AA DUP2 DUP6 DUP8 PUSH2 0x1958 JUMP JUMPDEST SWAP1 POP PUSH2 0x19B9 PUSH1 0x40 DUP4 ADD DUP5 PUSH2 0x1105 JUMP JUMPDEST SWAP6 SWAP5 POP POP POP POP POP JUMP JUMPDEST PUSH32 0x4F6E6C792062757965722063616E2073656E642061207061796D656E74000000 PUSH0 DUP3 ADD MSTORE POP JUMP JUMPDEST PUSH0 PUSH2 0x19F6 PUSH1 0x1D DUP4 PUSH2 0xF0F JUMP JUMPDEST SWAP2 POP PUSH2 0x1A01 DUP3 PUSH2 0x19C2 JUMP JUMPDEST PUSH1 0x20 DUP3 ADD SWAP1 POP SWAP2 SWAP1 POP JUMP JUMPDEST PUSH0 PUSH1 0x20 DUP3 ADD SWAP1 POP DUP2 DUP2 SUB PUSH0 DUP4 ADD MSTORE PUSH2 0x1A23 DUP2 PUSH2 0x19EA JUMP JUMPDEST SWAP1 POP SWAP2 SWAP1 POP JUMP JUMPDEST PUSH32 0x4F72646572206D75737420626520636F6E6669726D6564206279207468652063 PUSH0 DUP3 ADD MSTORE PUSH32 0x726561746F7220696E206F7264657220746F2062652070616964000000000000 PUSH1 0x20 DUP3 ADD MSTORE POP JUMP JUMPDEST PUSH0 PUSH2 0x1A84 PUSH1 0x3A DUP4 PUSH2 0xF0F JUMP JUMPDEST SWAP2 POP PUSH2 0x1A8F DUP3 PUSH2 0x1A2A JUMP JUMPDEST PUSH1 0x40 DUP3 ADD SWAP1 POP SWAP2 SWAP1 POP JUMP JUMPDEST PUSH0 PUSH1 0x20 DUP3 ADD SWAP1 POP DUP2 DUP2 SUB PUSH0 DUP4 ADD MSTORE PUSH2 0x1AB1 DUP2 PUSH2 0x1A78 JUMP JUMPDEST SWAP1 POP SWAP2 SWAP1 POP JUMP JUMPDEST PUSH32 0x4F726465722077617320616C7265616479207061696420666F72000000000000 PUSH0 DUP3 ADD MSTORE POP JUMP JUMPDEST PUSH0 PUSH2 0x1AEC PUSH1 0x1A DUP4 PUSH2 0xF0F JUMP JUMPDEST SWAP2 POP PUSH2 0x1AF7 DUP3 PUSH2 0x1AB8 JUMP JUMPDEST PUSH1 0x20 DUP3 ADD SWAP1 POP SWAP2 SWAP1 POP JUMP JUMPDEST PUSH0 PUSH1 0x20 DUP3 ADD SWAP1 POP DUP2 DUP2 SUB PUSH0 DUP4 ADD MSTORE PUSH2 0x1B19 DUP2 PUSH2 0x1AE0 JUMP JUMPDEST SWAP1 POP SWAP2 SWAP1 POP JUMP JUMPDEST PUSH32 0x53656E6420746865206578616374207072696365000000000000000000000000 PUSH0 DUP3 ADD MSTORE POP JUMP JUMPDEST PUSH0 PUSH2 0x1B54 PUSH1 0x14 DUP4 PUSH2 0xF0F JUMP JUMPDEST SWAP2 POP PUSH2 0x1B5F DUP3 PUSH2 0x1B20 JUMP JUMPDEST PUSH1 0x20 DUP3 ADD SWAP1 POP SWAP2 SWAP1 POP JUMP JUMPDEST PUSH0 PUSH1 0x20 DUP3 ADD SWAP1 POP DUP2 DUP2 SUB PUSH0 DUP4 ADD MSTORE PUSH2 0x1B81 DUP2 PUSH2 0x1B48 JUMP JUMPDEST SWAP1 POP SWAP2 SWAP1 POP JUMP JUMPDEST PUSH0 PUSH1 0x80 DUP3 ADD SWAP1 POP PUSH2 0x1B9B PUSH0 DUP4 ADD DUP8 PUSH2 0xD97 JUMP JUMPDEST PUSH2 0x1BA8 PUSH1 0x20 DUP4 ADD DUP7 PUSH2 0x1105 JUMP JUMPDEST PUSH2 0x1BB5 PUSH1 0x40 DUP4 ADD DUP6 PUSH2 0x1105 JUMP JUMPDEST PUSH2 0x1BC2 PUSH1 0x60 DUP4 ADD DUP5 PUSH2 0x1105 JUMP JUMPDEST SWAP6 SWAP5 POP POP POP POP POP JUMP JUMPDEST PUSH0 PUSH2 0x1BD5 DUP3 PUSH2 0xDC7 JUMP JUMPDEST SWAP2 POP PUSH2 0x1BE0 DUP4 PUSH2 0xDC7 JUMP JUMPDEST SWAP3 POP DUP3 DUP3 ADD SWAP1 POP DUP1 DUP3 GT ISZERO PUSH2 0x1BF8 JUMPI PUSH2 0x1BF7 PUSH2 0x1632 JUMP JUMPDEST JUMPDEST SWAP3 SWAP2 POP POP JUMP JUMPDEST PUSH0 PUSH1 0x60 DUP3 ADD SWAP1 POP PUSH2 0x1C11 PUSH0 DUP4 ADD DUP7 PUSH2 0x1105 JUMP JUMPDEST PUSH2 0x1C1E PUSH1 0x20 DUP4 ADD DUP6 PUSH2 0x1105 JUMP JUMPDEST PUSH2 0x1C2B PUSH1 0x40 DUP4 ADD DUP5 PUSH2 0x1105 JUMP JUMPDEST SWAP5 SWAP4 POP POP POP POP JUMP INVALID LOG2 PUSH5 0x6970667358 0x22 SLT KECCAK256 PUSH0 DUP10 RETURN CALLER 0xC9 PUSH30 0xB98CBC22A50C91927050FA92559727E78926AE622AFF04AD25A64736F6C PUSH4 0x4300081F STOP CALLER "
				},
				"gasEstimates": {
					"creation": {
						"codeDepositCost": "1454600",
						"executionCost": "infinite",
						"totalCost": "infinite"
					},
					"external": {
						"ConfirmOrder(uint256,uint256)": "infinite",
						"Payout(uint256)": "infinite",
						"ReturnProduct(uint256)": "infinite",
						"SendPayment(uint256)": "infinite",
						"buyer()": "2552",
						"creator()": "2508",
						"sendOrder(string)": "infinite"
					}
				},
				"methodIdentifiers": {
					"ConfirmOrder(uint256,uint256)": "034684e6",
					"Payout(uint256)": "22427047",
					"ReturnProduct(uint256)": "03c17a38",
					"SendPayment(uint256)": "95787d26",
					"buyer()": "7150d8ae",
					"creator()": "02d05d3f",
					"sendOrder(string)": "25fcba48"
				}
			},
			"storageLayout": {
				"storage": [
					{
						"astId": 3,
						"contract": "Deal.sol:Deal",
						"label": "creator",
						"offset": 0,
						"slot": "0",
						"type": "t_address"
					},
					{
						"astId": 5,
						"contract": "Deal.sol:Deal",
						"label": "buyer",
						"offset": 0,
						"slot": "1",
						"type": "t_address"
					},
					{
						"astId": 8,
						"contract": "Deal.sol:Deal",
						"label": "timer",
						"offset": 0,
						"slot": "2",
						"type": "t_uint256"
					},
					{
						"astId": 26,
						"contract": "Deal.sol:Deal",
						"label": "orders",
						"offset": 0,
						"slot": "3",
						"type": "t_mapping(t_uint256,t_struct(Order)21_storage)"
					},
					{
						"astId": 28,
						"contract": "Deal.sol:Deal",
						"label": "orderseq",
						"offset": 0,
						"slot": "4",
						"type": "t_uint256"
					}
				],
				"types": {
					"t_address": {
						"encoding": "inplace",
						"label": "address",
						"numberOfBytes": "20"
					},
					"t_bool": {
						"encoding": "inplace",
						"label": "bool",
						"numberOfBytes": "1"
					},
					"t_mapping(t_uint256,t_struct(Order)21_storage)": {
						"encoding": "mapping",
						"key": "t_uint256",
						"label": "mapping(uint256 => struct Deal.Order)",
						"numberOfBytes": "32",
						"value": "t_struct(Order)21_storage"
					},
					"t_string_storage": {
						"encoding": "bytes",
						"label": "string",
						"numberOfBytes": "32"
					},
					"t_struct(Order)21_storage": {
						"encoding": "inplace",
						"label": "struct Deal.Order",
						"members": [
							{
								"astId": 10,
								"contract": "Deal.sol:Deal",
								"label": "game",
								"offset": 0,
								"slot": "0",
								"type": "t_string_storage"
							},
							{
								"astId": 12,
								"contract": "Deal.sol:Deal",
								"label": "price",
								"offset": 0,
								"slot": "1",
								"type": "t_uint256"
							},
							{
								"astId": 14,
								"contract": "Deal.sol:Deal",
								"label": "date",
								"offset": 0,
								"slot": "2",
								"type": "t_uint256"
							},
							{
								"astId": 16,
								"contract": "Deal.sol:Deal",
								"label": "confirmed",
								"offset": 0,
								"slot": "3",
								"type": "t_bool"
							},
							{
								"astId": 18,
								"contract": "Deal.sol:Deal",
								"label": "paid",
								"offset": 1,
								"slot": "3",
								"type": "t_bool"
							},
							{
								"astId": 20,
								"contract": "Deal.sol:Deal",
								"label": "refundDeadline",
								"offset": 0,
								"slot": "4",
								"type": "t_uint256"
							}
						],
						"numberOfBytes": "160"
					},
					"t_uint256": {
						"encoding": "inplace",
						"label": "uint256",
						"numberOfBytes": "32"
					}
				}
			},
			"userdoc": {
				"kind": "user",
				"methods": {},
				"version": 1
			}
		}
	}
}